{"abi":[{"type":"constructor","inputs":[{"name":"_owner","type":"address","internalType":"address"}],"stateMutability":"nonpayable"},{"type":"function","name":"OWNER","inputs":[],"outputs":[{"name":"","type":"address","internalType":"address"}],"stateMutability":"view"}],"bytecode":{"object":"0x60a03461006857601f61011f38819003918201601f19168301916001600160401b0383118484101761006c5780849260209460405283398101031261006857516001600160a01b038116810361006857608052604051609e908161008182396080518160350152f35b5f80fd5b634e487b7160e01b5f52604160045260245ffdfe60808060405260043610156011575f80fd5b5f90813560e01c63117803e3146025575f80fd5b34606457816003193601126064577f00000000000000000000000000000000000000000000000000000000000000006001600160a01b03168152602090f35b5080fdfea2646970667358221220df67510dc763c97a4c54a019bbd4b90a574f75ca486360db5012b946cc7a017a64736f6c63430008140033","linkReferences":{}},"methodIdentifiers":{"OWNER()":"117803e3"},"id":2}