{"abi":[{"type":"constructor","inputs":[{"name":"usdc","type":"address","internalType":"address"}],"stateMutability":"nonpayable"},{"type":"function","name":"USDC","inputs":[],"outputs":[{"name":"","type":"address","internalType":"contract IERC20"}],"stateMutability":"view"},{"type":"function","name":"borrow","inputs":[{"name":"amount","type":"uint256","internalType":"uint256"}],"outputs":[{"name":"","type":"uint256","internalType":"uint256"}],"stateMutability":"nonpayable"},{"type":"function","name":"debt","inputs":[{"name":"","type":"address","internalType":"address"}],"outputs":[{"name":"","type":"uint256","internalType":"uint256"}],"stateMutability":"view"},{"type":"function","name":"repay","inputs":[{"name":"amount","type":"uint256","internalType":"uint256"}],"outputs":[],"stateMutability":"nonpayable"}],"bytecode":{"object":"0x60a060405234801561000f575f80fd5b5060405161073b38038061073b833981810160405281019061003191906100c9565b8073ffffffffffffffffffffffffffffffffffffffff1660808173ffffffffffffffffffffffffffffffffffffffff1681525050506100f4565b5f80fd5b5f73ffffffffffffffffffffffffffffffffffffffff82169050919050565b5f6100988261006f565b9050919050565b6100a88161008e565b81146100b2575f80fd5b50565b5f815190506100c38161009f565b92915050565b5f602082840312156100de576100dd61006b565b5b5f6100eb848285016100b5565b91505092915050565b60805161062161011a5f395f818161013c015281816101dd015261026801526106215ff3fe608060405234801561000f575f80fd5b506004361061004a575f3560e01c8063371fd8e61461004e57806389a302711461006a5780639b6c56ec14610088578063c5ebeaec146100b8575b5f80fd5b61006860048036038101906100639190610341565b6100e8565b005b6100726101db565b60405161007f91906103e6565b60405180910390f35b6100a2600480360381019061009d919061043a565b6101ff565b6040516100af9190610474565b60405180910390f35b6100d260048036038101906100cd9190610341565b610213565b6040516100df9190610474565b60405180910390f35b805f803373ffffffffffffffffffffffffffffffffffffffff1673ffffffffffffffffffffffffffffffffffffffff1681526020019081526020015f205f82825461013391906104ba565b925050819055507f000000000000000000000000000000000000000000000000000000000000000073ffffffffffffffffffffffffffffffffffffffff166323b872dd3330846040518463ffffffff1660e01b8152600401610197939291906104fc565b6020604051808303815f875af11580156101b3573d5f803e3d5ffd5b505050506040513d601f19601f820116820180604052508101906101d79190610566565b5050565b7f000000000000000000000000000000000000000000000000000000000000000081565b5f602052805f5260405f205f915090505481565b5f815f803373ffffffffffffffffffffffffffffffffffffffff1673ffffffffffffffffffffffffffffffffffffffff1681526020019081526020015f205f82825461025f9190610591565b925050819055507f000000000000000000000000000000000000000000000000000000000000000073ffffffffffffffffffffffffffffffffffffffff1663a9059cbb33846040518363ffffffff1660e01b81526004016102c19291906105c4565b6020604051808303815f875af11580156102dd573d5f803e3d5ffd5b505050506040513d601f19601f820116820180604052508101906103019190610566565b505f9050919050565b5f80fd5b5f819050919050565b6103208161030e565b811461032a575f80fd5b50565b5f8135905061033b81610317565b92915050565b5f602082840312156103565761035561030a565b5b5f6103638482850161032d565b91505092915050565b5f73ffffffffffffffffffffffffffffffffffffffff82169050919050565b5f819050919050565b5f6103ae6103a96103a48461036c565b61038b565b61036c565b9050919050565b5f6103bf82610394565b9050919050565b5f6103d0826103b5565b9050919050565b6103e0816103c6565b82525050565b5f6020820190506103f95f8301846103d7565b92915050565b5f6104098261036c565b9050919050565b610419816103ff565b8114610423575f80fd5b50565b5f8135905061043481610410565b92915050565b5f6020828403121561044f5761044e61030a565b5b5f61045c84828501610426565b91505092915050565b61046e8161030e565b82525050565b5f6020820190506104875f830184610465565b92915050565b7f4e487b71000000000000000000000000000000000000000000000000000000005f52601160045260245ffd5b5f6104c48261030e565b91506104cf8361030e565b92508282039050818111156104e7576104e661048d565b5b92915050565b6104f6816103ff565b82525050565b5f60608201905061050f5f8301866104ed565b61051c60208301856104ed565b6105296040830184610465565b949350505050565b5f8115159050919050565b61054581610531565b811461054f575f80fd5b50565b5f815190506105608161053c565b92915050565b5f6020828403121561057b5761057a61030a565b5b5f61058884828501610552565b91505092915050565b5f61059b8261030e565b91506105a68361030e565b92508282019050808211156105be576105bd61048d565b5b92915050565b5f6040820190506105d75f8301856104ed565b6105e46020830184610465565b939250505056fea2646970667358221220d8ceaec3ba76b32177703e76391466ed4a79cb3f7ede4f534b7dfa3d6f306ce264736f6c63430008140033","linkReferences":{}},"methodIdentifiers":{"USDC()":"89a30271","borrow(uint256)":"c5ebeaec","debt(address)":"9b6c56ec","repay(uint256)":"371fd8e6"},"id":40}