{"abi":[{"type":"function","name":"borrow","inputs":[{"name":"amount","type":"uint256","internalType":"uint256"}],"outputs":[],"stateMutability":"nonpayable"},{"type":"function","name":"debt","inputs":[{"name":"","type":"address","internalType":"address"}],"outputs":[{"name":"","type":"uint256","internalType":"uint256"}],"stateMutability":"view"},{"type":"function","name":"repay","inputs":[{"name":"amount","type":"uint256","internalType":"uint256"}],"outputs":[],"stateMutability":"nonpayable"}],"bytecode":{"object":"0x608060405234801561000f575f80fd5b506103418061001d5f395ff3fe608060405234801561000f575f80fd5b506004361061003f575f3560e01c8063371fd8e6146100435780639b6c56ec1461005f578063c5ebeaec1461008f575b5f80fd5b61005d600480360381019061005891906101a0565b6100ab565b005b61007960048036038101906100749190610225565b610100565b604051610086919061025f565b60405180910390f35b6100a960048036038101906100a491906101a0565b610114565b005b805f803373ffffffffffffffffffffffffffffffffffffffff1673ffffffffffffffffffffffffffffffffffffffff1681526020019081526020015f205f8282546100f691906102a5565b9250508190555050565b5f602052805f5260405f205f915090505481565b805f803373ffffffffffffffffffffffffffffffffffffffff1673ffffffffffffffffffffffffffffffffffffffff1681526020019081526020015f205f82825461015f91906102d8565b9250508190555050565b5f80fd5b5f819050919050565b61017f8161016d565b8114610189575f80fd5b50565b5f8135905061019a81610176565b92915050565b5f602082840312156101b5576101b4610169565b5b5f6101c28482850161018c565b91505092915050565b5f73ffffffffffffffffffffffffffffffffffffffff82169050919050565b5f6101f4826101cb565b9050919050565b610204816101ea565b811461020e575f80fd5b50565b5f8135905061021f816101fb565b92915050565b5f6020828403121561023a57610239610169565b5b5f61024784828501610211565b91505092915050565b6102598161016d565b82525050565b5f6020820190506102725f830184610250565b92915050565b7f4e487b71000000000000000000000000000000000000000000000000000000005f52601160045260245ffd5b5f6102af8261016d565b91506102ba8361016d565b92508282039050818111156102d2576102d1610278565b5b92915050565b5f6102e28261016d565b91506102ed8361016d565b925082820190508082111561030557610304610278565b5b9291505056fea26469706673582212204bea3ce4f291f8a81f9a7f287c284f21c51eda17ab7d3bd5123e74052c6adb0464736f6c63430008140033","linkReferences":{}},"methodIdentifiers":{"borrow(uint256)":"c5ebeaec","debt(address)":"9b6c56ec","repay(uint256)":"371fd8e6"},"id":51}