{
  "abi": [
    {
      "type": "constructor",
      "inputs": [
        {
          "name": "_token",
          "type": "address",
          "internalType": "address"
        },
        {
          "name": "_claimAmount",
          "type": "uint256",
          "internalType": "uint256"
        },
        {
          "name": "_cooldownSeconds",
          "type": "uint256",
          "internalType": "uint256"
        }
      ],
      "stateMutability": "nonpayable"
    },
    {
      "type": "function",
      "name": "claim",
      "inputs": [],
      "outputs": [],
      "stateMutability": "nonpayable"
    },
    {
      "type": "function",
      "name": "claimAmount",
      "inputs": [],
      "outputs": [
        {
          "name": "",
          "type": "uint256",
          "internalType": "uint256"
        }
      ],
      "stateMutability": "view"
    },
    {
      "type": "function",
      "name": "cooldownSeconds",
      "inputs": [],
      "outputs": [
        {
          "name": "",
          "type": "uint256",
          "internalType": "uint256"
        }
      ],
      "stateMutability": "view"
    },
    {
      "type": "function",
      "name": "lastClaimAt",
      "inputs": [
        {
          "name": "",
          "type": "address",
          "internalType": "address"
        }
      ],
      "outputs": [
        {
          "name": "",
          "type": "uint256",
          "internalType": "uint256"
        }
      ],
      "stateMutability": "view"
    },
    {
      "type": "function",
      "name": "owner",
      "inputs": [],
      "outputs": [
        {
          "name": "",
          "type": "address",
          "internalType": "address"
        }
      ],
      "stateMutability": "view"
    },
    {
      "type": "function",
      "name": "setParams",
      "inputs": [
        {
          "name": "_claimAmount",
          "type": "uint256",
          "internalType": "uint256"
        },
        {
          "name": "_cooldownSeconds",
          "type": "uint256",
          "internalType": "uint256"
        }
      ],
      "outputs": [],
      "stateMutability": "nonpayable"
    },
    {
      "type": "function",
      "name": "setToken",
      "inputs": [
        {
          "name": "_token",
          "type": "address",
          "internalType": "address"
        }
      ],
      "outputs": [],
      "stateMutability": "nonpayable"
    },
    {
      "type": "function",
      "name": "token",
      "inputs": [],
      "outputs": [
        {
          "name": "",
          "type": "address",
          "internalType": "address"
        }
      ],
      "stateMutability": "view"
    },
    {
      "type": "function",
      "name": "tokenDecimals",
      "inputs": [],
      "outputs": [
        {
          "name": "",
          "type": "uint8",
          "internalType": "uint8"
        }
      ],
      "stateMutability": "view"
    },
    {
      "type": "function",
      "name": "tokenSymbol",
      "inputs": [],
      "outputs": [
        {
          "name": "",
          "type": "string",
          "internalType": "string"
        }
      ],
      "stateMutability": "view"
    },
    {
      "type": "event",
      "name": "Claimed",
      "inputs": [
        {
          "name": "user",
          "type": "address",
          "indexed": true,
          "internalType": "address"
        },
        {
          "name": "amount",
          "type": "uint256",
          "indexed": false,
          "internalType": "uint256"
        }
      ],
      "anonymous": false
    },
    {
      "type": "event",
      "name": "ParamsSet",
      "inputs": [
        {
          "name": "claimAmount",
          "type": "uint256",
          "indexed": false,
          "internalType": "uint256"
        },
        {
          "name": "cooldownSeconds",
          "type": "uint256",
          "indexed": false,
          "internalType": "uint256"
        }
      ],
      "anonymous": false
    },
    {
      "type": "event",
      "name": "TokenSet",
      "inputs": [
        {
          "name": "token",
          "type": "address",
          "indexed": true,
          "internalType": "address"
        }
      ],
      "anonymous": false
    }
  ],
  "bytecode": {
    "object": "0x6080346100e157601f6106d638819003918201601f19168301916001600160401b038311848410176100e5578084926060946040528339810103126100e15780516001600160a01b03811691908290036100e1577f3d5244a9b2f415f6ebc57f5d8ca058f82b1561d1cbf0c010ab3e4a8773c1f6b591816040602081940151910151908260018060a01b031933815f5416175f55600154161760015580600255816003558351927fa07c91c183e42229e705a9795a1c06d76528b673788b849597364528c96eefb75f80a282526020820152a16040516105dc90816100fa8239f35b5f80fd5b634e487b7160e01b5f52604160045260245ffdfe6080604081815260049182361015610015575f80fd5b5f92833560e01c91826303822d3b146104e157508163144fa6d7146104735781633b97e856146103d65781634e71d92d146102a85781637b61c32014610188578163830953ab146101695781638da5cb5b14610141578163b8221bc414610122578163c0324c77146100bb575063fc0c546a14610090575f80fd5b346100b757816003193601126100b75760015490516001600160a01b039091168152602090f35b5080fd5b9190503461011e578060031936011261011e577f3d5244a9b2f415f6ebc57f5d8ca058f82b1561d1cbf0c010ab3e4a8773c1f6b5913560243561010860018060a01b038654163314610537565b816002558060035582519182526020820152a180f35b8280fd5b5050346100b757816003193601126100b7576020906003549051908152f35b5050346100b757816003193601126100b757905490516001600160a01b039091168152602090f35b5050346100b757816003193601126100b7576020906002549051908152f35b82843461028857806003193601126102885760015482516395d89b4160e01b81529082908290869082906001600160a01b03165afa93841561029e5782946101fd575b50505080518092602082526101ef8151809281602086015260208686019101610516565b601f01601f19168101030190f35b90919293503d8084843e6102118184610570565b82019260208385031261028857825167ffffffffffffffff9384821161011e57019184601f840112156100b757825193841161028b575084519361025f601f8501601f191660200186610570565b8385526020848401011161028857509061027f9160208085019101610516565b908280806101cb565b80fd5b634e487b7160e01b825260419052602490fd5b83513d84823e3d90fd5b839150346100b757816003193601126100b757338252806020528282205460035481018091116103c35742106103955733825280602052428383205560018060a01b0360015416600254813b156103915783929160448492875195869384926340c10f1960e01b8452338885015260248401525af180156103875761035b575b828460025490519081527fd8138f8a3f377c5259ca548e70e4c2de94f129f5a11036a15b69513cba2b426a60203392a280f35b67ffffffffffffffff8211610374575082528280610328565b634e487b7160e01b835260419052602482fd5b84513d85823e3d90fd5b8380fd5b606490602084519162461bcd60e51b8352820152600860248201526721a7a7a62227aba760c11b6044820152fd5b634e487b7160e01b835260118252602483fd5b828434610288578060031936011261028857600154825163313ce56760e01b81529360209185919082906001600160a01b03165afa928315610467578193610426575b60208460ff855191168152f35b9092506020813d821161045f575b8161044160209383610570565b8101031261011e57519160ff83168303610288575060ff6020610419565b3d9150610434565b509051903d90823e3d90fd5b8390346100b75760203660031901126100b757356001600160a01b038181169182900361011e576104a8908354163314610537565b600180546001600160a01b031916821790557fa07c91c183e42229e705a9795a1c06d76528b673788b849597364528c96eefb78280a280f35b8385346102885760203660031901126102885783356001600160a01b03811694908590036100b7576020948252845220548152f35b5f5b8381106105275750505f910152565b8181015183820152602001610518565b1561053e57565b60405162461bcd60e51b815260206004820152600a60248201526927a7262cafa7aba722a960b11b6044820152606490fd5b90601f8019910116810190811067ffffffffffffffff82111761059257604052565b634e487b7160e01b5f52604160045260245ffdfea2646970667358221220d564f5a411fc803c0f1e99a290ff34c8c65c8ebaac03f41e018db5db42f76b9b64736f6c63430008140033",
    "linkReferences": {}
  },
  "methodIdentifiers": {
    "claim()": "4e71d92d",
    "claimAmount()": "830953ab",
    "cooldownSeconds()": "b8221bc4",
    "lastClaimAt(address)": "03822d3b",
    "owner()": "8da5cb5b",
    "setParams(uint256,uint256)": "c0324c77",
    "setToken(address)": "144fa6d7",
    "token()": "fc0c546a",
    "tokenDecimals()": "3b97e856",
    "tokenSymbol()": "7b61c320"
  },
  "id": 5
}