{"abi":[{"type":"constructor","inputs":[{"name":"_token","type":"address","internalType":"address"},{"name":"_claimAmount","type":"uint256","internalType":"uint256"},{"name":"_cooldownSeconds","type":"uint256","internalType":"uint256"}],"stateMutability":"nonpayable"},{"type":"function","name":"claim","inputs":[],"outputs":[],"stateMutability":"nonpayable"},{"type":"function","name":"claimAmount","inputs":[],"outputs":[{"name":"","type":"uint256","internalType":"uint256"}],"stateMutability":"view"},{"type":"function","name":"cooldownSeconds","inputs":[],"outputs":[{"name":"","type":"uint256","internalType":"uint256"}],"stateMutability":"view"},{"type":"function","name":"lastClaimAt","inputs":[{"name":"","type":"address","internalType":"address"}],"outputs":[{"name":"","type":"uint256","internalType":"uint256"}],"stateMutability":"view"},{"type":"function","name":"owner","inputs":[],"outputs":[{"name":"","type":"address","internalType":"address"}],"stateMutability":"view"},{"type":"function","name":"setParams","inputs":[{"name":"_claimAmount","type":"uint256","internalType":"uint256"},{"name":"_cooldownSeconds","type":"uint256","internalType":"uint256"}],"outputs":[],"stateMutability":"nonpayable"},{"type":"function","name":"setToken","inputs":[{"name":"_token","type":"address","internalType":"address"}],"outputs":[],"stateMutability":"nonpayable"},{"type":"function","name":"token","inputs":[],"outputs":[{"name":"","type":"address","internalType":"address"}],"stateMutability":"view"},{"type":"function","name":"tokenDecimals","inputs":[],"outputs":[{"name":"","type":"uint8","internalType":"uint8"}],"stateMutability":"view"},{"type":"function","name":"tokenSymbol","inputs":[],"outputs":[{"name":"","type":"string","internalType":"string"}],"stateMutability":"view"},{"type":"event","name":"Claimed","inputs":[{"name":"user","type":"address","indexed":true,"internalType":"address"},{"name":"amount","type":"uint256","indexed":false,"internalType":"uint256"}],"anonymous":false},{"type":"event","name":"ParamsSet","inputs":[{"name":"claimAmount","type":"uint256","indexed":false,"internalType":"uint256"},{"name":"cooldownSeconds","type":"uint256","indexed":false,"internalType":"uint256"}],"anonymous":false},{"type":"event","name":"TokenSet","inputs":[{"name":"token","type":"address","indexed":true,"internalType":"address"}],"anonymous":false}],"bytecode":{"object":"0x608060405234801562000010575f80fd5b5060405162000f2438038062000f248339818101604052810190620000369190620001e7565b335f806101000a81548173ffffffffffffffffffffffffffffffffffffffff021916908373ffffffffffffffffffffffffffffffffffffffff1602179055508260015f6101000a81548173ffffffffffffffffffffffffffffffffffffffff021916908373ffffffffffffffffffffffffffffffffffffffff16021790555081600281905550806003819055508273ffffffffffffffffffffffffffffffffffffffff167fa07c91c183e42229e705a9795a1c06d76528b673788b849597364528c96eefb760405160405180910390a27f3d5244a9b2f415f6ebc57f5d8ca058f82b1561d1cbf0c010ab3e4a8773c1f6b582826040516200013992919062000251565b60405180910390a15050506200027c565b5f80fd5b5f73ffffffffffffffffffffffffffffffffffffffff82169050919050565b5f62000179826200014e565b9050919050565b6200018b816200016d565b811462000196575f80fd5b50565b5f81519050620001a98162000180565b92915050565b5f819050919050565b620001c381620001af565b8114620001ce575f80fd5b50565b5f81519050620001e181620001b8565b92915050565b5f805f606084860312156200020157620002006200014a565b5b5f620002108682870162000199565b93505060206200022386828701620001d1565b92505060406200023686828701620001d1565b9150509250925092565b6200024b81620001af565b82525050565b5f604082019050620002665f83018562000240565b62000275602083018462000240565b9392505050565b610c9a806200028a5f395ff3fe608060405234801561000f575f80fd5b506004361061009c575f3560e01c8063830953ab11610064578063830953ab146101325780638da5cb5b14610150578063b8221bc41461016e578063c0324c771461018c578063fc0c546a146101a85761009c565b806303822d3b146100a0578063144fa6d7146100d05780633b97e856146100ec5780634e71d92d1461010a5780637b61c32014610114575b5f80fd5b6100ba60048036038101906100b59190610762565b6101c6565b6040516100c791906107a5565b60405180910390f35b6100ea60048036038101906100e59190610762565b6101db565b005b6100f46102ee565b60405161010191906107d9565b60405180910390f35b610112610382565b005b61011c610533565b604051610129919061087c565b60405180910390f35b61013a6105cb565b60405161014791906107a5565b60405180910390f35b6101586105d1565b60405161016591906108ab565b60405180910390f35b6101766105f4565b60405161018391906107a5565b60405180910390f35b6101a660048036038101906101a191906108ee565b6105fa565b005b6101b06106d2565b6040516101bd91906108ab565b60405180910390f35b6004602052805f5260405f205f915090505481565b5f8054906101000a900473ffffffffffffffffffffffffffffffffffffffff1673ffffffffffffffffffffffffffffffffffffffff163373ffffffffffffffffffffffffffffffffffffffff1614610268576040517f08c379a000000000000000000000000000000000000000000000000000000000815260040161025f90610976565b60405180910390fd5b8060015f6101000a81548173ffffffffffffffffffffffffffffffffffffffff021916908373ffffffffffffffffffffffffffffffffffffffff1602179055508073ffffffffffffffffffffffffffffffffffffffff167fa07c91c183e42229e705a9795a1c06d76528b673788b849597364528c96eefb760405160405180910390a250565b5f60015f9054906101000a900473ffffffffffffffffffffffffffffffffffffffff1673ffffffffffffffffffffffffffffffffffffffff1663313ce5676040518163ffffffff1660e01b8152600401602060405180830381865afa158015610359573d5f803e3d5ffd5b505050506040513d601f19601f8201168201806040525081019061037d91906109be565b905090565b5f60045f3373ffffffffffffffffffffffffffffffffffffffff1673ffffffffffffffffffffffffffffffffffffffff1681526020019081526020015f20549050600354816103d19190610a16565b421015610413576040517f08c379a000000000000000000000000000000000000000000000000000000000815260040161040a90610a93565b60405180910390fd5b4260045f3373ffffffffffffffffffffffffffffffffffffffff1673ffffffffffffffffffffffffffffffffffffffff1681526020019081526020015f208190555060015f9054906101000a900473ffffffffffffffffffffffffffffffffffffffff1673ffffffffffffffffffffffffffffffffffffffff166340c10f19336002546040518363ffffffff1660e01b81526004016104b3929190610ab1565b5f604051808303815f87803b1580156104ca575f80fd5b505af11580156104dc573d5f803e3d5ffd5b505050503373ffffffffffffffffffffffffffffffffffffffff167fd8138f8a3f377c5259ca548e70e4c2de94f129f5a11036a15b69513cba2b426a60025460405161052891906107a5565b60405180910390a250565b606060015f9054906101000a900473ffffffffffffffffffffffffffffffffffffffff1673ffffffffffffffffffffffffffffffffffffffff166395d89b416040518163ffffffff1660e01b81526004015f60405180830381865afa15801561059e573d5f803e3d5ffd5b505050506040513d5f823e3d601f19601f820116820180604052508101906105c69190610bf6565b905090565b60025481565b5f8054906101000a900473ffffffffffffffffffffffffffffffffffffffff1681565b60035481565b5f8054906101000a900473ffffffffffffffffffffffffffffffffffffffff1673ffffffffffffffffffffffffffffffffffffffff163373ffffffffffffffffffffffffffffffffffffffff1614610687576040517f08c379a000000000000000000000000000000000000000000000000000000000815260040161067e90610976565b60405180910390fd5b81600281905550806003819055507f3d5244a9b2f415f6ebc57f5d8ca058f82b1561d1cbf0c010ab3e4a8773c1f6b582826040516106c6929190610c3d565b60405180910390a15050565b60015f9054906101000a900473ffffffffffffffffffffffffffffffffffffffff1681565b5f604051905090565b5f80fd5b5f80fd5b5f73ffffffffffffffffffffffffffffffffffffffff82169050919050565b5f61073182610708565b9050919050565b61074181610727565b811461074b575f80fd5b50565b5f8135905061075c81610738565b92915050565b5f6020828403121561077757610776610700565b5b5f6107848482850161074e565b91505092915050565b5f819050919050565b61079f8161078d565b82525050565b5f6020820190506107b85f830184610796565b92915050565b5f60ff82169050919050565b6107d3816107be565b82525050565b5f6020820190506107ec5f8301846107ca565b92915050565b5f81519050919050565b5f82825260208201905092915050565b5f5b8381101561082957808201518184015260208101905061080e565b5f8484015250505050565b5f601f19601f8301169050919050565b5f61084e826107f2565b61085881856107fc565b935061086881856020860161080c565b61087181610834565b840191505092915050565b5f6020820190508181035f8301526108948184610844565b905092915050565b6108a581610727565b82525050565b5f6020820190506108be5f83018461089c565b92915050565b6108cd8161078d565b81146108d7575f80fd5b50565b5f813590506108e8816108c4565b92915050565b5f806040838503121561090457610903610700565b5b5f610911858286016108da565b9250506020610922858286016108da565b9150509250929050565b7f4f4e4c595f4f574e4552000000000000000000000000000000000000000000005f82015250565b5f610960600a836107fc565b915061096b8261092c565b602082019050919050565b5f6020820190508181035f83015261098d81610954565b9050919050565b61099d816107be565b81146109a7575f80fd5b50565b5f815190506109b881610994565b92915050565b5f602082840312156109d3576109d2610700565b5b5f6109e0848285016109aa565b91505092915050565b7f4e487b71000000000000000000000000000000000000000000000000000000005f52601160045260245ffd5b5f610a208261078d565b9150610a2b8361078d565b9250828201905080821115610a4357610a426109e9565b5b92915050565b7f434f4f4c444f574e0000000000000000000000000000000000000000000000005f82015250565b5f610a7d6008836107fc565b9150610a8882610a49565b602082019050919050565b5f6020820190508181035f830152610aaa81610a71565b9050919050565b5f604082019050610ac45f83018561089c565b610ad16020830184610796565b9392505050565b5f80fd5b5f80fd5b7f4e487b71000000000000000000000000000000000000000000000000000000005f52604160045260245ffd5b610b1682610834565b810181811067ffffffffffffffff82111715610b3557610b34610ae0565b5b80604052505050565b5f610b476106f7565b9050610b538282610b0d565b919050565b5f67ffffffffffffffff821115610b7257610b71610ae0565b5b610b7b82610834565b9050602081019050919050565b5f610b9a610b9584610b58565b610b3e565b905082815260208101848484011115610bb657610bb5610adc565b5b610bc184828561080c565b509392505050565b5f82601f830112610bdd57610bdc610ad8565b5b8151610bed848260208601610b88565b91505092915050565b5f60208284031215610c0b57610c0a610700565b5b5f82015167ffffffffffffffff811115610c2857610c27610704565b5b610c3484828501610bc9565b91505092915050565b5f604082019050610c505f830185610796565b610c5d6020830184610796565b939250505056fea26469706673582212201e70ba29633316b64a8a6405521987f5df301f3cd60242848d2581365e96978f64736f6c63430008140033","linkReferences":{}},"methodIdentifiers":{"claim()":"4e71d92d","claimAmount()":"830953ab","cooldownSeconds()":"b8221bc4","lastClaimAt(address)":"03822d3b","owner()":"8da5cb5b","setParams(uint256,uint256)":"c0324c77","setToken(address)":"144fa6d7","token()":"fc0c546a","tokenDecimals()":"3b97e856","tokenSymbol()":"7b61c320"},"id":5}