{"abi":[{"type":"constructor","inputs":[],"stateMutability":"nonpayable"},{"type":"function","name":"allowance","inputs":[{"name":"owner","type":"address","internalType":"address"},{"name":"spender","type":"address","internalType":"address"}],"outputs":[{"name":"","type":"uint256","internalType":"uint256"}],"stateMutability":"view"},{"type":"function","name":"approve","inputs":[{"name":"spender","type":"address","internalType":"address"},{"name":"value","type":"uint256","internalType":"uint256"}],"outputs":[{"name":"","type":"bool","internalType":"bool"}],"stateMutability":"nonpayable"},{"type":"function","name":"balanceOf","inputs":[{"name":"account","type":"address","internalType":"address"}],"outputs":[{"name":"","type":"uint256","internalType":"uint256"}],"stateMutability":"view"},{"type":"function","name":"decimals","inputs":[],"outputs":[{"name":"","type":"uint8","internalType":"uint8"}],"stateMutability":"pure"},{"type":"function","name":"mint","inputs":[{"name":"to","type":"address","internalType":"address"},{"name":"amount","type":"uint256","internalType":"uint256"}],"outputs":[],"stateMutability":"nonpayable"},{"type":"function","name":"minters","inputs":[{"name":"","type":"address","internalType":"address"}],"outputs":[{"name":"","type":"bool","internalType":"bool"}],"stateMutability":"view"},{"type":"function","name":"name","inputs":[],"outputs":[{"name":"","type":"string","internalType":"string"}],"stateMutability":"view"},{"type":"function","name":"owner","inputs":[],"outputs":[{"name":"","type":"address","internalType":"address"}],"stateMutability":"view"},{"type":"function","name":"setMinter","inputs":[{"name":"minter","type":"address","internalType":"address"},{"name":"allowed","type":"bool","internalType":"bool"}],"outputs":[],"stateMutability":"nonpayable"},{"type":"function","name":"symbol","inputs":[],"outputs":[{"name":"","type":"string","internalType":"string"}],"stateMutability":"view"},{"type":"function","name":"totalSupply","inputs":[],"outputs":[{"name":"","type":"uint256","internalType":"uint256"}],"stateMutability":"view"},{"type":"function","name":"transfer","inputs":[{"name":"to","type":"address","internalType":"address"},{"name":"value","type":"uint256","internalType":"uint256"}],"outputs":[{"name":"","type":"bool","internalType":"bool"}],"stateMutability":"nonpayable"},{"type":"function","name":"transferFrom","inputs":[{"name":"from","type":"address","internalType":"address"},{"name":"to","type":"address","internalType":"address"},{"name":"value","type":"uint256","internalType":"uint256"}],"outputs":[{"name":"","type":"bool","internalType":"bool"}],"stateMutability":"nonpayable"},{"type":"function","name":"transferOwnership","inputs":[{"name":"newOwner","type":"address","internalType":"address"}],"outputs":[],"stateMutability":"nonpayable"},{"type":"event","name":"Approval","inputs":[{"name":"owner","type":"address","indexed":true,"internalType":"address"},{"name":"spender","type":"address","indexed":true,"internalType":"address"},{"name":"value","type":"uint256","indexed":false,"internalType":"uint256"}],"anonymous":false},{"type":"event","name":"MinterSet","inputs":[{"name":"minter","type":"address","indexed":true,"internalType":"address"},{"name":"allowed","type":"bool","indexed":false,"internalType":"bool"}],"anonymous":false},{"type":"event","name":"OwnerChanged","inputs":[{"name":"oldOwner","type":"address","indexed":true,"internalType":"address"},{"name":"newOwner","type":"address","indexed":true,"internalType":"address"}],"anonymous":false},{"type":"event","name":"Transfer","inputs":[{"name":"from","type":"address","indexed":true,"internalType":"address"},{"name":"to","type":"address","indexed":true,"internalType":"address"},{"name":"value","type":"uint256","indexed":false,"internalType":"uint256"}],"anonymous":false},{"type":"error","name":"ERC20InsufficientAllowance","inputs":[{"name":"spender","type":"address","internalType":"address"},{"name":"allowance","type":"uint256","internalType":"uint256"},{"name":"needed","type":"uint256","internalType":"uint256"}]},{"type":"error","name":"ERC20InsufficientBalance","inputs":[{"name":"sender","type":"address","internalType":"address"},{"name":"balance","type":"uint256","internalType":"uint256"},{"name":"needed","type":"uint256","internalType":"uint256"}]},{"type":"error","name":"ERC20InvalidApprover","inputs":[{"name":"approver","type":"address","internalType":"address"}]},{"type":"error","name":"ERC20InvalidReceiver","inputs":[{"name":"receiver","type":"address","internalType":"address"}]},{"type":"error","name":"ERC20InvalidSender","inputs":[{"name":"sender","type":"address","internalType":"address"}]},{"type":"error","name":"ERC20InvalidSpender","inputs":[{"name":"spender","type":"address","internalType":"address"}]}],"bytecode":{"object":"0x608060405234801562000010575f80fd5b506040518060400160405280600981526020017f54657374205553444300000000000000000000000000000000000000000000008152506040518060400160405280600481526020017f555344430000000000000000000000000000000000000000000000000000000081525081600390816200008e9190620003a7565b508060049081620000a09190620003a7565b5050503360055f6101000a81548173ffffffffffffffffffffffffffffffffffffffff021916908373ffffffffffffffffffffffffffffffffffffffff1602179055503373ffffffffffffffffffffffffffffffffffffffff165f73ffffffffffffffffffffffffffffffffffffffff167fb532073b38c83145e3e5135377a08bf9aab55bc0fd7c1179cd4fb995d2a5159c60405160405180910390a36200048b565b5f81519050919050565b7f4e487b71000000000000000000000000000000000000000000000000000000005f52604160045260245ffd5b7f4e487b71000000000000000000000000000000000000000000000000000000005f52602260045260245ffd5b5f6002820490506001821680620001bf57607f821691505b602082108103620001d557620001d46200017a565b5b50919050565b5f819050815f5260205f209050919050565b5f6020601f8301049050919050565b5f82821b905092915050565b5f60088302620002397fffffffffffffffffffffffffffffffffffffffffffffffffffffffffffffffff82620001fc565b620002458683620001fc565b95508019841693508086168417925050509392505050565b5f819050919050565b5f819050919050565b5f6200028f6200028962000283846200025d565b62000266565b6200025d565b9050919050565b5f819050919050565b620002aa836200026f565b620002c2620002b98262000296565b84845462000208565b825550505050565b5f90565b620002d8620002ca565b620002e58184846200029f565b505050565b5b818110156200030c57620003005f82620002ce565b600181019050620002eb565b5050565b601f8211156200035b576200032581620001db565b6200033084620001ed565b8101602085101562000340578190505b620003586200034f85620001ed565b830182620002ea565b50505b505050565b5f82821c905092915050565b5f6200037d5f198460080262000360565b1980831691505092915050565b5f6200039783836200036c565b9150826002028217905092915050565b620003b28262000143565b67ffffffffffffffff811115620003ce57620003cd6200014d565b5b620003da8254620001a7565b620003e782828562000310565b5f60209050601f8311600181146200041d575f841562000408578287015190505b6200041485826200038a565b86555062000483565b601f1984166200042d86620001db565b5f5b8281101562000456578489015182556001820191506020850194506020810190506200042f565b8683101562000476578489015162000472601f8916826200036c565b8355505b6001600288020188555050505b505050505050565b6114dd80620004995f395ff3fe608060405234801561000f575f80fd5b50600436106100e8575f3560e01c80638da5cb5b1161008a578063cf456ae711610064578063cf456ae71461025e578063dd62ed3e1461027a578063f2fde38b146102aa578063f46eccc4146102c6576100e8565b80638da5cb5b146101f257806395d89b4114610210578063a9059cbb1461022e576100e8565b806323b872dd116100c657806323b872dd14610158578063313ce5671461018857806340c10f19146101a657806370a08231146101c2576100e8565b806306fdde03146100ec578063095ea7b31461010a57806318160ddd1461013a575b5f80fd5b6100f46102f6565b6040516101019190610fb6565b60405180910390f35b610124600480360381019061011f9190611067565b610386565b60405161013191906110bf565b60405180910390f35b6101426103a8565b60405161014f91906110e7565b60405180910390f35b610172600480360381019061016d9190611100565b6103b1565b60405161017f91906110bf565b60405180910390f35b6101906103df565b60405161019d919061116b565b60405180910390f35b6101c060048036038101906101bb9190611067565b6103e7565b005b6101dc60048036038101906101d79190611184565b61047e565b6040516101e991906110e7565b60405180910390f35b6101fa6104c3565b60405161020791906111be565b60405180910390f35b6102186104e8565b6040516102259190610fb6565b60405180910390f35b61024860048036038101906102439190611067565b610578565b60405161025591906110bf565b60405180910390f35b61027860048036038101906102739190611201565b61059a565b005b610294600480360381019061028f919061123f565b6106cf565b6040516102a191906110e7565b60405180910390f35b6102c460048036038101906102bf9190611184565b610751565b005b6102e060048036038101906102db9190611184565b61090c565b6040516102ed91906110bf565b60405180910390f35b606060038054610305906112aa565b80601f0160208091040260200160405190810160405280929190818152602001828054610331906112aa565b801561037c5780601f106103535761010080835404028352916020019161037c565b820191905f5260205f20905b81548152906001019060200180831161035f57829003601f168201915b5050505050905090565b5f80610390610929565b905061039d818585610930565b600191505092915050565b5f600254905090565b5f806103bb610929565b90506103c8858285610942565b6103d38585856109d5565b60019150509392505050565b5f6006905090565b60065f3373ffffffffffffffffffffffffffffffffffffffff1673ffffffffffffffffffffffffffffffffffffffff1681526020019081526020015f205f9054906101000a900460ff16610470576040517f08c379a000000000000000000000000000000000000000000000000000000000815260040161046790611324565b60405180910390fd5b61047a8282610ac5565b5050565b5f805f8373ffffffffffffffffffffffffffffffffffffffff1673ffffffffffffffffffffffffffffffffffffffff1681526020019081526020015f20549050919050565b60055f9054906101000a900473ffffffffffffffffffffffffffffffffffffffff1681565b6060600480546104f7906112aa565b80601f0160208091040260200160405190810160405280929190818152602001828054610523906112aa565b801561056e5780601f106105455761010080835404028352916020019161056e565b820191905f5260205f20905b81548152906001019060200180831161055157829003601f168201915b5050505050905090565b5f80610582610929565b905061058f8185856109d5565b600191505092915050565b60055f9054906101000a900473ffffffffffffffffffffffffffffffffffffffff1673ffffffffffffffffffffffffffffffffffffffff163373ffffffffffffffffffffffffffffffffffffffff1614610629576040517f08c379a00000000000000000000000000000000000000000000000000000000081526004016106209061138c565b60405180910390fd5b8060065f8473ffffffffffffffffffffffffffffffffffffffff1673ffffffffffffffffffffffffffffffffffffffff1681526020019081526020015f205f6101000a81548160ff0219169083151502179055508173ffffffffffffffffffffffffffffffffffffffff167f583b0aa0e528532caf4b907c11d7a8158a122fe2a6fb80cd9b09776ebea8d92d826040516106c391906110bf565b60405180910390a25050565b5f60015f8473ffffffffffffffffffffffffffffffffffffffff1673ffffffffffffffffffffffffffffffffffffffff1681526020019081526020015f205f8373ffffffffffffffffffffffffffffffffffffffff1673ffffffffffffffffffffffffffffffffffffffff1681526020019081526020015f2054905092915050565b60055f9054906101000a900473ffffffffffffffffffffffffffffffffffffffff1673ffffffffffffffffffffffffffffffffffffffff163373ffffffffffffffffffffffffffffffffffffffff16146107e0576040517f08c379a00000000000000000000000000000000000000000000000000000000081526004016107d79061138c565b60405180910390fd5b5f73ffffffffffffffffffffffffffffffffffffffff168173ffffffffffffffffffffffffffffffffffffffff160361084e576040517f08c379a0000000000000000000000000000000000000000000000000000000008152600401610845906113f4565b60405180910390fd5b8073ffffffffffffffffffffffffffffffffffffffff1660055f9054906101000a900473ffffffffffffffffffffffffffffffffffffffff1673ffffffffffffffffffffffffffffffffffffffff167fb532073b38c83145e3e5135377a08bf9aab55bc0fd7c1179cd4fb995d2a5159c60405160405180910390a38060055f6101000a81548173ffffffffffffffffffffffffffffffffffffffff021916908373ffffffffffffffffffffffffffffffffffffffff16021790555050565b6006602052805f5260405f205f915054906101000a900460ff1681565b5f33905090565b61093d8383836001610b44565b505050565b5f61094d84846106cf565b90507fffffffffffffffffffffffffffffffffffffffffffffffffffffffffffffffff8110156109cf57818110156109c0578281836040517ffb8f41b20000000000000000000000000000000000000000000000000000000081526004016109b793929190611412565b60405180910390fd5b6109ce84848484035f610b44565b5b50505050565b5f73ffffffffffffffffffffffffffffffffffffffff168373ffffffffffffffffffffffffffffffffffffffff1603610a45575f6040517f96c6fd1e000000000000000000000000000000000000000000000000000000008152600401610a3c91906111be565b60405180910390fd5b5f73ffffffffffffffffffffffffffffffffffffffff168273ffffffffffffffffffffffffffffffffffffffff1603610ab5575f6040517fec442f05000000000000000000000000000000000000000000000000000000008152600401610aac91906111be565b60405180910390fd5b610ac0838383610d13565b505050565b5f73ffffffffffffffffffffffffffffffffffffffff168273ffffffffffffffffffffffffffffffffffffffff1603610b35575f6040517fec442f05000000000000000000000000000000000000000000000000000000008152600401610b2c91906111be565b60405180910390fd5b610b405f8383610d13565b5050565b5f73ffffffffffffffffffffffffffffffffffffffff168473ffffffffffffffffffffffffffffffffffffffff1603610bb4575f6040517fe602df05000000000000000000000000000000000000000000000000000000008152600401610bab91906111be565b60405180910390fd5b5f73ffffffffffffffffffffffffffffffffffffffff168373ffffffffffffffffffffffffffffffffffffffff1603610c24575f6040517f94280d62000000000000000000000000000000000000000000000000000000008152600401610c1b91906111be565b60405180910390fd5b8160015f8673ffffffffffffffffffffffffffffffffffffffff1673ffffffffffffffffffffffffffffffffffffffff1681526020019081526020015f205f8573ffffffffffffffffffffffffffffffffffffffff1673ffffffffffffffffffffffffffffffffffffffff1681526020019081526020015f20819055508015610d0d578273ffffffffffffffffffffffffffffffffffffffff168473ffffffffffffffffffffffffffffffffffffffff167f8c5be1e5ebec7d5bd14f71427d1e84f3dd0314c0f7b2291e5b200ac8c7c3b92584604051610d0491906110e7565b60405180910390a35b50505050565b5f73ffffffffffffffffffffffffffffffffffffffff168373ffffffffffffffffffffffffffffffffffffffff1603610d63578060025f828254610d579190611474565b92505081905550610e31565b5f805f8573ffffffffffffffffffffffffffffffffffffffff1673ffffffffffffffffffffffffffffffffffffffff1681526020019081526020015f2054905081811015610dec578381836040517fe450d38c000000000000000000000000000000000000000000000000000000008152600401610de393929190611412565b60405180910390fd5b8181035f808673ffffffffffffffffffffffffffffffffffffffff1673ffffffffffffffffffffffffffffffffffffffff1681526020019081526020015f2081905550505b5f73ffffffffffffffffffffffffffffffffffffffff168273ffffffffffffffffffffffffffffffffffffffff1603610e78578060025f8282540392505081905550610ec2565b805f808473ffffffffffffffffffffffffffffffffffffffff1673ffffffffffffffffffffffffffffffffffffffff1681526020019081526020015f205f82825401925050819055505b8173ffffffffffffffffffffffffffffffffffffffff168373ffffffffffffffffffffffffffffffffffffffff167fddf252ad1be2c89b69c2b068fc378daa952ba7f163c4a11628f55a4df523b3ef83604051610f1f91906110e7565b60405180910390a3505050565b5f81519050919050565b5f82825260208201905092915050565b5f5b83811015610f63578082015181840152602081019050610f48565b5f8484015250505050565b5f601f19601f8301169050919050565b5f610f8882610f2c565b610f928185610f36565b9350610fa2818560208601610f46565b610fab81610f6e565b840191505092915050565b5f6020820190508181035f830152610fce8184610f7e565b905092915050565b5f80fd5b5f73ffffffffffffffffffffffffffffffffffffffff82169050919050565b5f61100382610fda565b9050919050565b61101381610ff9565b811461101d575f80fd5b50565b5f8135905061102e8161100a565b92915050565b5f819050919050565b61104681611034565b8114611050575f80fd5b50565b5f813590506110618161103d565b92915050565b5f806040838503121561107d5761107c610fd6565b5b5f61108a85828601611020565b925050602061109b85828601611053565b9150509250929050565b5f8115159050919050565b6110b9816110a5565b82525050565b5f6020820190506110d25f8301846110b0565b92915050565b6110e181611034565b82525050565b5f6020820190506110fa5f8301846110d8565b92915050565b5f805f6060848603121561111757611116610fd6565b5b5f61112486828701611020565b935050602061113586828701611020565b925050604061114686828701611053565b9150509250925092565b5f60ff82169050919050565b61116581611150565b82525050565b5f60208201905061117e5f83018461115c565b92915050565b5f6020828403121561119957611198610fd6565b5b5f6111a684828501611020565b91505092915050565b6111b881610ff9565b82525050565b5f6020820190506111d15f8301846111af565b92915050565b6111e0816110a5565b81146111ea575f80fd5b50565b5f813590506111fb816111d7565b92915050565b5f806040838503121561121757611216610fd6565b5b5f61122485828601611020565b9250506020611235858286016111ed565b9150509250929050565b5f806040838503121561125557611254610fd6565b5b5f61126285828601611020565b925050602061127385828601611020565b9150509250929050565b7f4e487b71000000000000000000000000000000000000000000000000000000005f52602260045260245ffd5b5f60028204905060018216806112c157607f821691505b6020821081036112d4576112d361127d565b5b50919050565b7f4f4e4c595f4d494e5445520000000000000000000000000000000000000000005f82015250565b5f61130e600b83610f36565b9150611319826112da565b602082019050919050565b5f6020820190508181035f83015261133b81611302565b9050919050565b7f4f4e4c595f4f574e4552000000000000000000000000000000000000000000005f82015250565b5f611376600a83610f36565b915061138182611342565b602082019050919050565b5f6020820190508181035f8301526113a38161136a565b9050919050565b7f5a45524f5f4f574e4552000000000000000000000000000000000000000000005f82015250565b5f6113de600a83610f36565b91506113e9826113aa565b602082019050919050565b5f6020820190508181035f83015261140b816113d2565b9050919050565b5f6060820190506114255f8301866111af565b61143260208301856110d8565b61143f60408301846110d8565b949350505050565b7f4e487b71000000000000000000000000000000000000000000000000000000005f52601160045260245ffd5b5f61147e82611034565b915061148983611034565b92508282019050808211156114a1576114a0611447565b5b9291505056fea2646970667358221220f78a45f91b08692fd840c7d3cd345459fb8c25dcd836d941cf299e21a068f55964736f6c63430008140033","linkReferences":{}},"methodIdentifiers":{"allowance(address,address)":"dd62ed3e","approve(address,uint256)":"095ea7b3","balanceOf(address)":"70a08231","decimals()":"313ce567","mint(address,uint256)":"40c10f19","minters(address)":"f46eccc4","name()":"06fdde03","owner()":"8da5cb5b","setMinter(address,bool)":"cf456ae7","symbol()":"95d89b41","totalSupply()":"18160ddd","transfer(address,uint256)":"a9059cbb","transferFrom(address,address,uint256)":"23b872dd","transferOwnership(address)":"f2fde38b"},"id":38}