{"abi":[{"type":"constructor","inputs":[],"stateMutability":"nonpayable"},{"type":"function","name":"allowance","inputs":[{"name":"owner","type":"address","internalType":"address"},{"name":"spender","type":"address","internalType":"address"}],"outputs":[{"name":"","type":"uint256","internalType":"uint256"}],"stateMutability":"view"},{"type":"function","name":"approve","inputs":[{"name":"spender","type":"address","internalType":"address"},{"name":"value","type":"uint256","internalType":"uint256"}],"outputs":[{"name":"","type":"bool","internalType":"bool"}],"stateMutability":"nonpayable"},{"type":"function","name":"balanceOf","inputs":[{"name":"account","type":"address","internalType":"address"}],"outputs":[{"name":"","type":"uint256","internalType":"uint256"}],"stateMutability":"view"},{"type":"function","name":"decimals","inputs":[],"outputs":[{"name":"","type":"uint8","internalType":"uint8"}],"stateMutability":"pure"},{"type":"function","name":"mint","inputs":[{"name":"to","type":"address","internalType":"address"},{"name":"amount","type":"uint256","internalType":"uint256"}],"outputs":[],"stateMutability":"nonpayable"},{"type":"function","name":"minters","inputs":[{"name":"","type":"address","internalType":"address"}],"outputs":[{"name":"","type":"bool","internalType":"bool"}],"stateMutability":"view"},{"type":"function","name":"name","inputs":[],"outputs":[{"name":"","type":"string","internalType":"string"}],"stateMutability":"view"},{"type":"function","name":"owner","inputs":[],"outputs":[{"name":"","type":"address","internalType":"address"}],"stateMutability":"view"},{"type":"function","name":"setMinter","inputs":[{"name":"minter","type":"address","internalType":"address"},{"name":"allowed","type":"bool","internalType":"bool"}],"outputs":[],"stateMutability":"nonpayable"},{"type":"function","name":"symbol","inputs":[],"outputs":[{"name":"","type":"string","internalType":"string"}],"stateMutability":"view"},{"type":"function","name":"totalSupply","inputs":[],"outputs":[{"name":"","type":"uint256","internalType":"uint256"}],"stateMutability":"view"},{"type":"function","name":"transfer","inputs":[{"name":"to","type":"address","internalType":"address"},{"name":"value","type":"uint256","internalType":"uint256"}],"outputs":[{"name":"","type":"bool","internalType":"bool"}],"stateMutability":"nonpayable"},{"type":"function","name":"transferFrom","inputs":[{"name":"from","type":"address","internalType":"address"},{"name":"to","type":"address","internalType":"address"},{"name":"value","type":"uint256","internalType":"uint256"}],"outputs":[{"name":"","type":"bool","internalType":"bool"}],"stateMutability":"nonpayable"},{"type":"function","name":"transferOwnership","inputs":[{"name":"newOwner","type":"address","internalType":"address"}],"outputs":[],"stateMutability":"nonpayable"},{"type":"event","name":"Approval","inputs":[{"name":"owner","type":"address","indexed":true,"internalType":"address"},{"name":"spender","type":"address","indexed":true,"internalType":"address"},{"name":"value","type":"uint256","indexed":false,"internalType":"uint256"}],"anonymous":false},{"type":"event","name":"MinterSet","inputs":[{"name":"minter","type":"address","indexed":true,"internalType":"address"},{"name":"allowed","type":"bool","indexed":false,"internalType":"bool"}],"anonymous":false},{"type":"event","name":"OwnerChanged","inputs":[{"name":"oldOwner","type":"address","indexed":true,"internalType":"address"},{"name":"newOwner","type":"address","indexed":true,"internalType":"address"}],"anonymous":false},{"type":"event","name":"Transfer","inputs":[{"name":"from","type":"address","indexed":true,"internalType":"address"},{"name":"to","type":"address","indexed":true,"internalType":"address"},{"name":"value","type":"uint256","indexed":false,"internalType":"uint256"}],"anonymous":false},{"type":"error","name":"ERC20InsufficientAllowance","inputs":[{"name":"spender","type":"address","internalType":"address"},{"name":"allowance","type":"uint256","internalType":"uint256"},{"name":"needed","type":"uint256","internalType":"uint256"}]},{"type":"error","name":"ERC20InsufficientBalance","inputs":[{"name":"sender","type":"address","internalType":"address"},{"name":"balance","type":"uint256","internalType":"uint256"},{"name":"needed","type":"uint256","internalType":"uint256"}]},{"type":"error","name":"ERC20InvalidApprover","inputs":[{"name":"approver","type":"address","internalType":"address"}]},{"type":"error","name":"ERC20InvalidReceiver","inputs":[{"name":"receiver","type":"address","internalType":"address"}]},{"type":"error","name":"ERC20InvalidSender","inputs":[{"name":"sender","type":"address","internalType":"address"}]},{"type":"error","name":"ERC20InvalidSpender","inputs":[{"name":"spender","type":"address","internalType":"address"}]}],"bytecode":{"object":"0x60803462000354576040906001600160401b03908083018281118282101762000340578352600981526020916854657374205553444360b81b838301528351928484018481108382111762000340578552600493848152635553444360e01b828201528351908382116200032d576003928354926001968785811c9516801562000322575b838610146200030f578190601f95868111620002bc575b50839086831160011462000259575f926200024d575b50505f1982871b1c191690871b1784555b81519485116200023a5786548681811c911680156200022f575b828210146200021c57838111620001d4575b50809285116001146200016a57509383949184925f956200015e575b50501b925f19911b1c19161790555b3360018060a01b0319600554161760055551335f7fb532073b38c83145e3e5135377a08bf9aab55bc0fd7c1179cd4fb995d2a5159c8180a361098a9081620003598239f35b015193505f806200010a565b92919084601f198116885f52855f20955f905b89838310620001b957505050106200019f575b50505050811b01905562000119565b01519060f8845f19921b161c191690555f80808062000190565b8587015189559097019694850194889350908101906200017d565b875f52815f208480880160051c82019284891062000212575b0160051c019087905b82811062000206575050620000ee565b5f8155018790620001f6565b92508192620001ed565b602288634e487b7160e01b5f525260245ffd5b90607f1690620000dc565b604187634e487b7160e01b5f525260245ffd5b015190505f80620000b1565b90899350601f19831691885f52855f20925f5b87828210620002a557505084116200028d575b505050811b018455620000c2565b01515f1983891b60f8161c191690555f80806200027f565b8385015186558d979095019493840193016200026c565b909150865f52835f208680850160051c82019286861062000305575b918b91869594930160051c01915b828110620002f65750506200009b565b5f81558594508b9101620002e6565b92508192620002d8565b602289634e487b7160e01b5f525260245ffd5b94607f169462000084565b604186634e487b7160e01b5f525260245ffd5b634e487b7160e01b5f52604160045260245ffd5b5f80fdfe6080604081815260049182361015610015575f80fd5b5f92833560e01c91826306fdde03146106f157508163095ea7b31461064757816318160ddd1461062857816323b872dd14610532578163313ce5671461051657816340c10f191461042957816370a08231146103f25781638da5cb5b146103c957816395d89b41146102aa578163a9059cbb14610279578163cf456ae7146101f0578163dd62ed3e146101a7578163f2fde38b146100fc575063f46eccc4146100bc575f80fd5b346100f85760203660031901126100f85760209160ff9082906001600160a01b036100e5610810565b1681526006855220541690519015158152f35b5080fd5b9050346101a35760203660031901126101a357610117610810565b600554916001600160a01b038084169261013233851461091b565b1693841561017357505082907fb532073b38c83145e3e5135377a08bf9aab55bc0fd7c1179cd4fb995d2a5159c8580a36001600160a01b0319161760055580f35b906020606492519162461bcd60e51b8352820152600a6024820152692d22a927afa7aba722a960b11b6044820152fd5b8280fd5b5050346100f857806003193601126100f857806020926101c5610810565b6101cd61082a565b6001600160a01b0391821683526001865283832091168252845220549051908152f35b5050346100f857806003193601126100f85761020a610810565b60243590811515809203610275577f583b0aa0e528532caf4b907c11d7a8158a122fe2a6fb80cd9b09776ebea8d92d9160209160018060a01b03906102548260055416331461091b565b16938486526006835280862060ff1981541660ff841617905551908152a280f35b8380fd5b5050346100f857806003193601126100f8576020906102a3610299610810565b6024359033610840565b5160018152f35b8383346100f857816003193601126100f857805190828454600181811c908083169283156103bf575b60209384841081146103ac57838852908115610390575060011461033b575b505050829003601f01601f191682019267ffffffffffffffff84118385101761032857508291826103249252826107c9565b0390f35b634e487b7160e01b815260418552602490fd5b8787529192508591837f8a35acfbc15ff81a39ae7d344fd709f28e8600b4aa8c65c6b64bfe7fe36bd19b5b83851061037c57505050508301018580806102f2565b805488860183015293019284908201610366565b60ff1916878501525050151560051b84010190508580806102f2565b634e487b7160e01b895260228a52602489fd5b91607f16916102d3565b5050346100f857816003193601126100f85760055490516001600160a01b039091168152602090f35b5050346100f85760203660031901126100f85760209181906001600160a01b0361041a610810565b16815280845220549051908152f35b919050346101a357806003193601126101a357610444610810565b9060243591338552600660205260ff8286205416156104e5576001600160a01b03169283156104d057600254908382018092116104bd575084927fddf252ad1be2c89b69c2b068fc378daa952ba7f163c4a11628f55a4df523b3ef9260209260025585855284835280852082815401905551908152a380f35b634e487b7160e01b865260119052602485fd5b84602492519163ec442f0560e01b8352820152fd5b815162461bcd60e51b8152602081860152600b60248201526a27a7262cafa6a4a72a22a960a91b6044820152606490fd5b5050346100f857816003193601126100f8576020905160068152f35b905082346106255760603660031901126106255761054e610810565b61055661082a565b916044359360018060a01b038316808352600160205286832033845260205286832054915f198310610591575b6020886102a3898989610840565b8683106105f95781156105e25733156105cb575082526001602090815286832033845281529186902090859003905582906102a387610583565b8751634a1406b160e11b8152908101849052602490fd5b875163e602df0560e01b8152908101849052602490fd5b8751637dc7a0d960e11b8152339181019182526020820193909352604081018790528291506060010390fd5b80fd5b5050346100f857816003193601126100f8576020906002549051908152f35b9050346101a357816003193601126101a357610661610810565b6024359033156106da576001600160a01b03169182156106c357508083602095338152600187528181208582528752205582519081527f8c5be1e5ebec7d5bd14f71427d1e84f3dd0314c0f7b2291e5b200ac8c7c3b925843392a35160018152f35b8351634a1406b160e11b8152908101859052602490fd5b835163e602df0560e01b8152808401869052602490fd5b849084346101a357826003193601126101a35782600354600181811c908083169283156107bf575b60209384841081146103ac57838852908115610390575060011461076957505050829003601f01601f191682019267ffffffffffffffff84118385101761032857508291826103249252826107c9565b600387529192508591837fc2575a0e9e593c00f959f8c92f12db2869c3395a3b0502d05e2516446f71f85b5b8385106107ab57505050508301018580806102f2565b805488860183015293019284908201610795565b91607f1691610719565b602080825282518183018190529093925f5b8281106107fc57505060409293505f838284010152601f8019910116010190565b8181018601518482016040015285016107db565b600435906001600160a01b038216820361082657565b5f80fd5b602435906001600160a01b038216820361082657565b916001600160a01b0380841692831561090357169283156108eb575f90838252816020526040822054908382106108b9575091604082827fddf252ad1be2c89b69c2b068fc378daa952ba7f163c4a11628f55a4df523b3ef958760209652828652038282205586815220818154019055604051908152a3565b60405163391434e360e21b81526001600160a01b03919091166004820152602481019190915260448101839052606490fd5b60405163ec442f0560e01b81525f6004820152602490fd5b604051634b637e8f60e11b81525f6004820152602490fd5b1561092257565b60405162461bcd60e51b815260206004820152600a60248201526927a7262cafa7aba722a960b11b6044820152606490fdfea2646970667358221220b98efe03a756a64bcf084bc080d0facc7c85ad6f1fc8d05e3ee69ecb55fb71cc64736f6c63430008140033","linkReferences":{}},"methodIdentifiers":{"allowance(address,address)":"dd62ed3e","approve(address,uint256)":"095ea7b3","balanceOf(address)":"70a08231","decimals()":"313ce567","mint(address,uint256)":"40c10f19","minters(address)":"f46eccc4","name()":"06fdde03","owner()":"8da5cb5b","setMinter(address,bool)":"cf456ae7","symbol()":"95d89b41","totalSupply()":"18160ddd","transfer(address,uint256)":"a9059cbb","transferFrom(address,address,uint256)":"23b872dd","transferOwnership(address)":"f2fde38b"},"id":49}