{"abi":[{"type":"function","name":"getPrice","inputs":[{"name":"asset","type":"address","internalType":"address"}],"outputs":[{"name":"","type":"uint256","internalType":"uint256"}],"stateMutability":"view"},{"type":"function","name":"healthy","inputs":[],"outputs":[{"name":"","type":"bool","internalType":"bool"}],"stateMutability":"view"},{"type":"function","name":"prices","inputs":[{"name":"","type":"address","internalType":"address"}],"outputs":[{"name":"","type":"uint256","internalType":"uint256"}],"stateMutability":"view"},{"type":"function","name":"setHealthy","inputs":[{"name":"h","type":"bool","internalType":"bool"}],"outputs":[],"stateMutability":"nonpayable"},{"type":"function","name":"setPrice","inputs":[{"name":"asset","type":"address","internalType":"address"},{"name":"price","type":"uint256","internalType":"uint256"}],"outputs":[],"stateMutability":"nonpayable"}],"bytecode":{"object":"0x60806040526001805f6101000a81548160ff021916908315150217905550348015610028575f80fd5b50610480806100365f395ff3fe608060405234801561000f575f80fd5b5060043610610054575f3560e01c8062e4768b1461005857806341976e09146100745780637560fdd1146100a4578063cfed246b146100c2578063e4dc2dd2146100f2575b5f80fd5b610072600480360381019061006d91906102b9565b61010e565b005b61008e600480360381019061008991906102f7565b610153565b60405161009b9190610331565b60405180910390f35b6100ac6101e6565b6040516100b99190610364565b60405180910390f35b6100dc60048036038101906100d791906102f7565b6101f8565b6040516100e99190610331565b60405180910390f35b61010c600480360381019061010791906103a7565b61020c565b005b805f808473ffffffffffffffffffffffffffffffffffffffff1673ffffffffffffffffffffffffffffffffffffffff1681526020019081526020015f20819055505050565b5f60015f9054906101000a900460ff166101a2576040517f08c379a00000000000000000000000000000000000000000000000000000000081526004016101999061042c565b60405180910390fd5b5f808373ffffffffffffffffffffffffffffffffffffffff1673ffffffffffffffffffffffffffffffffffffffff1681526020019081526020015f20549050919050565b60015f9054906101000a900460ff1681565b5f602052805f5260405f205f915090505481565b8060015f6101000a81548160ff02191690831515021790555050565b5f80fd5b5f73ffffffffffffffffffffffffffffffffffffffff82169050919050565b5f6102558261022c565b9050919050565b6102658161024b565b811461026f575f80fd5b50565b5f813590506102808161025c565b92915050565b5f819050919050565b61029881610286565b81146102a2575f80fd5b50565b5f813590506102b38161028f565b92915050565b5f80604083850312156102cf576102ce610228565b5b5f6102dc85828601610272565b92505060206102ed858286016102a5565b9150509250929050565b5f6020828403121561030c5761030b610228565b5b5f61031984828501610272565b91505092915050565b61032b81610286565b82525050565b5f6020820190506103445f830184610322565b92915050565b5f8115159050919050565b61035e8161034a565b82525050565b5f6020820190506103775f830184610355565b92915050565b6103868161034a565b8114610390575f80fd5b50565b5f813590506103a18161037d565b92915050565b5f602082840312156103bc576103bb610228565b5b5f6103c984828501610393565b91505092915050565b5f82825260208201905092915050565b7f4f5241434c455f554e4845414c544859000000000000000000000000000000005f82015250565b5f6104166010836103d2565b9150610421826103e2565b602082019050919050565b5f6020820190508181035f8301526104438161040a565b905091905056fea26469706673582212206e1b592cdf88039a8ef54d18f89d233ddd7eb8a575c65f7f968a115fdca1771464736f6c63430008140033","linkReferences":{}},"methodIdentifiers":{"getPrice(address)":"41976e09","healthy()":"7560fdd1","prices(address)":"cfed246b","setHealthy(bool)":"e4dc2dd2","setPrice(address,uint256)":"00e4768b"},"id":53}