{"abi":[{"type":"constructor","inputs":[{"name":"asset","type":"address","internalType":"address"},{"name":"router","type":"address","internalType":"address"}],"stateMutability":"nonpayable"},{"type":"function","name":"ASSET","inputs":[],"outputs":[{"name":"","type":"address","internalType":"contract IERC20"}],"stateMutability":"view"},{"type":"function","name":"ROUTER","inputs":[],"outputs":[{"name":"","type":"address","internalType":"address"}],"stateMutability":"view"},{"type":"function","name":"cover","inputs":[{"name":"amount","type":"uint256","internalType":"uint256"}],"outputs":[{"name":"paid","type":"uint256","internalType":"uint256"}],"stateMutability":"nonpayable"},{"type":"function","name":"deposit","inputs":[{"name":"amount","type":"uint256","internalType":"uint256"}],"outputs":[],"stateMutability":"nonpayable"},{"type":"function","name":"totalReserves","inputs":[],"outputs":[{"name":"","type":"uint256","internalType":"uint256"}],"stateMutability":"view"},{"type":"event","name":"InsuranceCover","inputs":[{"name":"router","type":"address","indexed":true,"internalType":"address"},{"name":"requested","type":"uint256","indexed":false,"internalType":"uint256"},{"name":"paid","type":"uint256","indexed":false,"internalType":"uint256"}],"anonymous":false},{"type":"event","name":"InsuranceDeposit","inputs":[{"name":"from","type":"address","indexed":true,"internalType":"address"},{"name":"amount","type":"uint256","indexed":false,"internalType":"uint256"}],"anonymous":false},{"type":"error","name":"InvalidAmount","inputs":[]},{"type":"error","name":"NotAuthorized","inputs":[]},{"type":"error","name":"SafeERC20FailedOperation","inputs":[{"name":"token","type":"address","internalType":"address"}]}],"bytecode":{"object":"0x60c060405234801561000f575f80fd5b50604051610925380380610925833981810160405281019061003191906100fe565b8173ffffffffffffffffffffffffffffffffffffffff1660808173ffffffffffffffffffffffffffffffffffffffff16815250508073ffffffffffffffffffffffffffffffffffffffff1660a08173ffffffffffffffffffffffffffffffffffffffff1681525050505061013c565b5f80fd5b5f73ffffffffffffffffffffffffffffffffffffffff82169050919050565b5f6100cd826100a4565b9050919050565b6100dd816100c3565b81146100e7575f80fd5b50565b5f815190506100f8816100d4565b92915050565b5f8060408385031215610114576101136100a0565b5b5f610121858286016100ea565b9250506020610132858286016100ea565b9150509250929050565b60805160a0516107a56101805f395f8181610146015281816101ae01528181610224015261035f01525f81816101680152818161024801526102b001526107a55ff3fe608060405234801561000f575f80fd5b5060043610610055575f3560e01c806314a1362b1461005957806332fe7b26146100895780634800d97f146100a75780638f840ddd146100c5578063b6b55f25146100e3575b5f80fd5b610073600480360381019061006e9190610596565b6100ff565b60405161008091906105d0565b60405180910390f35b610091610222565b60405161009e9190610628565b60405180910390f35b6100af610246565b6040516100bc919061069c565b60405180910390f35b6100cd61026a565b6040516100da91906105d0565b60405180910390f35b6100fd60048036038101906100f89190610596565b61026f565b005b5f61010861035d565b5f8203610117575f905061021d565b5f5482116101255781610128565b5f545b9050805f8082825461013a91906106e2565b925050819055506101ac7f0000000000000000000000000000000000000000000000000000000000000000827f000000000000000000000000000000000000000000000000000000000000000073ffffffffffffffffffffffffffffffffffffffff166103e49092919063ffffffff16565b7f000000000000000000000000000000000000000000000000000000000000000073ffffffffffffffffffffffffffffffffffffffff167f2e37c09150563732bb93cf001454a8c17696858f112e742b08c4f74d2f62d2618383604051610214929190610715565b60405180910390a25b919050565b7f000000000000000000000000000000000000000000000000000000000000000081565b7f000000000000000000000000000000000000000000000000000000000000000081565b5f5481565b5f81036102a8576040517f2c5211c600000000000000000000000000000000000000000000000000000000815260040160405180910390fd5b6102f53330837f000000000000000000000000000000000000000000000000000000000000000073ffffffffffffffffffffffffffffffffffffffff16610437909392919063ffffffff16565b805f80828254610305919061073c565b925050819055503373ffffffffffffffffffffffffffffffffffffffff167fb4c4c46391f755752bf07c542506016584a39bdc2c1e8dd64a2b787fa8df742b8260405161035291906105d0565b60405180910390a250565b7f000000000000000000000000000000000000000000000000000000000000000073ffffffffffffffffffffffffffffffffffffffff163373ffffffffffffffffffffffffffffffffffffffff16146103e2576040517fea8e4eb500000000000000000000000000000000000000000000000000000000815260040160405180910390fd5b565b6103f1838383600161048c565b61043257826040517f5274afe70000000000000000000000000000000000000000000000000000000081526004016104299190610628565b60405180910390fd5b505050565b6104458484848460016104ee565b61048657836040517f5274afe700000000000000000000000000000000000000000000000000000000815260040161047d9190610628565b60405180910390fd5b50505050565b5f8063a9059cbb60e01b9050604051815f525f1960601c86166004528460245260205f60445f808b5af1925060015f511483166104e05783831516156104d4573d5f823e3d81fd5b5f873b113d1516831692505b806040525050949350505050565b5f806323b872dd60e01b9050604051815f525f1960601c87166004525f1960601c86166024528460445260205f60645f808c5af1925060015f5114831661054c578383151615610540573d5f823e3d81fd5b5f883b113d1516831692505b806040525f606052505095945050505050565b5f80fd5b5f819050919050565b61057581610563565b811461057f575f80fd5b50565b5f813590506105908161056c565b92915050565b5f602082840312156105ab576105aa61055f565b5b5f6105b884828501610582565b91505092915050565b6105ca81610563565b82525050565b5f6020820190506105e35f8301846105c1565b92915050565b5f73ffffffffffffffffffffffffffffffffffffffff82169050919050565b5f610612826105e9565b9050919050565b61062281610608565b82525050565b5f60208201905061063b5f830184610619565b92915050565b5f819050919050565b5f61066461065f61065a846105e9565b610641565b6105e9565b9050919050565b5f6106758261064a565b9050919050565b5f6106868261066b565b9050919050565b6106968161067c565b82525050565b5f6020820190506106af5f83018461068d565b92915050565b7f4e487b71000000000000000000000000000000000000000000000000000000005f52601160045260245ffd5b5f6106ec82610563565b91506106f783610563565b925082820390508181111561070f5761070e6106b5565b5b92915050565b5f6040820190506107285f8301856105c1565b61073560208301846105c1565b9392505050565b5f61074682610563565b915061075183610563565b9250828201905080821115610769576107686106b5565b5b9291505056fea2646970667358221220156604ec68688eb7d6a46be78794f2d5c2e93078cc47b89ec16751a5acee7f4464736f6c63430008140033","linkReferences":{}},"methodIdentifiers":{"ASSET()":"4800d97f","ROUTER()":"32fe7b26","cover(uint256)":"14a1362b","deposit(uint256)":"b6b55f25","totalReserves()":"8f840ddd"},"id":18}