{"abi":[{"type":"constructor","inputs":[{"name":"pool","type":"address","internalType":"address"}],"stateMutability":"nonpayable"},{"type":"function","name":"POOL","inputs":[],"outputs":[{"name":"","type":"address","internalType":"contract MockAavePool"}],"stateMutability":"view"},{"type":"function","name":"borrow","inputs":[{"name":"asset","type":"address","internalType":"address"},{"name":"amount","type":"uint256","internalType":"uint256"},{"name":"user","type":"address","internalType":"address"}],"outputs":[],"stateMutability":"nonpayable"}],"bytecode":{"object":"0x60a060405234801561000f575f80fd5b506040516104b53803806104b5833981810160405281019061003191906100c9565b8073ffffffffffffffffffffffffffffffffffffffff1660808173ffffffffffffffffffffffffffffffffffffffff1681525050506100f4565b5f80fd5b5f73ffffffffffffffffffffffffffffffffffffffff82169050919050565b5f6100988261006f565b9050919050565b6100a88161008e565b81146100b2575f80fd5b50565b5f815190506100c38161009f565b92915050565b5f602082840312156100de576100dd61006b565b5b5f6100eb848285016100b5565b91505092915050565b6080516103a36101125f395f81816074015261010801526103a35ff3fe608060405234801561000f575f80fd5b5060043610610034575f3560e01c80636c665a55146100385780637535d24614610054575b5f80fd5b610052600480360381019061004d91906101bb565b610072565b005b61005c610106565b6040516100699190610266565b60405180910390f35b7f000000000000000000000000000000000000000000000000000000000000000073ffffffffffffffffffffffffffffffffffffffff1663a415bcad848460025f866040518663ffffffff1660e01b81526004016100d495949392919061031c565b5f604051808303815f87803b1580156100eb575f80fd5b505af11580156100fd573d5f803e3d5ffd5b50505050505050565b7f000000000000000000000000000000000000000000000000000000000000000081565b5f80fd5b5f73ffffffffffffffffffffffffffffffffffffffff82169050919050565b5f6101578261012e565b9050919050565b6101678161014d565b8114610171575f80fd5b50565b5f813590506101828161015e565b92915050565b5f819050919050565b61019a81610188565b81146101a4575f80fd5b50565b5f813590506101b581610191565b92915050565b5f805f606084860312156101d2576101d161012a565b5b5f6101df86828701610174565b93505060206101f0868287016101a7565b925050604061020186828701610174565b9150509250925092565b5f819050919050565b5f61022e6102296102248461012e565b61020b565b61012e565b9050919050565b5f61023f82610214565b9050919050565b5f61025082610235565b9050919050565b61026081610246565b82525050565b5f6020820190506102795f830184610257565b92915050565b6102888161014d565b82525050565b61029781610188565b82525050565b5f819050919050565b5f6102c06102bb6102b68461029d565b61020b565b610188565b9050919050565b6102d0816102a6565b82525050565b5f819050919050565b5f61ffff82169050919050565b5f6103066103016102fc846102d6565b61020b565b6102df565b9050919050565b610316816102ec565b82525050565b5f60a08201905061032f5f83018861027f565b61033c602083018761028e565b61034960408301866102c7565b610356606083018561030d565b610363608083018461027f565b969550505050505056fea264697066735822122075ac792e9879ba83b0737922fd992297c250f29e22cf6962294982c9ea72885164736f6c63430008140033","linkReferences":{}},"methodIdentifiers":{"POOL()":"7535d246","borrow(address,uint256,address)":"6c665a55"},"id":43}