{"abi":[{"type":"constructor","inputs":[{"name":"_usdc","type":"address","internalType":"address"},{"name":"_creditManager","type":"address","internalType":"address"},{"name":"_controller","type":"address","internalType":"address"}],"stateMutability":"nonpayable"},{"type":"function","name":"CONTROLLER","inputs":[],"outputs":[{"name":"","type":"address","internalType":"address"}],"stateMutability":"view"},{"type":"function","name":"CREDIT_MANAGER","inputs":[],"outputs":[{"name":"","type":"address","internalType":"contract ICreditManager"}],"stateMutability":"view"},{"type":"function","name":"USDC","inputs":[],"outputs":[{"name":"","type":"address","internalType":"contract IERC20"}],"stateMutability":"view"},{"type":"function","name":"availableLiquidity","inputs":[],"outputs":[{"name":"","type":"uint256","internalType":"uint256"}],"stateMutability":"view"},{"type":"function","name":"delegateCredit","inputs":[{"name":"user","type":"address","internalType":"address"},{"name":"amount","type":"uint256","internalType":"uint256"}],"outputs":[],"stateMutability":"nonpayable"},{"type":"function","name":"deposit","inputs":[{"name":"amount","type":"uint256","internalType":"uint256"}],"outputs":[],"stateMutability":"nonpayable"},{"type":"function","name":"totalDelegated","inputs":[],"outputs":[{"name":"","type":"uint256","internalType":"uint256"}],"stateMutability":"view"},{"type":"function","name":"totalDeposits","inputs":[],"outputs":[{"name":"","type":"uint256","internalType":"uint256"}],"stateMutability":"view"},{"type":"error","name":"InsufficientCredit","inputs":[]},{"type":"error","name":"InvalidAmount","inputs":[]},{"type":"error","name":"NotAuthorized","inputs":[]},{"type":"error","name":"SafeERC20FailedOperation","inputs":[{"name":"token","type":"address","internalType":"address"}]}],"bytecode":{"object":"0x60e060405234801561000f575f80fd5b506040516109ba3803806109ba83398181016040528101906100319190610133565b8273ffffffffffffffffffffffffffffffffffffffff1660808173ffffffffffffffffffffffffffffffffffffffff16815250508173ffffffffffffffffffffffffffffffffffffffff1660a08173ffffffffffffffffffffffffffffffffffffffff16815250508073ffffffffffffffffffffffffffffffffffffffff1660c08173ffffffffffffffffffffffffffffffffffffffff1681525050505050610183565b5f80fd5b5f73ffffffffffffffffffffffffffffffffffffffff82169050919050565b5f610102826100d9565b9050919050565b610112816100f8565b811461011c575f80fd5b50565b5f8151905061012d81610109565b92915050565b5f805f6060848603121561014a576101496100d5565b5b5f6101578682870161011f565b93505060206101688682870161011f565b92505060406101798682870161011f565b9150509250925092565b60805160a05160c0516107f86101c25f395f81816101e6015261042901525f818161017801526102fd01525f81816101c201526103c801526107f85ff3fe608060405234801561000f575f80fd5b5060043610610086575f3560e01c806389a302711161005957806389a302711461010257806389c85c6f14610120578063b6b55f251461013c578063ee0fc1211461015857610086565b80633cdaf2521461008a57806374375359146100a85780637d882097146100c657806380d04de8146100e4575b5f80fd5b610092610176565b60405161009f919061058b565b60405180910390f35b6100b061019a565b6040516100bd91906105bc565b60405180910390f35b6100ce6101af565b6040516100db91906105bc565b60405180910390f35b6100ec6101b7565b6040516100f991906105bc565b60405180910390f35b61010a6101c0565b60405161011791906105f5565b60405180910390f35b61013a60048036038101906101359190610677565b6101e4565b005b610156600480360381019061015191906106b5565b610387565b005b610160610427565b60405161016d91906106ef565b60405180910390f35b7f000000000000000000000000000000000000000000000000000000000000000081565b5f6001545f546101aa9190610735565b905090565b5f8054905090565b5f600154905090565b7f000000000000000000000000000000000000000000000000000000000000000081565b7f000000000000000000000000000000000000000000000000000000000000000073ffffffffffffffffffffffffffffffffffffffff163373ffffffffffffffffffffffffffffffffffffffff1614610269576040517fea8e4eb500000000000000000000000000000000000000000000000000000000815260040160405180910390fd5b5f81036102a2576040517f2c5211c600000000000000000000000000000000000000000000000000000000815260040160405180910390fd5b6102aa61019a565b8111156102e3576040517f8ac4bc7300000000000000000000000000000000000000000000000000000000815260040160405180910390fd5b8060015f8282546102f49190610768565b925050819055507f000000000000000000000000000000000000000000000000000000000000000073ffffffffffffffffffffffffffffffffffffffff16636cb80eb583836040518363ffffffff1660e01b815260040161035692919061079b565b5f604051808303815f87803b15801561036d575f80fd5b505af115801561037f573d5f803e3d5ffd5b505050505050565b5f81036103c0576040517f2c5211c600000000000000000000000000000000000000000000000000000000815260040160405180910390fd5b61040d3330837f000000000000000000000000000000000000000000000000000000000000000073ffffffffffffffffffffffffffffffffffffffff1661044b909392919063ffffffff16565b805f8082825461041d9190610768565b9250508190555050565b7f000000000000000000000000000000000000000000000000000000000000000081565b6104598484848460016104a0565b61049a57836040517f5274afe700000000000000000000000000000000000000000000000000000000815260040161049191906106ef565b60405180910390fd5b50505050565b5f806323b872dd60e01b9050604051815f525f1960601c87166004525f1960601c86166024528460445260205f60645f808c5af1925060015f511483166104fe5783831516156104f2573d5f823e3d81fd5b5f883b113d1516831692505b806040525f606052505095945050505050565b5f73ffffffffffffffffffffffffffffffffffffffff82169050919050565b5f819050919050565b5f61055361054e61054984610511565b610530565b610511565b9050919050565b5f61056482610539565b9050919050565b5f6105758261055a565b9050919050565b6105858161056b565b82525050565b5f60208201905061059e5f83018461057c565b92915050565b5f819050919050565b6105b6816105a4565b82525050565b5f6020820190506105cf5f8301846105ad565b92915050565b5f6105df8261055a565b9050919050565b6105ef816105d5565b82525050565b5f6020820190506106085f8301846105e6565b92915050565b5f80fd5b5f61061c82610511565b9050919050565b61062c81610612565b8114610636575f80fd5b50565b5f8135905061064781610623565b92915050565b610656816105a4565b8114610660575f80fd5b50565b5f813590506106718161064d565b92915050565b5f806040838503121561068d5761068c61060e565b5b5f61069a85828601610639565b92505060206106ab85828601610663565b9150509250929050565b5f602082840312156106ca576106c961060e565b5b5f6106d784828501610663565b91505092915050565b6106e981610612565b82525050565b5f6020820190506107025f8301846106e0565b92915050565b7f4e487b71000000000000000000000000000000000000000000000000000000005f52601160045260245ffd5b5f61073f826105a4565b915061074a836105a4565b925082820390508181111561076257610761610708565b5b92915050565b5f610772826105a4565b915061077d836105a4565b925082820190508082111561079557610794610708565b5b92915050565b5f6040820190506107ae5f8301856106e0565b6107bb60208301846105ad565b939250505056fea264697066735822122081dc9b8af5abe9a6319505eced5d45327941473357e9f53f64c721c1db176b7464736f6c63430008140033","linkReferences":{}},"methodIdentifiers":{"CONTROLLER()":"ee0fc121","CREDIT_MANAGER()":"3cdaf252","USDC()":"89a30271","availableLiquidity()":"74375359","delegateCredit(address,uint256)":"89c85c6f","deposit(uint256)":"b6b55f25","totalDelegated()":"80d04de8","totalDeposits()":"7d882097"},"id":16}