{"abi":[{"type":"constructor","inputs":[{"name":"_usdc","type":"address","internalType":"address"},{"name":"_creditManager","type":"address","internalType":"address"}],"stateMutability":"nonpayable"},{"type":"function","name":"availableLiquidity","inputs":[],"outputs":[{"name":"","type":"uint256","internalType":"uint256"}],"stateMutability":"view"},{"type":"function","name":"creditManager","inputs":[],"outputs":[{"name":"","type":"address","internalType":"contract ICreditManager"}],"stateMutability":"view"},{"type":"function","name":"delegateCredit","inputs":[{"name":"user","type":"address","internalType":"address"},{"name":"amount","type":"uint256","internalType":"uint256"}],"outputs":[],"stateMutability":"nonpayable"},{"type":"function","name":"deposit","inputs":[{"name":"amount","type":"uint256","internalType":"uint256"}],"outputs":[],"stateMutability":"nonpayable"},{"type":"function","name":"totalDelegated","inputs":[],"outputs":[{"name":"","type":"uint256","internalType":"uint256"}],"stateMutability":"view"},{"type":"function","name":"totalDeposits","inputs":[],"outputs":[{"name":"","type":"uint256","internalType":"uint256"}],"stateMutability":"view"},{"type":"function","name":"usdc","inputs":[],"outputs":[{"name":"","type":"address","internalType":"contract IERC20"}],"stateMutability":"view"},{"type":"error","name":"InsufficientCredit","inputs":[]}],"bytecode":{"object":"0x60c060405234801561000f575f80fd5b50604051610826380380610826833981810160405281019061003191906100fe565b8173ffffffffffffffffffffffffffffffffffffffff1660808173ffffffffffffffffffffffffffffffffffffffff16815250508073ffffffffffffffffffffffffffffffffffffffff1660a08173ffffffffffffffffffffffffffffffffffffffff1681525050505061013c565b5f80fd5b5f73ffffffffffffffffffffffffffffffffffffffff82169050919050565b5f6100cd826100a4565b9050919050565b6100dd816100c3565b81146100e7575f80fd5b50565b5f815190506100f8816100d4565b92915050565b5f8060408385031215610114576101136100a0565b5b5f610121858286016100ea565b9250506020610132858286016100ea565b9150509250929050565b60805160a0516106bb61016b5f395f81816101f2015261033601525f818161014f015261027e01526106bb5ff3fe608060405234801561000f575f80fd5b506004361061007b575f3560e01c806380d04de81161005957806380d04de8146100d957806389c85c6f146100f7578063b6b55f2514610113578063c12c21c01461012f5761007b565b80633e413bee1461007f578063743753591461009d5780637d882097146100bb575b5f80fd5b61008761014d565b60405161009491906103d2565b60405180910390f35b6100a5610171565b6040516100b29190610403565b60405180910390f35b6100c3610186565b6040516100d09190610403565b60405180910390f35b6100e161018e565b6040516100ee9190610403565b60405180910390f35b610111600480360381019061010c9190610485565b610197565b005b61012d600480360381019061012891906104c3565b61027c565b005b610137610334565b604051610144919061050e565b60405180910390f35b7f000000000000000000000000000000000000000000000000000000000000000081565b5f6001545f546101819190610554565b905090565b5f8054905090565b5f600154905090565b61019f610171565b8111156101d8576040517f8ac4bc7300000000000000000000000000000000000000000000000000000000815260040160405180910390fd5b8060015f8282546101e99190610587565b925050819055507f000000000000000000000000000000000000000000000000000000000000000073ffffffffffffffffffffffffffffffffffffffff16636cb80eb583836040518363ffffffff1660e01b815260040161024b9291906105c9565b5f604051808303815f87803b158015610262575f80fd5b505af1158015610274573d5f803e3d5ffd5b505050505050565b7f000000000000000000000000000000000000000000000000000000000000000073ffffffffffffffffffffffffffffffffffffffff166323b872dd3330846040518463ffffffff1660e01b81526004016102d9939291906105f0565b6020604051808303815f875af11580156102f5573d5f803e3d5ffd5b505050506040513d601f19601f82011682018060405250810190610319919061065a565b50805f8082825461032a9190610587565b9250508190555050565b7f000000000000000000000000000000000000000000000000000000000000000081565b5f73ffffffffffffffffffffffffffffffffffffffff82169050919050565b5f819050919050565b5f61039a61039561039084610358565b610377565b610358565b9050919050565b5f6103ab82610380565b9050919050565b5f6103bc826103a1565b9050919050565b6103cc816103b2565b82525050565b5f6020820190506103e55f8301846103c3565b92915050565b5f819050919050565b6103fd816103eb565b82525050565b5f6020820190506104165f8301846103f4565b92915050565b5f80fd5b5f61042a82610358565b9050919050565b61043a81610420565b8114610444575f80fd5b50565b5f8135905061045581610431565b92915050565b610464816103eb565b811461046e575f80fd5b50565b5f8135905061047f8161045b565b92915050565b5f806040838503121561049b5761049a61041c565b5b5f6104a885828601610447565b92505060206104b985828601610471565b9150509250929050565b5f602082840312156104d8576104d761041c565b5b5f6104e584828501610471565b91505092915050565b5f6104f8826103a1565b9050919050565b610508816104ee565b82525050565b5f6020820190506105215f8301846104ff565b92915050565b7f4e487b71000000000000000000000000000000000000000000000000000000005f52601160045260245ffd5b5f61055e826103eb565b9150610569836103eb565b925082820390508181111561058157610580610527565b5b92915050565b5f610591826103eb565b915061059c836103eb565b92508282019050808211156105b4576105b3610527565b5b92915050565b6105c381610420565b82525050565b5f6040820190506105dc5f8301856105ba565b6105e960208301846103f4565b9392505050565b5f6060820190506106035f8301866105ba565b61061060208301856105ba565b61061d60408301846103f4565b949350505050565b5f8115159050919050565b61063981610625565b8114610643575f80fd5b50565b5f8151905061065481610630565b92915050565b5f6020828403121561066f5761066e61041c565b5b5f61067c84828501610646565b9150509291505056fea2646970667358221220e11f63e4952aaf342135725d1809c38c2ac0f3dd2a67a0886435c4f66cbb056364736f6c63430008140033","linkReferences":{}},"methodIdentifiers":{"availableLiquidity()":"74375359","creditManager()":"c12c21c0","delegateCredit(address,uint256)":"89c85c6f","deposit(uint256)":"b6b55f25","totalDelegated()":"80d04de8","totalDeposits()":"7d882097","usdc()":"3e413bee"},"id":15}