{"abi":[{"type":"constructor","inputs":[{"name":"_usdc","type":"address","internalType":"address"},{"name":"_creditManager","type":"address","internalType":"address"},{"name":"_controller","type":"address","internalType":"address"}],"stateMutability":"nonpayable"},{"type":"function","name":"CONTROLLER","inputs":[],"outputs":[{"name":"","type":"address","internalType":"address"}],"stateMutability":"view"},{"type":"function","name":"CREDIT_MANAGER","inputs":[],"outputs":[{"name":"","type":"address","internalType":"contract ICreditManager"}],"stateMutability":"view"},{"type":"function","name":"USDC","inputs":[],"outputs":[{"name":"","type":"address","internalType":"contract IERC20"}],"stateMutability":"view"},{"type":"function","name":"availableLiquidity","inputs":[],"outputs":[{"name":"","type":"uint256","internalType":"uint256"}],"stateMutability":"view"},{"type":"function","name":"delegateCredit","inputs":[{"name":"user","type":"address","internalType":"address"},{"name":"amount","type":"uint256","internalType":"uint256"}],"outputs":[],"stateMutability":"nonpayable"},{"type":"function","name":"deposit","inputs":[{"name":"amount","type":"uint256","internalType":"uint256"}],"outputs":[],"stateMutability":"nonpayable"},{"type":"function","name":"totalDelegated","inputs":[],"outputs":[{"name":"","type":"uint256","internalType":"uint256"}],"stateMutability":"view"},{"type":"function","name":"totalDeposits","inputs":[],"outputs":[{"name":"","type":"uint256","internalType":"uint256"}],"stateMutability":"view"},{"type":"error","name":"InsufficientCredit","inputs":[]},{"type":"error","name":"InvalidAmount","inputs":[]},{"type":"error","name":"NotAuthorized","inputs":[]},{"type":"error","name":"SafeERC20FailedOperation","inputs":[{"name":"token","type":"address","internalType":"address"}]}],"bytecode":{"object":"0x60e0346100b257601f61050938819003918201601f19168301916001600160401b038311848410176100b6578084926060946040528339810103126100b257610047816100ca565b61005f6040610058602085016100ca565b93016100ca565b6001600160a01b03918216608052911660a05260c05260405161042a90816100df823960805181818160df01526102f0015260a05181818161021c0152610393015260c051818181608d01526101ce0152f35b5f80fd5b634e487b7160e01b5f52604160045260245ffd5b51906001600160a01b03821682036100b25756fe6080604081815260049182361015610015575f80fd5b5f92833560e01c9182633cdaf2521461037f57508163743753591461035b5781637d8820971461033e57816380d04de81461031f57816389a30271146102db57816389c85c6f1461019e578163b6b55f25146100c0575063ee0fc1211461007a575f80fd5b346100bc57816003193601126100bc57517f00000000000000000000000000000000000000000000000000000000000000006001600160a01b03168152602090f35b5080fd5b9190503461019a57602036600319011261019a57813591821561018c577f00000000000000000000000000000000000000000000000000000000000000008251926323b872dd60e01b865233835230602452846044528360208760648180875af1916001885114831615610167575b52856060521561014a57846101458582546103e7565b815580f35b635274afe760e01b83526001600160a01b03169082015260249150fd5b9190506001811516610183578490833b15153d1516169161012f565b843d88823e3d90fd5b905163162908e360e11b8152fd5b8280fd5b9190503461019a578060031936011261019a5781356001600160a01b0381811693918490036102d75760243590807f00000000000000000000000000000000000000000000000000000000000000001633036102c75781156102b7576102026103c2565b82116102a757908591610217826001546103e7565b6001557f00000000000000000000000000000000000000000000000000000000000000001694853b1561019a576044908386519788948593636cb80eb560e01b85528885015260248401525af1801561029d57610272578380f35b67ffffffffffffffff831161028a5750525f80808380f35b634e487b7160e01b845260419052602483fd5b82513d86823e3d90fd5b8351638ac4bc7360e01b81528390fd5b835163162908e360e11b81528390fd5b835163ea8e4eb560e01b81528390fd5b8480fd5b5050346100bc57816003193601126100bc57517f00000000000000000000000000000000000000000000000000000000000000006001600160a01b03168152602090f35b5050346100bc57816003193601126100bc576020906001549051908152f35b5050346100bc57816003193601126100bc57602091549051908152f35b5050346100bc57816003193601126100bc576020906103786103c2565b9051908152f35b8490346100bc57816003193601126100bc577f00000000000000000000000000000000000000000000000000000000000000006001600160a01b03168152602090f35b5f5460015481039081116103d35790565b634e487b7160e01b5f52601160045260245ffd5b919082018092116103d35756fea26469706673582212202a0522dc98a60b2effcd786460c1bcfe3cb990c3cf4a5d5df83bc9172cba44ee64736f6c63430008140033","linkReferences":{}},"methodIdentifiers":{"CONTROLLER()":"ee0fc121","CREDIT_MANAGER()":"3cdaf252","USDC()":"89a30271","availableLiquidity()":"74375359","delegateCredit(address,uint256)":"89c85c6f","deposit(uint256)":"b6b55f25","totalDelegated()":"80d04de8","totalDeposits()":"7d882097"},"id":18}