{"abi":[{"type":"constructor","inputs":[{"name":"bonus","type":"uint256","internalType":"uint256"}],"stateMutability":"nonpayable"},{"type":"function","name":"LIQUIDATION_BONUS","inputs":[],"outputs":[{"name":"","type":"uint256","internalType":"uint256"}],"stateMutability":"view"},{"type":"function","name":"LIQUIDATION_THRESHOLD","inputs":[],"outputs":[{"name":"","type":"uint256","internalType":"uint256"}],"stateMutability":"view"},{"type":"function","name":"isLiquidatable","inputs":[{"name":"healthFactor","type":"uint256","internalType":"uint256"}],"outputs":[{"name":"","type":"bool","internalType":"bool"}],"stateMutability":"pure"},{"type":"function","name":"seizeAmount","inputs":[{"name":"repayAmount","type":"uint256","internalType":"uint256"}],"outputs":[{"name":"","type":"uint256","internalType":"uint256"}],"stateMutability":"view"},{"type":"error","name":"InvalidLiquidationBonus","inputs":[]}],"bytecode":{"object":"0x60a060405234801561000f575f80fd5b50604051610445380380610445833981810160405281019061003191906100ca565b670e92596fd629000081108061004e5750670f43fc2c04ee000081115b15610085576040517f54198c1c00000000000000000000000000000000000000000000000000000000815260040160405180910390fd5b8060808181525050506100f5565b5f80fd5b5f819050919050565b6100a981610097565b81146100b3575f80fd5b50565b5f815190506100c4816100a0565b92915050565b5f602082840312156100df576100de610093565b5b5f6100ec848285016100b6565b91505092915050565b6080516103326101135f395f818160ff015261013901526103325ff3fe608060405234801561000f575f80fd5b506004361061004a575f3560e01c8063211a44431461004e5780633574d4c41461007e57806390a8ae9b1461009c578063ed22ba69146100ba575b5f80fd5b610068600480360381019061006391906101ab565b6100ea565b60405161007591906101f0565b60405180910390f35b6100866100fd565b6040516100939190610218565b60405180910390f35b6100a4610121565b6040516100b19190610218565b60405180910390f35b6100d460048036038101906100cf91906101ab565b61012d565b6040516100e19190610218565b60405180910390f35b5f670de0b6b3a764000082109050919050565b7f000000000000000000000000000000000000000000000000000000000000000081565b670de0b6b3a764000081565b5f670de0b6b3a76400007f000000000000000000000000000000000000000000000000000000000000000083610163919061025e565b61016d91906102cc565b9050919050565b5f80fd5b5f819050919050565b61018a81610178565b8114610194575f80fd5b50565b5f813590506101a581610181565b92915050565b5f602082840312156101c0576101bf610174565b5b5f6101cd84828501610197565b91505092915050565b5f8115159050919050565b6101ea816101d6565b82525050565b5f6020820190506102035f8301846101e1565b92915050565b61021281610178565b82525050565b5f60208201905061022b5f830184610209565b92915050565b7f4e487b71000000000000000000000000000000000000000000000000000000005f52601160045260245ffd5b5f61026882610178565b915061027383610178565b925082820261028181610178565b9150828204841483151761029857610297610231565b5b5092915050565b7f4e487b71000000000000000000000000000000000000000000000000000000005f52601260045260245ffd5b5f6102d682610178565b91506102e183610178565b9250826102f1576102f061029f565b5b82820490509291505056fea2646970667358221220166c80cab74f48cc9a2221c1c69e12e5266ab3a4c598340dc67ba55a046278b064736f6c63430008140033","linkReferences":{}},"methodIdentifiers":{"LIQUIDATION_BONUS()":"3574d4c4","LIQUIDATION_THRESHOLD()":"90a8ae9b","isLiquidatable(uint256)":"211a4443","seizeAmount(uint256)":"ed22ba69"},"id":6}