{"abi":[{"type":"constructor","inputs":[{"name":"bonus","type":"uint256","internalType":"uint256"}],"stateMutability":"nonpayable"},{"type":"function","name":"LIQUIDATION_BONUS","inputs":[],"outputs":[{"name":"","type":"uint256","internalType":"uint256"}],"stateMutability":"view"},{"type":"function","name":"LIQUIDATION_THRESHOLD","inputs":[],"outputs":[{"name":"","type":"uint256","internalType":"uint256"}],"stateMutability":"view"},{"type":"function","name":"isLiquidatable","inputs":[{"name":"healthFactor","type":"uint256","internalType":"uint256"}],"outputs":[{"name":"","type":"bool","internalType":"bool"}],"stateMutability":"pure"},{"type":"function","name":"seizeAmount","inputs":[{"name":"repayAmount","type":"uint256","internalType":"uint256"}],"outputs":[{"name":"","type":"uint256","internalType":"uint256"}],"stateMutability":"view"},{"type":"error","name":"InvalidLiquidationBonus","inputs":[]}],"bytecode":{"object":"0x60a03461009857601f61022c38819003918201601f19168301916001600160401b0383118484101761009c578084926020946040528339810103126100985751670e92596fd629000081108015610087575b6100755760805260405161017b90816100b18239608051818181605d015260f70152f35b604051631506630760e21b8152600490fd5b50670f43fc2c04ee00008111610051565b5f80fd5b634e487b7160e01b5f52604160045260245ffdfe6080806040526004361015610012575f80fd5b5f90813560e01c908163211a44431461011a575080633574d4c4146100df57806390a8ae9b146100bc5763ed22ba691461004a575f80fd5b346100b95760203660031901126100b9577f0000000000000000000000000000000000000000000000000000000000000000600435818102929181159184041417156100a557602082670de0b6b3a764000060405191048152f35b634e487b7160e01b81526011600452602490fd5b80fd5b50346100b957806003193601126100b9576020604051670de0b6b3a76400008152f35b50346100b957806003193601126100b95760206040517f00000000000000000000000000000000000000000000000000000000000000008152f35b90503461014157602036600319011261014157602090670de0b6b3a7640000600435108152f35b5080fdfea26469706673582212204194bf5549478765d0cddef2bed3c3bdc1eafa6ef21f20556b10d3a6366a2c3464736f6c63430008140033","linkReferences":{}},"methodIdentifiers":{"LIQUIDATION_BONUS()":"3574d4c4","LIQUIDATION_THRESHOLD()":"90a8ae9b","isLiquidatable(uint256)":"211a4443","seizeAmount(uint256)":"ed22ba69"},"id":7}