{"abi":[{"type":"constructor","inputs":[{"name":"_aave","type":"address","internalType":"address"},{"name":"_router","type":"address","internalType":"address"}],"stateMutability":"nonpayable"},{"type":"function","name":"AAVE","inputs":[],"outputs":[{"name":"","type":"address","internalType":"contract IAave"}],"stateMutability":"view"},{"type":"function","name":"ROUTER","inputs":[],"outputs":[{"name":"","type":"address","internalType":"address"}],"stateMutability":"view"},{"type":"function","name":"borrow","inputs":[{"name":"asset","type":"address","internalType":"address"},{"name":"amount","type":"uint256","internalType":"uint256"},{"name":"onBehalfOf","type":"address","internalType":"address"}],"outputs":[],"stateMutability":"nonpayable"},{"type":"error","name":"NotRouter","inputs":[]}],"bytecode":{"object":"0x60c060405234801561000f575f80fd5b506040516105f63803806105f6833981810160405281019061003191906100fe565b8173ffffffffffffffffffffffffffffffffffffffff1660808173ffffffffffffffffffffffffffffffffffffffff16815250508073ffffffffffffffffffffffffffffffffffffffff1660a08173ffffffffffffffffffffffffffffffffffffffff1681525050505061013c565b5f80fd5b5f73ffffffffffffffffffffffffffffffffffffffff82169050919050565b5f6100cd826100a4565b9050919050565b6100dd816100c3565b81146100e7575f80fd5b50565b5f815190506100f8816100d4565b92915050565b5f8060408385031215610114576101136100a0565b5b5f610121858286016100ea565b9250506020610132858286016100ea565b9150509250929050565b60805160a05161048e6101685f395f8181609d015260e501525f818160c1015261016a015261048e5ff3fe608060405234801561000f575f80fd5b506004361061003f575f3560e01c806332fe7b261461004357806348ccda3c146100615780636c665a551461007f575b5f80fd5b61004b61009b565b604051610058919061023b565b60405180910390f35b6100696100bf565b60405161007691906102af565b60405180910390f35b61009960048036038101906100949190610329565b6100e3565b005b7f000000000000000000000000000000000000000000000000000000000000000081565b7f000000000000000000000000000000000000000000000000000000000000000081565b7f000000000000000000000000000000000000000000000000000000000000000073ffffffffffffffffffffffffffffffffffffffff163373ffffffffffffffffffffffffffffffffffffffff1614610168576040517f9165520100000000000000000000000000000000000000000000000000000000815260040160405180910390fd5b7f000000000000000000000000000000000000000000000000000000000000000073ffffffffffffffffffffffffffffffffffffffff1663a415bcad848460025f866040518663ffffffff1660e01b81526004016101ca959493929190610407565b5f604051808303815f87803b1580156101e1575f80fd5b505af11580156101f3573d5f803e3d5ffd5b50505050505050565b5f73ffffffffffffffffffffffffffffffffffffffff82169050919050565b5f610225826101fc565b9050919050565b6102358161021b565b82525050565b5f60208201905061024e5f83018461022c565b92915050565b5f819050919050565b5f61027761027261026d846101fc565b610254565b6101fc565b9050919050565b5f6102888261025d565b9050919050565b5f6102998261027e565b9050919050565b6102a98161028f565b82525050565b5f6020820190506102c25f8301846102a0565b92915050565b5f80fd5b6102d58161021b565b81146102df575f80fd5b50565b5f813590506102f0816102cc565b92915050565b5f819050919050565b610308816102f6565b8114610312575f80fd5b50565b5f81359050610323816102ff565b92915050565b5f805f606084860312156103405761033f6102c8565b5b5f61034d868287016102e2565b935050602061035e86828701610315565b925050604061036f868287016102e2565b9150509250925092565b610382816102f6565b82525050565b5f819050919050565b5f6103ab6103a66103a184610388565b610254565b6102f6565b9050919050565b6103bb81610391565b82525050565b5f819050919050565b5f61ffff82169050919050565b5f6103f16103ec6103e7846103c1565b610254565b6103ca565b9050919050565b610401816103d7565b82525050565b5f60a08201905061041a5f83018861022c565b6104276020830187610379565b61043460408301866103b2565b61044160608301856103f8565b61044e608083018461022c565b969550505050505056fea26469706673582212204a308a4429c170d453eaa734a037bf30a26dfa1117bf4ea370a592489bde64d064736f6c63430008140033","linkReferences":{}},"methodIdentifiers":{"AAVE()":"48ccda3c","ROUTER()":"32fe7b26","borrow(address,uint256,address)":"6c665a55"},"id":0}