{"abi":[{"type":"constructor","inputs":[{"name":"_aave","type":"address","internalType":"address"}],"stateMutability":"nonpayable"},{"type":"function","name":"AAVE","inputs":[],"outputs":[{"name":"","type":"address","internalType":"contract IAave"}],"stateMutability":"view"},{"type":"function","name":"borrow","inputs":[{"name":"asset","type":"address","internalType":"address"},{"name":"amount","type":"uint256","internalType":"uint256"},{"name":"onBehalfOf","type":"address","internalType":"address"}],"outputs":[],"stateMutability":"nonpayable"}],"bytecode":{"object":"0x60a060405234801561000f575f80fd5b506040516104b43803806104b4833981810160405281019061003191906100c9565b8073ffffffffffffffffffffffffffffffffffffffff1660808173ffffffffffffffffffffffffffffffffffffffff1681525050506100f4565b5f80fd5b5f73ffffffffffffffffffffffffffffffffffffffff82169050919050565b5f6100988261006f565b9050919050565b6100a88161008e565b81146100b2575f80fd5b50565b5f815190506100c38161009f565b92915050565b5f602082840312156100de576100dd61006b565b5b5f6100eb848285016100b5565b91505092915050565b6080516103a36101115f395f818160740152609801526103a35ff3fe608060405234801561000f575f80fd5b5060043610610034575f3560e01c806348ccda3c146100385780636c665a5514610056575b5f80fd5b610040610072565b60405161004d91906101a4565b60405180910390f35b610070600480360381019061006b919061022f565b610096565b005b7f000000000000000000000000000000000000000000000000000000000000000081565b7f000000000000000000000000000000000000000000000000000000000000000073ffffffffffffffffffffffffffffffffffffffff1663a415bcad848460025f866040518663ffffffff1660e01b81526004016100f895949392919061031c565b5f604051808303815f87803b15801561010f575f80fd5b505af1158015610121573d5f803e3d5ffd5b50505050505050565b5f73ffffffffffffffffffffffffffffffffffffffff82169050919050565b5f819050919050565b5f61016c6101676101628461012a565b610149565b61012a565b9050919050565b5f61017d82610152565b9050919050565b5f61018e82610173565b9050919050565b61019e81610184565b82525050565b5f6020820190506101b75f830184610195565b92915050565b5f80fd5b5f6101cb8261012a565b9050919050565b6101db816101c1565b81146101e5575f80fd5b50565b5f813590506101f6816101d2565b92915050565b5f819050919050565b61020e816101fc565b8114610218575f80fd5b50565b5f8135905061022981610205565b92915050565b5f805f60608486031215610246576102456101bd565b5b5f610253868287016101e8565b93505060206102648682870161021b565b9250506040610275868287016101e8565b9150509250925092565b610288816101c1565b82525050565b610297816101fc565b82525050565b5f819050919050565b5f6102c06102bb6102b68461029d565b610149565b6101fc565b9050919050565b6102d0816102a6565b82525050565b5f819050919050565b5f61ffff82169050919050565b5f6103066103016102fc846102d6565b610149565b6102df565b9050919050565b610316816102ec565b82525050565b5f60a08201905061032f5f83018861027f565b61033c602083018761028e565b61034960408301866102c7565b610356606083018561030d565b610363608083018461027f565b969550505050505056fea2646970667358221220060739ac68a3146c1ac7d98d45345857bc3341e9def9e0dde9eb3d93cdc7599e64736f6c63430008140033","linkReferences":{}},"methodIdentifiers":{"AAVE()":"48ccda3c","borrow(address,uint256,address)":"6c665a55"},"id":0}