{
  "abi": [
    {
      "type": "constructor",
      "inputs": [
        {
          "name": "_aave",
          "type": "address",
          "internalType": "address"
        },
        {
          "name": "_router",
          "type": "address",
          "internalType": "address"
        }
      ],
      "stateMutability": "nonpayable"
    },
    {
      "type": "function",
      "name": "AAVE",
      "inputs": [],
      "outputs": [
        {
          "name": "",
          "type": "address",
          "internalType": "contract IAave"
        }
      ],
      "stateMutability": "view"
    },
    {
      "type": "function",
      "name": "ROUTER",
      "inputs": [],
      "outputs": [
        {
          "name": "",
          "type": "address",
          "internalType": "address"
        }
      ],
      "stateMutability": "view"
    },
    {
      "type": "function",
      "name": "borrow",
      "inputs": [
        {
          "name": "asset",
          "type": "address",
          "internalType": "address"
        },
        {
          "name": "amount",
          "type": "uint256",
          "internalType": "uint256"
        },
        {
          "name": "onBehalfOf",
          "type": "address",
          "internalType": "address"
        }
      ],
      "outputs": [],
      "stateMutability": "nonpayable"
    },
    {
      "type": "function",
      "name": "repay",
      "inputs": [
        {
          "name": "asset",
          "type": "address",
          "internalType": "address"
        },
        {
          "name": "amount",
          "type": "uint256",
          "internalType": "uint256"
        },
        {
          "name": "onBehalfOf",
          "type": "address",
          "internalType": "address"
        }
      ],
      "outputs": [],
      "stateMutability": "nonpayable"
    },
    {
      "type": "error",
      "name": "NotRouter",
      "inputs": []
    },
    {
      "type": "error",
      "name": "SafeERC20FailedOperation",
      "inputs": [
        {
          "name": "token",
          "type": "address",
          "internalType": "address"
        }
      ]
    }
  ],
  "bytecode": {
    "object": "0x60c03461009e57601f61054538819003918201601f19168301916001600160401b038311848410176100a257808492604094855283398101031261009e57610052602061004b836100b6565b92016100b6565b6001600160a01b0390911660805260a05260405161047a90816100cb823960805181818160980152818161019c0152610396015260a051818181606a0152818161016f01526103dd0152f35b5f80fd5b634e487b7160e01b5f52604160045260245ffd5b51906001600160a01b038216820361009e5756fe6080604081815260049081361015610015575f80fd5b5f92833560e01c90816332fe7b26146103c95750806348ccda3c146103815780635ceae9c41461015157636c665a551461004d575f80fd5b3461014d5761005b3661040c565b9093916001600160a01b0391907f00000000000000000000000000000000000000000000000000000000000000008316330361013d5790829187937f00000000000000000000000000000000000000000000000000000000000000001691823b156101395760a49284869289519a8b97889663a415bcad60e01b8852168a8701526024860152600260448601528360648601521660848401525af1801561012f57610104578380f35b67ffffffffffffffff831161011c5750525f80808380f35b634e487b7160e01b845260419052602483fd5b82513d86823e3d90fd5b8480fd5b8451639165520160e01b81528490fd5b8280fd5b50903461014d576101613661040c565b6001600160a01b03949093927f00000000000000000000000000000000000000000000000000000000000000008616330361037157851691857f0000000000000000000000000000000000000000000000000000000000000000169282519163095ea7b360e01b91828a528587528960249683885260209a8b95868460448180895af16001855114811615610364575b888a5215610297575b5060849495965087519a8b96879563573ade8160e01b87528c8701528a860152600260448601521660648401525af190811561028e5750610239578480f35b83913d8511610286575b601f19601f840116840167ffffffffffffffff85821091111761027557505081010312610272575f8080808480f35b80fd5b634e487b7160e01b86526041905284fd5b3d9250610243565b513d87823e3d90fd5b92909395509590939550818c528389528b88528a8c60448180895af160018d5114811615610345575b8188521561033157508551908b52828852848752898b60448180885af160018c5114811615610312575b818752156102fe5784928a94928c926101fa565b635274afe760e01b81528781018490528690fd5b600181151661032857843b15153d1516166102ea565b503d8b823e3d90fd5b635274afe760e01b81528881018590528790fd5b600181151661035b57853b15153d1516166102c0565b503d8c823e3d90fd5b853b15153d1516166101f1565b8151639165520160e01b81528490fd5b8382346103c557816003193601126103c557517f00000000000000000000000000000000000000000000000000000000000000006001600160a01b03168152602090f35b5080fd5b8490346103c557816003193601126103c5577f00000000000000000000000000000000000000000000000000000000000000006001600160a01b03168152602090f35b6060906003190112610440576001600160a01b03600435818116810361044057916024359160443590811681036104405790565b5f80fdfea2646970667358221220012bf0cec9afe8dba21a518ff26fa202fc18eb944157f340f4b68b3cca23801764736f6c63430008140033",
    "linkReferences": {}
  },
  "methodIdentifiers": {
    "AAVE()": "48ccda3c",
    "ROUTER()": "32fe7b26",
    "borrow(address,uint256,address)": "6c665a55",
    "repay(address,uint256,address)": "5ceae9c4"
  },
  "id": 0
}