{"abi":[{"type":"constructor","inputs":[{"name":"_router","type":"address","internalType":"address"},{"name":"_oracle","type":"address","internalType":"address"}],"stateMutability":"nonpayable"},{"type":"function","name":"collateralValue","inputs":[{"name":"user","type":"address","internalType":"address"}],"outputs":[{"name":"","type":"uint256","internalType":"uint256"}],"stateMutability":"view"},{"type":"function","name":"creditLimit","inputs":[{"name":"user","type":"address","internalType":"address"}],"outputs":[{"name":"","type":"uint256","internalType":"uint256"}],"stateMutability":"view"},{"type":"function","name":"delegatedCredit","inputs":[{"name":"user","type":"address","internalType":"address"}],"outputs":[{"name":"","type":"uint256","internalType":"uint256"}],"stateMutability":"view"},{"type":"function","name":"freeze","inputs":[{"name":"user","type":"address","internalType":"address"}],"outputs":[],"stateMutability":"nonpayable"},{"type":"function","name":"frozen","inputs":[{"name":"","type":"address","internalType":"address"}],"outputs":[{"name":"","type":"bool","internalType":"bool"}],"stateMutability":"view"},{"type":"function","name":"onBorrow","inputs":[{"name":"user","type":"address","internalType":"address"},{"name":"amount","type":"uint256","internalType":"uint256"}],"outputs":[],"stateMutability":"nonpayable"},{"type":"function","name":"oracle","inputs":[],"outputs":[{"name":"","type":"address","internalType":"address"}],"stateMutability":"view"},{"type":"function","name":"router","inputs":[],"outputs":[{"name":"","type":"address","internalType":"address"}],"stateMutability":"view"},{"type":"function","name":"setCollateralValue","inputs":[{"name":"user","type":"address","internalType":"address"},{"name":"value","type":"uint256","internalType":"uint256"}],"outputs":[],"stateMutability":"nonpayable"},{"type":"function","name":"setDelegatedCredit","inputs":[{"name":"user","type":"address","internalType":"address"},{"name":"value","type":"uint256","internalType":"uint256"}],"outputs":[],"stateMutability":"nonpayable"},{"type":"function","name":"totalDebt","inputs":[{"name":"user","type":"address","internalType":"address"}],"outputs":[{"name":"","type":"uint256","internalType":"uint256"}],"stateMutability":"view"},{"type":"function","name":"validateBorrow","inputs":[{"name":"user","type":"address","internalType":"address"},{"name":"amount","type":"uint256","internalType":"uint256"}],"outputs":[{"name":"","type":"bool","internalType":"bool"}],"stateMutability":"view"},{"type":"error","name":"InsufficientCredit","inputs":[]},{"type":"error","name":"NotAuthorized","inputs":[]}],"bytecode":{"object":"0x608060405234801561000f575f80fd5b50604051610d77380380610d7783398181016040528101906100319190610115565b815f806101000a81548173ffffffffffffffffffffffffffffffffffffffff021916908373ffffffffffffffffffffffffffffffffffffffff1602179055508060015f6101000a81548173ffffffffffffffffffffffffffffffffffffffff021916908373ffffffffffffffffffffffffffffffffffffffff1602179055505050610153565b5f80fd5b5f73ffffffffffffffffffffffffffffffffffffffff82169050919050565b5f6100e4826100bb565b9050919050565b6100f4816100da565b81146100fe575f80fd5b50565b5f8151905061010f816100eb565b92915050565b5f806040838503121561012b5761012a6100b7565b5b5f61013885828601610101565b925050602061014985828601610101565b9150509250929050565b610c17806101605f395ff3fe608060405234801561000f575f80fd5b50600436106100b2575f3560e01c80638d1fdf2f1161006f5780638d1fdf2f1461019c5780639c547265146101b8578063d0516650146101e8578063d2cd62ad14610218578063f7f11fb714610248578063f887ea4014610264576100b2565b80631f429f50146100b65780631ff517ff146100e65780636873509b146101165780636cb80eb5146101325780637544aa441461014e5780637dc0d1d01461017e575b5f80fd5b6100d060048036038101906100cb91906109e6565b610282565b6040516100dd9190610a29565b60405180910390f35b61010060048036038101906100fb91906109e6565b610310565b60405161010d9190610a29565b60405180910390f35b610130600480360381019061012b9190610a6c565b610356565b005b61014c60048036038101906101479190610a6c565b610420565b005b610168600480360381019061016391906109e6565b6104ea565b6040516101759190610a29565b60405180910390f35b610186610530565b6040516101939190610ab9565b60405180910390f35b6101b660048036038101906101b191906109e6565b610555565b005b6101d260048036038101906101cd9190610a6c565b610631565b6040516101df9190610aec565b60405180910390f35b61020260048036038101906101fd91906109e6565b610777565b60405161020f9190610aec565b60405180910390f35b610232600480360381019061022d91906109e6565b610794565b60405161023f9190610a29565b60405180910390f35b610262600480360381019061025d9190610a6c565b6107da565b005b61026c610965565b6040516102799190610ab9565b60405180910390f35b5f60035f8373ffffffffffffffffffffffffffffffffffffffff1673ffffffffffffffffffffffffffffffffffffffff1681526020019081526020015f205460025f8473ffffffffffffffffffffffffffffffffffffffff1673ffffffffffffffffffffffffffffffffffffffff1681526020019081526020015f20546103099190610b32565b9050919050565b5f60045f8373ffffffffffffffffffffffffffffffffffffffff1673ffffffffffffffffffffffffffffffffffffffff1681526020019081526020015f20549050919050565b5f8054906101000a900473ffffffffffffffffffffffffffffffffffffffff1673ffffffffffffffffffffffffffffffffffffffff163373ffffffffffffffffffffffffffffffffffffffff16146103da576040517fea8e4eb500000000000000000000000000000000000000000000000000000000815260040160405180910390fd5b8060025f8473ffffffffffffffffffffffffffffffffffffffff1673ffffffffffffffffffffffffffffffffffffffff1681526020019081526020015f20819055505050565b5f8054906101000a900473ffffffffffffffffffffffffffffffffffffffff1673ffffffffffffffffffffffffffffffffffffffff163373ffffffffffffffffffffffffffffffffffffffff16146104a4576040517fea8e4eb500000000000000000000000000000000000000000000000000000000815260040160405180910390fd5b8060035f8473ffffffffffffffffffffffffffffffffffffffff1673ffffffffffffffffffffffffffffffffffffffff1681526020019081526020015f20819055505050565b5f60025f8373ffffffffffffffffffffffffffffffffffffffff1673ffffffffffffffffffffffffffffffffffffffff1681526020019081526020015f20549050919050565b60015f9054906101000a900473ffffffffffffffffffffffffffffffffffffffff1681565b5f8054906101000a900473ffffffffffffffffffffffffffffffffffffffff1673ffffffffffffffffffffffffffffffffffffffff163373ffffffffffffffffffffffffffffffffffffffff16146105d9576040517fea8e4eb500000000000000000000000000000000000000000000000000000000815260040160405180910390fd5b600160055f8373ffffffffffffffffffffffffffffffffffffffff1673ffffffffffffffffffffffffffffffffffffffff1681526020019081526020015f205f6101000a81548160ff02191690831515021790555050565b5f60055f8473ffffffffffffffffffffffffffffffffffffffff1673ffffffffffffffffffffffffffffffffffffffff1681526020019081526020015f205f9054906101000a900460ff1615610689575f9050610771565b5f8203610698575f9050610771565b5f60035f8573ffffffffffffffffffffffffffffffffffffffff1673ffffffffffffffffffffffffffffffffffffffff1681526020019081526020015f205460025f8673ffffffffffffffffffffffffffffffffffffffff1673ffffffffffffffffffffffffffffffffffffffff1681526020019081526020015f205461071f9190610b32565b9050808360045f8773ffffffffffffffffffffffffffffffffffffffff1673ffffffffffffffffffffffffffffffffffffffff1681526020019081526020015f205461076b9190610b32565b11159150505b92915050565b6005602052805f5260405f205f915054906101000a900460ff1681565b5f60035f8373ffffffffffffffffffffffffffffffffffffffff1673ffffffffffffffffffffffffffffffffffffffff1681526020019081526020015f20549050919050565b5f8054906101000a900473ffffffffffffffffffffffffffffffffffffffff1673ffffffffffffffffffffffffffffffffffffffff163373ffffffffffffffffffffffffffffffffffffffff161461085e576040517fea8e4eb500000000000000000000000000000000000000000000000000000000815260040160405180910390fd5b3073ffffffffffffffffffffffffffffffffffffffff16639c54726583836040518363ffffffff1660e01b8152600401610899929190610b65565b602060405180830381865afa1580156108b4573d5f803e3d5ffd5b505050506040513d601f19601f820116820180604052508101906108d89190610bb6565b61090e576040517f8ac4bc7300000000000000000000000000000000000000000000000000000000815260040160405180910390fd5b8060045f8473ffffffffffffffffffffffffffffffffffffffff1673ffffffffffffffffffffffffffffffffffffffff1681526020019081526020015f205f82825461095a9190610b32565b925050819055505050565b5f8054906101000a900473ffffffffffffffffffffffffffffffffffffffff1681565b5f80fd5b5f73ffffffffffffffffffffffffffffffffffffffff82169050919050565b5f6109b58261098c565b9050919050565b6109c5816109ab565b81146109cf575f80fd5b50565b5f813590506109e0816109bc565b92915050565b5f602082840312156109fb576109fa610988565b5b5f610a08848285016109d2565b91505092915050565b5f819050919050565b610a2381610a11565b82525050565b5f602082019050610a3c5f830184610a1a565b92915050565b610a4b81610a11565b8114610a55575f80fd5b50565b5f81359050610a6681610a42565b92915050565b5f8060408385031215610a8257610a81610988565b5b5f610a8f858286016109d2565b9250506020610aa085828601610a58565b9150509250929050565b610ab3816109ab565b82525050565b5f602082019050610acc5f830184610aaa565b92915050565b5f8115159050919050565b610ae681610ad2565b82525050565b5f602082019050610aff5f830184610add565b92915050565b7f4e487b71000000000000000000000000000000000000000000000000000000005f52601160045260245ffd5b5f610b3c82610a11565b9150610b4783610a11565b9250828201905080821115610b5f57610b5e610b05565b5b92915050565b5f604082019050610b785f830185610aaa565b610b856020830184610a1a565b9392505050565b610b9581610ad2565b8114610b9f575f80fd5b50565b5f81519050610bb081610b8c565b92915050565b5f60208284031215610bcb57610bca610988565b5b5f610bd884828501610ba2565b9150509291505056fea264697066735822122014af4bf9a79f3be04999ac712260c80d623cbaa05ec8579cee06b45029e28fc664736f6c63430008140033","linkReferences":{}},"methodIdentifiers":{"collateralValue(address)":"7544aa44","creditLimit(address)":"1f429f50","delegatedCredit(address)":"d2cd62ad","freeze(address)":"8d1fdf2f","frozen(address)":"d0516650","onBorrow(address,uint256)":"f7f11fb7","oracle()":"7dc0d1d0","router()":"f887ea40","setCollateralValue(address,uint256)":"6873509b","setDelegatedCredit(address,uint256)":"6cb80eb5","totalDebt(address)":"1ff517ff","validateBorrow(address,uint256)":"9c547265"},"id":3}