{"abi":[{"type":"constructor","inputs":[{"name":"_router","type":"address","internalType":"address"},{"name":"_oracle","type":"address","internalType":"address"}],"stateMutability":"nonpayable"},{"type":"function","name":"collateralValue","inputs":[{"name":"user","type":"address","internalType":"address"}],"outputs":[{"name":"","type":"uint256","internalType":"uint256"}],"stateMutability":"view"},{"type":"function","name":"creditLimit","inputs":[{"name":"user","type":"address","internalType":"address"}],"outputs":[{"name":"","type":"uint256","internalType":"uint256"}],"stateMutability":"view"},{"type":"function","name":"delegatedCredit","inputs":[{"name":"user","type":"address","internalType":"address"}],"outputs":[{"name":"","type":"uint256","internalType":"uint256"}],"stateMutability":"view"},{"type":"function","name":"freeze","inputs":[{"name":"user","type":"address","internalType":"address"}],"outputs":[],"stateMutability":"nonpayable"},{"type":"function","name":"frozen","inputs":[{"name":"","type":"address","internalType":"address"}],"outputs":[{"name":"","type":"bool","internalType":"bool"}],"stateMutability":"view"},{"type":"function","name":"healthFactor","inputs":[{"name":"user","type":"address","internalType":"address"}],"outputs":[{"name":"","type":"uint256","internalType":"uint256"}],"stateMutability":"view"},{"type":"function","name":"onBorrow","inputs":[{"name":"user","type":"address","internalType":"address"},{"name":"amount","type":"uint256","internalType":"uint256"}],"outputs":[],"stateMutability":"nonpayable"},{"type":"function","name":"onLiquidation","inputs":[{"name":"user","type":"address","internalType":"address"},{"name":"repayAmount","type":"uint256","internalType":"uint256"}],"outputs":[],"stateMutability":"nonpayable"},{"type":"function","name":"onRepay","inputs":[{"name":"user","type":"address","internalType":"address"},{"name":"amount","type":"uint256","internalType":"uint256"}],"outputs":[],"stateMutability":"nonpayable"},{"type":"function","name":"oracle","inputs":[],"outputs":[{"name":"","type":"address","internalType":"address"}],"stateMutability":"view"},{"type":"function","name":"pool","inputs":[],"outputs":[{"name":"","type":"address","internalType":"address"}],"stateMutability":"view"},{"type":"function","name":"router","inputs":[],"outputs":[{"name":"","type":"address","internalType":"address"}],"stateMutability":"view"},{"type":"function","name":"setCollateralValue","inputs":[{"name":"user","type":"address","internalType":"address"},{"name":"value","type":"uint256","internalType":"uint256"}],"outputs":[],"stateMutability":"nonpayable"},{"type":"function","name":"setDelegatedCredit","inputs":[{"name":"user","type":"address","internalType":"address"},{"name":"value","type":"uint256","internalType":"uint256"}],"outputs":[],"stateMutability":"nonpayable"},{"type":"function","name":"setPool","inputs":[{"name":"_pool","type":"address","internalType":"address"}],"outputs":[],"stateMutability":"nonpayable"},{"type":"function","name":"totalDebt","inputs":[{"name":"user","type":"address","internalType":"address"}],"outputs":[{"name":"","type":"uint256","internalType":"uint256"}],"stateMutability":"view"},{"type":"function","name":"validateBorrow","inputs":[{"name":"user","type":"address","internalType":"address"},{"name":"amount","type":"uint256","internalType":"uint256"}],"outputs":[{"name":"","type":"bool","internalType":"bool"}],"stateMutability":"view"},{"type":"event","name":"BorrowRecorded","inputs":[{"name":"user","type":"address","indexed":true,"internalType":"address"},{"name":"amount","type":"uint256","indexed":false,"internalType":"uint256"},{"name":"newDebt","type":"uint256","indexed":false,"internalType":"uint256"}],"anonymous":false},{"type":"event","name":"Frozen","inputs":[{"name":"user","type":"address","indexed":true,"internalType":"address"}],"anonymous":false},{"type":"event","name":"LiquidationRecorded","inputs":[{"name":"user","type":"address","indexed":true,"internalType":"address"},{"name":"repayAmount","type":"uint256","indexed":false,"internalType":"uint256"},{"name":"newDebt","type":"uint256","indexed":false,"internalType":"uint256"}],"anonymous":false},{"type":"error","name":"InsufficientCredit","inputs":[]},{"type":"error","name":"InvalidAmount","inputs":[]},{"type":"error","name":"NotAuthorized","inputs":[]},{"type":"error","name":"RepayExceedsDebt","inputs":[]}],"bytecode":{"object":"0x608060405234801562000010575f80fd5b50604051620013eb380380620013eb833981810160405281019062000036919062000122565b815f806101000a81548173ffffffffffffffffffffffffffffffffffffffff021916908373ffffffffffffffffffffffffffffffffffffffff1602179055508060015f6101000a81548173ffffffffffffffffffffffffffffffffffffffff021916908373ffffffffffffffffffffffffffffffffffffffff160217905550505062000167565b5f80fd5b5f73ffffffffffffffffffffffffffffffffffffffff82169050919050565b5f620000ec82620000c1565b9050919050565b620000fe81620000e0565b811462000109575f80fd5b50565b5f815190506200011c81620000f3565b92915050565b5f80604083850312156200013b576200013a620000bd565b5b5f6200014a858286016200010c565b92505060206200015d858286016200010c565b9150509250929050565b61127680620001755f395ff3fe608060405234801561000f575f80fd5b5060043610610109575f3560e01c80637544aa44116100a0578063d05166501161006f578063d0516650146102c5578063d2cd62ad146102f5578063d8d2c64814610325578063f7f11fb714610341578063f887ea401461035d57610109565b80637544aa441461022b5780637dc0d1d01461025b5780638d1fdf2f146102795780639c5472651461029557610109565b80634437152a116100dc5780634437152a146101a75780636873509b146101c35780636ad9f9df146101df5780636cb80eb51461020f57610109565b806316f0115b1461010d5780631f429f501461012b5780631ff517ff1461015b5780632720313b1461018b575b5f80fd5b61011561037b565b6040516101229190610f2e565b60405180910390f35b61014560048036038101906101409190610f75565b6103a0565b6040516101529190610fb8565b60405180910390f35b61017560048036038101906101709190610f75565b61042e565b6040516101829190610fb8565b60405180910390f35b6101a560048036038101906101a09190610ffb565b610474565b005b6101c160048036038101906101bc9190610f75565b6106a7565b005b6101dd60048036038101906101d89190610ffb565b6106f2565b005b6101f960048036038101906101f49190610f75565b610740565b6040516102069190610fb8565b60405180910390f35b61022960048036038101906102249190610ffb565b610864565b005b61024560048036038101906102409190610f75565b610989565b6040516102529190610fb8565b60405180910390f35b6102636109cf565b6040516102709190610f2e565b60405180910390f35b610293600480360381019061028e9190610f75565b6109f4565b005b6102af60048036038101906102aa9190610ffb565b610a54565b6040516102bc9190611053565b60405180910390f35b6102df60048036038101906102da9190610f75565b610b9a565b6040516102ec9190611053565b60405180910390f35b61030f600480360381019061030a9190610f75565b610bb7565b60405161031c9190610fb8565b60405180910390f35b61033f600480360381019061033a9190610ffb565b610bfd565b005b61035b60048036038101906103569190610ffb565b610caa565b005b610365610e46565b6040516103729190610f2e565b60405180910390f35b60025f9054906101000a900473ffffffffffffffffffffffffffffffffffffffff1681565b5f60045f8373ffffffffffffffffffffffffffffffffffffffff1673ffffffffffffffffffffffffffffffffffffffff1681526020019081526020015f205460035f8473ffffffffffffffffffffffffffffffffffffffff1673ffffffffffffffffffffffffffffffffffffffff1681526020019081526020015f20546104279190611099565b9050919050565b5f60055f8373ffffffffffffffffffffffffffffffffffffffff1673ffffffffffffffffffffffffffffffffffffffff1681526020019081526020015f20549050919050565b61047c610e69565b5f81036104b5576040517f2c5211c600000000000000000000000000000000000000000000000000000000815260040160405180910390fd5b5f60055f8473ffffffffffffffffffffffffffffffffffffffff1673ffffffffffffffffffffffffffffffffffffffff1681526020019081526020015f2054905080821115610530576040517fe31d04ea00000000000000000000000000000000000000000000000000000000815260040160405180910390fd5b818161053c91906110cc565b60055f8573ffffffffffffffffffffffffffffffffffffffff1673ffffffffffffffffffffffffffffffffffffffff1681526020019081526020015f2081905550600160065f8573ffffffffffffffffffffffffffffffffffffffff1673ffffffffffffffffffffffffffffffffffffffff1681526020019081526020015f205f6101000a81548160ff0219169083151502179055508273ffffffffffffffffffffffffffffffffffffffff167f6dedf4870418a0998fa354d0e3f2908e6a67eb9fe466cbf33be5b99a67a585618360055f8773ffffffffffffffffffffffffffffffffffffffff1673ffffffffffffffffffffffffffffffffffffffff1681526020019081526020015f20546040516106579291906110ff565b60405180910390a28273ffffffffffffffffffffffffffffffffffffffff167f8a5c4736a33c7b7f29a2c34ea9ff9608afc5718d56f6fd6dcbd2d3711a1a491360405160405180910390a2505050565b6106af610e69565b8060025f6101000a81548173ffffffffffffffffffffffffffffffffffffffff021916908373ffffffffffffffffffffffffffffffffffffffff16021790555050565b6106fa610e69565b8060035f8473ffffffffffffffffffffffffffffffffffffffff1673ffffffffffffffffffffffffffffffffffffffff1681526020019081526020015f20819055505050565b5f8060055f8473ffffffffffffffffffffffffffffffffffffffff1673ffffffffffffffffffffffffffffffffffffffff1681526020019081526020015f205490505f81036107b2577fffffffffffffffffffffffffffffffffffffffffffffffffffffffffffffffff91505061085f565b5f60045f8573ffffffffffffffffffffffffffffffffffffffff1673ffffffffffffffffffffffffffffffffffffffff1681526020019081526020015f205460035f8673ffffffffffffffffffffffffffffffffffffffff1673ffffffffffffffffffffffffffffffffffffffff1681526020019081526020015f20546108399190611099565b905081670de0b6b3a7640000826108509190611126565b61085a9190611194565b925050505b919050565b5f8054906101000a900473ffffffffffffffffffffffffffffffffffffffff1673ffffffffffffffffffffffffffffffffffffffff163373ffffffffffffffffffffffffffffffffffffffff161415801561090c575060025f9054906101000a900473ffffffffffffffffffffffffffffffffffffffff1673ffffffffffffffffffffffffffffffffffffffff163373ffffffffffffffffffffffffffffffffffffffff1614155b15610943576040517fea8e4eb500000000000000000000000000000000000000000000000000000000815260040160405180910390fd5b8060045f8473ffffffffffffffffffffffffffffffffffffffff1673ffffffffffffffffffffffffffffffffffffffff1681526020019081526020015f20819055505050565b5f60035f8373ffffffffffffffffffffffffffffffffffffffff1673ffffffffffffffffffffffffffffffffffffffff1681526020019081526020015f20549050919050565b60015f9054906101000a900473ffffffffffffffffffffffffffffffffffffffff1681565b6109fc610e69565b600160065f8373ffffffffffffffffffffffffffffffffffffffff1673ffffffffffffffffffffffffffffffffffffffff1681526020019081526020015f205f6101000a81548160ff02191690831515021790555050565b5f60065f8473ffffffffffffffffffffffffffffffffffffffff1673ffffffffffffffffffffffffffffffffffffffff1681526020019081526020015f205f9054906101000a900460ff1615610aac575f9050610b94565b5f8203610abb575f9050610b94565b5f60045f8573ffffffffffffffffffffffffffffffffffffffff1673ffffffffffffffffffffffffffffffffffffffff1681526020019081526020015f205460035f8673ffffffffffffffffffffffffffffffffffffffff1673ffffffffffffffffffffffffffffffffffffffff1681526020019081526020015f2054610b429190611099565b9050808360055f8773ffffffffffffffffffffffffffffffffffffffff1673ffffffffffffffffffffffffffffffffffffffff1681526020019081526020015f2054610b8e9190611099565b11159150505b92915050565b6006602052805f5260405f205f915054906101000a900460ff1681565b5f60045f8373ffffffffffffffffffffffffffffffffffffffff1673ffffffffffffffffffffffffffffffffffffffff1681526020019081526020015f20549050919050565b610c05610e69565b5f60055f8473ffffffffffffffffffffffffffffffffffffffff1673ffffffffffffffffffffffffffffffffffffffff1681526020019081526020015f2054905080821115610c52578091505b8160055f8573ffffffffffffffffffffffffffffffffffffffff1673ffffffffffffffffffffffffffffffffffffffff1681526020019081526020015f205f828254610c9e91906110cc565b92505081905550505050565b610cb2610e69565b3073ffffffffffffffffffffffffffffffffffffffff16639c54726583836040518363ffffffff1660e01b8152600401610ced9291906111c4565b602060405180830381865afa158015610d08573d5f803e3d5ffd5b505050506040513d601f19601f82011682018060405250810190610d2c9190611215565b610d62576040517f8ac4bc7300000000000000000000000000000000000000000000000000000000815260040160405180910390fd5b8060055f8473ffffffffffffffffffffffffffffffffffffffff1673ffffffffffffffffffffffffffffffffffffffff1681526020019081526020015f205f828254610dae9190611099565b925050819055508173ffffffffffffffffffffffffffffffffffffffff167f4aeb2d14be7417bd048fed3bb687ceff994aac500f22f9632728dbcee7805c738260055f8673ffffffffffffffffffffffffffffffffffffffff1673ffffffffffffffffffffffffffffffffffffffff1681526020019081526020015f2054604051610e3a9291906110ff565b60405180910390a25050565b5f8054906101000a900473ffffffffffffffffffffffffffffffffffffffff1681565b5f8054906101000a900473ffffffffffffffffffffffffffffffffffffffff1673ffffffffffffffffffffffffffffffffffffffff163373ffffffffffffffffffffffffffffffffffffffff1614610eed576040517fea8e4eb500000000000000000000000000000000000000000000000000000000815260040160405180910390fd5b565b5f73ffffffffffffffffffffffffffffffffffffffff82169050919050565b5f610f1882610eef565b9050919050565b610f2881610f0e565b82525050565b5f602082019050610f415f830184610f1f565b92915050565b5f80fd5b610f5481610f0e565b8114610f5e575f80fd5b50565b5f81359050610f6f81610f4b565b92915050565b5f60208284031215610f8a57610f89610f47565b5b5f610f9784828501610f61565b91505092915050565b5f819050919050565b610fb281610fa0565b82525050565b5f602082019050610fcb5f830184610fa9565b92915050565b610fda81610fa0565b8114610fe4575f80fd5b50565b5f81359050610ff581610fd1565b92915050565b5f806040838503121561101157611010610f47565b5b5f61101e85828601610f61565b925050602061102f85828601610fe7565b9150509250929050565b5f8115159050919050565b61104d81611039565b82525050565b5f6020820190506110665f830184611044565b92915050565b7f4e487b71000000000000000000000000000000000000000000000000000000005f52601160045260245ffd5b5f6110a382610fa0565b91506110ae83610fa0565b92508282019050808211156110c6576110c561106c565b5b92915050565b5f6110d682610fa0565b91506110e183610fa0565b92508282039050818111156110f9576110f861106c565b5b92915050565b5f6040820190506111125f830185610fa9565b61111f6020830184610fa9565b9392505050565b5f61113082610fa0565b915061113b83610fa0565b925082820261114981610fa0565b915082820484148315176111605761115f61106c565b5b5092915050565b7f4e487b71000000000000000000000000000000000000000000000000000000005f52601260045260245ffd5b5f61119e82610fa0565b91506111a983610fa0565b9250826111b9576111b8611167565b5b828204905092915050565b5f6040820190506111d75f830185610f1f565b6111e46020830184610fa9565b9392505050565b6111f481611039565b81146111fe575f80fd5b50565b5f8151905061120f816111eb565b92915050565b5f6020828403121561122a57611229610f47565b5b5f61123784828501611201565b9150509291505056fea2646970667358221220b9fdbc2ce9354ef8248725ac65f1af66adefc74cd7b583d850999b4a14030d5c64736f6c63430008140033","linkReferences":{}},"methodIdentifiers":{"collateralValue(address)":"7544aa44","creditLimit(address)":"1f429f50","delegatedCredit(address)":"d2cd62ad","freeze(address)":"8d1fdf2f","frozen(address)":"d0516650","healthFactor(address)":"6ad9f9df","onBorrow(address,uint256)":"f7f11fb7","onLiquidation(address,uint256)":"2720313b","onRepay(address,uint256)":"d8d2c648","oracle()":"7dc0d1d0","pool()":"16f0115b","router()":"f887ea40","setCollateralValue(address,uint256)":"6873509b","setDelegatedCredit(address,uint256)":"6cb80eb5","setPool(address)":"4437152a","totalDebt(address)":"1ff517ff","validateBorrow(address,uint256)":"9c547265"},"id":2}