{"abi":[{"type":"constructor","inputs":[{"name":"_router","type":"address","internalType":"address"},{"name":"_oracle","type":"address","internalType":"address"}],"stateMutability":"nonpayable"},{"type":"function","name":"aaveDebt","inputs":[{"name":"","type":"address","internalType":"address"}],"outputs":[{"name":"","type":"uint256","internalType":"uint256"}],"stateMutability":"view"},{"type":"function","name":"accountOpenedAt","inputs":[{"name":"","type":"address","internalType":"address"}],"outputs":[{"name":"","type":"uint256","internalType":"uint256"}],"stateMutability":"view"},{"type":"function","name":"borrowCount","inputs":[{"name":"","type":"address","internalType":"address"}],"outputs":[{"name":"","type":"uint256","internalType":"uint256"}],"stateMutability":"view"},{"type":"function","name":"collateralValue","inputs":[{"name":"user","type":"address","internalType":"address"}],"outputs":[{"name":"","type":"uint256","internalType":"uint256"}],"stateMutability":"view"},{"type":"function","name":"compoundDebt","inputs":[{"name":"","type":"address","internalType":"address"}],"outputs":[{"name":"","type":"uint256","internalType":"uint256"}],"stateMutability":"view"},{"type":"function","name":"creditLimit","inputs":[{"name":"user","type":"address","internalType":"address"}],"outputs":[{"name":"","type":"uint256","internalType":"uint256"}],"stateMutability":"view"},{"type":"function","name":"creditScore","inputs":[{"name":"user","type":"address","internalType":"address"}],"outputs":[{"name":"","type":"uint256","internalType":"uint256"}],"stateMutability":"view"},{"type":"function","name":"creditScoreBreakdown","inputs":[{"name":"user","type":"address","internalType":"address"}],"outputs":[{"name":"ageScore","type":"uint256","internalType":"uint256"},{"name":"healthScore","type":"uint256","internalType":"uint256"},{"name":"repayScore","type":"uint256","internalType":"uint256"},{"name":"delegatedScore","type":"uint256","internalType":"uint256"},{"name":"diversityScore","type":"uint256","internalType":"uint256"},{"name":"volatilityPenalty","type":"uint256","internalType":"uint256"},{"name":"utilizationPenalty","type":"uint256","internalType":"uint256"},{"name":"liquidationPenalty","type":"uint256","internalType":"uint256"}],"stateMutability":"view"},{"type":"function","name":"delegatedCredit","inputs":[{"name":"user","type":"address","internalType":"address"}],"outputs":[{"name":"","type":"uint256","internalType":"uint256"}],"stateMutability":"view"},{"type":"function","name":"freeze","inputs":[{"name":"user","type":"address","internalType":"address"}],"outputs":[],"stateMutability":"nonpayable"},{"type":"function","name":"frozen","inputs":[{"name":"","type":"address","internalType":"address"}],"outputs":[{"name":"","type":"bool","internalType":"bool"}],"stateMutability":"view"},{"type":"function","name":"healthFactor","inputs":[{"name":"user","type":"address","internalType":"address"}],"outputs":[{"name":"","type":"uint256","internalType":"uint256"}],"stateMutability":"view"},{"type":"function","name":"liquidationCount","inputs":[{"name":"","type":"address","internalType":"address"}],"outputs":[{"name":"","type":"uint256","internalType":"uint256"}],"stateMutability":"view"},{"type":"function","name":"onBorrow","inputs":[{"name":"user","type":"address","internalType":"address"},{"name":"amount","type":"uint256","internalType":"uint256"}],"outputs":[],"stateMutability":"nonpayable"},{"type":"function","name":"onLiquidation","inputs":[{"name":"user","type":"address","internalType":"address"},{"name":"repayAmount","type":"uint256","internalType":"uint256"}],"outputs":[],"stateMutability":"nonpayable"},{"type":"function","name":"onRepay","inputs":[{"name":"user","type":"address","internalType":"address"},{"name":"amount","type":"uint256","internalType":"uint256"}],"outputs":[],"stateMutability":"nonpayable"},{"type":"function","name":"oracle","inputs":[],"outputs":[{"name":"","type":"address","internalType":"address"}],"stateMutability":"view"},{"type":"function","name":"pool","inputs":[],"outputs":[{"name":"","type":"address","internalType":"address"}],"stateMutability":"view"},{"type":"function","name":"prevUtilizationBps","inputs":[{"name":"","type":"address","internalType":"address"}],"outputs":[{"name":"","type":"uint256","internalType":"uint256"}],"stateMutability":"view"},{"type":"function","name":"prevUtilizationTimestamp","inputs":[{"name":"","type":"address","internalType":"address"}],"outputs":[{"name":"","type":"uint256","internalType":"uint256"}],"stateMutability":"view"},{"type":"function","name":"recordAaveBorrow","inputs":[{"name":"user","type":"address","internalType":"address"},{"name":"amount","type":"uint256","internalType":"uint256"}],"outputs":[],"stateMutability":"nonpayable"},{"type":"function","name":"recordAaveRepay","inputs":[{"name":"user","type":"address","internalType":"address"},{"name":"amount","type":"uint256","internalType":"uint256"}],"outputs":[],"stateMutability":"nonpayable"},{"type":"function","name":"recordCompoundBorrow","inputs":[{"name":"user","type":"address","internalType":"address"},{"name":"amount","type":"uint256","internalType":"uint256"}],"outputs":[],"stateMutability":"nonpayable"},{"type":"function","name":"recordCompoundRepay","inputs":[{"name":"user","type":"address","internalType":"address"},{"name":"amount","type":"uint256","internalType":"uint256"}],"outputs":[],"stateMutability":"nonpayable"},{"type":"function","name":"repaymentCount","inputs":[{"name":"","type":"address","internalType":"address"}],"outputs":[{"name":"","type":"uint256","internalType":"uint256"}],"stateMutability":"view"},{"type":"function","name":"riskTier","inputs":[{"name":"user","type":"address","internalType":"address"}],"outputs":[{"name":"","type":"uint8","internalType":"uint8"}],"stateMutability":"view"},{"type":"function","name":"router","inputs":[],"outputs":[{"name":"","type":"address","internalType":"address"}],"stateMutability":"view"},{"type":"function","name":"scoreBreakdown","inputs":[{"name":"user","type":"address","internalType":"address"}],"outputs":[{"name":"ageScore","type":"uint256","internalType":"uint256"},{"name":"healthScore","type":"uint256","internalType":"uint256"},{"name":"repaymentScore","type":"uint256","internalType":"uint256"},{"name":"delegatedScore","type":"uint256","internalType":"uint256"},{"name":"utilizationPenalty","type":"uint256","internalType":"uint256"},{"name":"liquidationPenalty","type":"uint256","internalType":"uint256"}],"stateMutability":"view"},{"type":"function","name":"scoreEngine","inputs":[],"outputs":[{"name":"","type":"address","internalType":"contract ICreditScoreEngine"}],"stateMutability":"view"},{"type":"function","name":"setCollateralValue","inputs":[{"name":"user","type":"address","internalType":"address"},{"name":"value","type":"uint256","internalType":"uint256"}],"outputs":[],"stateMutability":"nonpayable"},{"type":"function","name":"setDelegatedCredit","inputs":[{"name":"user","type":"address","internalType":"address"},{"name":"value","type":"uint256","internalType":"uint256"}],"outputs":[],"stateMutability":"nonpayable"},{"type":"function","name":"setPool","inputs":[{"name":"_pool","type":"address","internalType":"address"}],"outputs":[],"stateMutability":"nonpayable"},{"type":"function","name":"setScoreEngine","inputs":[{"name":"_engine","type":"address","internalType":"address"}],"outputs":[],"stateMutability":"nonpayable"},{"type":"function","name":"totalDebt","inputs":[{"name":"user","type":"address","internalType":"address"}],"outputs":[{"name":"","type":"uint256","internalType":"uint256"}],"stateMutability":"view"},{"type":"function","name":"unfreeze","inputs":[{"name":"user","type":"address","internalType":"address"}],"outputs":[],"stateMutability":"nonpayable"},{"type":"function","name":"userMetrics","inputs":[{"name":"user","type":"address","internalType":"address"}],"outputs":[{"name":"collateral","type":"uint256","internalType":"uint256"},{"name":"delegated","type":"uint256","internalType":"uint256"},{"name":"debt","type":"uint256","internalType":"uint256"},{"name":"hf","type":"uint256","internalType":"uint256"},{"name":"score","type":"uint256","internalType":"uint256"},{"name":"tier","type":"uint8","internalType":"uint8"},{"name":"openedAt","type":"uint256","internalType":"uint256"},{"name":"borrows","type":"uint256","internalType":"uint256"},{"name":"repays","type":"uint256","internalType":"uint256"},{"name":"liquidations","type":"uint256","internalType":"uint256"},{"name":"isFrozen","type":"bool","internalType":"bool"}],"stateMutability":"view"},{"type":"function","name":"validateBorrow","inputs":[{"name":"user","type":"address","internalType":"address"},{"name":"amount","type":"uint256","internalType":"uint256"}],"outputs":[{"name":"","type":"bool","internalType":"bool"}],"stateMutability":"view"},{"type":"event","name":"BorrowRecorded","inputs":[{"name":"user","type":"address","indexed":true,"internalType":"address"},{"name":"amount","type":"uint256","indexed":false,"internalType":"uint256"},{"name":"newDebt","type":"uint256","indexed":false,"internalType":"uint256"}],"anonymous":false},{"type":"event","name":"Frozen","inputs":[{"name":"user","type":"address","indexed":true,"internalType":"address"}],"anonymous":false},{"type":"event","name":"LiquidationRecorded","inputs":[{"name":"user","type":"address","indexed":true,"internalType":"address"},{"name":"repayAmount","type":"uint256","indexed":false,"internalType":"uint256"},{"name":"newDebt","type":"uint256","indexed":false,"internalType":"uint256"}],"anonymous":false},{"type":"event","name":"PoolSet","inputs":[{"name":"pool","type":"address","indexed":false,"internalType":"address"}],"anonymous":false},{"type":"event","name":"RepayRecorded","inputs":[{"name":"user","type":"address","indexed":true,"internalType":"address"},{"name":"amount","type":"uint256","indexed":false,"internalType":"uint256"},{"name":"newDebt","type":"uint256","indexed":false,"internalType":"uint256"}],"anonymous":false},{"type":"event","name":"ScoreEngineSet","inputs":[{"name":"engine","type":"address","indexed":false,"internalType":"address"}],"anonymous":false},{"type":"event","name":"Unfrozen","inputs":[{"name":"user","type":"address","indexed":true,"internalType":"address"}],"anonymous":false},{"type":"event","name":"UtilizationSnapshotted","inputs":[{"name":"user","type":"address","indexed":true,"internalType":"address"},{"name":"utilizationBps","type":"uint256","indexed":false,"internalType":"uint256"}],"anonymous":false},{"type":"error","name":"AlreadySet","inputs":[]},{"type":"error","name":"InsufficientCredit","inputs":[]},{"type":"error","name":"InvalidAmount","inputs":[]},{"type":"error","name":"NotAuthorized","inputs":[]},{"type":"error","name":"RepayExceedsDebt","inputs":[]},{"type":"error","name":"ZeroAddress","inputs":[]}],"bytecode":{"object":"0x608034620000b157601f62001ac238819003918201601f19168301916001600160401b03831184841017620000b5578084926040948552833981010312620000b1576200005a60206200005283620000c9565b9201620000c9565b6001600160a01b03918216919082156200009f57169081156200009f5760018060a01b031990815f5416175f5560015416176001556040516119e39081620000df8239f35b60405163d92e233d60e01b8152600490fd5b5f80fd5b634e487b7160e01b5f52604160045260245ffd5b51906001600160a01b0382168203620000b15756fe6080604081815260049182361015610015575f80fd5b5f92833560e01c9182630a8d55cf1461106d575081630bf97eac14610fa9578163127ab6e214610f71578163158cda6614610f3957816316f0115b14610f105781631f227e4814610e3a5781631f429f5014610df95781631ff517ff14610dc15781632720313b14610cb65781634437152a14610c3757816345c8b1a614610bcc5781635c96161714610b615781636873509b14610b135781636ad9f9df14610aed5781636cb80eb514610a975781637160490914610a5f5781637544aa4414610a295781637dc0d1d014610a0057816386b8da04146109c85781638d1fdf2f1461095a5781639c54726514610928578163aecb5604146108f0578163b06c8d2e146108b8578163b4196c8f1461088f578163b84d93d41461085c578163c56a6a1c14610811578163d0516650146107d3578163d2cd62ad1461079b578163d3ccccc4146106ef578163d64ccdb2146106b7578163d8d2c648146105c6578163dbd476b714610549578163e3d7a870146103ba578163f17877af14610382578163f7e590ee14610355578163f7f11fb7146101e3575063f887ea40146101b9575f80fd5b346101df57816003193601126101df57905490516001600160a01b039091168152602090f35b5080fd5b8383346101df57806003193601126101df576101fd6110c3565b9060243560018060a01b0380855416330361034557825190639c54726560e01b825284169384878301528260248301526020918281604481305afa90811561033b578791610301575b50156102f15761026890858752600883528487208054156102e8575b50611426565b8385526006815282852061027d838254611114565b905583855260098152828520805490600182018092116102d5577f4aeb2d14be7417bd048fed3bb687ceff994aac500f22f9632728dbcee7805c7395969750558486526006815282862054908351928352820152a280f35b634e487b7160e01b875260118852602487fd5b42905588610262565b8351638ac4bc7360e01b81528790fd5b90508281813d8311610334575b61031881836111a4565b81010312610330575180151581036103305788610246565b8680fd5b503d61030e565b85513d89823e3d90fd5b825163ea8e4eb560e01b81528690fd5b5050346101df5760203660031901126101df5760209061037b6103766110c3565b611278565b9051908152f35b5050346101df5760203660031901126101df5760209181906001600160a01b036103aa6110c3565b168152600d845220549051908152f35b8284346104fb57602090816003193601126104fb576103d76110c3565b60035490946001600160a01b039182169182156105105786169586845281855285842054926005865286852054600687528786205490610463610419856113e1565b948b8952600a8a528a8920549b600b8b526104378c8b20549261139a565b908a52600e8b528b8a2054918c519d8e98899788976356b1eb5f60e01b89526101009d8e9d8a016110dd565b03915afa918215610505578093819582839184938580978199610499575b5050506104959798995051988998896110dd565b0390f35b97509750985096505050505084813d83116104fe575b6104b981836111a4565b810103126104fb5750825191830151838201516060850151608086015160a087015160c088015160e09098015194978897969094919391906104958b80610481565b80fd5b503d6104af565b8451903d90823e3d90fd5b855162461bcd60e51b8152808301869052601360248201527214d8dbdc99515b99da5b99481b9bdd081cd95d606a1b6044820152606490fd5b919050346105c257806003193601126105c2576105646110c3565b8354602435936001600160a01b039291831633036105b4575016808452600c6020528184205490928181106105a557505082915b8352600c60205282205580f35b6105ae91611135565b91610598565b835163ea8e4eb560e01b8152fd5b8280fd5b8383346101df57806003193601126101df576105e06110c3565b825460243592916001600160a01b0391821633036103455783918116938486526006602052838620548091116106ad575b5061061b90611426565b8284526006602052818420610631828254611135565b905580610676575b907fc7a00b289bebba84d8561520045edf3e2d78f61049fb317193866addf981dc279183855260066020528185205482519182526020820152a280f35b828452600a6020528184208054906001820180921161069a57559293508392610639565b634e487b7160e01b865260118752602486fd5b915061061b610611565b5050346101df5760203660031901126101df5760209181906001600160a01b036106df6110c3565b168152600e845220549051908152f35b919050346105c25760203660031901126105c25761070b6110c3565b83546001600160a01b03908116330361078c576003549181831661077c571692831561076e57506001600160a01b0319168217600355519081527fd7b0a0e9dc0ca7f1c619a79f6eb2ae0c23648f3521570199efb8fac83414b42890602090a180f35b825163d92e233d60e01b8152fd5b5050505163a741a04560e01b8152fd5b50505163ea8e4eb560e01b8152fd5b5050346101df5760203660031901126101df5760209181906001600160a01b036107c36110c3565b1681526005845220549051908152f35b5050346101df5760203660031901126101df5760209160ff9082906001600160a01b036107fe6110c3565b1681526007855220541690519015158152f35b9050346105c257816003193601126105c25761082b6110c3565b83546001600160a01b039290831633036105b45750168252600c60205281206108576024358254611114565b905580f35b5050346101df5760203660031901126101df5760209060ff6108876108826103766110c3565b611368565b915191168152f35b5050346101df57816003193601126101df5760035490516001600160a01b039091168152602090f35b5050346101df5760203660031901126101df5760209181906001600160a01b036108e06110c3565b168152600a845220549051908152f35b5050346101df5760203660031901126101df5760209181906001600160a01b036109186110c3565b168152600f845220549051908152f35b5050346101df57806003193601126101df576020906109516109486110c3565b60243590611142565b90519015158152f35b9050346105c25760203660031901126105c2576109756110c3565b83546001600160a01b039290831633036105b45750168083526007602052908220805460ff191660011790557f8a5c4736a33c7b7f29a2c34ea9ff9608afc5718d56f6fd6dcbd2d3711a1a49138280a280f35b5050346101df5760203660031901126101df5760209181906001600160a01b036109f06110c3565b168152600b845220549051908152f35b5050346101df57816003193601126101df5760015490516001600160a01b039091168152602090f35b9050346105c25760203660031901126105c25760209282916001600160a01b03610a516110c3565b168252845220549051908152f35b5050346101df5760203660031901126101df5760209181906001600160a01b03610a876110c3565b1681526009845220549051908152f35b9050346105c257816003193601126105c257610ab16110c3565b83546001600160a01b039290831633141580610adf575b6105b4575016825260056020526024359082205580f35b508260025416331415610ac8565b5050346101df5760203660031901126101df5760209061037b610b0e6110c3565b6111f8565b9050346105c257816003193601126105c257610b2d6110c3565b83546001600160a01b03919082163303610b51571683526020526024359082205580f35b835163ea8e4eb560e01b81528390fd5b919050346105c257806003193601126105c257610b7c6110c3565b8354602435936001600160a01b039291831633036105b4575016808452600d602052818420549092818110610bbd57505082915b8352600d60205282205580f35b610bc691611135565b91610bb0565b9050346105c25760203660031901126105c257610be76110c3565b83546001600160a01b039290831633036105b45750168083526007602052908220805460ff191690557f4feb53e305297ab8fb8f3420c95ea04737addc254a7270d8fc4605d2b9c61dba8280a280f35b919050346105c25760203660031901126105c257610c536110c3565b83546001600160a01b03908116330361078c576002549181831661077c571692831561076e57506001600160a01b0319168217600255519081527f025f89b99c8ce32af8da7624f4575b920a86ebf07870d85a9fb545fee349ddce90602090a180f35b8383346101df57806003193601126101df57610cd06110c3565b825460243592916001600160a01b039182163303610345578315610db157169182845260206006815282852054808311610da15782610d0e91611135565b8486526006825283862055600b8152828520805490600182018092116102d5575583855260078152828520805460ff19166001179055600681528285205483519283529082015282917f6dedf4870418a0998fa354d0e3f2908e6a67eb9fe466cbf33be5b99a67a5856191a27f8a5c4736a33c7b7f29a2c34ea9ff9608afc5718d56f6fd6dcbd2d3711a1a49138280a280f35b835163718e827560e11b81528790fd5b825163162908e360e11b81528690fd5b5050346101df5760203660031901126101df5760209181906001600160a01b03610de96110c3565b1681526006845220549051908152f35b9050346105c25760203660031901126105c25760209261037b916001600160a01b03610e236110c3565b168252845282808220549160058652205490611114565b9050346105c25760209081600319360112610f0c578161016094819260ff610e606110c3565b9160018060a01b03831690818552855287842054976005865280852054936006875281862054610e98610e92836111f8565b92611278565b92610ea284611368565b94885260088952808820549660098a528682808b20549a600a8d52600b828220549d526007828220549e522054169b82519d8e528d01528b015260608a015260808901521660a087015260c086015260e08501526101008401526101208301521515610140820152f35b8380fd5b5050346101df57816003193601126101df5760025490516001600160a01b039091168152602090f35b5050346101df5760203660031901126101df5760209181906001600160a01b03610f616110c3565b168152600c845220549051908152f35b5050346101df5760203660031901126101df5760209181906001600160a01b03610f996110c3565b1681526008845220549051908152f35b8383346101df5760203660031901126101df57610fc46110c3565b610fcd816117e0565b92610fd782611812565b92610fe183611877565b90610feb846118ad565b92610ff5856118f2565b6001600160a01b039095168152600b60205281812054606480820292918015908404909114171561105a575060c0975061012c90818111156110525750945b815196875260208701528501526060840152608083015260a0820152f35b905094611034565b634e487b7160e01b815260118952602490fd5b915034610f0c5782600319360112610f0c576110876110c3565b84546001600160a01b039391929190841633036110b7575050168252600d60205281206108576024358254611114565b63ea8e4eb560e01b8152fd5b600435906001600160a01b03821682036110d957565b5f80fd5b94919260e0969399989794919961010087019a8752602087015260408601526060850152608084015260a083015260c08201520152565b9190820180921161112157565b634e487b7160e01b5f52601160045260245ffd5b9190820391821161112157565b6001600160a01b03165f8181526007602052604081205490929060ff1661119f57801561119f57604061119a9293600460205261118b8282205460056020528383205490611114565b94815260066020522054611114565b111590565b505090565b90601f8019910116810190811067ffffffffffffffff8211176111c657604052565b634e487b7160e01b5f52604160045260245ffd5b81156111e4570490565b634e487b7160e01b5f52601260045260245ffd5b6001600160a01b03165f90815260066020526040812054909190801561127157600460205261123560408420546005602052604085205490611114565b670de0b6b3a76400009081810291818304149015171561125d5761125a9293506111da565b90565b634e487b7160e01b84526011600452602484fd5b505f199150565b6003546001600160a01b03908116919082611298575061125a9150611543565b8116905f908282526020809160048252604095868520546005845287862054906006855261131389882054946112cd816113e1565b99808a52600a88528b8a205491600b89526112eb8d8c20549161139a565b918b52600e89528c8b2054928d519c8d998a988998635e841d4160e11b8a5260048a016110dd565b03915afa93841561135d5750819361132c575b50505090565b9091809350813d8311611356575b61134481836111a4565b810103126104fb5750515f8080611326565b503d61133a565b51913d9150823e3d90fd5b6102bc811015611394576101f481101561138e5761012c1115611389575f90565b600190565b50600290565b50600390565b6001600160a01b03165f908152600c60205260408120549091906113d8575b600d60205260405f20546113c957565b905f1981146111215760010190565b600191506113b9565b6001600160a01b03165f908152600860205260409020548015801561141c575b61141757611413620151809142611135565b0490565b505f90565b5080421115611401565b60018060a01b0316905f918083526020600f81526040938481205462093a80810180911161152f5742101561145d575b5050509050565b8281526004825261147985822054600584528683205490611114565b94856114c9577fafe3516c13315508bf357ee8f9829041e5be2b92304e58694baf666e6c38f1e893949550815b858152600e84528282822055600f8452814291205551908152a2805f8080611456565b83825260068352808220546127109081810291818304149015171561151b577fafe3516c13315508bf357ee8f9829041e5be2b92304e58694baf666e6c38f1e8949596611515916111da565b916114a6565b634e487b7160e01b83526011600452602483fd5b634e487b7160e01b82526011600452602482fd5b61154c816113e1565b5f60b482106117c25750506096905b611564816111f8565b5f905f19810361175a57505060fa905b60018060a01b031690815f52602092600a8452604091825f20545f60148210155f1461174057505060c8905b5f85815260058752848120546402540be40091828210611717575050506115d692916115d16115d192606494611114565b611114565b92825f52600481526115f3825f205460058352835f205490611114565b92805f5260068252825f20545f948015158061170e575b611677575b505090600b915f52525f2054606481029080820460641490151715611121576116439161012c80831161166f575b50611114565b818110156116695761165491611135565b6103e89081811115611664575090565b905090565b50505f90565b91505f61163d565b612710959295918281029080820484149015171561125d5790611699916111da565b908111156116b2575050600b906096935b90915f61160f565b611388949194908181116116cc575b505090600b916116aa565b9091946113871982019182116116fa576096820291808304609614901517156116fa57500492600b5f6116c1565b634e487b7160e01b81526011600452602490fd5b5081151561160a565b6064820291808304606414901517156116fa57506115d1926115d69594926115d1920494611114565b600a820291808304600a14901517156116fa5750906115a0565b671bc16d674ec80000811061177357505060fa90611574565b6714d1120d7b160000811061178c57505060c890611574565b6710a741a46278000081106117a5575050609690611574565b670de0b6b3a7640000116117bc5750606490611574565b90611574565b6096820291808304609614901517156116fa575060b490049061155b565b6117e9906113e1565b60b481101561180c576096810290808204609614901517156111215760b4900490565b50609690565b61181b906111f8565b5f19811461187157671bc16d674ec80000811015611871576714d1120d7b16000081101561186b576710a741a46278000081101561180c57670de0b6b3a76400001115611866575f90565b606490565b5060c890565b5060fa90565b6001600160a01b03165f908152600a6020526040902054601481101561186b57600a810290808204600a14901517156111215790565b6001600160a01b03165f908152600560205260409020548015611417576402540be40090818110156118eb5760648102908104606403611121570490565b5050606490565b6001600160a01b03165f81815260046020908152604080832054600590925282205461191d91611114565b9181526006602052604081205491801580156119a5575b61199f57612710928381029080820485149015171561151b5790611957916111da565b90611388928383111561199857821015611990576113871982019182116116fa576096820291808304609614901517156116fa57500490565b505050609690565b5091505090565b50905090565b50821561193456fea26469706673582212205bc9ad1af53667030b67d06b32c449cf6151e7b00686122e7056b03a4e2d27fa64736f6c63430008140033","linkReferences":{}},"methodIdentifiers":{"aaveDebt(address)":"158cda66","accountOpenedAt(address)":"127ab6e2","borrowCount(address)":"71604909","collateralValue(address)":"7544aa44","compoundDebt(address)":"f17877af","creditLimit(address)":"1f429f50","creditScore(address)":"f7e590ee","creditScoreBreakdown(address)":"e3d7a870","delegatedCredit(address)":"d2cd62ad","freeze(address)":"8d1fdf2f","frozen(address)":"d0516650","healthFactor(address)":"6ad9f9df","liquidationCount(address)":"86b8da04","onBorrow(address,uint256)":"f7f11fb7","onLiquidation(address,uint256)":"2720313b","onRepay(address,uint256)":"d8d2c648","oracle()":"7dc0d1d0","pool()":"16f0115b","prevUtilizationBps(address)":"d64ccdb2","prevUtilizationTimestamp(address)":"aecb5604","recordAaveBorrow(address,uint256)":"c56a6a1c","recordAaveRepay(address,uint256)":"dbd476b7","recordCompoundBorrow(address,uint256)":"0a8d55cf","recordCompoundRepay(address,uint256)":"5c961617","repaymentCount(address)":"b06c8d2e","riskTier(address)":"b84d93d4","router()":"f887ea40","scoreBreakdown(address)":"0bf97eac","scoreEngine()":"b4196c8f","setCollateralValue(address,uint256)":"6873509b","setDelegatedCredit(address,uint256)":"6cb80eb5","setPool(address)":"4437152a","setScoreEngine(address)":"d3ccccc4","totalDebt(address)":"1ff517ff","unfreeze(address)":"45c8b1a6","userMetrics(address)":"1f227e48","validateBorrow(address,uint256)":"9c547265"},"id":2}