{"abi":[{"type":"constructor","inputs":[{"name":"_manager","type":"address","internalType":"address"}],"stateMutability":"nonpayable"},{"type":"function","name":"freezeAccount","inputs":[{"name":"user","type":"address","internalType":"address"}],"outputs":[],"stateMutability":"nonpayable"},{"type":"function","name":"manager","inputs":[],"outputs":[{"name":"","type":"address","internalType":"contract CreditManager"}],"stateMutability":"view"},{"type":"function","name":"owner","inputs":[],"outputs":[{"name":"","type":"address","internalType":"address"}],"stateMutability":"view"}],"bytecode":{"object":"0x608060405234801561000f575f80fd5b5060405161052338038061052383398181016040528101906100319190610114565b335f806101000a81548173ffffffffffffffffffffffffffffffffffffffff021916908373ffffffffffffffffffffffffffffffffffffffff1602179055508060015f6101000a81548173ffffffffffffffffffffffffffffffffffffffff021916908373ffffffffffffffffffffffffffffffffffffffff1602179055505061013f565b5f80fd5b5f73ffffffffffffffffffffffffffffffffffffffff82169050919050565b5f6100e3826100ba565b9050919050565b6100f3816100d9565b81146100fd575f80fd5b50565b5f8151905061010e816100ea565b92915050565b5f60208284031215610129576101286100b6565b5b5f61013684828501610100565b91505092915050565b6103d78061014c5f395ff3fe608060405234801561000f575f80fd5b506004361061003f575f3560e01c8063481c6a75146100435780638da5cb5b14610061578063f26c159f1461007f575b5f80fd5b61004b61009b565b604051610058919061027e565b60405180910390f35b6100696100c0565b60405161007691906102b7565b60405180910390f35b610099600480360381019061009491906102fe565b6100e3565b005b60015f9054906101000a900473ffffffffffffffffffffffffffffffffffffffff1681565b5f8054906101000a900473ffffffffffffffffffffffffffffffffffffffff1681565b6100eb610175565b60015f9054906101000a900473ffffffffffffffffffffffffffffffffffffffff1673ffffffffffffffffffffffffffffffffffffffff16638d1fdf2f826040518263ffffffff1660e01b815260040161014591906102b7565b5f604051808303815f87803b15801561015c575f80fd5b505af115801561016e573d5f803e3d5ffd5b5050505050565b5f8054906101000a900473ffffffffffffffffffffffffffffffffffffffff1673ffffffffffffffffffffffffffffffffffffffff163373ffffffffffffffffffffffffffffffffffffffff1614610202576040517f08c379a00000000000000000000000000000000000000000000000000000000081526004016101f990610383565b60405180910390fd5b565b5f73ffffffffffffffffffffffffffffffffffffffff82169050919050565b5f819050919050565b5f61024661024161023c84610204565b610223565b610204565b9050919050565b5f6102578261022c565b9050919050565b5f6102688261024d565b9050919050565b6102788161025e565b82525050565b5f6020820190506102915f83018461026f565b92915050565b5f6102a182610204565b9050919050565b6102b181610297565b82525050565b5f6020820190506102ca5f8301846102a8565b92915050565b5f80fd5b6102dd81610297565b81146102e7575f80fd5b50565b5f813590506102f8816102d4565b92915050565b5f60208284031215610313576103126102d0565b5b5f610320848285016102ea565b91505092915050565b5f82825260208201905092915050565b7f4f4e4c595f434f554e43494c00000000000000000000000000000000000000005f82015250565b5f61036d600c83610329565b915061037882610339565b602082019050919050565b5f6020820190508181035f83015261039a81610361565b905091905056fea2646970667358221220b212870480d26a6457bf750b42afac619f5e9dfb63cdedfaacc8fe241904514364736f6c63430008140033","linkReferences":{}},"methodIdentifiers":{"freezeAccount(address)":"f26c159f","manager()":"481c6a75","owner()":"8da5cb5b"},"id":6}