{"abi":[{"type":"constructor","inputs":[{"name":"_manager","type":"address","internalType":"address"}],"stateMutability":"nonpayable"},{"type":"function","name":"freezeAccount","inputs":[{"name":"user","type":"address","internalType":"address"}],"outputs":[],"stateMutability":"nonpayable"},{"type":"function","name":"manager","inputs":[],"outputs":[{"name":"","type":"address","internalType":"contract CreditManager"}],"stateMutability":"view"},{"type":"function","name":"owner","inputs":[],"outputs":[{"name":"","type":"address","internalType":"address"}],"stateMutability":"view"}],"bytecode":{"object":"0x60803461007857601f61023538819003918201601f19168301916001600160401b0383118484101761007c5780849260209460405283398101031261007857516001600160a01b038116908190036100785760018060a01b031933815f5416175f5560015416176001556040516101a490816100918239f35b5f80fd5b634e487b7160e01b5f52604160045260245ffdfe60806040908082526004361015610014575f80fd5b5f90813560e01c908163481c6a7514610149575080638da5cb5b1461011d5763f26c159f14610041575f80fd5b3461011a57602036600319011261011a576001600160a01b039160043583811690819003610116578383541633036100e357829360015416803b156100de576024849284519586938492638d1fdf2f60e01b845260048401525af180156100d4576100aa578280f35b67ffffffffffffffff82116100c057525f808280f35b634e487b7160e01b83526041600452602483fd5b81513d85823e3d90fd5b505050fd5b815162461bcd60e51b815260206004820152600c60248201526b13d3931657d0d3d55390d25360a21b6044820152606490fd5b8280fd5b80fd5b509034610145578160031936011261014557905490516001600160a01b039091168152602090f35b5080fd5b9050346101455781600319360112610145576001546001600160a01b03168152602090f3fea26469706673582212201423fcf21aca43ae77dfab9f2b639be2d9a38ff250126c52b11fcfd7f43a593964736f6c63430008140033","linkReferences":{}},"methodIdentifiers":{"freezeAccount(address)":"f26c159f","manager()":"481c6a75","owner()":"8da5cb5b"},"id":9}