{"abi":[{"type":"constructor","inputs":[{"name":"_treasury","type":"address","internalType":"address"},{"name":"_insurance","type":"address","internalType":"address payable"}],"stateMutability":"nonpayable"},{"type":"receive","stateMutability":"payable"},{"type":"function","name":"CP_SHARE","inputs":[],"outputs":[{"name":"","type":"uint256","internalType":"uint256"}],"stateMutability":"view"},{"type":"function","name":"INSURANCE_SHARE","inputs":[],"outputs":[{"name":"","type":"uint256","internalType":"uint256"}],"stateMutability":"view"},{"type":"function","name":"TREASURY_SHARE","inputs":[],"outputs":[{"name":"","type":"uint256","internalType":"uint256"}],"stateMutability":"view"},{"type":"function","name":"distribute","inputs":[{"name":"creditPool","type":"address","internalType":"address"}],"outputs":[],"stateMutability":"nonpayable"},{"type":"function","name":"insurance","inputs":[],"outputs":[{"name":"","type":"address","internalType":"contract InsuranceFund"}],"stateMutability":"view"},{"type":"function","name":"treasury","inputs":[],"outputs":[{"name":"","type":"address","internalType":"address"}],"stateMutability":"view"}],"bytecode":{"object":"0x608060405234801561000f575f80fd5b5060405161075038038061075083398181016040528101906100319190610150565b815f806101000a81548173ffffffffffffffffffffffffffffffffffffffff021916908373ffffffffffffffffffffffffffffffffffffffff1602179055508060015f6101000a81548173ffffffffffffffffffffffffffffffffffffffff021916908373ffffffffffffffffffffffffffffffffffffffff160217905550505061018e565b5f80fd5b5f73ffffffffffffffffffffffffffffffffffffffff82169050919050565b5f6100e4826100bb565b9050919050565b6100f4816100da565b81146100fe575f80fd5b50565b5f8151905061010f816100eb565b92915050565b5f61011f826100bb565b9050919050565b61012f81610115565b8114610139575f80fd5b50565b5f8151905061014a81610126565b92915050565b5f8060408385031215610166576101656100b7565b5b5f61017385828601610101565b92505060206101848582860161013c565b9150509250929050565b6105b58061019b5f395ff3fe608060405260043610610058575f3560e01c8063326961741461006357806356b307031461008d57806361d027b3146100b757806363453ae1146100e157806389cf320414610109578063f50ec31a146101335761005f565b3661005f57005b5f80fd5b34801561006e575f80fd5b5061007761015d565b6040516100849190610343565b60405180910390f35b348015610098575f80fd5b506100a1610162565b6040516100ae9190610343565b60405180910390f35b3480156100c2575f80fd5b506100cb610167565b6040516100d8919061039b565b60405180910390f35b3480156100ec575f80fd5b50610107600480360381019061010291906103e2565b61018a565b005b348015610114575f80fd5b5061011d610301565b60405161012a9190610468565b60405180910390f35b34801561013e575f80fd5b50610147610326565b6040516101549190610343565b60405180910390f35b601481565b600a81565b5f8054906101000a900473ffffffffffffffffffffffffffffffffffffffff1681565b5f4790505f810361019b57506102fe565b5f60646046836101ab91906104ae565b6101b5919061051c565b90505f60646014846101c791906104ae565b6101d1919061051c565b90505f8183856101e1919061054c565b6101eb919061054c565b90508473ffffffffffffffffffffffffffffffffffffffff166108fc8490811502906040515f60405180830381858888f19350505050158015610230573d5f803e3d5ffd5b505f8054906101000a900473ffffffffffffffffffffffffffffffffffffffff1673ffffffffffffffffffffffffffffffffffffffff166108fc8390811502906040515f60405180830381858888f19350505050158015610293573d5f803e3d5ffd5b5060015f9054906101000a900473ffffffffffffffffffffffffffffffffffffffff1673ffffffffffffffffffffffffffffffffffffffff166108fc8290811502906040515f60405180830381858888f193505050501580156102f8573d5f803e3d5ffd5b50505050505b50565b60015f9054906101000a900473ffffffffffffffffffffffffffffffffffffffff1681565b604681565b5f819050919050565b61033d8161032b565b82525050565b5f6020820190506103565f830184610334565b92915050565b5f73ffffffffffffffffffffffffffffffffffffffff82169050919050565b5f6103858261035c565b9050919050565b6103958161037b565b82525050565b5f6020820190506103ae5f83018461038c565b92915050565b5f80fd5b6103c18161037b565b81146103cb575f80fd5b50565b5f813590506103dc816103b8565b92915050565b5f602082840312156103f7576103f66103b4565b5b5f610404848285016103ce565b91505092915050565b5f819050919050565b5f61043061042b6104268461035c565b61040d565b61035c565b9050919050565b5f61044182610416565b9050919050565b5f61045282610437565b9050919050565b61046281610448565b82525050565b5f60208201905061047b5f830184610459565b92915050565b7f4e487b71000000000000000000000000000000000000000000000000000000005f52601160045260245ffd5b5f6104b88261032b565b91506104c38361032b565b92508282026104d18161032b565b915082820484148315176104e8576104e7610481565b5b5092915050565b7f4e487b71000000000000000000000000000000000000000000000000000000005f52601260045260245ffd5b5f6105268261032b565b91506105318361032b565b925082610541576105406104ef565b5b828204905092915050565b5f6105568261032b565b91506105618361032b565b925082820390508181111561057957610578610481565b5b9291505056fea26469706673582212204790237343625ec49176b416ba510e670436e9abf296793c8e245a01b063f36f64736f6c63430008140033","linkReferences":{}},"methodIdentifiers":{"CP_SHARE()":"f50ec31a","INSURANCE_SHARE()":"56b30703","TREASURY_SHARE()":"32696174","distribute(address)":"63453ae1","insurance()":"89cf3204","treasury()":"61d027b3"},"id":6}