{"abi":[{"type":"constructor","inputs":[{"name":"_treasury","type":"address","internalType":"address"},{"name":"_insurance","type":"address","internalType":"address payable"}],"stateMutability":"nonpayable"},{"type":"receive","stateMutability":"payable"},{"type":"function","name":"CP_SHARE","inputs":[],"outputs":[{"name":"","type":"uint256","internalType":"uint256"}],"stateMutability":"view"},{"type":"function","name":"INSURANCE_SHARE","inputs":[],"outputs":[{"name":"","type":"uint256","internalType":"uint256"}],"stateMutability":"view"},{"type":"function","name":"TREASURY_SHARE","inputs":[],"outputs":[{"name":"","type":"uint256","internalType":"uint256"}],"stateMutability":"view"},{"type":"function","name":"distribute","inputs":[{"name":"creditPool","type":"address","internalType":"address"}],"outputs":[],"stateMutability":"nonpayable"},{"type":"function","name":"insurance","inputs":[],"outputs":[{"name":"","type":"address","internalType":"contract InsuranceFund"}],"stateMutability":"view"},{"type":"function","name":"treasury","inputs":[],"outputs":[{"name":"","type":"address","internalType":"address"}],"stateMutability":"view"}],"bytecode":{"object":"0x60803461008857601f6102f438819003918201601f19168301916001600160401b0383118484101761008c5780849260409485528339810103126100885780516001600160a01b03918282169182900361008857602001519182168092036100885760018060a01b031990815f5416175f55600154161760015560405161025390816100a18239f35b5f80fd5b634e487b7160e01b5f52604160045260245ffdfe608080604052600436101561001c575b50361561001a575f80fd5b005b5f90813560e01c90816332696174146101255750806356b307031461010957806361d027b3146100e257806363453ae1146100ad57806389cf3204146100845763f50ec31a0361000f5734610081578060031936011261008157602060405160468152f35b80fd5b50346100815780600319360112610081576001546040516001600160a01b039091168152602090f35b5034610081576020366003190112610081576004356001600160a01b03811681036100de576100db90610161565b80f35b5080fd5b5034610081578060031936011261008157546040516001600160a01b039091168152602090f35b50346100815780600319360112610081576020604051600a8152f35b9050346100de57816003193601126100de5780601460209252f35b9190820391821161014d57565b634e487b7160e01b5f52601160045260245ffd5b47908115610219576046820282810460460361014d5760649004916014810281810460140361014d575f80806101a787956101a26064849704978892610140565b610140565b96818115610210575b6001600160a01b0397881690f1156101f3575f8080809385825416828215610207575bf1156101f3575f8080938193600154168282156101fe575bf1156101f357565b6040513d5f823e3d90fd5b506108fc6101eb565b506108fc6101d3565b506108fc6101b0565b505056fea26469706673582212207d91db1308458f18acf433f594974a3fa78458357d24103a2b8a1d909f81a34264736f6c63430008140033","linkReferences":{}},"methodIdentifiers":{"CP_SHARE()":"f50ec31a","INSURANCE_SHARE()":"56b30703","TREASURY_SHARE()":"32696174","distribute(address)":"63453ae1","insurance()":"89cf3204","treasury()":"61d027b3"},"id":6}