{"abi":[{"type":"function","name":"borrow","inputs":[{"name":"","type":"address","internalType":"address"},{"name":"amount","type":"uint256","internalType":"uint256"},{"name":"","type":"uint256","internalType":"uint256"},{"name":"","type":"uint16","internalType":"uint16"},{"name":"user","type":"address","internalType":"address"}],"outputs":[],"stateMutability":"nonpayable"},{"type":"function","name":"debtOf","inputs":[{"name":"","type":"address","internalType":"address"}],"outputs":[{"name":"","type":"uint256","internalType":"uint256"}],"stateMutability":"view"},{"type":"function","name":"repay","inputs":[{"name":"","type":"address","internalType":"address"},{"name":"amount","type":"uint256","internalType":"uint256"},{"name":"user","type":"address","internalType":"address"}],"outputs":[],"stateMutability":"nonpayable"}],"bytecode":{"object":"0x608060405234801561000f575f80fd5b5061041a8061001d5f395ff3fe608060405234801561000f575f80fd5b506004361061003f575f3560e01c80635ceae9c414610043578063a415bcad1461005f578063d283e75f1461007b575b5f80fd5b61005d60048036038101906100589190610200565b6100ab565b005b61007960048036038101906100749190610287565b610102565b005b610095600480360381019061009091906102fe565b61015b565b6040516100a29190610338565b60405180910390f35b815f808373ffffffffffffffffffffffffffffffffffffffff1673ffffffffffffffffffffffffffffffffffffffff1681526020019081526020015f205f8282546100f6919061037e565b92505081905550505050565b835f808373ffffffffffffffffffffffffffffffffffffffff1673ffffffffffffffffffffffffffffffffffffffff1681526020019081526020015f205f82825461014d91906103b1565b925050819055505050505050565b5f602052805f5260405f205f915090505481565b5f80fd5b5f73ffffffffffffffffffffffffffffffffffffffff82169050919050565b5f61019c82610173565b9050919050565b6101ac81610192565b81146101b6575f80fd5b50565b5f813590506101c7816101a3565b92915050565b5f819050919050565b6101df816101cd565b81146101e9575f80fd5b50565b5f813590506101fa816101d6565b92915050565b5f805f606084860312156102175761021661016f565b5b5f610224868287016101b9565b9350506020610235868287016101ec565b9250506040610246868287016101b9565b9150509250925092565b5f61ffff82169050919050565b61026681610250565b8114610270575f80fd5b50565b5f813590506102818161025d565b92915050565b5f805f805f60a086880312156102a05761029f61016f565b5b5f6102ad888289016101b9565b95505060206102be888289016101ec565b94505060406102cf888289016101ec565b93505060606102e088828901610273565b92505060806102f1888289016101b9565b9150509295509295909350565b5f602082840312156103135761031261016f565b5b5f610320848285016101b9565b91505092915050565b610332816101cd565b82525050565b5f60208201905061034b5f830184610329565b92915050565b7f4e487b71000000000000000000000000000000000000000000000000000000005f52601160045260245ffd5b5f610388826101cd565b9150610393836101cd565b92508282039050818111156103ab576103aa610351565b5b92915050565b5f6103bb826101cd565b91506103c6836101cd565b92508282019050808211156103de576103dd610351565b5b9291505056fea26469706673582212209b8d391a528c2fd351ec280c2433575e4d83b057132025b75bd4eef11f8797d264736f6c63430008140033","linkReferences":{}},"methodIdentifiers":{"borrow(address,uint256,uint256,uint16,address)":"a415bcad","debtOf(address)":"d283e75f","repay(address,uint256,address)":"5ceae9c4"},"id":55}