{"abi":[{"type":"constructor","inputs":[{"name":"usdc","type":"address","internalType":"address"}],"stateMutability":"nonpayable"},{"type":"function","name":"USDC","inputs":[],"outputs":[{"name":"","type":"address","internalType":"contract IERC20"}],"stateMutability":"view"},{"type":"function","name":"borrow","inputs":[{"name":"asset","type":"address","internalType":"address"},{"name":"amount","type":"uint256","internalType":"uint256"},{"name":"","type":"uint256","internalType":"uint256"},{"name":"","type":"uint16","internalType":"uint16"},{"name":"onBehalfOf","type":"address","internalType":"address"}],"outputs":[],"stateMutability":"nonpayable"},{"type":"function","name":"debtOf","inputs":[{"name":"","type":"address","internalType":"address"}],"outputs":[{"name":"","type":"uint256","internalType":"uint256"}],"stateMutability":"view"},{"type":"function","name":"repay","inputs":[{"name":"asset","type":"address","internalType":"address"},{"name":"amount","type":"uint256","internalType":"uint256"},{"name":"onBehalfOf","type":"address","internalType":"address"}],"outputs":[],"stateMutability":"nonpayable"}],"bytecode":{"object":"0x60a060405234801561000f575f80fd5b50604051610a7f380380610a7f833981810160405281019061003191906100c9565b8073ffffffffffffffffffffffffffffffffffffffff1660808173ffffffffffffffffffffffffffffffffffffffff1681525050506100f4565b5f80fd5b5f73ffffffffffffffffffffffffffffffffffffffff82169050919050565b5f6100988261006f565b9050919050565b6100a88161008e565b81146100b2575f80fd5b50565b5f815190506100c38161009f565b92915050565b5f602082840312156100de576100dd61006b565b5b5f6100eb848285016100b5565b91505092915050565b6080516109586101275f395f818160d6015281816101b601528181610297015281816102bb015261039b01526109585ff3fe608060405234801561000f575f80fd5b506004361061004a575f3560e01c80635ceae9c41461004e57806389a302711461006a578063a415bcad14610088578063d283e75f146100a4575b5f80fd5b6100686004803603810190610063919061051f565b6100d4565b005b610072610295565b60405161007f91906105ca565b60405180910390f35b6100a2600480360381019061009d919061061a565b6102b9565b005b6100be60048036038101906100b99190610691565b61047a565b6040516100cb91906106cb565b60405180910390f35b7f000000000000000000000000000000000000000000000000000000000000000073ffffffffffffffffffffffffffffffffffffffff168373ffffffffffffffffffffffffffffffffffffffff1614610162576040517f08c379a00000000000000000000000000000000000000000000000000000000081526004016101599061073e565b60405180910390fd5b815f808373ffffffffffffffffffffffffffffffffffffffff1673ffffffffffffffffffffffffffffffffffffffff1681526020019081526020015f205f8282546101ad9190610789565b925050819055507f000000000000000000000000000000000000000000000000000000000000000073ffffffffffffffffffffffffffffffffffffffff166323b872dd3330856040518463ffffffff1660e01b8152600401610211939291906107cb565b6020604051808303815f875af115801561022d573d5f803e3d5ffd5b505050506040513d601f19601f820116820180604052508101906102519190610835565b610290576040517f08c379a0000000000000000000000000000000000000000000000000000000008152600401610287906108aa565b60405180910390fd5b505050565b7f000000000000000000000000000000000000000000000000000000000000000081565b7f000000000000000000000000000000000000000000000000000000000000000073ffffffffffffffffffffffffffffffffffffffff168573ffffffffffffffffffffffffffffffffffffffff1614610347576040517f08c379a000000000000000000000000000000000000000000000000000000000815260040161033e9061073e565b60405180910390fd5b835f808373ffffffffffffffffffffffffffffffffffffffff1673ffffffffffffffffffffffffffffffffffffffff1681526020019081526020015f205f82825461039291906108c8565b925050819055507f000000000000000000000000000000000000000000000000000000000000000073ffffffffffffffffffffffffffffffffffffffff1663a9059cbb82866040518363ffffffff1660e01b81526004016103f49291906108fb565b6020604051808303815f875af1158015610410573d5f803e3d5ffd5b505050506040513d601f19601f820116820180604052508101906104349190610835565b610473576040517f08c379a000000000000000000000000000000000000000000000000000000000815260040161046a906108aa565b60405180910390fd5b5050505050565b5f602052805f5260405f205f915090505481565b5f80fd5b5f73ffffffffffffffffffffffffffffffffffffffff82169050919050565b5f6104bb82610492565b9050919050565b6104cb816104b1565b81146104d5575f80fd5b50565b5f813590506104e6816104c2565b92915050565b5f819050919050565b6104fe816104ec565b8114610508575f80fd5b50565b5f81359050610519816104f5565b92915050565b5f805f606084860312156105365761053561048e565b5b5f610543868287016104d8565b93505060206105548682870161050b565b9250506040610565868287016104d8565b9150509250925092565b5f819050919050565b5f61059261058d61058884610492565b61056f565b610492565b9050919050565b5f6105a382610578565b9050919050565b5f6105b482610599565b9050919050565b6105c4816105aa565b82525050565b5f6020820190506105dd5f8301846105bb565b92915050565b5f61ffff82169050919050565b6105f9816105e3565b8114610603575f80fd5b50565b5f81359050610614816105f0565b92915050565b5f805f805f60a086880312156106335761063261048e565b5b5f610640888289016104d8565b95505060206106518882890161050b565b94505060406106628882890161050b565b935050606061067388828901610606565b9250506080610684888289016104d8565b9150509295509295909350565b5f602082840312156106a6576106a561048e565b5b5f6106b3848285016104d8565b91505092915050565b6106c5816104ec565b82525050565b5f6020820190506106de5f8301846106bc565b92915050565b5f82825260208201905092915050565b7f554e535550504f525445445f41535345540000000000000000000000000000005f82015250565b5f6107286011836106e4565b9150610733826106f4565b602082019050919050565b5f6020820190508181035f8301526107558161071c565b9050919050565b7f4e487b71000000000000000000000000000000000000000000000000000000005f52601160045260245ffd5b5f610793826104ec565b915061079e836104ec565b92508282039050818111156107b6576107b561075c565b5b92915050565b6107c5816104b1565b82525050565b5f6060820190506107de5f8301866107bc565b6107eb60208301856107bc565b6107f860408301846106bc565b949350505050565b5f8115159050919050565b61081481610800565b811461081e575f80fd5b50565b5f8151905061082f8161080b565b92915050565b5f6020828403121561084a5761084961048e565b5b5f61085784828501610821565b91505092915050565b7f5452414e534645525f4641494c000000000000000000000000000000000000005f82015250565b5f610894600d836106e4565b915061089f82610860565b602082019050919050565b5f6020820190508181035f8301526108c181610888565b9050919050565b5f6108d2826104ec565b91506108dd836104ec565b92508282019050808211156108f5576108f461075c565b5b92915050565b5f60408201905061090e5f8301856107bc565b61091b60208301846106bc565b939250505056fea2646970667358221220934205b01f3fdbd8076d7488567209b52c9e7803680fb6e91d620bbb26a97e6f64736f6c63430008140033","linkReferences":{}},"methodIdentifiers":{"USDC()":"89a30271","borrow(address,uint256,uint256,uint16,address)":"a415bcad","debtOf(address)":"d283e75f","repay(address,uint256,address)":"5ceae9c4"},"id":39}