{"abi":[{"type":"constructor","inputs":[{"name":"_controller","type":"address","internalType":"address"}],"stateMutability":"nonpayable"},{"type":"receive","stateMutability":"payable"},{"type":"function","name":"controller","inputs":[],"outputs":[{"name":"","type":"address","internalType":"address"}],"stateMutability":"view"},{"type":"function","name":"payOut","inputs":[{"name":"to","type":"address","internalType":"address"},{"name":"amount","type":"uint256","internalType":"uint256"}],"outputs":[],"stateMutability":"nonpayable"},{"type":"function","name":"totalBalance","inputs":[],"outputs":[{"name":"","type":"uint256","internalType":"uint256"}],"stateMutability":"view"},{"type":"error","name":"NotAuthorized","inputs":[]}],"bytecode":{"object":"0x60803461007357601f61022338819003918201601f19168301916001600160401b038311848410176100775780849260209460405283398101031261007357516001600160a01b03811690819003610073575f80546001600160a01b031916919091179055604051610197908161008c8239f35b5f80fd5b634e487b7160e01b5f52604160045260245ffdfe6080806040526004361015610040575b50361561001a575f80fd5b60015434810180911161002c57600155005b634e487b7160e01b5f52601160045260245ffd5b5f90813560e01c9081630221038a146100b057508063ad7a672f146100925763f77c47910361000f573461008f578060031936011261008f57546040516001600160a01b039091168152602090f35b80fd5b503461008f578060031936011261008f576020600154604051908152f35b90503461015d57604036600319011261015d576001600160a01b039060043582811691908290036101595760243592845416330361014a5750600154808311610142575b82810390811161012e5783809381938293600155828215610125575bf1156101195780f35b604051903d90823e3d90fd5b506108fc610110565b634e487b7160e01b84526011600452602484fd5b9150816100f4565b63ea8e4eb560e01b8152600490fd5b8380fd5b5080fdfea26469706673582212206af2e8fd82f886ae82f0b97ff036b1ae580651aabcc661664bab3977782add4f64736f6c63430008140033","linkReferences":{}},"methodIdentifiers":{"controller()":"f77c4791","payOut(address,uint256)":"0221038a","totalBalance()":"ad7a672f"},"id":10}