{"abi":[{"type":"constructor","inputs":[{"name":"_controller","type":"address","internalType":"address"}],"stateMutability":"nonpayable"},{"type":"receive","stateMutability":"payable"},{"type":"function","name":"controller","inputs":[],"outputs":[{"name":"","type":"address","internalType":"address"}],"stateMutability":"view"},{"type":"function","name":"payOut","inputs":[{"name":"to","type":"address","internalType":"address"},{"name":"amount","type":"uint256","internalType":"uint256"}],"outputs":[],"stateMutability":"nonpayable"},{"type":"function","name":"totalBalance","inputs":[],"outputs":[{"name":"","type":"uint256","internalType":"uint256"}],"stateMutability":"view"},{"type":"error","name":"NotAuthorized","inputs":[]}],"bytecode":{"object":"0x608060405234801561000f575f80fd5b506040516104f03803806104f0833981810160405281019061003191906100d4565b805f806101000a81548173ffffffffffffffffffffffffffffffffffffffff021916908373ffffffffffffffffffffffffffffffffffffffff160217905550506100ff565b5f80fd5b5f73ffffffffffffffffffffffffffffffffffffffff82169050919050565b5f6100a38261007a565b9050919050565b6100b381610099565b81146100bd575f80fd5b50565b5f815190506100ce816100aa565b92915050565b5f602082840312156100e9576100e8610076565b5b5f6100f6848285016100c0565b91505092915050565b6103e48061010c5f395ff3fe608060405260043610610037575f3560e01c80630221038a14610059578063ad7a672f14610081578063f77c4791146100ab57610055565b36610055573460015f82825461004d9190610232565b925050819055005b5f80fd5b348015610064575f80fd5b5061007f600480360381019061007a91906102ed565b6100d5565b005b34801561008c575f80fd5b5061009561014d565b6040516100a2919061033a565b60405180910390f35b3480156100b6575f80fd5b506100bf610153565b6040516100cc9190610362565b60405180910390f35b6100dd610176565b6001548111156100ed5760015490505b8060015f8282546100fe919061037b565b925050819055508173ffffffffffffffffffffffffffffffffffffffff166108fc8290811502906040515f60405180830381858888f19350505050158015610148573d5f803e3d5ffd5b505050565b60015481565b5f8054906101000a900473ffffffffffffffffffffffffffffffffffffffff1681565b5f8054906101000a900473ffffffffffffffffffffffffffffffffffffffff1673ffffffffffffffffffffffffffffffffffffffff163373ffffffffffffffffffffffffffffffffffffffff16146101fa576040517fea8e4eb500000000000000000000000000000000000000000000000000000000815260040160405180910390fd5b565b5f819050919050565b7f4e487b71000000000000000000000000000000000000000000000000000000005f52601160045260245ffd5b5f61023c826101fc565b9150610247836101fc565b925082820190508082111561025f5761025e610205565b5b92915050565b5f80fd5b5f73ffffffffffffffffffffffffffffffffffffffff82169050919050565b5f61029282610269565b9050919050565b6102a281610288565b81146102ac575f80fd5b50565b5f813590506102bd81610299565b92915050565b6102cc816101fc565b81146102d6575f80fd5b50565b5f813590506102e7816102c3565b92915050565b5f806040838503121561030357610302610265565b5b5f610310858286016102af565b9250506020610321858286016102d9565b9150509250929050565b610334816101fc565b82525050565b5f60208201905061034d5f83018461032b565b92915050565b61035c81610288565b82525050565b5f6020820190506103755f830184610353565b92915050565b5f610385826101fc565b9150610390836101fc565b92508282039050818111156103a8576103a7610205565b5b9291505056fea26469706673582212205657e0f7c7723386422339e870a5883cc4ddd5607e6cb015a6ce9dcb80817bb764736f6c63430008140033","linkReferences":{}},"methodIdentifiers":{"controller()":"f77c4791","payOut(address,uint256)":"0221038a","totalBalance()":"ad7a672f"},"id":10}