{"abi":[{"type":"constructor","inputs":[{"name":"_manager","type":"address","internalType":"address"},{"name":"_oracle","type":"address","internalType":"address"}],"stateMutability":"nonpayable"},{"type":"function","name":"borrowFromAave","inputs":[{"name":"adapter","type":"address","internalType":"address"},{"name":"asset","type":"address","internalType":"address"},{"name":"amount","type":"uint256","internalType":"uint256"}],"outputs":[],"stateMutability":"nonpayable"},{"type":"function","name":"borrowFromCompound","inputs":[{"name":"adapter","type":"address","internalType":"address"},{"name":"amount","type":"uint256","internalType":"uint256"}],"outputs":[],"stateMutability":"nonpayable"},{"type":"function","name":"creditManager","inputs":[],"outputs":[{"name":"","type":"address","internalType":"contract ICreditManager"}],"stateMutability":"view"},{"type":"function","name":"oracle","inputs":[],"outputs":[{"name":"","type":"address","internalType":"contract CreditOracle"}],"stateMutability":"view"},{"type":"function","name":"setCreditManager","inputs":[{"name":"_cm","type":"address","internalType":"address"}],"outputs":[],"stateMutability":"nonpayable"},{"type":"error","name":"InsufficientCredit","inputs":[]},{"type":"error","name":"OracleUnhealthy","inputs":[]}],"bytecode":{"object":"0x60a060405234801561000f575f80fd5b50604051610c0f380380610c0f83398181016040528101906100319190610109565b815f806101000a81548173ffffffffffffffffffffffffffffffffffffffff021916908373ffffffffffffffffffffffffffffffffffffffff1602179055508073ffffffffffffffffffffffffffffffffffffffff1660808173ffffffffffffffffffffffffffffffffffffffff16815250505050610147565b5f80fd5b5f73ffffffffffffffffffffffffffffffffffffffff82169050919050565b5f6100d8826100af565b9050919050565b6100e8816100ce565b81146100f2575f80fd5b50565b5f81519050610103816100df565b92915050565b5f806040838503121561011f5761011e6100ab565b5b5f61012c858286016100f5565b925050602061013d858286016100f5565b9150509250929050565b608051610aa261016d5f395f81816101ba015281816101de01526104840152610aa25ff3fe608060405234801561000f575f80fd5b5060043610610055575f3560e01c806369dd793b146100595780637dc0d1d0146100755780638afda80914610093578063c12c21c0146100af578063e3f6ec88146100cd575b5f80fd5b610073600480360381019061006e9190610768565b6100e9565b005b61007d6101b8565b60405161008a91906107ee565b60405180910390f35b6100ad60048036038101906100a8919061083a565b6101dc565b005b6100b761045f565b6040516100c49190610898565b60405180910390f35b6100e760048036038101906100e291906108b1565b610482565b005b5f73ffffffffffffffffffffffffffffffffffffffff165f8054906101000a900473ffffffffffffffffffffffffffffffffffffffff1673ffffffffffffffffffffffffffffffffffffffff1614610176576040517f08c379a000000000000000000000000000000000000000000000000000000000815260040161016d9061095b565b60405180910390fd5b805f806101000a81548173ffffffffffffffffffffffffffffffffffffffff021916908373ffffffffffffffffffffffffffffffffffffffff16021790555050565b7f000000000000000000000000000000000000000000000000000000000000000081565b7f000000000000000000000000000000000000000000000000000000000000000073ffffffffffffffffffffffffffffffffffffffff16637560fdd16040518163ffffffff1660e01b8152600401602060405180830381865afa158015610245573d5f803e3d5ffd5b505050506040513d601f19601f8201168201806040525081019061026991906109ae565b61029f576040517fa98230e200000000000000000000000000000000000000000000000000000000815260040160405180910390fd5b5f8054906101000a900473ffffffffffffffffffffffffffffffffffffffff1673ffffffffffffffffffffffffffffffffffffffff16639c54726533836040518363ffffffff1660e01b81526004016102f99291906109f7565b602060405180830381865afa158015610314573d5f803e3d5ffd5b505050506040513d601f19601f8201168201806040525081019061033891906109ae565b61036e576040517f8ac4bc7300000000000000000000000000000000000000000000000000000000815260040160405180910390fd5b5f8054906101000a900473ffffffffffffffffffffffffffffffffffffffff1673ffffffffffffffffffffffffffffffffffffffff1663f7f11fb733836040518363ffffffff1660e01b81526004016103c89291906109f7565b5f604051808303815f87803b1580156103df575f80fd5b505af11580156103f1573d5f803e3d5ffd5b505050508173ffffffffffffffffffffffffffffffffffffffff1663c5ebeaec826040518263ffffffff1660e01b815260040161042e9190610a1e565b5f604051808303815f87803b158015610445575f80fd5b505af1158015610457573d5f803e3d5ffd5b505050505050565b5f8054906101000a900473ffffffffffffffffffffffffffffffffffffffff1681565b7f000000000000000000000000000000000000000000000000000000000000000073ffffffffffffffffffffffffffffffffffffffff16637560fdd16040518163ffffffff1660e01b8152600401602060405180830381865afa1580156104eb573d5f803e3d5ffd5b505050506040513d601f19601f8201168201806040525081019061050f91906109ae565b610545576040517fa98230e200000000000000000000000000000000000000000000000000000000815260040160405180910390fd5b5f8054906101000a900473ffffffffffffffffffffffffffffffffffffffff1673ffffffffffffffffffffffffffffffffffffffff16639c54726533836040518363ffffffff1660e01b815260040161059f9291906109f7565b602060405180830381865afa1580156105ba573d5f803e3d5ffd5b505050506040513d601f19601f820116820180604052508101906105de91906109ae565b610614576040517f8ac4bc7300000000000000000000000000000000000000000000000000000000815260040160405180910390fd5b5f8054906101000a900473ffffffffffffffffffffffffffffffffffffffff1673ffffffffffffffffffffffffffffffffffffffff1663f7f11fb733836040518363ffffffff1660e01b815260040161066e9291906109f7565b5f604051808303815f87803b158015610685575f80fd5b505af1158015610697573d5f803e3d5ffd5b505050508273ffffffffffffffffffffffffffffffffffffffff16636c665a558383336040518463ffffffff1660e01b81526004016106d893929190610a37565b5f604051808303815f87803b1580156106ef575f80fd5b505af1158015610701573d5f803e3d5ffd5b50505050505050565b5f80fd5b5f73ffffffffffffffffffffffffffffffffffffffff82169050919050565b5f6107378261070e565b9050919050565b6107478161072d565b8114610751575f80fd5b50565b5f813590506107628161073e565b92915050565b5f6020828403121561077d5761077c61070a565b5b5f61078a84828501610754565b91505092915050565b5f819050919050565b5f6107b66107b16107ac8461070e565b610793565b61070e565b9050919050565b5f6107c78261079c565b9050919050565b5f6107d8826107bd565b9050919050565b6107e8816107ce565b82525050565b5f6020820190506108015f8301846107df565b92915050565b5f819050919050565b61081981610807565b8114610823575f80fd5b50565b5f8135905061083481610810565b92915050565b5f80604083850312156108505761084f61070a565b5b5f61085d85828601610754565b925050602061086e85828601610826565b9150509250929050565b5f610882826107bd565b9050919050565b61089281610878565b82525050565b5f6020820190506108ab5f830184610889565b92915050565b5f805f606084860312156108c8576108c761070a565b5b5f6108d586828701610754565b93505060206108e686828701610754565b92505060406108f786828701610826565b9150509250925092565b5f82825260208201905092915050565b7f416c7265616479207365740000000000000000000000000000000000000000005f82015250565b5f610945600b83610901565b915061095082610911565b602082019050919050565b5f6020820190508181035f83015261097281610939565b9050919050565b5f8115159050919050565b61098d81610979565b8114610997575f80fd5b50565b5f815190506109a881610984565b92915050565b5f602082840312156109c3576109c261070a565b5b5f6109d08482850161099a565b91505092915050565b6109e28161072d565b82525050565b6109f181610807565b82525050565b5f604082019050610a0a5f8301856109d9565b610a1760208301846109e8565b9392505050565b5f602082019050610a315f8301846109e8565b92915050565b5f606082019050610a4a5f8301866109d9565b610a5760208301856109e8565b610a6460408301846109d9565b94935050505056fea26469706673582212209966bf57692b271622bc9aa38c22aba49a037807809a60db9ef1ad6bf97bb1bb64736f6c63430008140033","linkReferences":{}},"methodIdentifiers":{"borrowFromAave(address,address,uint256)":"e3f6ec88","borrowFromCompound(address,uint256)":"8afda809","creditManager()":"c12c21c0","oracle()":"7dc0d1d0","setCreditManager(address)":"69dd793b"},"id":4}