{"abi":[{"type":"constructor","inputs":[{"name":"_manager","type":"address","internalType":"address"},{"name":"_oracle","type":"address","internalType":"address"},{"name":"_liquidationController","type":"address","internalType":"address"},{"name":"_insurancePool","type":"address","internalType":"address"}],"stateMutability":"nonpayable"},{"type":"function","name":"LIQUIDATION_CONTROLLER","inputs":[],"outputs":[{"name":"","type":"address","internalType":"contract LiquidationController"}],"stateMutability":"view"},{"type":"function","name":"ORACLE","inputs":[],"outputs":[{"name":"","type":"address","internalType":"contract CreditOracle"}],"stateMutability":"view"},{"type":"function","name":"OWNER","inputs":[],"outputs":[{"name":"","type":"address","internalType":"address"}],"stateMutability":"view"},{"type":"function","name":"borrowFromAave","inputs":[{"name":"adapter","type":"address","internalType":"address"},{"name":"asset","type":"address","internalType":"address"},{"name":"amount","type":"uint256","internalType":"uint256"}],"outputs":[],"stateMutability":"nonpayable"},{"type":"function","name":"borrowFromCompound","inputs":[{"name":"adapter","type":"address","internalType":"address"},{"name":"amount","type":"uint256","internalType":"uint256"}],"outputs":[],"stateMutability":"nonpayable"},{"type":"function","name":"closeFactorBps","inputs":[],"outputs":[{"name":"","type":"uint256","internalType":"uint256"}],"stateMutability":"view"},{"type":"function","name":"creditManager","inputs":[],"outputs":[{"name":"","type":"address","internalType":"contract ICreditManager"}],"stateMutability":"view"},{"type":"function","name":"creditPool","inputs":[],"outputs":[{"name":"","type":"address","internalType":"contract CreditPool"}],"stateMutability":"view"},{"type":"function","name":"delegateCredit","inputs":[{"name":"user","type":"address","internalType":"address"},{"name":"amount","type":"uint256","internalType":"uint256"}],"outputs":[],"stateMutability":"nonpayable"},{"type":"function","name":"insurancePool","inputs":[],"outputs":[{"name":"","type":"address","internalType":"contract InsurancePool"}],"stateMutability":"view"},{"type":"function","name":"isBorrower","inputs":[{"name":"","type":"address","internalType":"address"}],"outputs":[{"name":"","type":"bool","internalType":"bool"}],"stateMutability":"view"},{"type":"function","name":"liquidate","inputs":[{"name":"user","type":"address","internalType":"address"},{"name":"repayAmount","type":"uint256","internalType":"uint256"},{"name":"asset","type":"address","internalType":"address"}],"outputs":[],"stateMutability":"nonpayable"},{"type":"function","name":"setBorrower","inputs":[{"name":"borrower","type":"address","internalType":"address"},{"name":"allowed","type":"bool","internalType":"bool"}],"outputs":[],"stateMutability":"nonpayable"},{"type":"function","name":"setCloseFactorBps","inputs":[{"name":"bps","type":"uint256","internalType":"uint256"}],"outputs":[],"stateMutability":"nonpayable"},{"type":"function","name":"setCreditManager","inputs":[{"name":"_cm","type":"address","internalType":"address"}],"outputs":[],"stateMutability":"nonpayable"},{"type":"function","name":"setCreditPool","inputs":[{"name":"pool","type":"address","internalType":"address"}],"outputs":[],"stateMutability":"nonpayable"},{"type":"function","name":"setInsurancePool","inputs":[{"name":"pool","type":"address","internalType":"address"}],"outputs":[],"stateMutability":"nonpayable"},{"type":"function","name":"setManagerPool","inputs":[{"name":"pool","type":"address","internalType":"address"}],"outputs":[],"stateMutability":"nonpayable"},{"type":"event","name":"BorrowerWhitelisted","inputs":[{"name":"borrower","type":"address","indexed":true,"internalType":"address"},{"name":"allowed","type":"bool","indexed":false,"internalType":"bool"}],"anonymous":false},{"type":"event","name":"CloseFactorUpdated","inputs":[{"name":"bps","type":"uint256","indexed":false,"internalType":"uint256"}],"anonymous":false},{"type":"event","name":"CreditDelegated","inputs":[{"name":"user","type":"address","indexed":true,"internalType":"address"},{"name":"amount","type":"uint256","indexed":false,"internalType":"uint256"}],"anonymous":false},{"type":"event","name":"CreditManagerSet","inputs":[{"name":"manager","type":"address","indexed":false,"internalType":"address"}],"anonymous":false},{"type":"event","name":"CreditPoolSet","inputs":[{"name":"pool","type":"address","indexed":false,"internalType":"address"}],"anonymous":false},{"type":"event","name":"InsurancePoolSet","inputs":[{"name":"pool","type":"address","indexed":false,"internalType":"address"}],"anonymous":false},{"type":"event","name":"Liquidated","inputs":[{"name":"user","type":"address","indexed":true,"internalType":"address"},{"name":"liquidator","type":"address","indexed":true,"internalType":"address"},{"name":"asset","type":"address","indexed":true,"internalType":"address"},{"name":"repayAmount","type":"uint256","indexed":false,"internalType":"uint256"},{"name":"seizeAmount","type":"uint256","indexed":false,"internalType":"uint256"},{"name":"bonusPaid","type":"uint256","indexed":false,"internalType":"uint256"},{"name":"bonusShortfall","type":"uint256","indexed":false,"internalType":"uint256"}],"anonymous":false},{"type":"error","name":"InsufficientCredit","inputs":[]},{"type":"error","name":"InvalidAmount","inputs":[]},{"type":"error","name":"InvalidAsset","inputs":[]},{"type":"error","name":"NotAuthorized","inputs":[]},{"type":"error","name":"NotLiquidatable","inputs":[]},{"type":"error","name":"OracleUnhealthy","inputs":[]},{"type":"error","name":"RepayExceedsDebt","inputs":[]},{"type":"error","name":"SafeERC20FailedOperation","inputs":[{"name":"token","type":"address","internalType":"address"}]}],"bytecode":{"object":"0x60e060405261138860035534801562000016575f80fd5b506040516200254d3803806200254d83398181016040528101906200003c9190620001c6565b835f806101000a81548173ffffffffffffffffffffffffffffffffffffffff021916908373ffffffffffffffffffffffffffffffffffffffff1602179055508273ffffffffffffffffffffffffffffffffffffffff1660808173ffffffffffffffffffffffffffffffffffffffff16815250508173ffffffffffffffffffffffffffffffffffffffff1660a08173ffffffffffffffffffffffffffffffffffffffff16815250508060015f6101000a81548173ffffffffffffffffffffffffffffffffffffffff021916908373ffffffffffffffffffffffffffffffffffffffff1602179055503373ffffffffffffffffffffffffffffffffffffffff1660c08173ffffffffffffffffffffffffffffffffffffffff16815250505050505062000235565b5f80fd5b5f73ffffffffffffffffffffffffffffffffffffffff82169050919050565b5f620001908262000165565b9050919050565b620001a28162000184565b8114620001ad575f80fd5b50565b5f81519050620001c08162000197565b92915050565b5f805f8060808587031215620001e157620001e062000161565b5b5f620001f087828801620001b0565b94505060206200020387828801620001b0565b93505060406200021687828801620001b0565b92505060606200022987828801620001b0565b91505092959194509250565b60805160a05160c0516122c36200028a5f395f818161033401526119d101525f81816105ec0152818161096b015261164001525f818161037d0152818161048e0152818161107b015261169d01526122c35ff3fe608060405234801561000f575f80fd5b5060043610610114575f3560e01c80638afda809116100a0578063c12c21c01161006f578063c12c21c01461028e578063dfcf3ce0146102ac578063e3f6ec88146102ca578063eaf6e483146102e6578063fdeeadd01461031657610114565b80638afda8091461021c578063a94c487e14610238578063ab2adc0014610254578063b1a417021461027257610114565b80634654440b116100e75780634654440b1461018e5780634914c008146101ac5780634c67ba89146101c857806369dd793b146101e457806389c85c6f1461020057610114565b8063117803e3146101185780632ff1ab951461013657806338013f02146101545780634422bc5a14610172575b5f80fd5b610120610332565b60405161012d9190611c10565b60405180910390f35b61013e610356565b60405161014b9190611c84565b60405180910390f35b61015c61037b565b6040516101699190611cbd565b60405180910390f35b61018c60048036038101906101879190611d39565b61039f565b005b61019661044d565b6040516101a39190611d8f565b60405180910390f35b6101c660048036038101906101c19190611dd2565b610453565b005b6101e260048036038101906101dd9190611e22565b610c3f565b005b6101fe60048036038101906101f99190611e22565b610d34565b005b61021a60048036038101906102159190611e4d565b610e39565b005b61023660048036038101906102319190611e4d565b611040565b005b610252600480360381019061024d9190611e22565b6112fc565b005b61025c611404565b6040516102699190611eab565b60405180910390f35b61028c60048036038101906102879190611e22565b611429565b005b61029661161b565b6040516102a39190611ee4565b60405180910390f35b6102b461163e565b6040516102c19190611f1d565b60405180910390f35b6102e460048036038101906102df9190611f36565b611662565b005b61030060048036038101906102fb9190611e22565b611923565b60405161030d9190611f95565b60405180910390f35b610330600480360381019061032b9190611fae565b611940565b005b7f000000000000000000000000000000000000000000000000000000000000000081565b60025f9054906101000a900473ffffffffffffffffffffffffffffffffffffffff1681565b7f000000000000000000000000000000000000000000000000000000000000000081565b6103a76119cf565b8060045f8473ffffffffffffffffffffffffffffffffffffffff1673ffffffffffffffffffffffffffffffffffffffff1681526020019081526020015f205f6101000a81548160ff0219169083151502179055508173ffffffffffffffffffffffffffffffffffffffff167fc06b3ea10f261e1046d2465e60a4d2728421b1da49c730dd4663b047b9b28863826040516104419190611f95565b60405180910390a25050565b60035481565b5f820361048c576040517f2c5211c600000000000000000000000000000000000000000000000000000000815260040160405180910390fd5b7f000000000000000000000000000000000000000000000000000000000000000073ffffffffffffffffffffffffffffffffffffffff16637560fdd16040518163ffffffff1660e01b8152600401602060405180830381865afa1580156104f5573d5f803e3d5ffd5b505050506040513d601f19601f820116820180604052508101906105199190611fed565b61054f576040517fa98230e200000000000000000000000000000000000000000000000000000000815260040160405180910390fd5b5f805f9054906101000a900473ffffffffffffffffffffffffffffffffffffffff1673ffffffffffffffffffffffffffffffffffffffff16636ad9f9df856040518263ffffffff1660e01b81526004016105a99190611c10565b602060405180830381865afa1580156105c4573d5f803e3d5ffd5b505050506040513d601f19601f820116820180604052508101906105e8919061202c565b90507f000000000000000000000000000000000000000000000000000000000000000073ffffffffffffffffffffffffffffffffffffffff1663211a4443826040518263ffffffff1660e01b81526004016106439190611d8f565b602060405180830381865afa15801561065e573d5f803e3d5ffd5b505050506040513d601f19601f820116820180604052508101906106829190611fed565b6106b8576040517fddeb79ba00000000000000000000000000000000000000000000000000000000815260040160405180910390fd5b5f805f9054906101000a900473ffffffffffffffffffffffffffffffffffffffff1673ffffffffffffffffffffffffffffffffffffffff16631ff517ff866040518263ffffffff1660e01b81526004016107129190611c10565b602060405180830381865afa15801561072d573d5f803e3d5ffd5b505050506040513d601f19601f82011682018060405250810190610751919061202c565b90505f810361078c576040517fddeb79ba00000000000000000000000000000000000000000000000000000000815260040160405180910390fd5b5f6127106003548361079e9190612084565b6107a891906120f2565b9050808511156107b6578094505b818511156107f0576040517fe31d04ea00000000000000000000000000000000000000000000000000000000815260040160405180910390fd5b5f73ffffffffffffffffffffffffffffffffffffffff1660015f9054906101000a900473ffffffffffffffffffffffffffffffffffffffff1673ffffffffffffffffffffffffffffffffffffffff1603610876576040517fea8e4eb500000000000000000000000000000000000000000000000000000000815260040160405180910390fd5b60015f9054906101000a900473ffffffffffffffffffffffffffffffffffffffff1673ffffffffffffffffffffffffffffffffffffffff16634800d97f6040518163ffffffff1660e01b8152600401602060405180830381865afa1580156108e0573d5f803e3d5ffd5b505050506040513d601f19601f82011682018060405250810190610904919061215d565b73ffffffffffffffffffffffffffffffffffffffff168473ffffffffffffffffffffffffffffffffffffffff1614610968576040517fc891add200000000000000000000000000000000000000000000000000000000815260040160405180910390fd5b5f7f000000000000000000000000000000000000000000000000000000000000000073ffffffffffffffffffffffffffffffffffffffff1663ed22ba69876040518263ffffffff1660e01b81526004016109c29190611d8f565b602060405180830381865afa1580156109dd573d5f803e3d5ffd5b505050506040513d601f19601f82011682018060405250810190610a01919061202c565b90505f8682610a109190612188565b9050610a3f3330898973ffffffffffffffffffffffffffffffffffffffff16611a56909392919063ffffffff16565b5f8054906101000a900473ffffffffffffffffffffffffffffffffffffffff1673ffffffffffffffffffffffffffffffffffffffff16632720313b89896040518363ffffffff1660e01b8152600401610a999291906121bb565b5f604051808303815f87803b158015610ab0575f80fd5b505af1158015610ac2573d5f803e3d5ffd5b505050505f80821115610b6c5760015f9054906101000a900473ffffffffffffffffffffffffffffffffffffffff1673ffffffffffffffffffffffffffffffffffffffff166314a1362b836040518263ffffffff1660e01b8152600401610b299190611d8f565b6020604051808303815f875af1158015610b45573d5f803e3d5ffd5b505050506040513d601f19601f82011682018060405250810190610b69919061202c565b90505b5f8189610b7991906121e2565b9050610ba633828a73ffffffffffffffffffffffffffffffffffffffff16611aab9092919063ffffffff16565b8773ffffffffffffffffffffffffffffffffffffffff163373ffffffffffffffffffffffffffffffffffffffff168b73ffffffffffffffffffffffffffffffffffffffff167f79464c6994e339001152c33d80fa9a7238ecd8cd302420e44a3824c58d6c064e8c8887888a610c1b9190612188565b604051610c2b9493929190612215565b60405180910390a450505050505050505050565b610c476119cf565b5f73ffffffffffffffffffffffffffffffffffffffff168173ffffffffffffffffffffffffffffffffffffffff1603610cac576040517fea8e4eb500000000000000000000000000000000000000000000000000000000815260040160405180910390fd5b5f8054906101000a900473ffffffffffffffffffffffffffffffffffffffff1673ffffffffffffffffffffffffffffffffffffffff16634437152a826040518263ffffffff1660e01b8152600401610d049190611c10565b5f604051808303815f87803b158015610d1b575f80fd5b505af1158015610d2d573d5f803e3d5ffd5b5050505050565b610d3c6119cf565b5f73ffffffffffffffffffffffffffffffffffffffff165f8054906101000a900473ffffffffffffffffffffffffffffffffffffffff1673ffffffffffffffffffffffffffffffffffffffff1614610dc0576040517fea8e4eb500000000000000000000000000000000000000000000000000000000815260040160405180910390fd5b805f806101000a81548173ffffffffffffffffffffffffffffffffffffffff021916908373ffffffffffffffffffffffffffffffffffffffff1602179055507f0d5d956af0a72c9a7a98c60bdcbfefb5ea3d0ec6ab674d05db515c15f95a49eb81604051610e2e9190611c10565b60405180910390a150565b610e416119cf565b5f73ffffffffffffffffffffffffffffffffffffffff1660025f9054906101000a900473ffffffffffffffffffffffffffffffffffffffff1673ffffffffffffffffffffffffffffffffffffffff1603610ec7576040517fea8e4eb500000000000000000000000000000000000000000000000000000000815260040160405180910390fd5b5f73ffffffffffffffffffffffffffffffffffffffff168273ffffffffffffffffffffffffffffffffffffffff1603610f2c576040517fea8e4eb500000000000000000000000000000000000000000000000000000000815260040160405180910390fd5b5f8103610f65576040517f2c5211c600000000000000000000000000000000000000000000000000000000815260040160405180910390fd5b60025f9054906101000a900473ffffffffffffffffffffffffffffffffffffffff1673ffffffffffffffffffffffffffffffffffffffff166389c85c6f83836040518363ffffffff1660e01b8152600401610fc19291906121bb565b5f604051808303815f87803b158015610fd8575f80fd5b505af1158015610fea573d5f803e3d5ffd5b505050508173ffffffffffffffffffffffffffffffffffffffff167f5a892c006975101cec6efb988e67ee562ded65d3b1ca0c69d893b5127cabf322826040516110349190611d8f565b60405180910390a25050565b5f8103611079576040517f2c5211c600000000000000000000000000000000000000000000000000000000815260040160405180910390fd5b7f000000000000000000000000000000000000000000000000000000000000000073ffffffffffffffffffffffffffffffffffffffff16637560fdd16040518163ffffffff1660e01b8152600401602060405180830381865afa1580156110e2573d5f803e3d5ffd5b505050506040513d601f19601f820116820180604052508101906111069190611fed565b61113c576040517fa98230e200000000000000000000000000000000000000000000000000000000815260040160405180910390fd5b5f8054906101000a900473ffffffffffffffffffffffffffffffffffffffff1673ffffffffffffffffffffffffffffffffffffffff16639c54726533836040518363ffffffff1660e01b81526004016111969291906121bb565b602060405180830381865afa1580156111b1573d5f803e3d5ffd5b505050506040513d601f19601f820116820180604052508101906111d59190611fed565b61120b576040517f8ac4bc7300000000000000000000000000000000000000000000000000000000815260040160405180910390fd5b5f8054906101000a900473ffffffffffffffffffffffffffffffffffffffff1673ffffffffffffffffffffffffffffffffffffffff1663f7f11fb733836040518363ffffffff1660e01b81526004016112659291906121bb565b5f604051808303815f87803b15801561127c575f80fd5b505af115801561128e573d5f803e3d5ffd5b505050508173ffffffffffffffffffffffffffffffffffffffff1663c5ebeaec826040518263ffffffff1660e01b81526004016112cb9190611d8f565b5f604051808303815f87803b1580156112e2575f80fd5b505af11580156112f4573d5f803e3d5ffd5b505050505050565b6113046119cf565b5f73ffffffffffffffffffffffffffffffffffffffff1660015f9054906101000a900473ffffffffffffffffffffffffffffffffffffffff1673ffffffffffffffffffffffffffffffffffffffff161461138a576040517fea8e4eb500000000000000000000000000000000000000000000000000000000815260040160405180910390fd5b8060015f6101000a81548173ffffffffffffffffffffffffffffffffffffffff021916908373ffffffffffffffffffffffffffffffffffffffff1602179055507fdb94373ec3215b3142c9088cb1f834141c88090d24a7172315200cd92b853065816040516113f99190611c10565b60405180910390a150565b60015f9054906101000a900473ffffffffffffffffffffffffffffffffffffffff1681565b6114316119cf565b5f73ffffffffffffffffffffffffffffffffffffffff1660025f9054906101000a900473ffffffffffffffffffffffffffffffffffffffff1673ffffffffffffffffffffffffffffffffffffffff16146114b7576040517fea8e4eb500000000000000000000000000000000000000000000000000000000815260040160405180910390fd5b5f73ffffffffffffffffffffffffffffffffffffffff168173ffffffffffffffffffffffffffffffffffffffff160361151c576040517fea8e4eb500000000000000000000000000000000000000000000000000000000815260040160405180910390fd5b8060025f6101000a81548173ffffffffffffffffffffffffffffffffffffffff021916908373ffffffffffffffffffffffffffffffffffffffff1602179055505f8054906101000a900473ffffffffffffffffffffffffffffffffffffffff1673ffffffffffffffffffffffffffffffffffffffff16634437152a826040518263ffffffff1660e01b81526004016115b49190611c10565b5f604051808303815f87803b1580156115cb575f80fd5b505af11580156115dd573d5f803e3d5ffd5b505050507fdd2a652bd4ef74c5d65aa6c4e47be084fcb1a3d6a2e9c19c49aa1051d9f8d38b816040516116109190611c10565b60405180910390a150565b5f8054906101000a900473ffffffffffffffffffffffffffffffffffffffff1681565b7f000000000000000000000000000000000000000000000000000000000000000081565b5f810361169b576040517f2c5211c600000000000000000000000000000000000000000000000000000000815260040160405180910390fd5b7f000000000000000000000000000000000000000000000000000000000000000073ffffffffffffffffffffffffffffffffffffffff16637560fdd16040518163ffffffff1660e01b8152600401602060405180830381865afa158015611704573d5f803e3d5ffd5b505050506040513d601f19601f820116820180604052508101906117289190611fed565b61175e576040517fa98230e200000000000000000000000000000000000000000000000000000000815260040160405180910390fd5b5f8054906101000a900473ffffffffffffffffffffffffffffffffffffffff1673ffffffffffffffffffffffffffffffffffffffff16639c54726533836040518363ffffffff1660e01b81526004016117b89291906121bb565b602060405180830381865afa1580156117d3573d5f803e3d5ffd5b505050506040513d601f19601f820116820180604052508101906117f79190611fed565b61182d576040517f8ac4bc7300000000000000000000000000000000000000000000000000000000815260040160405180910390fd5b5f8054906101000a900473ffffffffffffffffffffffffffffffffffffffff1673ffffffffffffffffffffffffffffffffffffffff1663f7f11fb733836040518363ffffffff1660e01b81526004016118879291906121bb565b5f604051808303815f87803b15801561189e575f80fd5b505af11580156118b0573d5f803e3d5ffd5b505050508273ffffffffffffffffffffffffffffffffffffffff16636c665a558383336040518463ffffffff1660e01b81526004016118f193929190612258565b5f604051808303815f87803b158015611908575f80fd5b505af115801561191a573d5f803e3d5ffd5b50505050505050565b6004602052805f5260405f205f915054906101000a900460ff1681565b6119486119cf565b5f811480611957575061271081115b1561198e576040517f2c5211c600000000000000000000000000000000000000000000000000000000815260040160405180910390fd5b806003819055507fd88469f5aa8525dce9ae07fa2d8df83e2ec766fc060483b66a0082ff36d6582d816040516119c49190611d8f565b60405180910390a150565b7f000000000000000000000000000000000000000000000000000000000000000073ffffffffffffffffffffffffffffffffffffffff163373ffffffffffffffffffffffffffffffffffffffff1614611a54576040517fea8e4eb500000000000000000000000000000000000000000000000000000000815260040160405180910390fd5b565b611a64848484846001611afe565b611aa557836040517f5274afe7000000000000000000000000000000000000000000000000000000008152600401611a9c9190611c10565b60405180910390fd5b50505050565b611ab88383836001611b6f565b611af957826040517f5274afe7000000000000000000000000000000000000000000000000000000008152600401611af09190611c10565b60405180910390fd5b505050565b5f806323b872dd60e01b9050604051815f525f1960601c87166004525f1960601c86166024528460445260205f60645f808c5af1925060015f51148316611b5c578383151615611b50573d5f823e3d81fd5b5f883b113d1516831692505b806040525f606052505095945050505050565b5f8063a9059cbb60e01b9050604051815f525f1960601c86166004528460245260205f60445f808b5af1925060015f51148316611bc3578383151615611bb7573d5f823e3d81fd5b5f873b113d1516831692505b806040525050949350505050565b5f73ffffffffffffffffffffffffffffffffffffffff82169050919050565b5f611bfa82611bd1565b9050919050565b611c0a81611bf0565b82525050565b5f602082019050611c235f830184611c01565b92915050565b5f819050919050565b5f611c4c611c47611c4284611bd1565b611c29565b611bd1565b9050919050565b5f611c5d82611c32565b9050919050565b5f611c6e82611c53565b9050919050565b611c7e81611c64565b82525050565b5f602082019050611c975f830184611c75565b92915050565b5f611ca782611c53565b9050919050565b611cb781611c9d565b82525050565b5f602082019050611cd05f830184611cae565b92915050565b5f80fd5b611ce381611bf0565b8114611ced575f80fd5b50565b5f81359050611cfe81611cda565b92915050565b5f8115159050919050565b611d1881611d04565b8114611d22575f80fd5b50565b5f81359050611d3381611d0f565b92915050565b5f8060408385031215611d4f57611d4e611cd6565b5b5f611d5c85828601611cf0565b9250506020611d6d85828601611d25565b9150509250929050565b5f819050919050565b611d8981611d77565b82525050565b5f602082019050611da25f830184611d80565b92915050565b611db181611d77565b8114611dbb575f80fd5b50565b5f81359050611dcc81611da8565b92915050565b5f805f60608486031215611de957611de8611cd6565b5b5f611df686828701611cf0565b9350506020611e0786828701611dbe565b9250506040611e1886828701611cf0565b9150509250925092565b5f60208284031215611e3757611e36611cd6565b5b5f611e4484828501611cf0565b91505092915050565b5f8060408385031215611e6357611e62611cd6565b5b5f611e7085828601611cf0565b9250506020611e8185828601611dbe565b9150509250929050565b5f611e9582611c53565b9050919050565b611ea581611e8b565b82525050565b5f602082019050611ebe5f830184611e9c565b92915050565b5f611ece82611c53565b9050919050565b611ede81611ec4565b82525050565b5f602082019050611ef75f830184611ed5565b92915050565b5f611f0782611c53565b9050919050565b611f1781611efd565b82525050565b5f602082019050611f305f830184611f0e565b92915050565b5f805f60608486031215611f4d57611f4c611cd6565b5b5f611f5a86828701611cf0565b9350506020611f6b86828701611cf0565b9250506040611f7c86828701611dbe565b9150509250925092565b611f8f81611d04565b82525050565b5f602082019050611fa85f830184611f86565b92915050565b5f60208284031215611fc357611fc2611cd6565b5b5f611fd084828501611dbe565b91505092915050565b5f81519050611fe781611d0f565b92915050565b5f6020828403121561200257612001611cd6565b5b5f61200f84828501611fd9565b91505092915050565b5f8151905061202681611da8565b92915050565b5f6020828403121561204157612040611cd6565b5b5f61204e84828501612018565b91505092915050565b7f4e487b71000000000000000000000000000000000000000000000000000000005f52601160045260245ffd5b5f61208e82611d77565b915061209983611d77565b92508282026120a781611d77565b915082820484148315176120be576120bd612057565b5b5092915050565b7f4e487b71000000000000000000000000000000000000000000000000000000005f52601260045260245ffd5b5f6120fc82611d77565b915061210783611d77565b925082612117576121166120c5565b5b828204905092915050565b5f61212c82611bf0565b9050919050565b61213c81612122565b8114612146575f80fd5b50565b5f8151905061215781612133565b92915050565b5f6020828403121561217257612171611cd6565b5b5f61217f84828501612149565b91505092915050565b5f61219282611d77565b915061219d83611d77565b92508282039050818111156121b5576121b4612057565b5b92915050565b5f6040820190506121ce5f830185611c01565b6121db6020830184611d80565b9392505050565b5f6121ec82611d77565b91506121f783611d77565b925082820190508082111561220f5761220e612057565b5b92915050565b5f6080820190506122285f830187611d80565b6122356020830186611d80565b6122426040830185611d80565b61224f6060830184611d80565b95945050505050565b5f60608201905061226b5f830186611c01565b6122786020830185611d80565b6122856040830184611c01565b94935050505056fea264697066735822122076651e5d0f46a8b96543794ae81df7b93542785af76b5c43ff1ced285954d64264736f6c63430008140033","linkReferences":{}},"methodIdentifiers":{"LIQUIDATION_CONTROLLER()":"dfcf3ce0","ORACLE()":"38013f02","OWNER()":"117803e3","borrowFromAave(address,address,uint256)":"e3f6ec88","borrowFromCompound(address,uint256)":"8afda809","closeFactorBps()":"4654440b","creditManager()":"c12c21c0","creditPool()":"2ff1ab95","delegateCredit(address,uint256)":"89c85c6f","insurancePool()":"ab2adc00","isBorrower(address)":"eaf6e483","liquidate(address,uint256,address)":"4914c008","setBorrower(address,bool)":"4422bc5a","setCloseFactorBps(uint256)":"fdeeadd0","setCreditManager(address)":"69dd793b","setCreditPool(address)":"b1a41702","setInsurancePool(address)":"a94c487e","setManagerPool(address)":"4c67ba89"},"id":3}