{"abi":[{"type":"constructor","inputs":[{"name":"_manager","type":"address","internalType":"address"},{"name":"_oracle","type":"address","internalType":"address"},{"name":"_liquidationController","type":"address","internalType":"address"},{"name":"_insurancePool","type":"address","internalType":"address"}],"stateMutability":"nonpayable"},{"type":"function","name":"LIQUIDATION_CONTROLLER","inputs":[],"outputs":[{"name":"","type":"address","internalType":"contract LiquidationController"}],"stateMutability":"view"},{"type":"function","name":"ORACLE","inputs":[],"outputs":[{"name":"","type":"address","internalType":"contract CreditOracle"}],"stateMutability":"view"},{"type":"function","name":"OWNER","inputs":[],"outputs":[{"name":"","type":"address","internalType":"address"}],"stateMutability":"view"},{"type":"function","name":"borrowFromAave","inputs":[{"name":"adapter","type":"address","internalType":"address"},{"name":"asset","type":"address","internalType":"address"},{"name":"amount","type":"uint256","internalType":"uint256"}],"outputs":[],"stateMutability":"nonpayable"},{"type":"function","name":"borrowFromCompound","inputs":[{"name":"adapter","type":"address","internalType":"address"},{"name":"amount","type":"uint256","internalType":"uint256"}],"outputs":[],"stateMutability":"nonpayable"},{"type":"function","name":"closeFactorBps","inputs":[],"outputs":[{"name":"","type":"uint256","internalType":"uint256"}],"stateMutability":"view"},{"type":"function","name":"creditManager","inputs":[],"outputs":[{"name":"","type":"address","internalType":"contract ICreditManager"}],"stateMutability":"view"},{"type":"function","name":"creditPool","inputs":[],"outputs":[{"name":"","type":"address","internalType":"contract CreditPool"}],"stateMutability":"view"},{"type":"function","name":"delegateCredit","inputs":[{"name":"user","type":"address","internalType":"address"},{"name":"amount","type":"uint256","internalType":"uint256"}],"outputs":[],"stateMutability":"nonpayable"},{"type":"function","name":"insurancePool","inputs":[],"outputs":[{"name":"","type":"address","internalType":"contract InsurancePool"}],"stateMutability":"view"},{"type":"function","name":"isBorrower","inputs":[{"name":"","type":"address","internalType":"address"}],"outputs":[{"name":"","type":"bool","internalType":"bool"}],"stateMutability":"view"},{"type":"function","name":"liquidate","inputs":[{"name":"user","type":"address","internalType":"address"},{"name":"repayAmount","type":"uint256","internalType":"uint256"},{"name":"asset","type":"address","internalType":"address"}],"outputs":[],"stateMutability":"nonpayable"},{"type":"function","name":"repayToAave","inputs":[{"name":"adapter","type":"address","internalType":"address"},{"name":"asset","type":"address","internalType":"address"},{"name":"amount","type":"uint256","internalType":"uint256"}],"outputs":[],"stateMutability":"nonpayable"},{"type":"function","name":"repayToCompound","inputs":[{"name":"adapter","type":"address","internalType":"address"},{"name":"asset","type":"address","internalType":"address"},{"name":"amount","type":"uint256","internalType":"uint256"}],"outputs":[],"stateMutability":"nonpayable"},{"type":"function","name":"setBorrower","inputs":[{"name":"borrower","type":"address","internalType":"address"},{"name":"allowed","type":"bool","internalType":"bool"}],"outputs":[],"stateMutability":"nonpayable"},{"type":"function","name":"setCloseFactorBps","inputs":[{"name":"bps","type":"uint256","internalType":"uint256"}],"outputs":[],"stateMutability":"nonpayable"},{"type":"function","name":"setCreditManager","inputs":[{"name":"_cm","type":"address","internalType":"address"}],"outputs":[],"stateMutability":"nonpayable"},{"type":"function","name":"setCreditPool","inputs":[{"name":"pool","type":"address","internalType":"address"}],"outputs":[],"stateMutability":"nonpayable"},{"type":"function","name":"setInsurancePool","inputs":[{"name":"pool","type":"address","internalType":"address"}],"outputs":[],"stateMutability":"nonpayable"},{"type":"function","name":"setManagerPool","inputs":[{"name":"pool","type":"address","internalType":"address"}],"outputs":[],"stateMutability":"nonpayable"},{"type":"function","name":"setScoreEngine","inputs":[{"name":"engine","type":"address","internalType":"address"}],"outputs":[],"stateMutability":"nonpayable"},{"type":"function","name":"unfreezeAccount","inputs":[{"name":"user","type":"address","internalType":"address"}],"outputs":[],"stateMutability":"nonpayable"},{"type":"event","name":"BorrowedFromAave","inputs":[{"name":"user","type":"address","indexed":true,"internalType":"address"},{"name":"asset","type":"address","indexed":false,"internalType":"address"},{"name":"amount","type":"uint256","indexed":false,"internalType":"uint256"}],"anonymous":false},{"type":"event","name":"BorrowedFromCompound","inputs":[{"name":"user","type":"address","indexed":true,"internalType":"address"},{"name":"amount","type":"uint256","indexed":false,"internalType":"uint256"}],"anonymous":false},{"type":"event","name":"BorrowerWhitelisted","inputs":[{"name":"borrower","type":"address","indexed":true,"internalType":"address"},{"name":"allowed","type":"bool","indexed":false,"internalType":"bool"}],"anonymous":false},{"type":"event","name":"CloseFactorUpdated","inputs":[{"name":"bps","type":"uint256","indexed":false,"internalType":"uint256"}],"anonymous":false},{"type":"event","name":"CreditDelegated","inputs":[{"name":"user","type":"address","indexed":true,"internalType":"address"},{"name":"amount","type":"uint256","indexed":false,"internalType":"uint256"}],"anonymous":false},{"type":"event","name":"CreditManagerSet","inputs":[{"name":"manager","type":"address","indexed":false,"internalType":"address"}],"anonymous":false},{"type":"event","name":"CreditPoolSet","inputs":[{"name":"pool","type":"address","indexed":false,"internalType":"address"}],"anonymous":false},{"type":"event","name":"InsurancePoolSet","inputs":[{"name":"pool","type":"address","indexed":false,"internalType":"address"}],"anonymous":false},{"type":"event","name":"Liquidated","inputs":[{"name":"user","type":"address","indexed":true,"internalType":"address"},{"name":"liquidator","type":"address","indexed":true,"internalType":"address"},{"name":"asset","type":"address","indexed":true,"internalType":"address"},{"name":"repayAmount","type":"uint256","indexed":false,"internalType":"uint256"},{"name":"seizeAmount","type":"uint256","indexed":false,"internalType":"uint256"},{"name":"bonusPaid","type":"uint256","indexed":false,"internalType":"uint256"},{"name":"bonusShortfall","type":"uint256","indexed":false,"internalType":"uint256"}],"anonymous":false},{"type":"event","name":"RepaidToAave","inputs":[{"name":"user","type":"address","indexed":true,"internalType":"address"},{"name":"asset","type":"address","indexed":false,"internalType":"address"},{"name":"amount","type":"uint256","indexed":false,"internalType":"uint256"}],"anonymous":false},{"type":"event","name":"RepaidToCompound","inputs":[{"name":"user","type":"address","indexed":true,"internalType":"address"},{"name":"amount","type":"uint256","indexed":false,"internalType":"uint256"}],"anonymous":false},{"type":"error","name":"AlreadySet","inputs":[]},{"type":"error","name":"InsufficientCredit","inputs":[]},{"type":"error","name":"InvalidAmount","inputs":[]},{"type":"error","name":"InvalidAsset","inputs":[]},{"type":"error","name":"NotAuthorized","inputs":[]},{"type":"error","name":"NotLiquidatable","inputs":[]},{"type":"error","name":"OracleUnhealthy","inputs":[]},{"type":"error","name":"RepayExceedsDebt","inputs":[]},{"type":"error","name":"SafeERC20FailedOperation","inputs":[{"name":"token","type":"address","internalType":"address"}]},{"type":"error","name":"ZeroAddress","inputs":[]}],"bytecode":{"object":"0x60e0346200018457601f62001b0138819003918201601f19168301916001600160401b03831184841017620001885780849260809460405283398101031262000184576200004d816200019c565b906200005c602082016200019c565b62000078606062000070604085016200019c565b93016200019c565b6113886003556001600160a01b0391821692831562000172578216938415620001725782168062000159575b5016806200013e575b5060805260a0523360c05260405161194f9081620001b2823960805181818161023701528181610bc1015281816111850152611727015260a0518181816104d001526111f0015260c05181818161012901528181610528015281816106a70152818161095b01528181610e1e01528181610f5501528181611008015281816110a5015281816116a501526117930152f35b600180546001600160a01b0319169190911790555f620000ad565b5f80546001600160a01b031916919091178155620000a4565b60405163d92e233d60e01b8152600490fd5b5f80fd5b634e487b7160e01b5f52604160045260245ffd5b51906001600160a01b0382168203620001845756fe6080604081815260049081361015610015575f80fd5b5f92833560e01c908163117803e31461177f575080632ff1ab951461175657806338013f02146117125780634422bc5a146116725780634654440b146116535780634914c0081461112d5780634c67ba891461107d57806369dd793b14610fe4578063788649ea14610f2d57806389c85c6f14610df55780638afda80914610b805780639cff7b4e146109f0578063a94c487e14610937578063aad4f7ff146107c0578063ab2adc0014610797578063b1a4170214610682578063c12c21c01461065a578063d3ccccc414610503578063dfcf3ce0146104bb578063e3f6ec88146101fe578063eaf6e483146101c15763fdeeadd014610113575f80fd5b346101bd5760203660031901126101bd578135917f00000000000000000000000000000000000000000000000000000000000000006001600160a01b031633036101af57821580156101a4575b6101965750816020917fd88469f5aa8525dce9ae07fa2d8df83e2ec766fc060483b66a0082ff36d6582d9360035551908152a180f35b905163162908e360e11b8152fd5b506127108311610160565b905163ea8e4eb560e01b8152fd5b8280fd5b5090346101bd5760203660031901126101bd5760209260ff918391906001600160a01b036101ed6117c2565b168252855220541690519015158152f35b50346101bd5761020d366117d8565b929183949194156104ac578251637560fdd160e01b81526001600160a01b039190602090818186817f000000000000000000000000000000000000000000000000000000000000000088165afa9081156104a2578991610485575b50156104755787548551639c54726560e01b8152338682019081526020810189905291851692918290829081906040010381865afa91821561046b578a9261043e575b50501561042e579081889493923b1561041657855163f7f11fb760e01b815233858201908152602081018990529091869183919082908490829060400103925af1801561040c5790859161041a575b50548216803b1561041657855163315a9a8760e21b815233858201908152602081018990529091869183919082908490829060400103925af1801561040c579085916103f8575b505016803b156101bd578351636c665a5560e01b81526001600160a01b03871692810192835260208301869052336040840152918391839182908490829060600103925af180156103ee576103d6575b5050516001600160a01b039092168252602082015233907ffd2d3da99c0134cc39fe3f75798be9712d87e6f96dddd6b89b0eaa044a5cf28e9080604081015b0390a280f35b6103df9061180d565b6103ea57835f610391565b8380fd5b83513d84823e3d90fd5b6104019061180d565b6103ea57835f610341565b86513d87823e3d90fd5b8480fd5b6104239061180d565b6103ea57835f6102fa565b8451638ac4bc7360e01b81528490fd5b61045d9250803d10610464575b6104558183611835565b810190611857565b5f806102ab565b503d61044b565b87513d8c823e3d90fd5b84516354c1187160e11b81528490fd5b61049c9150823d8411610464576104558183611835565b5f610268565b86513d8b823e3d90fd5b50905163162908e360e11b8152fd5b8382346104ff57816003193601126104ff57517f00000000000000000000000000000000000000000000000000000000000000006001600160a01b03168152602090f35b5080fd5b50346101bd5760203660031901126101bd5761051d6117c2565b6001600160a01b03907f00000000000000000000000000000000000000000000000000000000000000008216330361064b57811690811561063c5784541682519160208301906334f3333160e21b8252602484015260248352606083019267ffffffffffffffff938181108582111761062957855251869283929083905af1903d15610623573d908111610610578251906105c2601f8201601f191660200183611835565b81528460203d92013e5b156105d5578280f35b906020606492519162461bcd60e51b835282015260156024820152741cd95d14d8dbdc99515b99da5b994819985a5b1959605a1b6044820152fd5b634e487b7160e01b855260418452602485fd5b506105cc565b604187634e487b7160e01b5f525260245ffd5b50505163d92e233d60e01b8152fd5b50505163ea8e4eb560e01b8152fd5b8382346104ff57816003193601126104ff57905490516001600160a01b039091168152602090f35b50346101bd5760203660031901126101bd5761069c6117c2565b916001600160a01b037f0000000000000000000000000000000000000000000000000000000000000000811633036107885760025493818516610778578116938415610768576001600160a01b031916841760025584548592911690813b156101bd578460248492838751958694859363221b8a9560e11b85528401525af180156103ee57610754575b507fdd2a652bd4ef74c5d65aa6c4e47be084fcb1a3d6a2e9c19c49aa1051d9f8d38b6020848451908152a180f35b61075d9061180d565b6101bd57825f610726565b835163d92e233d60e01b81528390fd5b835163a741a04560e01b81528390fd5b50905163ea8e4eb560e01b8152fd5b8382346104ff57816003193601126104ff5760015490516001600160a01b039091168152602090f35b50346101bd576107cf366117d8565b9391908415610927578592916001600160a01b03918291906107f8908890839033908616611890565b16803b156103ea578380916024875180948193631b8fec7360e11b83528b898401525af1801561090957908491610913575b50548116803b156103ea578451631b1a58c960e31b815233848201908152602081018890529091859183919082908490829060400103925af18015610909579084916108f5575b505416803b156101bd578351635c96161760e01b81523392810192835260208301869052918391839182908490829060400103925af180156103ee576108e1575b5050519081527f92e722c83993c1d77eafc3759089b86ef731a71710072aa6763423c6d34bdfc960203392a280f35b6108ea9061180d565b6101bd57825f6108b2565b6108fe9061180d565b6101bd57825f610871565b85513d86823e3d90fd5b61091c9061180d565b6101bd57825f61082a565b835163162908e360e11b81528390fd5b50346101bd5760203660031901126101bd576109516117c2565b6001600160a01b037f00000000000000000000000000000000000000000000000000000000000000008116330361064b57600154918183166109e057169283156109d257506001600160a01b0319168217600155519081527fdb94373ec3215b3142c9088cb1f834141c88090d24a7172315200cd92b85306590602090a180f35b825163d92e233d60e01b8152fd5b5050505163a741a04560e01b8152fd5b50346101bd576109ff366117d8565b929183949194156104ac578591906001600160a01b03908190610a268782338b8616611890565b16803b156103ea57845163173aba7160e21b81526001600160a01b038816848201908152602081018890523360408201529091859183919082908490829060600103925af1801561090957908491610b6c575b50548116803b156103ea578451631b1a58c960e31b815233848201908152602081018890529091859183919082908490829060400103925af1801561090957908491610b58575b505416803b156101bd57835163dbd476b760e01b81523392810192835260208301869052918391839182908490829060400103925af180156103ee57610b44575b5050516001600160a01b039092168252602082015233907f3ba6ff205d7c5853507674758a3e421dda9cd10e4d4966d055f5b5034aa838af9080604081016103d0565b610b4d9061180d565b6103ea57835f610b01565b610b619061180d565b6101bd57825f610ac0565b610b759061180d565b6101bd57825f610a79565b50346101bd57806003193601126101bd57610b996117c2565b602435928315610de7578251637560fdd160e01b81526020926001600160a01b0391848185817f000000000000000000000000000000000000000000000000000000000000000087165afa908115610ddd578891610dc0575b5015610db05786548551639c54726560e01b81523385820190815260208101899052918416918690829081906040010381855afa908115610da6578991610d89575b5015610d79579081889493923b1561041657865163f7f11fb760e01b815233858201908152602081018a90529091869183919082908490829060400103925af18015610d5b57908591610d65575b50548216803b15610416578651630a8d55cf60e01b815233858201908152602081018a90529091869183919082908490829060400103925af18015610d5b57908591610d47575b50501690813b156101bd578560248492838851958694859363317afabb60e21b85528401525af18015610d3d57610d29575b50507f41df2f77a26bb1fe0fad3936f0ada4b3d8d894577ecd97d17fe500d3298d72ff91519283523392a280f35b610d329061180d565b6103ea57835f610cfb565b84513d84823e3d90fd5b610d509061180d565b6103ea57835f610cc9565b87513d87823e3d90fd5b610d6e9061180d565b6103ea57835f610c82565b8551638ac4bc7360e01b81528490fd5b610da09150863d8811610464576104558183611835565b5f610c34565b87513d8b823e3d90fd5b84516354c1187160e11b81528390fd5b610dd79150853d8711610464576104558183611835565b5f610bf2565b86513d8a823e3d90fd5b825163162908e360e11b8152fd5b50346101bd57806003193601126101bd57610e0e6117c2565b60243591906001600160a01b03907f000000000000000000000000000000000000000000000000000000000000000082163303610f1d578160025416918215610f0d578116948515610eff578415610ef15790829187933b156103ea5784516389c85c6f60e01b81526001600160a01b03909216908201908152602081018690529091839183919082908490829060400103925af180156103ee57610edd575b50507f5a892c006975101cec6efb988e67ee562ded65d3b1ca0c69d893b5127cabf3229160209151908152a280f35b610ee69061180d565b6103ea57835f610eae565b835163162908e360e11b8152fd5b835163d92e233d60e01b8152fd5b835163ea8e4eb560e01b81528690fd5b825163ea8e4eb560e01b81528590fd5b509190346104ff5760203660031901126104ff57610f496117c2565b6001600160a01b0393907f000000000000000000000000000000000000000000000000000000000000000085163303610fd657848495855416803b15610fd257859283602492865197889586946322e458d360e11b865216908401525af1908115610fc95750610fb65750f35b610fbf9061180d565b610fc65780f35b80fd5b513d84823e3d90fd5b8580fd5b505163ea8e4eb560e01b8152fd5b50346101bd5760203660031901126101bd57610ffe6117c2565b6001600160a01b037f00000000000000000000000000000000000000000000000000000000000000008116330361064b578454918183166109e057169283156109d257506001600160a01b03191682178355519081527f0d5d956af0a72c9a7a98c60bdcbfefb5ea3d0ec6ab674d05db515c15f95a49eb90602090a180f35b508290346104ff5760203660031901126104ff576110996117c2565b6001600160a01b0391907f00000000000000000000000000000000000000000000000000000000000000008316330361111d57821691821561110d5793839484541692833b156104165760248592838551968794859363221b8a9560e11b85528401525af1908115610fc95750610fb65750f35b815163d92e233d60e01b81528590fd5b815163ea8e4eb560e01b81528590fd5b5090346101bd5760603660031901126101bd576111486117c2565b6044356001600160a01b038181169492936024803594919387900361164f578495851561163f578251637560fdd160e01b815260209590868183817f00000000000000000000000000000000000000000000000000000000000000008a165afa908115611490578b91611622575b501561161457848a5416845190636ad9f9df60e01b825286841698898484015288838781855afa9283156115b3578d936115e5575b508c887f0000000000000000000000000000000000000000000000000000000000000000169388519063211a444360e01b8252868201528a818981885afa9182156115da57916115bd575b501561157057888a87895180958193631ff517ff60e01b8352898301525afa9182156115b3578d92611580575b50811561157057600354808302908382040361155e576127109004809111611556575b508911611547578560015416801561153757878391875192838092634800d97f60e01b82525afa9081156114ad579087918d916114f9575b50168a036114ea579086849286519586809263ed22ba6960e01b82528d868301525afa938415611490578b946114b7575b506112fa898561186f565b926113078a30338e611890565b8b8781541691823b156104ff578751632720313b60e01b81526001600160a01b03909116848201908152602081018d90529092839182908490829060400103925af180156114ad5761149a575b508a87819785611426575b50505085890190818a1161141457855163a9059cbb60e01b8d52338252918352878c604481808f5af160018d51148116156113f5575b828752156113e457505050836113aa9161186f565b93825196875286015284015260608301527f79464c6994e339001152c33d80fa9a7238ecd8cd302420e44a3824c58d6c064e60803393a480f35b635274afe760e01b825281018a9052fd5b600181151661140b578b3b15153d151616611395565b823d8e823e3d90fd5b634e487b7160e01b8c5260119052818bfd5b909192975060015416838751809481936314a1362b60e01b8352888c8401525af1908115611490578b9161145f575b50948a875f61135f565b90508681813d8311611489575b6114768183611835565b8101031261148557515f611455565b5f80fd5b503d61146c565b85513d8d823e3d90fd5b6114a6909b919b61180d565b995f611354565b86513d8e823e3d90fd5b9093508681813d83116114e3575b6114cf8183611835565b810103126114df5751925f6112ef565b8a80fd5b503d6114c5565b508351636448d6e960e11b8152fd5b809250898092503d8311611530575b6115128183611835565b8101031261152c5751868116810361152c5786905f6112be565b8b80fd5b503d611508565b855163ea8e4eb560e01b81528390fd5b50835163718e827560e11b8152fd5b99505f611286565b634e487b7160e01b8e5260118552868efd5b8651636ef5bcdd60e11b81528490fd5b9091508881813d83116115ac575b6115988183611835565b810103126115a85751905f611263565b8c80fd5b503d61158e565b87513d8f823e3d90fd5b6115d491508a3d8c11610464576104558183611835565b5f611236565b8951903d90823e3d90fd5b9092508881813d831161160d575b6115fd8183611835565b810103126115a85751915f6111eb565b503d6115f3565b83516354c1187160e11b8152fd5b6116399150873d8911610464576104558183611835565b5f6111b6565b825163162908e360e11b81528590fd5b8780fd5b8382346104ff57816003193601126104ff576020906003549051908152f35b50346101bd57806003193601126101bd5761168b6117c2565b9060243591821515809303610416576001600160a01b03907f000000000000000000000000000000000000000000000000000000000000000082163303610f1d57917fc06b3ea10f261e1046d2465e60a4d2728421b1da49c730dd4663b047b9b2886393916020931694858752835280862060ff1981541660ff841617905551908152a280f35b8382346104ff57816003193601126104ff57517f00000000000000000000000000000000000000000000000000000000000000006001600160a01b03168152602090f35b8382346104ff57816003193601126104ff5760025490516001600160a01b039091168152602090f35b8490346104ff57816003193601126104ff577f00000000000000000000000000000000000000000000000000000000000000006001600160a01b03168152602090f35b600435906001600160a01b038216820361148557565b6060906003190112611485576001600160a01b0390600435828116810361148557916024359081168103611485579060443590565b67ffffffffffffffff811161182157604052565b634e487b7160e01b5f52604160045260245ffd5b90601f8019910116810190811067ffffffffffffffff82111761182157604052565b90816020910312611485575180151581036114855790565b9190820391821161187c57565b634e487b7160e01b5f52601160045260245ffd5b6040516323b872dd60e01b5f9081526001600160a01b03938416600452938316602452604494909452909160209060648180855af160015f51148116156118fa575b836040525f606052156118e457505050565b635274afe760e01b835216600482015260249150fd5b600181151661191057813b15153d1516166118d2565b833d5f823e3d90fdfea26469706673582212207b3fcbe35870b756b43ba40ff1573a2a272026fb0f77ee77db0370a9d1b4aac564736f6c63430008140033","linkReferences":{}},"methodIdentifiers":{"LIQUIDATION_CONTROLLER()":"dfcf3ce0","ORACLE()":"38013f02","OWNER()":"117803e3","borrowFromAave(address,address,uint256)":"e3f6ec88","borrowFromCompound(address,uint256)":"8afda809","closeFactorBps()":"4654440b","creditManager()":"c12c21c0","creditPool()":"2ff1ab95","delegateCredit(address,uint256)":"89c85c6f","insurancePool()":"ab2adc00","isBorrower(address)":"eaf6e483","liquidate(address,uint256,address)":"4914c008","repayToAave(address,address,uint256)":"9cff7b4e","repayToCompound(address,address,uint256)":"aad4f7ff","setBorrower(address,bool)":"4422bc5a","setCloseFactorBps(uint256)":"fdeeadd0","setCreditManager(address)":"69dd793b","setCreditPool(address)":"b1a41702","setInsurancePool(address)":"a94c487e","setManagerPool(address)":"4c67ba89","setScoreEngine(address)":"d3ccccc4","unfreezeAccount(address)":"788649ea"},"id":3}