{"abi":[{"type":"constructor","inputs":[{"name":"_manager","type":"address","internalType":"address"},{"name":"_oracle","type":"address","internalType":"address"},{"name":"_liquidationController","type":"address","internalType":"address"},{"name":"_insurancePool","type":"address","internalType":"address"}],"stateMutability":"nonpayable"},{"type":"function","name":"LIQUIDATION_CONTROLLER","inputs":[],"outputs":[{"name":"","type":"address","internalType":"contract LiquidationController"}],"stateMutability":"view"},{"type":"function","name":"ORACLE","inputs":[],"outputs":[{"name":"","type":"address","internalType":"contract CreditOracle"}],"stateMutability":"view"},{"type":"function","name":"OWNER","inputs":[],"outputs":[{"name":"","type":"address","internalType":"address"}],"stateMutability":"view"},{"type":"function","name":"borrowFromAave","inputs":[{"name":"adapter","type":"address","internalType":"address"},{"name":"asset","type":"address","internalType":"address"},{"name":"amount","type":"uint256","internalType":"uint256"}],"outputs":[],"stateMutability":"nonpayable"},{"type":"function","name":"borrowFromCompound","inputs":[{"name":"adapter","type":"address","internalType":"address"},{"name":"amount","type":"uint256","internalType":"uint256"}],"outputs":[],"stateMutability":"nonpayable"},{"type":"function","name":"closeFactorBps","inputs":[],"outputs":[{"name":"","type":"uint256","internalType":"uint256"}],"stateMutability":"view"},{"type":"function","name":"creditManager","inputs":[],"outputs":[{"name":"","type":"address","internalType":"contract ICreditManager"}],"stateMutability":"view"},{"type":"function","name":"creditPool","inputs":[],"outputs":[{"name":"","type":"address","internalType":"contract CreditPool"}],"stateMutability":"view"},{"type":"function","name":"delegateCredit","inputs":[{"name":"user","type":"address","internalType":"address"},{"name":"amount","type":"uint256","internalType":"uint256"}],"outputs":[],"stateMutability":"nonpayable"},{"type":"function","name":"insurancePool","inputs":[],"outputs":[{"name":"","type":"address","internalType":"contract InsurancePool"}],"stateMutability":"view"},{"type":"function","name":"liquidate","inputs":[{"name":"user","type":"address","internalType":"address"},{"name":"repayAmount","type":"uint256","internalType":"uint256"},{"name":"asset","type":"address","internalType":"address"}],"outputs":[],"stateMutability":"nonpayable"},{"type":"function","name":"setCloseFactorBps","inputs":[{"name":"bps","type":"uint256","internalType":"uint256"}],"outputs":[],"stateMutability":"nonpayable"},{"type":"function","name":"setCreditManager","inputs":[{"name":"_cm","type":"address","internalType":"address"}],"outputs":[],"stateMutability":"nonpayable"},{"type":"function","name":"setCreditPool","inputs":[{"name":"pool","type":"address","internalType":"address"}],"outputs":[],"stateMutability":"nonpayable"},{"type":"function","name":"setInsurancePool","inputs":[{"name":"pool","type":"address","internalType":"address"}],"outputs":[],"stateMutability":"nonpayable"},{"type":"function","name":"setManagerPool","inputs":[{"name":"pool","type":"address","internalType":"address"}],"outputs":[],"stateMutability":"nonpayable"},{"type":"event","name":"CloseFactorUpdated","inputs":[{"name":"bps","type":"uint256","indexed":false,"internalType":"uint256"}],"anonymous":false},{"type":"event","name":"CreditDelegated","inputs":[{"name":"pool","type":"address","indexed":true,"internalType":"address"},{"name":"user","type":"address","indexed":true,"internalType":"address"},{"name":"amount","type":"uint256","indexed":false,"internalType":"uint256"}],"anonymous":false},{"type":"event","name":"CreditManagerSet","inputs":[{"name":"manager","type":"address","indexed":false,"internalType":"address"}],"anonymous":false},{"type":"event","name":"CreditPoolSet","inputs":[{"name":"pool","type":"address","indexed":false,"internalType":"address"}],"anonymous":false},{"type":"event","name":"InsurancePoolSet","inputs":[{"name":"pool","type":"address","indexed":false,"internalType":"address"}],"anonymous":false},{"type":"event","name":"Liquidated","inputs":[{"name":"user","type":"address","indexed":true,"internalType":"address"},{"name":"liquidator","type":"address","indexed":true,"internalType":"address"},{"name":"asset","type":"address","indexed":true,"internalType":"address"},{"name":"repayAmount","type":"uint256","indexed":false,"internalType":"uint256"},{"name":"seizeAmount","type":"uint256","indexed":false,"internalType":"uint256"},{"name":"bonusPaid","type":"uint256","indexed":false,"internalType":"uint256"},{"name":"bonusShortfall","type":"uint256","indexed":false,"internalType":"uint256"}],"anonymous":false},{"type":"error","name":"InsufficientCredit","inputs":[]},{"type":"error","name":"InvalidAmount","inputs":[]},{"type":"error","name":"InvalidAsset","inputs":[]},{"type":"error","name":"NotAuthorized","inputs":[]},{"type":"error","name":"NotLiquidatable","inputs":[]},{"type":"error","name":"OracleUnhealthy","inputs":[]},{"type":"error","name":"RepayExceedsDebt","inputs":[]},{"type":"error","name":"SafeERC20FailedOperation","inputs":[{"name":"token","type":"address","internalType":"address"}]}],"bytecode":{"object":"0x60e060405261138860035534801562000016575f80fd5b50604051620023593803806200235983398181016040528101906200003c9190620001c6565b835f806101000a81548173ffffffffffffffffffffffffffffffffffffffff021916908373ffffffffffffffffffffffffffffffffffffffff1602179055508273ffffffffffffffffffffffffffffffffffffffff1660808173ffffffffffffffffffffffffffffffffffffffff16815250508173ffffffffffffffffffffffffffffffffffffffff1660a08173ffffffffffffffffffffffffffffffffffffffff16815250508060015f6101000a81548173ffffffffffffffffffffffffffffffffffffffff021916908373ffffffffffffffffffffffffffffffffffffffff1602179055503373ffffffffffffffffffffffffffffffffffffffff1660c08173ffffffffffffffffffffffffffffffffffffffff16815250505050505062000235565b5f80fd5b5f73ffffffffffffffffffffffffffffffffffffffff82169050919050565b5f620001908262000165565b9050919050565b620001a28162000184565b8114620001ad575f80fd5b50565b5f81519050620001c08162000197565b92915050565b5f805f8060808587031215620001e157620001e062000161565b5b5f620001f087828801620001b0565b94505060206200020387828801620001b0565b93505060406200021687828801620001b0565b92505060606200022987828801620001b0565b91505092959194509250565b60805160a05160c0516120cf6200028a5f395f81816102d201526118ff01525f81816104dc0152818161085b01526114e301525f818161031b0152818161037e01528181610fa3015261154001526120cf5ff3fe608060405234801561000f575f80fd5b50600436106100fe575f3560e01c80638afda80911610095578063c12c21c011610064578063c12c21c01461025c578063dfcf3ce01461027a578063e3f6ec8814610298578063fdeeadd0146102b4576100fe565b80638afda809146101ea578063a94c487e14610206578063ab2adc0014610222578063b1a4170214610240576100fe565b80634914c008116100d15780634914c0081461017a5780634c67ba891461019657806369dd793b146101b257806389c85c6f146101ce576100fe565b8063117803e3146101025780632ff1ab951461012057806338013f021461013e5780634654440b1461015c575b5f80fd5b61010a6102d0565b6040516101179190611a96565b60405180910390f35b6101286102f4565b6040516101359190611b0a565b60405180910390f35b610146610319565b6040516101539190611b43565b60405180910390f35b61016461033d565b6040516101719190611b74565b60405180910390f35b610194600480360381019061018f9190611be5565b610343565b005b6101b060048036038101906101ab9190611c35565b610b2f565b005b6101cc60048036038101906101c79190611c35565b610c24565b005b6101e860048036038101906101e39190611c60565b610d29565b005b61020460048036038101906101ff9190611c60565b610f68565b005b610220600480360381019061021b9190611c35565b611224565b005b61022a61132c565b6040516102379190611cbe565b60405180910390f35b61025a60048036038101906102559190611c35565b611351565b005b6102646114be565b6040516102719190611cf7565b60405180910390f35b6102826114e1565b60405161028f9190611d30565b60405180910390f35b6102b260048036038101906102ad9190611d49565b611505565b005b6102ce60048036038101906102c99190611d99565b6117c6565b005b7f000000000000000000000000000000000000000000000000000000000000000081565b60025f9054906101000a900473ffffffffffffffffffffffffffffffffffffffff1681565b7f000000000000000000000000000000000000000000000000000000000000000081565b60035481565b5f820361037c576040517f2c5211c600000000000000000000000000000000000000000000000000000000815260040160405180910390fd5b7f000000000000000000000000000000000000000000000000000000000000000073ffffffffffffffffffffffffffffffffffffffff16637560fdd16040518163ffffffff1660e01b8152600401602060405180830381865afa1580156103e5573d5f803e3d5ffd5b505050506040513d601f19601f820116820180604052508101906104099190611df9565b61043f576040517fa98230e200000000000000000000000000000000000000000000000000000000815260040160405180910390fd5b5f805f9054906101000a900473ffffffffffffffffffffffffffffffffffffffff1673ffffffffffffffffffffffffffffffffffffffff16636ad9f9df856040518263ffffffff1660e01b81526004016104999190611a96565b602060405180830381865afa1580156104b4573d5f803e3d5ffd5b505050506040513d601f19601f820116820180604052508101906104d89190611e38565b90507f000000000000000000000000000000000000000000000000000000000000000073ffffffffffffffffffffffffffffffffffffffff1663211a4443826040518263ffffffff1660e01b81526004016105339190611b74565b602060405180830381865afa15801561054e573d5f803e3d5ffd5b505050506040513d601f19601f820116820180604052508101906105729190611df9565b6105a8576040517fddeb79ba00000000000000000000000000000000000000000000000000000000815260040160405180910390fd5b5f805f9054906101000a900473ffffffffffffffffffffffffffffffffffffffff1673ffffffffffffffffffffffffffffffffffffffff16631ff517ff866040518263ffffffff1660e01b81526004016106029190611a96565b602060405180830381865afa15801561061d573d5f803e3d5ffd5b505050506040513d601f19601f820116820180604052508101906106419190611e38565b90505f810361067c576040517fddeb79ba00000000000000000000000000000000000000000000000000000000815260040160405180910390fd5b5f6127106003548361068e9190611e90565b6106989190611efe565b9050808511156106a6578094505b818511156106e0576040517fe31d04ea00000000000000000000000000000000000000000000000000000000815260040160405180910390fd5b5f73ffffffffffffffffffffffffffffffffffffffff1660015f9054906101000a900473ffffffffffffffffffffffffffffffffffffffff1673ffffffffffffffffffffffffffffffffffffffff1603610766576040517fea8e4eb500000000000000000000000000000000000000000000000000000000815260040160405180910390fd5b60015f9054906101000a900473ffffffffffffffffffffffffffffffffffffffff1673ffffffffffffffffffffffffffffffffffffffff16634800d97f6040518163ffffffff1660e01b8152600401602060405180830381865afa1580156107d0573d5f803e3d5ffd5b505050506040513d601f19601f820116820180604052508101906107f49190611f69565b73ffffffffffffffffffffffffffffffffffffffff168473ffffffffffffffffffffffffffffffffffffffff1614610858576040517fc891add200000000000000000000000000000000000000000000000000000000815260040160405180910390fd5b5f7f000000000000000000000000000000000000000000000000000000000000000073ffffffffffffffffffffffffffffffffffffffff1663ed22ba69876040518263ffffffff1660e01b81526004016108b29190611b74565b602060405180830381865afa1580156108cd573d5f803e3d5ffd5b505050506040513d601f19601f820116820180604052508101906108f19190611e38565b90505f86826109009190611f94565b905061092f3330898973ffffffffffffffffffffffffffffffffffffffff16611855909392919063ffffffff16565b5f8054906101000a900473ffffffffffffffffffffffffffffffffffffffff1673ffffffffffffffffffffffffffffffffffffffff16632720313b89896040518363ffffffff1660e01b8152600401610989929190611fc7565b5f604051808303815f87803b1580156109a0575f80fd5b505af11580156109b2573d5f803e3d5ffd5b505050505f80821115610a5c5760015f9054906101000a900473ffffffffffffffffffffffffffffffffffffffff1673ffffffffffffffffffffffffffffffffffffffff166314a1362b836040518263ffffffff1660e01b8152600401610a199190611b74565b6020604051808303815f875af1158015610a35573d5f803e3d5ffd5b505050506040513d601f19601f82011682018060405250810190610a599190611e38565b90505b5f8189610a699190611fee565b9050610a9633828a73ffffffffffffffffffffffffffffffffffffffff166118aa9092919063ffffffff16565b8773ffffffffffffffffffffffffffffffffffffffff163373ffffffffffffffffffffffffffffffffffffffff168b73ffffffffffffffffffffffffffffffffffffffff167f79464c6994e339001152c33d80fa9a7238ecd8cd302420e44a3824c58d6c064e8c8887888a610b0b9190611f94565b604051610b1b9493929190612021565b60405180910390a450505050505050505050565b610b376118fd565b5f73ffffffffffffffffffffffffffffffffffffffff168173ffffffffffffffffffffffffffffffffffffffff1603610b9c576040517fea8e4eb500000000000000000000000000000000000000000000000000000000815260040160405180910390fd5b5f8054906101000a900473ffffffffffffffffffffffffffffffffffffffff1673ffffffffffffffffffffffffffffffffffffffff16634437152a826040518263ffffffff1660e01b8152600401610bf49190611a96565b5f604051808303815f87803b158015610c0b575f80fd5b505af1158015610c1d573d5f803e3d5ffd5b5050505050565b610c2c6118fd565b5f73ffffffffffffffffffffffffffffffffffffffff165f8054906101000a900473ffffffffffffffffffffffffffffffffffffffff1673ffffffffffffffffffffffffffffffffffffffff1614610cb0576040517fea8e4eb500000000000000000000000000000000000000000000000000000000815260040160405180910390fd5b805f806101000a81548173ffffffffffffffffffffffffffffffffffffffff021916908373ffffffffffffffffffffffffffffffffffffffff1602179055507f0d5d956af0a72c9a7a98c60bdcbfefb5ea3d0ec6ab674d05db515c15f95a49eb81604051610d1e9190611a96565b60405180910390a150565b610d316118fd565b5f73ffffffffffffffffffffffffffffffffffffffff1660025f9054906101000a900473ffffffffffffffffffffffffffffffffffffffff1673ffffffffffffffffffffffffffffffffffffffff1603610db7576040517fea8e4eb500000000000000000000000000000000000000000000000000000000815260040160405180910390fd5b5f73ffffffffffffffffffffffffffffffffffffffff168273ffffffffffffffffffffffffffffffffffffffff1603610e1c576040517fea8e4eb500000000000000000000000000000000000000000000000000000000815260040160405180910390fd5b5f8103610e55576040517f2c5211c600000000000000000000000000000000000000000000000000000000815260040160405180910390fd5b60025f9054906101000a900473ffffffffffffffffffffffffffffffffffffffff1673ffffffffffffffffffffffffffffffffffffffff166389c85c6f83836040518363ffffffff1660e01b8152600401610eb1929190611fc7565b5f604051808303815f87803b158015610ec8575f80fd5b505af1158015610eda573d5f803e3d5ffd5b505050508173ffffffffffffffffffffffffffffffffffffffff1660025f9054906101000a900473ffffffffffffffffffffffffffffffffffffffff1673ffffffffffffffffffffffffffffffffffffffff167f0622a7d007ee40edc3c3ca85631e0017316f08328cf73c4a5c189f7f2154fe0a83604051610f5c9190611b74565b60405180910390a35050565b5f8103610fa1576040517f2c5211c600000000000000000000000000000000000000000000000000000000815260040160405180910390fd5b7f000000000000000000000000000000000000000000000000000000000000000073ffffffffffffffffffffffffffffffffffffffff16637560fdd16040518163ffffffff1660e01b8152600401602060405180830381865afa15801561100a573d5f803e3d5ffd5b505050506040513d601f19601f8201168201806040525081019061102e9190611df9565b611064576040517fa98230e200000000000000000000000000000000000000000000000000000000815260040160405180910390fd5b5f8054906101000a900473ffffffffffffffffffffffffffffffffffffffff1673ffffffffffffffffffffffffffffffffffffffff16639c54726533836040518363ffffffff1660e01b81526004016110be929190611fc7565b602060405180830381865afa1580156110d9573d5f803e3d5ffd5b505050506040513d601f19601f820116820180604052508101906110fd9190611df9565b611133576040517f8ac4bc7300000000000000000000000000000000000000000000000000000000815260040160405180910390fd5b5f8054906101000a900473ffffffffffffffffffffffffffffffffffffffff1673ffffffffffffffffffffffffffffffffffffffff1663f7f11fb733836040518363ffffffff1660e01b815260040161118d929190611fc7565b5f604051808303815f87803b1580156111a4575f80fd5b505af11580156111b6573d5f803e3d5ffd5b505050508173ffffffffffffffffffffffffffffffffffffffff1663c5ebeaec826040518263ffffffff1660e01b81526004016111f39190611b74565b5f604051808303815f87803b15801561120a575f80fd5b505af115801561121c573d5f803e3d5ffd5b505050505050565b61122c6118fd565b5f73ffffffffffffffffffffffffffffffffffffffff1660015f9054906101000a900473ffffffffffffffffffffffffffffffffffffffff1673ffffffffffffffffffffffffffffffffffffffff16146112b2576040517fea8e4eb500000000000000000000000000000000000000000000000000000000815260040160405180910390fd5b8060015f6101000a81548173ffffffffffffffffffffffffffffffffffffffff021916908373ffffffffffffffffffffffffffffffffffffffff1602179055507fdb94373ec3215b3142c9088cb1f834141c88090d24a7172315200cd92b853065816040516113219190611a96565b60405180910390a150565b60015f9054906101000a900473ffffffffffffffffffffffffffffffffffffffff1681565b6113596118fd565b5f73ffffffffffffffffffffffffffffffffffffffff1660025f9054906101000a900473ffffffffffffffffffffffffffffffffffffffff1673ffffffffffffffffffffffffffffffffffffffff16146113df576040517fea8e4eb500000000000000000000000000000000000000000000000000000000815260040160405180910390fd5b5f73ffffffffffffffffffffffffffffffffffffffff168173ffffffffffffffffffffffffffffffffffffffff1603611444576040517fea8e4eb500000000000000000000000000000000000000000000000000000000815260040160405180910390fd5b8060025f6101000a81548173ffffffffffffffffffffffffffffffffffffffff021916908373ffffffffffffffffffffffffffffffffffffffff1602179055507fdd2a652bd4ef74c5d65aa6c4e47be084fcb1a3d6a2e9c19c49aa1051d9f8d38b816040516114b39190611a96565b60405180910390a150565b5f8054906101000a900473ffffffffffffffffffffffffffffffffffffffff1681565b7f000000000000000000000000000000000000000000000000000000000000000081565b5f810361153e576040517f2c5211c600000000000000000000000000000000000000000000000000000000815260040160405180910390fd5b7f000000000000000000000000000000000000000000000000000000000000000073ffffffffffffffffffffffffffffffffffffffff16637560fdd16040518163ffffffff1660e01b8152600401602060405180830381865afa1580156115a7573d5f803e3d5ffd5b505050506040513d601f19601f820116820180604052508101906115cb9190611df9565b611601576040517fa98230e200000000000000000000000000000000000000000000000000000000815260040160405180910390fd5b5f8054906101000a900473ffffffffffffffffffffffffffffffffffffffff1673ffffffffffffffffffffffffffffffffffffffff16639c54726533836040518363ffffffff1660e01b815260040161165b929190611fc7565b602060405180830381865afa158015611676573d5f803e3d5ffd5b505050506040513d601f19601f8201168201806040525081019061169a9190611df9565b6116d0576040517f8ac4bc7300000000000000000000000000000000000000000000000000000000815260040160405180910390fd5b5f8054906101000a900473ffffffffffffffffffffffffffffffffffffffff1673ffffffffffffffffffffffffffffffffffffffff1663f7f11fb733836040518363ffffffff1660e01b815260040161172a929190611fc7565b5f604051808303815f87803b158015611741575f80fd5b505af1158015611753573d5f803e3d5ffd5b505050508273ffffffffffffffffffffffffffffffffffffffff16636c665a558383336040518463ffffffff1660e01b815260040161179493929190612064565b5f604051808303815f87803b1580156117ab575f80fd5b505af11580156117bd573d5f803e3d5ffd5b50505050505050565b6117ce6118fd565b5f8114806117dd575061271081115b15611814576040517f2c5211c600000000000000000000000000000000000000000000000000000000815260040160405180910390fd5b806003819055507fd88469f5aa8525dce9ae07fa2d8df83e2ec766fc060483b66a0082ff36d6582d8160405161184a9190611b74565b60405180910390a150565b611863848484846001611984565b6118a457836040517f5274afe700000000000000000000000000000000000000000000000000000000815260040161189b9190611a96565b60405180910390fd5b50505050565b6118b783838360016119f5565b6118f857826040517f5274afe70000000000000000000000000000000000000000000000000000000081526004016118ef9190611a96565b60405180910390fd5b505050565b7f000000000000000000000000000000000000000000000000000000000000000073ffffffffffffffffffffffffffffffffffffffff163373ffffffffffffffffffffffffffffffffffffffff1614611982576040517fea8e4eb500000000000000000000000000000000000000000000000000000000815260040160405180910390fd5b565b5f806323b872dd60e01b9050604051815f525f1960601c87166004525f1960601c86166024528460445260205f60645f808c5af1925060015f511483166119e25783831516156119d6573d5f823e3d81fd5b5f883b113d1516831692505b806040525f606052505095945050505050565b5f8063a9059cbb60e01b9050604051815f525f1960601c86166004528460245260205f60445f808b5af1925060015f51148316611a49578383151615611a3d573d5f823e3d81fd5b5f873b113d1516831692505b806040525050949350505050565b5f73ffffffffffffffffffffffffffffffffffffffff82169050919050565b5f611a8082611a57565b9050919050565b611a9081611a76565b82525050565b5f602082019050611aa95f830184611a87565b92915050565b5f819050919050565b5f611ad2611acd611ac884611a57565b611aaf565b611a57565b9050919050565b5f611ae382611ab8565b9050919050565b5f611af482611ad9565b9050919050565b611b0481611aea565b82525050565b5f602082019050611b1d5f830184611afb565b92915050565b5f611b2d82611ad9565b9050919050565b611b3d81611b23565b82525050565b5f602082019050611b565f830184611b34565b92915050565b5f819050919050565b611b6e81611b5c565b82525050565b5f602082019050611b875f830184611b65565b92915050565b5f80fd5b611b9a81611a76565b8114611ba4575f80fd5b50565b5f81359050611bb581611b91565b92915050565b611bc481611b5c565b8114611bce575f80fd5b50565b5f81359050611bdf81611bbb565b92915050565b5f805f60608486031215611bfc57611bfb611b8d565b5b5f611c0986828701611ba7565b9350506020611c1a86828701611bd1565b9250506040611c2b86828701611ba7565b9150509250925092565b5f60208284031215611c4a57611c49611b8d565b5b5f611c5784828501611ba7565b91505092915050565b5f8060408385031215611c7657611c75611b8d565b5b5f611c8385828601611ba7565b9250506020611c9485828601611bd1565b9150509250929050565b5f611ca882611ad9565b9050919050565b611cb881611c9e565b82525050565b5f602082019050611cd15f830184611caf565b92915050565b5f611ce182611ad9565b9050919050565b611cf181611cd7565b82525050565b5f602082019050611d0a5f830184611ce8565b92915050565b5f611d1a82611ad9565b9050919050565b611d2a81611d10565b82525050565b5f602082019050611d435f830184611d21565b92915050565b5f805f60608486031215611d6057611d5f611b8d565b5b5f611d6d86828701611ba7565b9350506020611d7e86828701611ba7565b9250506040611d8f86828701611bd1565b9150509250925092565b5f60208284031215611dae57611dad611b8d565b5b5f611dbb84828501611bd1565b91505092915050565b5f8115159050919050565b611dd881611dc4565b8114611de2575f80fd5b50565b5f81519050611df381611dcf565b92915050565b5f60208284031215611e0e57611e0d611b8d565b5b5f611e1b84828501611de5565b91505092915050565b5f81519050611e3281611bbb565b92915050565b5f60208284031215611e4d57611e4c611b8d565b5b5f611e5a84828501611e24565b91505092915050565b7f4e487b71000000000000000000000000000000000000000000000000000000005f52601160045260245ffd5b5f611e9a82611b5c565b9150611ea583611b5c565b9250828202611eb381611b5c565b91508282048414831517611eca57611ec9611e63565b5b5092915050565b7f4e487b71000000000000000000000000000000000000000000000000000000005f52601260045260245ffd5b5f611f0882611b5c565b9150611f1383611b5c565b925082611f2357611f22611ed1565b5b828204905092915050565b5f611f3882611a76565b9050919050565b611f4881611f2e565b8114611f52575f80fd5b50565b5f81519050611f6381611f3f565b92915050565b5f60208284031215611f7e57611f7d611b8d565b5b5f611f8b84828501611f55565b91505092915050565b5f611f9e82611b5c565b9150611fa983611b5c565b9250828203905081811115611fc157611fc0611e63565b5b92915050565b5f604082019050611fda5f830185611a87565b611fe76020830184611b65565b9392505050565b5f611ff882611b5c565b915061200383611b5c565b925082820190508082111561201b5761201a611e63565b5b92915050565b5f6080820190506120345f830187611b65565b6120416020830186611b65565b61204e6040830185611b65565b61205b6060830184611b65565b95945050505050565b5f6060820190506120775f830186611a87565b6120846020830185611b65565b6120916040830184611a87565b94935050505056fea26469706673582212202e11a4185f1cd7ecabfb8d1e0bf556fd5266a9b380b669d45c6c59519c02e29b64736f6c63430008140033","linkReferences":{}},"methodIdentifiers":{"LIQUIDATION_CONTROLLER()":"dfcf3ce0","ORACLE()":"38013f02","OWNER()":"117803e3","borrowFromAave(address,address,uint256)":"e3f6ec88","borrowFromCompound(address,uint256)":"8afda809","closeFactorBps()":"4654440b","creditManager()":"c12c21c0","creditPool()":"2ff1ab95","delegateCredit(address,uint256)":"89c85c6f","insurancePool()":"ab2adc00","liquidate(address,uint256,address)":"4914c008","setCloseFactorBps(uint256)":"fdeeadd0","setCreditManager(address)":"69dd793b","setCreditPool(address)":"b1a41702","setInsurancePool(address)":"a94c487e","setManagerPool(address)":"4c67ba89"},"id":3}