{"abi":[{"type":"constructor","inputs":[],"stateMutability":"nonpayable"},{"type":"function","name":"approvePool","inputs":[{"name":"pool","type":"address","internalType":"address"}],"outputs":[],"stateMutability":"nonpayable"},{"type":"function","name":"approvedPools","inputs":[{"name":"","type":"address","internalType":"address"}],"outputs":[{"name":"","type":"bool","internalType":"bool"}],"stateMutability":"view"},{"type":"function","name":"owner","inputs":[],"outputs":[{"name":"","type":"address","internalType":"address"}],"stateMutability":"view"}],"bytecode":{"object":"0x608060405234801561000f575f80fd5b503360015f6101000a81548173ffffffffffffffffffffffffffffffffffffffff021916908373ffffffffffffffffffffffffffffffffffffffff1602179055506103668061005d5f395ff3fe608060405234801561000f575f80fd5b506004361061003f575f3560e01c8063424c265b146100435780638da5cb5b1461005f578063f0bbcec41461007d575b5f80fd5b61005d60048036038101906100589190610232565b6100ad565b005b610067610193565b604051610074919061026c565b60405180910390f35b61009760048036038101906100929190610232565b6101b8565b6040516100a4919061029f565b60405180910390f35b60015f9054906101000a900473ffffffffffffffffffffffffffffffffffffffff1673ffffffffffffffffffffffffffffffffffffffff163373ffffffffffffffffffffffffffffffffffffffff161461013c576040517f08c379a000000000000000000000000000000000000000000000000000000000815260040161013390610312565b60405180910390fd5b60015f808373ffffffffffffffffffffffffffffffffffffffff1673ffffffffffffffffffffffffffffffffffffffff1681526020019081526020015f205f6101000a81548160ff02191690831515021790555050565b60015f9054906101000a900473ffffffffffffffffffffffffffffffffffffffff1681565b5f602052805f5260405f205f915054906101000a900460ff1681565b5f80fd5b5f73ffffffffffffffffffffffffffffffffffffffff82169050919050565b5f610201826101d8565b9050919050565b610211816101f7565b811461021b575f80fd5b50565b5f8135905061022c81610208565b92915050565b5f60208284031215610247576102466101d4565b5b5f6102548482850161021e565b91505092915050565b610266816101f7565b82525050565b5f60208201905061027f5f83018461025d565b92915050565b5f8115159050919050565b61029981610285565b82525050565b5f6020820190506102b25f830184610290565b92915050565b5f82825260208201905092915050565b7f4f4e4c595f4f574e4552000000000000000000000000000000000000000000005f82015250565b5f6102fc600a836102b8565b9150610307826102c8565b602082019050919050565b5f6020820190508181035f830152610329816102f0565b905091905056fea26469706673582212201e5bc2762af0ba0bd122821290af76fc8a8ccf65bbe93d76733cc13c5ad9aa5764736f6c63430008140033","linkReferences":{}},"methodIdentifiers":{"approvePool(address)":"424c265b","approvedPools(address)":"f0bbcec4","owner()":"8da5cb5b"},"id":16}