{"abi":[{"type":"constructor","inputs":[],"stateMutability":"nonpayable"},{"type":"function","name":"approvePool","inputs":[{"name":"pool","type":"address","internalType":"address"}],"outputs":[],"stateMutability":"nonpayable"},{"type":"function","name":"approvedPools","inputs":[{"name":"","type":"address","internalType":"address"}],"outputs":[{"name":"","type":"bool","internalType":"bool"}],"stateMutability":"view"},{"type":"function","name":"owner","inputs":[],"outputs":[{"name":"","type":"address","internalType":"address"}],"stateMutability":"view"}],"bytecode":{"object":"0x6080806040523461002857600180546001600160a01b03191633179055610165908161002d8239f35b5f80fdfe6080806040526004361015610012575f80fd5b5f90813560e01c908163424c265b146100af575080638da5cb5b146100865763f0bbcec41461003f575f80fd5b34610083576020366003190112610083576004356001600160a01b0381169081900361007f5760408260ff92602094528084522054166040519015158152f35b5080fd5b80fd5b50346100835780600319360112610083576001546040516001600160a01b039091168152602090f35b90503461007f57602036600319011261007f576004356001600160a01b03818116929183900361012b576001541633036100fc575081528060205260408120600160ff1982541617905580f35b62461bcd60e51b815260206004820152600a60248201526927a7262cafa7aba722a960b11b6044820152606490fd5b8380fdfea264697066735822122003f14a20db2f58ce89ac5a50a917900dca02342d767ba44b5933690e390a32b164736f6c63430008140033","linkReferences":{}},"methodIdentifiers":{"approvePool(address)":"424c265b","approvedPools(address)":"f0bbcec4","owner()":"8da5cb5b"},"id":20}