{"abi":[{"type":"constructor","inputs":[],"stateMutability":"nonpayable"},{"type":"function","name":"healthy","inputs":[],"outputs":[{"name":"","type":"bool","internalType":"bool"}],"stateMutability":"view"},{"type":"function","name":"owner","inputs":[],"outputs":[{"name":"","type":"address","internalType":"address"}],"stateMutability":"view"},{"type":"function","name":"setHealthy","inputs":[{"name":"_healthy","type":"bool","internalType":"bool"}],"outputs":[],"stateMutability":"nonpayable"}],"bytecode":{"object":"0x608060405260015f806101000a81548160ff021916908315150217905550348015610028575f80fd5b50335f60016101000a81548173ffffffffffffffffffffffffffffffffffffffff021916908373ffffffffffffffffffffffffffffffffffffffff160217905550610316806100765f395ff3fe608060405234801561000f575f80fd5b506004361061003f575f3560e01c80637560fdd1146100435780638da5cb5b14610061578063e4dc2dd21461007f575b5f80fd5b61004b61009b565b604051610058919061019e565b60405180910390f35b6100696100ab565b60405161007691906101f6565b60405180910390f35b6100996004803603810190610094919061023d565b6100d0565b005b5f8054906101000a900460ff1681565b5f60019054906101000a900473ffffffffffffffffffffffffffffffffffffffff1681565b6100d86100f3565b805f806101000a81548160ff02191690831515021790555050565b5f60019054906101000a900473ffffffffffffffffffffffffffffffffffffffff1673ffffffffffffffffffffffffffffffffffffffff163373ffffffffffffffffffffffffffffffffffffffff1614610182576040517f08c379a0000000000000000000000000000000000000000000000000000000008152600401610179906102c2565b60405180910390fd5b565b5f8115159050919050565b61019881610184565b82525050565b5f6020820190506101b15f83018461018f565b92915050565b5f73ffffffffffffffffffffffffffffffffffffffff82169050919050565b5f6101e0826101b7565b9050919050565b6101f0816101d6565b82525050565b5f6020820190506102095f8301846101e7565b92915050565b5f80fd5b61021c81610184565b8114610226575f80fd5b50565b5f8135905061023781610213565b92915050565b5f602082840312156102525761025161020f565b5b5f61025f84828501610229565b91505092915050565b5f82825260208201905092915050565b7f4f4e4c595f4f574e4552000000000000000000000000000000000000000000005f82015250565b5f6102ac600a83610268565b91506102b782610278565b602082019050919050565b5f6020820190508181035f8301526102d9816102a0565b905091905056fea2646970667358221220026eb9685e9209d1e1943874af57868c8422a388642816d8b3d026d828c596cd64736f6c63430008140033","linkReferences":{}},"methodIdentifiers":{"healthy()":"7560fdd1","owner()":"8da5cb5b","setHealthy(bool)":"e4dc2dd2"},"id":15}