{"abi":[{"type":"constructor","inputs":[],"stateMutability":"nonpayable"},{"type":"function","name":"healthy","inputs":[],"outputs":[{"name":"","type":"bool","internalType":"bool"}],"stateMutability":"view"},{"type":"function","name":"owner","inputs":[],"outputs":[{"name":"","type":"address","internalType":"address"}],"stateMutability":"view"},{"type":"function","name":"setHealthy","inputs":[{"name":"_healthy","type":"bool","internalType":"bool"}],"outputs":[],"stateMutability":"nonpayable"}],"bytecode":{"object":"0x60808060405234610037575f80546001600160a81b0319163360081b610100600160a81b031617600117905561012f908161003c8239f35b5f80fdfe60808060405260043610156011575f80fd5b5f90813560e01c9081637560fdd11460dc575080638da5cb5b1460b35763e4dc2dd214603b575f80fd5b3460b057602036600319011260b05760043580151580910360ac57815490600882901c6001600160a01b03163303607a5760ff169060ff191617815580f35b60405162461bcd60e51b815260206004820152600a60248201526927a7262cafa7aba722a960b11b6044820152606490fd5b5080fd5b80fd5b503460b0578060031936011260b0575460405160089190911c6001600160a01b03168152602090f35b90503460ac578160031936011260ac5760ff602092541615158152f3fea26469706673582212202947e500bce4b1cbbe53d47eecf36110fe2540984d32e929c27d6555193c054464736f6c63430008140033","linkReferences":{}},"methodIdentifiers":{"healthy()":"7560fdd1","owner()":"8da5cb5b","setHealthy(bool)":"e4dc2dd2"},"id":17}