{
  "abi": [
    {
      "type": "constructor",
      "inputs": [
        {
          "name": "_cToken",
          "type": "address",
          "internalType": "address"
        },
        {
          "name": "_router",
          "type": "address",
          "internalType": "address"
        }
      ],
      "stateMutability": "nonpayable"
    },
    {
      "type": "function",
      "name": "C_TOKEN",
      "inputs": [],
      "outputs": [
        {
          "name": "",
          "type": "address",
          "internalType": "contract ICompound"
        }
      ],
      "stateMutability": "view"
    },
    {
      "type": "function",
      "name": "ROUTER",
      "inputs": [],
      "outputs": [
        {
          "name": "",
          "type": "address",
          "internalType": "address"
        }
      ],
      "stateMutability": "view"
    },
    {
      "type": "function",
      "name": "borrow",
      "inputs": [
        {
          "name": "amount",
          "type": "uint256",
          "internalType": "uint256"
        },
        {
          "name": "borrower",
          "type": "address",
          "internalType": "address"
        }
      ],
      "outputs": [],
      "stateMutability": "nonpayable"
    },
    {
      "type": "function",
      "name": "repay",
      "inputs": [
        {
          "name": "amount",
          "type": "uint256",
          "internalType": "uint256"
        },
        {
          "name": "borrower",
          "type": "address",
          "internalType": "address"
        }
      ],
      "outputs": [],
      "stateMutability": "nonpayable"
    },
    {
      "type": "error",
      "name": "NotRouter",
      "inputs": []
    },
    {
      "type": "error",
      "name": "SafeERC20FailedOperation",
      "inputs": [
        {
          "name": "token",
          "type": "address",
          "internalType": "address"
        }
      ]
    }
  ],
  "bytecode": {
    "object": "0x60c03461009e57601f61060738819003918201601f19168301916001600160401b038311848410176100a257808492604094855283398101031261009e57610052602061004b836100b6565b92016100b6565b6001600160a01b0390911660805260a05260405161053c90816100cb8239608051818181609f015281816103590152610477015260a05181818160670152818161030d01526104300152f35b5f80fd5b634e487b7160e01b5f52604160045260245ffd5b51906001600160a01b038216820361009e5756fe6080604081815260049081361015610015575f80fd5b5f92833560e01c90816304948ea1146104635750806332fe7b261461041b5780634b3fd148146102f35763acb708151461004d575f80fd5b346102ef5761005b366104a6565b916001600160a01b03917f0000000000000000000000000000000000000000000000000000000000000000831633036102df578151636f307dc360e01b81526020937f000000000000000000000000000000000000000000000000000000000000000081169185818981865afa9081156102d557908692918a91610297575b508116968986519463095ea7b360e01b808352818c5260249a888c52868460448180855af1600185511481161561028a575b888b52156101c0575b5050604493949550875196879586946304c11f0360e31b8652168c8501528a8401525af19081156101b6578691610185575b50610150578480f35b5162461bcd60e51b8152928301526013908201527210d3d35413d5539117d49154105657d1905253606a1b6044820152606490fd5b90508281813d83116101af575b61019c81836104d0565b810103126101ab57515f610147565b8580fd5b503d610192565b82513d88823e3d90fd5b92909395509590939550828c52838b528b8a52888c60448180865af160018d511481161561026b575b8189521561025957508651918b52828a52858952878b60448180855af160018c511481161561023a575b828852156102275784928894928c92610115565b635274afe760e01b8252818a0152879150fd5b600181151661025057813b15153d151616610213565b823d8d823e3d90fd5b89918b635274afe760e01b8352820152fd5b600181151661028157823b15153d1516166101e9565b503d8c823e3d90fd5b813b15153d15161661010c565b8381939492503d83116102ce575b6102af81836104d0565b810103126102ca57519080821682036102ca578591816100da565b8880fd5b503d6102a5565b85513d8b823e3d90fd5b8151639165520160e01b81528590fd5b8280fd5b50346102ef57610302366104a6565b6001600160a01b03917f00000000000000000000000000000000000000000000000000000000000000008316330361040b579060446020928785875196879586946302ff12d160e11b86528b8601521660248401527f0000000000000000000000000000000000000000000000000000000000000000165af19081156104015784916103cc575b50610392578280f35b906020606492519162461bcd60e51b8352820152601460248201527310d3d35413d5539117d093d49493d5d7d190525360621b6044820152fd5b90506020813d82116103f9575b816103e6602093836104d0565b810103126103f557515f610389565b8380fd5b3d91506103d9565b82513d86823e3d90fd5b50505051639165520160e01b8152fd5b83823461045f578160031936011261045f57517f00000000000000000000000000000000000000000000000000000000000000006001600160a01b03168152602090f35b5080fd5b84903461045f578160031936011261045f577f00000000000000000000000000000000000000000000000000000000000000006001600160a01b03168152602090f35b60409060031901126104cc57600435906024356001600160a01b03811681036104cc5790565b5f80fd5b90601f8019910116810190811067ffffffffffffffff8211176104f257604052565b634e487b7160e01b5f52604160045260245ffdfea26469706673582212201f576fc715744bdaf3684017ddb8647a43c3be55dd798bccf1417b2a3d4756de64736f6c63430008140033",
    "linkReferences": {}
  },
  "methodIdentifiers": {
    "C_TOKEN()": "04948ea1",
    "ROUTER()": "32fe7b26",
    "borrow(uint256,address)": "4b3fd148",
    "repay(uint256,address)": "acb70815"
  },
  "id": 1
}