{"abi":[{"type":"constructor","inputs":[{"name":"_router","type":"address","internalType":"address"},{"name":"_oracle","type":"address","internalType":"address"}],"stateMutability":"nonpayable"},{"type":"function","name":"aaveDebt","inputs":[{"name":"","type":"address","internalType":"address"}],"outputs":[{"name":"","type":"uint256","internalType":"uint256"}],"stateMutability":"view"},{"type":"function","name":"accountOpenedAt","inputs":[{"name":"","type":"address","internalType":"address"}],"outputs":[{"name":"","type":"uint256","internalType":"uint256"}],"stateMutability":"view"},{"type":"function","name":"borrowCount","inputs":[{"name":"","type":"address","internalType":"address"}],"outputs":[{"name":"","type":"uint256","internalType":"uint256"}],"stateMutability":"view"},{"type":"function","name":"collateralValue","inputs":[{"name":"user","type":"address","internalType":"address"}],"outputs":[{"name":"","type":"uint256","internalType":"uint256"}],"stateMutability":"view"},{"type":"function","name":"compoundDebt","inputs":[{"name":"","type":"address","internalType":"address"}],"outputs":[{"name":"","type":"uint256","internalType":"uint256"}],"stateMutability":"view"},{"type":"function","name":"creditLimit","inputs":[{"name":"user","type":"address","internalType":"address"}],"outputs":[{"name":"","type":"uint256","internalType":"uint256"}],"stateMutability":"view"},{"type":"function","name":"creditScore","inputs":[{"name":"user","type":"address","internalType":"address"}],"outputs":[{"name":"","type":"uint256","internalType":"uint256"}],"stateMutability":"view"},{"type":"function","name":"creditScoreBreakdown","inputs":[{"name":"user","type":"address","internalType":"address"}],"outputs":[{"name":"ageScore","type":"uint256","internalType":"uint256"},{"name":"healthScore","type":"uint256","internalType":"uint256"},{"name":"repayScore","type":"uint256","internalType":"uint256"},{"name":"delegatedScore","type":"uint256","internalType":"uint256"},{"name":"crossProtocolScore","type":"uint256","internalType":"uint256"},{"name":"volatilityDiscount","type":"uint256","internalType":"uint256"},{"name":"utilizationPenalty","type":"uint256","internalType":"uint256"},{"name":"liquidationPenalty","type":"uint256","internalType":"uint256"}],"stateMutability":"view"},{"type":"function","name":"delegatedCredit","inputs":[{"name":"user","type":"address","internalType":"address"}],"outputs":[{"name":"","type":"uint256","internalType":"uint256"}],"stateMutability":"view"},{"type":"function","name":"freeze","inputs":[{"name":"user","type":"address","internalType":"address"}],"outputs":[],"stateMutability":"nonpayable"},{"type":"function","name":"frozen","inputs":[{"name":"","type":"address","internalType":"address"}],"outputs":[{"name":"","type":"bool","internalType":"bool"}],"stateMutability":"view"},{"type":"function","name":"healthFactor","inputs":[{"name":"user","type":"address","internalType":"address"}],"outputs":[{"name":"","type":"uint256","internalType":"uint256"}],"stateMutability":"view"},{"type":"function","name":"liquidationCount","inputs":[{"name":"","type":"address","internalType":"address"}],"outputs":[{"name":"","type":"uint256","internalType":"uint256"}],"stateMutability":"view"},{"type":"function","name":"onBorrow","inputs":[{"name":"user","type":"address","internalType":"address"},{"name":"amount","type":"uint256","internalType":"uint256"}],"outputs":[],"stateMutability":"nonpayable"},{"type":"function","name":"onLiquidation","inputs":[{"name":"user","type":"address","internalType":"address"},{"name":"repayAmount","type":"uint256","internalType":"uint256"}],"outputs":[],"stateMutability":"nonpayable"},{"type":"function","name":"onRepay","inputs":[{"name":"user","type":"address","internalType":"address"},{"name":"amount","type":"uint256","internalType":"uint256"}],"outputs":[],"stateMutability":"nonpayable"},{"type":"function","name":"oracle","inputs":[],"outputs":[{"name":"","type":"address","internalType":"address"}],"stateMutability":"view"},{"type":"function","name":"pool","inputs":[],"outputs":[{"name":"","type":"address","internalType":"address"}],"stateMutability":"view"},{"type":"function","name":"prevUtilizationBps","inputs":[{"name":"","type":"address","internalType":"address"}],"outputs":[{"name":"","type":"uint256","internalType":"uint256"}],"stateMutability":"view"},{"type":"function","name":"prevUtilizationTimestamp","inputs":[{"name":"","type":"address","internalType":"address"}],"outputs":[{"name":"","type":"uint256","internalType":"uint256"}],"stateMutability":"view"},{"type":"function","name":"recordAaveBorrow","inputs":[{"name":"user","type":"address","internalType":"address"},{"name":"amount","type":"uint256","internalType":"uint256"}],"outputs":[],"stateMutability":"nonpayable"},{"type":"function","name":"recordAaveRepay","inputs":[{"name":"user","type":"address","internalType":"address"},{"name":"amount","type":"uint256","internalType":"uint256"}],"outputs":[],"stateMutability":"nonpayable"},{"type":"function","name":"recordCompoundBorrow","inputs":[{"name":"user","type":"address","internalType":"address"},{"name":"amount","type":"uint256","internalType":"uint256"}],"outputs":[],"stateMutability":"nonpayable"},{"type":"function","name":"recordCompoundRepay","inputs":[{"name":"user","type":"address","internalType":"address"},{"name":"amount","type":"uint256","internalType":"uint256"}],"outputs":[],"stateMutability":"nonpayable"},{"type":"function","name":"repaymentCount","inputs":[{"name":"","type":"address","internalType":"address"}],"outputs":[{"name":"","type":"uint256","internalType":"uint256"}],"stateMutability":"view"},{"type":"function","name":"riskTier","inputs":[{"name":"user","type":"address","internalType":"address"}],"outputs":[{"name":"","type":"uint8","internalType":"uint8"}],"stateMutability":"view"},{"type":"function","name":"router","inputs":[],"outputs":[{"name":"","type":"address","internalType":"address"}],"stateMutability":"view"},{"type":"function","name":"scoreBreakdown","inputs":[{"name":"user","type":"address","internalType":"address"}],"outputs":[{"name":"ageScore","type":"uint256","internalType":"uint256"},{"name":"healthScore","type":"uint256","internalType":"uint256"},{"name":"repaymentScore","type":"uint256","internalType":"uint256"},{"name":"delegatedScore","type":"uint256","internalType":"uint256"},{"name":"utilizationPenalty","type":"uint256","internalType":"uint256"},{"name":"liquidationPenalty","type":"uint256","internalType":"uint256"}],"stateMutability":"view"},{"type":"function","name":"scoreEngine","inputs":[],"outputs":[{"name":"","type":"address","internalType":"contract ICreditScoreEngine"}],"stateMutability":"view"},{"type":"function","name":"setCollateralValue","inputs":[{"name":"user","type":"address","internalType":"address"},{"name":"value","type":"uint256","internalType":"uint256"}],"outputs":[],"stateMutability":"nonpayable"},{"type":"function","name":"setDelegatedCredit","inputs":[{"name":"user","type":"address","internalType":"address"},{"name":"value","type":"uint256","internalType":"uint256"}],"outputs":[],"stateMutability":"nonpayable"},{"type":"function","name":"setPool","inputs":[{"name":"_pool","type":"address","internalType":"address"}],"outputs":[],"stateMutability":"nonpayable"},{"type":"function","name":"setScoreEngine","inputs":[{"name":"_engine","type":"address","internalType":"address"}],"outputs":[],"stateMutability":"nonpayable"},{"type":"function","name":"totalDebt","inputs":[{"name":"user","type":"address","internalType":"address"}],"outputs":[{"name":"","type":"uint256","internalType":"uint256"}],"stateMutability":"view"},{"type":"function","name":"unfreeze","inputs":[{"name":"user","type":"address","internalType":"address"}],"outputs":[],"stateMutability":"nonpayable"},{"type":"function","name":"userMetrics","inputs":[{"name":"user","type":"address","internalType":"address"}],"outputs":[{"name":"collateral","type":"uint256","internalType":"uint256"},{"name":"delegated","type":"uint256","internalType":"uint256"},{"name":"debt","type":"uint256","internalType":"uint256"},{"name":"hf","type":"uint256","internalType":"uint256"},{"name":"score","type":"uint256","internalType":"uint256"},{"name":"tier","type":"uint8","internalType":"uint8"},{"name":"openedAt","type":"uint256","internalType":"uint256"},{"name":"borrows","type":"uint256","internalType":"uint256"},{"name":"repays","type":"uint256","internalType":"uint256"},{"name":"liquidations","type":"uint256","internalType":"uint256"},{"name":"isFrozen","type":"bool","internalType":"bool"}],"stateMutability":"view"},{"type":"function","name":"validateBorrow","inputs":[{"name":"user","type":"address","internalType":"address"},{"name":"amount","type":"uint256","internalType":"uint256"}],"outputs":[{"name":"","type":"bool","internalType":"bool"}],"stateMutability":"view"},{"type":"event","name":"BorrowRecorded","inputs":[{"name":"user","type":"address","indexed":true,"internalType":"address"},{"name":"amount","type":"uint256","indexed":false,"internalType":"uint256"},{"name":"newDebt","type":"uint256","indexed":false,"internalType":"uint256"}],"anonymous":false},{"type":"event","name":"Frozen","inputs":[{"name":"user","type":"address","indexed":true,"internalType":"address"}],"anonymous":false},{"type":"event","name":"LiquidationRecorded","inputs":[{"name":"user","type":"address","indexed":true,"internalType":"address"},{"name":"repayAmount","type":"uint256","indexed":false,"internalType":"uint256"},{"name":"newDebt","type":"uint256","indexed":false,"internalType":"uint256"}],"anonymous":false},{"type":"event","name":"PoolSet","inputs":[{"name":"pool","type":"address","indexed":false,"internalType":"address"}],"anonymous":false},{"type":"event","name":"RepayRecorded","inputs":[{"name":"user","type":"address","indexed":true,"internalType":"address"},{"name":"amount","type":"uint256","indexed":false,"internalType":"uint256"},{"name":"newDebt","type":"uint256","indexed":false,"internalType":"uint256"}],"anonymous":false},{"type":"event","name":"ScoreEngineSet","inputs":[{"name":"engine","type":"address","indexed":false,"internalType":"address"}],"anonymous":false},{"type":"event","name":"Unfrozen","inputs":[{"name":"user","type":"address","indexed":true,"internalType":"address"}],"anonymous":false},{"type":"event","name":"UtilizationSnapshotted","inputs":[{"name":"user","type":"address","indexed":true,"internalType":"address"},{"name":"utilizationBps","type":"uint256","indexed":false,"internalType":"uint256"}],"anonymous":false},{"type":"error","name":"AlreadySet","inputs":[]},{"type":"error","name":"InsufficientCredit","inputs":[]},{"type":"error","name":"InvalidAmount","inputs":[]},{"type":"error","name":"NotAuthorized","inputs":[]},{"type":"error","name":"RepayExceedsDebt","inputs":[]},{"type":"error","name":"ZeroAddress","inputs":[]}],"bytecode":{"object":"0x608034620000b157601f62001ab438819003918201601f19168301916001600160401b03831184841017620000b5578084926040948552833981010312620000b1576200005a60206200005283620000c9565b9201620000c9565b6001600160a01b03918216919082156200009f57169081156200009f5760018060a01b031990815f5416175f5560015416176001556040516119d59081620000df8239f35b60405163d92e233d60e01b8152600490fd5b5f80fd5b634e487b7160e01b5f52604160045260245ffd5b51906001600160a01b0382168203620000b15756fe608060408181526004361015610013575f80fd5b5f91823560e01c9081630a8d55cf146110a4575080630bf97eac14610fe2578063127ab6e214610fab578063158cda6614610f7457806316f0115b14610f4c5780631f227e4814610e7d5780631f429f5014610e3b5780631ff517ff14610e045780632720313b14610ce45780634437152a14610c6557806345c8b1a614610bfc5780635c96161714610b945780636873509b14610b555780636ad9f9df14610b305780636cb80eb514610adc5780637160490914610aa55780637544aa4414610a6e5780637dc0d1d014610a4657806386b8da0414610a0f5780638d1fdf2f146109a35780639c54726514610972578063aecb56041461093b578063b06c8d2e14610904578063b4196c8f146108dc578063b84d93d4146108aa578063c56a6a1c14610861578063d051665014610824578063d2cd62ad146107ed578063d3ccccc41461074c578063d64ccdb214610715578063d8d2c64814610625578063dbd476b7146105ac578063e3d7a870146103be578063f17877af14610387578063f7e590ee1461035b578063f7f11fb7146101e05763f887ea40146101b6575f80fd5b346101dc57816003193601126101dc57905490516001600160a01b039091168152602090f35b5080fd5b5090346103585781600319360112610358576101fa6110f9565b81546001600160a01b039390602435908516330361034757815194639c54726560e01b86528316928360048701528160248701526020958681604481305afa90811561033d578691610303575b50156102f25761026990848652600887528386208054156102e9575b50611418565b8284526006855281842061027e828254611113565b905582845260098552818420948554600181018091116102d5577f4aeb2d14be7417bd048fed3bb687ceff994aac500f22f9632728dbcee7805c73949596558486526006815282862054908351928352820152a280f35b634e487b7160e01b86526011600452602486fd5b4290555f610263565b8251638ac4bc7360e01b8152600490fd5b90508681813d8311610336575b61031a81836111a3565b8101031261033257518015158103610332575f610247565b8580fd5b503d610310565b84513d88823e3d90fd5b815163ea8e4eb560e01b8152600490fd5b80fd5b50346101dc5760203660031901126101dc5760209061038061037b6110f9565b611277565b9051908152f35b50346101dc5760203660031901126101dc5760209181906001600160a01b036103ae6110f9565b168152600d845220549051908152f35b50346101dc5760203660031901126101dc576103d86110f9565b6003546001600160a01b039081169190821561057257906101009181169283865260046020528486205460056020528587205490600660205261041e87892054946113d3565b958852600a6020526104a687892054600b602052888a2054600c602052898b2054600d6020528a8c205491600e6020528b8d2054938c519b8c9a8b998a99630bb71ed360e41b8b5260048b0195926101009794919a9998959261012088019b8852602088015260408701526060860152608085015260a084015260c083015260e08201520152565b03915afa90811561056657839284908586908792889489968a986104f3575b506101009950815198895260208901528701526060860152608085015260a084015260c083015260e0820152f35b98505095505050505050610100823d6101001161055e575b8161051961010093836111a3565b8101031261055a5781516020830151828401516060850151608086015160a087015160c088015160e09098015161010099509597959690949193915f6104c5565b8280fd5b3d915061050b565b505051903d90823e3d90fd5b835162461bcd60e51b815260206004820152601360248201527214d8dbdc99515b99da5b99481b9bdd081cd95d606a1b6044820152606490fd5b50346101dc57806003193601126101dc576105c56110f9565b825460243592916001600160a01b0391821633036106145716808452600c60205281842054909281811061060557505082915b8352600c60205282205580f35b61060e91611134565b916105f8565b825163ea8e4eb560e01b8152600490fd5b50903461035857816003193601126103585761063f6110f9565b81546001600160a01b03936024359290918516330361034757829481169283855260066020528285205480911161070b575b5061067b90611418565b8183526006602052808320610691858254611134565b9055836106d6575b7fc7a00b289bebba84d8561520045edf3e2d78f61049fb317193866addf981dc27908483855260066020528185205482519182526020820152a280f35b818352600a602052808320938454600181018091116106f757909455610699565b634e487b7160e01b85526011600452602485fd5b945061067b610671565b50346101dc5760203660031901126101dc5760209181906001600160a01b0361073c6110f9565b168152600e845220549051908152f35b50346101dc5760203660031901126101dc576107666110f9565b82549091906001600160a01b03908116330361034757600354928184166107dc57169182156107cb576001600160a01b0319168217600355519081527fd7b0a0e9dc0ca7f1c619a79f6eb2ae0c23648f3521570199efb8fac83414b42890602090a180f35b815163d92e233d60e01b8152600490fd5b825163a741a04560e01b8152600490fd5b50346101dc5760203660031901126101dc5760209181906001600160a01b036108146110f9565b1681526005845220549051908152f35b50346101dc5760203660031901126101dc5760209160ff9082906001600160a01b0361084e6110f9565b1681526007855220541690519015158152f35b50346101dc57806003193601126101dc5761087a6110f9565b82546001600160a01b0391908216330361061457168252600c60205281206108a56024358254611113565b905580f35b50346101dc5760203660031901126101dc5760209060ff6108d46108cf61037b6110f9565b6113a1565b915191168152f35b50346101dc57816003193601126101dc5760035490516001600160a01b039091168152602090f35b50346101dc5760203660031901126101dc5760209181906001600160a01b0361092b6110f9565b168152600a845220549051908152f35b50346101dc5760203660031901126101dc5760209181906001600160a01b036109626110f9565b168152600f845220549051908152f35b50346101dc57806003193601126101dc5760209061099a6109916110f9565b60243590611141565b90519015158152f35b50346101dc5760203660031901126101dc576109bd6110f9565b82546001600160a01b0391908216330361061457168083526007602052908220805460ff191660011790557f8a5c4736a33c7b7f29a2c34ea9ff9608afc5718d56f6fd6dcbd2d3711a1a49138280a280f35b50346101dc5760203660031901126101dc5760209181906001600160a01b03610a366110f9565b168152600b845220549051908152f35b50346101dc57816003193601126101dc5760015490516001600160a01b039091168152602090f35b50346101dc5760203660031901126101dc5760209181906001600160a01b03610a956110f9565b1681526004845220549051908152f35b50346101dc5760203660031901126101dc5760209181906001600160a01b03610acc6110f9565b1681526009845220549051908152f35b50346101dc57806003193601126101dc57610af56110f9565b82546001600160a01b039190821633141580610b22575b6106145716825260056020526024359082205580f35b508160025416331415610b0c565b50346101dc5760203660031901126101dc57602090610380610b506110f9565b6111f7565b50346101dc57806003193601126101dc57610b6e6110f9565b82546001600160a01b039190821633036106145716825260046020526024359082205580f35b50346101dc57806003193601126101dc57610bad6110f9565b825460243592916001600160a01b0391821633036106145716808452600d602052818420549092818110610bed57505082915b8352600d60205282205580f35b610bf691611134565b91610be0565b50346101dc5760203660031901126101dc57610c166110f9565b82546001600160a01b0391908216330361061457168083526007602052908220805460ff191690557f4feb53e305297ab8fb8f3420c95ea04737addc254a7270d8fc4605d2b9c61dba8280a280f35b50346101dc5760203660031901126101dc57610c7f6110f9565b82549091906001600160a01b03908116330361034757600254928184166107dc57169182156107cb576001600160a01b0319168217600255519081527f025f89b99c8ce32af8da7624f4575b920a86ebf07870d85a9fb545fee349ddce90602090a180f35b50346101dc57806003193601126101dc57610cfd6110f9565b825460243592916001600160a01b039182163303610614578315610df357169182845260206006815282852054808311610de25782610d3b91611134565b8486526006825283862055600b815282852080549060018201809211610dce575583855260078152828520805460ff19166001179055600681528285205483519283529082015282917f6dedf4870418a0998fa354d0e3f2908e6a67eb9fe466cbf33be5b99a67a5856191a27f8a5c4736a33c7b7f29a2c34ea9ff9608afc5718d56f6fd6dcbd2d3711a1a49138280a280f35b634e487b7160e01b87526011600452602487fd5b835163718e827560e11b8152600490fd5b825163162908e360e11b8152600490fd5b50346101dc5760203660031901126101dc5760209181906001600160a01b03610e2b6110f9565b1681526006845220549051908152f35b50346101dc5760203660031901126101dc57602091610380906001600160a01b03610e646110f9565b1681526004845282808220549160058652205490611113565b50346101dc5760208060031936011261055a57808061016094610e9e6110f9565b60ff60018060a01b0382168084526004855287842054976005865280852054936006875281862054610ed8610ed2836111f7565b92611277565b92610ee2846113a1565b94885260088952808820549660098a528682808b20549a600a8d52600b828220549d526007828220549e522054169b82519d8e528d01528b015260608a015260808901521660a087015260c086015260e08501526101008401526101208301521515610140820152f35b50346101dc57816003193601126101dc5760025490516001600160a01b039091168152602090f35b50346101dc5760203660031901126101dc5760209181906001600160a01b03610f9b6110f9565b168152600c845220549051908152f35b50346101dc5760203660031901126101dc5760209181906001600160a01b03610fd26110f9565b1681526008845220549051908152f35b50346101dc5760203660031901126101dc57610ffc6110f9565b90611006826117d2565b9161101081611804565b9161101a82611869565b6110238361189f565b9161102d846118e4565b6001600160a01b039094168752600b60205280872054606480820291801590830490911417156110905760c0975061012c90818111156110885750945b815196875260208701528501526060840152608083015260a0820152f35b90509461106a565b634e487b7160e01b88526011600452602488fd5b90503461055a578160031936011261055a576110be6110f9565b83546001600160a01b039290831633036110ea5750168252600d60205281206108a56024358254611113565b63ea8e4eb560e01b8152600490fd5b600435906001600160a01b038216820361110f57565b5f80fd5b9190820180921161112057565b634e487b7160e01b5f52601160045260245ffd5b9190820391821161112057565b6001600160a01b03165f8181526007602052604081205490929060ff1661119e57801561119e5760406111999293600460205261118a8282205460056020528383205490611113565b94815260066020522054611113565b111590565b505090565b90601f8019910116810190811067ffffffffffffffff8211176111c557604052565b634e487b7160e01b5f52604160045260245ffd5b81156111e3570490565b634e487b7160e01b5f52601260045260245ffd5b6001600160a01b03165f90815260066020526040812054909190801561127057600460205261123460408420546005602052604085205490611113565b670de0b6b3a76400009081810291818304149015171561125c576112599293506111d9565b90565b634e487b7160e01b84526011600452602484fd5b505f199150565b6003546001600160a01b0390811691908261129757506112599150611535565b8116905f90828252602080916004825260409586852054600584528786205490600685526112c889882054946113d3565b978752600a855261134c8980892054600b8852818a2054600c8952828b205490600d8a52838c205492600e8b52848d205494519d8e9a8b998a99633bd8fbff60e11b8b5260048b0195926101009794919a9998959261012088019b8852602088015260408701526060860152608085015260a084015260c083015260e08201520152565b03915afa93841561139657508193611365575b50505090565b9091809350813d831161138f575b61137d81836111a3565b810103126103585750515f808061135f565b503d611373565b51913d9150823e3d90fd5b6102bc8110156113cd576101f48110156113c75761012c11156113c2575f90565b600190565b50600290565b50600390565b6001600160a01b03165f908152600860205260409020548015801561140e575b61140957611405620151809142611134565b0490565b505f90565b50804211156113f3565b60018060a01b0316905f918083526020600f81526040938481205462093a8081018091116115215742101561144f575b5050509050565b8281526004825261146b85822054600584528683205490611113565b94856114bb577fafe3516c13315508bf357ee8f9829041e5be2b92304e58694baf666e6c38f1e893949550815b858152600e84528282822055600f8452814291205551908152a2805f8080611448565b83825260068352808220546127109081810291818304149015171561150d577fafe3516c13315508bf357ee8f9829041e5be2b92304e58694baf666e6c38f1e8949596611507916111d9565b91611498565b634e487b7160e01b83526011600452602483fd5b634e487b7160e01b82526011600452602482fd5b61153e816113d3565b5f60b482106117b45750506096905b611556816111f7565b5f905f19810361174c57505060fa905b60018060a01b031690815f52602092600a8452604091825f20545f60148210155f1461173257505060c8905b5f85815260058752848120546402540be40091828210611709575050506115c892916115c36115c392606494611113565b611113565b92825f52600481526115e5825f205460058352835f205490611113565b92805f5260068252825f20545f9480151580611700575b611669575b505090600b915f52525f2054606481029080820460641490151715611120576116359161012c808311611661575b50611113565b8181101561165b5761164691611134565b6103e89081811115611656575090565b905090565b50505f90565b91505f61162f565b612710959295918281029080820484149015171561125c579061168b916111d9565b908111156116a4575050600b906096935b90915f611601565b611388949194908181116116be575b505090600b9161169c565b9091946113871982019182116116ec576096820291808304609614901517156116ec57500492600b5f6116b3565b634e487b7160e01b81526011600452602490fd5b508115156115fc565b6064820291808304606414901517156116ec57506115c3926115c89594926115c3920494611113565b600a820291808304600a14901517156116ec575090611592565b671bc16d674ec80000811061176557505060fa90611566565b6714d1120d7b160000811061177e57505060c890611566565b6710a741a4627800008110611797575050609690611566565b670de0b6b3a7640000116117ae5750606490611566565b90611566565b6096820291808304609614901517156116ec575060b490049061154d565b6117db906113d3565b60b48110156117fe576096810290808204609614901517156111205760b4900490565b50609690565b61180d906111f7565b5f19811461186357671bc16d674ec80000811015611863576714d1120d7b16000081101561185d576710a741a4627800008110156117fe57670de0b6b3a76400001115611858575f90565b606490565b5060c890565b5060fa90565b6001600160a01b03165f908152600a6020526040902054601481101561185d57600a810290808204600a14901517156111205790565b6001600160a01b03165f908152600560205260409020548015611409576402540be40090818110156118dd5760648102908104606403611120570490565b5050606490565b6001600160a01b03165f81815260046020908152604080832054600590925282205461190f91611113565b918152600660205260408120549180158015611997575b61199157612710928381029080820485149015171561150d5790611949916111d9565b90611388928383111561198a57821015611982576113871982019182116116ec576096820291808304609614901517156116ec57500490565b505050609690565b5091505090565b50905090565b50821561192656fea26469706673582212207405b6c51c6cf08f355f3510d1791a379eebe283adcaa10f85e9f61137cb58f964736f6c63430008140033","linkReferences":{}},"methodIdentifiers":{"aaveDebt(address)":"158cda66","accountOpenedAt(address)":"127ab6e2","borrowCount(address)":"71604909","collateralValue(address)":"7544aa44","compoundDebt(address)":"f17877af","creditLimit(address)":"1f429f50","creditScore(address)":"f7e590ee","creditScoreBreakdown(address)":"e3d7a870","delegatedCredit(address)":"d2cd62ad","freeze(address)":"8d1fdf2f","frozen(address)":"d0516650","healthFactor(address)":"6ad9f9df","liquidationCount(address)":"86b8da04","onBorrow(address,uint256)":"f7f11fb7","onLiquidation(address,uint256)":"2720313b","onRepay(address,uint256)":"d8d2c648","oracle()":"7dc0d1d0","pool()":"16f0115b","prevUtilizationBps(address)":"d64ccdb2","prevUtilizationTimestamp(address)":"aecb5604","recordAaveBorrow(address,uint256)":"c56a6a1c","recordAaveRepay(address,uint256)":"dbd476b7","recordCompoundBorrow(address,uint256)":"0a8d55cf","recordCompoundRepay(address,uint256)":"5c961617","repaymentCount(address)":"b06c8d2e","riskTier(address)":"b84d93d4","router()":"f887ea40","scoreBreakdown(address)":"0bf97eac","scoreEngine()":"b4196c8f","setCollateralValue(address,uint256)":"6873509b","setDelegatedCredit(address,uint256)":"6cb80eb5","setPool(address)":"4437152a","setScoreEngine(address)":"d3ccccc4","totalDebt(address)":"1ff517ff","unfreeze(address)":"45c8b1a6","userMetrics(address)":"1f227e48","validateBorrow(address,uint256)":"9c547265"},"id":3}