{
  "abi": [
    {
      "type": "constructor",
      "inputs": [
        {
          "name": "_usdc",
          "type": "address",
          "internalType": "address"
        },
        {
          "name": "_creditManager",
          "type": "address",
          "internalType": "address"
        },
        {
          "name": "_controller",
          "type": "address",
          "internalType": "address"
        }
      ],
      "stateMutability": "nonpayable"
    },
    {
      "type": "function",
      "name": "CONTROLLER",
      "inputs": [],
      "outputs": [
        {
          "name": "",
          "type": "address",
          "internalType": "address"
        }
      ],
      "stateMutability": "view"
    },
    {
      "type": "function",
      "name": "CREDIT_MANAGER",
      "inputs": [],
      "outputs": [
        {
          "name": "",
          "type": "address",
          "internalType": "contract ICreditManager"
        }
      ],
      "stateMutability": "view"
    },
    {
      "type": "function",
      "name": "USDC",
      "inputs": [],
      "outputs": [
        {
          "name": "",
          "type": "address",
          "internalType": "contract IERC20"
        }
      ],
      "stateMutability": "view"
    },
    {
      "type": "function",
      "name": "availableLiquidity",
      "inputs": [],
      "outputs": [
        {
          "name": "",
          "type": "uint256",
          "internalType": "uint256"
        }
      ],
      "stateMutability": "view"
    },
    {
      "type": "function",
      "name": "delegateCredit",
      "inputs": [
        {
          "name": "user",
          "type": "address",
          "internalType": "address"
        },
        {
          "name": "amount",
          "type": "uint256",
          "internalType": "uint256"
        }
      ],
      "outputs": [],
      "stateMutability": "nonpayable"
    },
    {
      "type": "function",
      "name": "deposit",
      "inputs": [
        {
          "name": "amount",
          "type": "uint256",
          "internalType": "uint256"
        }
      ],
      "outputs": [],
      "stateMutability": "nonpayable"
    },
    {
      "type": "function",
      "name": "depositOf",
      "inputs": [
        {
          "name": "lender",
          "type": "address",
          "internalType": "address"
        }
      ],
      "outputs": [
        {
          "name": "",
          "type": "uint256",
          "internalType": "uint256"
        }
      ],
      "stateMutability": "view"
    },
    {
      "type": "function",
      "name": "repay",
      "inputs": [
        {
          "name": "amount",
          "type": "uint256",
          "internalType": "uint256"
        }
      ],
      "outputs": [],
      "stateMutability": "nonpayable"
    },
    {
      "type": "function",
      "name": "totalDelegated",
      "inputs": [],
      "outputs": [
        {
          "name": "",
          "type": "uint256",
          "internalType": "uint256"
        }
      ],
      "stateMutability": "view"
    },
    {
      "type": "function",
      "name": "totalDeposits",
      "inputs": [],
      "outputs": [
        {
          "name": "",
          "type": "uint256",
          "internalType": "uint256"
        }
      ],
      "stateMutability": "view"
    },
    {
      "type": "function",
      "name": "withdraw",
      "inputs": [
        {
          "name": "amount",
          "type": "uint256",
          "internalType": "uint256"
        }
      ],
      "outputs": [],
      "stateMutability": "nonpayable"
    },
    {
      "type": "event",
      "name": "CreditDelegated",
      "inputs": [
        {
          "name": "user",
          "type": "address",
          "indexed": true,
          "internalType": "address"
        },
        {
          "name": "amount",
          "type": "uint256",
          "indexed": false,
          "internalType": "uint256"
        }
      ],
      "anonymous": false
    },
    {
      "type": "event",
      "name": "Deposited",
      "inputs": [
        {
          "name": "user",
          "type": "address",
          "indexed": true,
          "internalType": "address"
        },
        {
          "name": "amount",
          "type": "uint256",
          "indexed": false,
          "internalType": "uint256"
        }
      ],
      "anonymous": false
    },
    {
      "type": "event",
      "name": "Repaid",
      "inputs": [
        {
          "name": "user",
          "type": "address",
          "indexed": true,
          "internalType": "address"
        },
        {
          "name": "amount",
          "type": "uint256",
          "indexed": false,
          "internalType": "uint256"
        }
      ],
      "anonymous": false
    },
    {
      "type": "event",
      "name": "Withdrawn",
      "inputs": [
        {
          "name": "user",
          "type": "address",
          "indexed": true,
          "internalType": "address"
        },
        {
          "name": "amount",
          "type": "uint256",
          "indexed": false,
          "internalType": "uint256"
        }
      ],
      "anonymous": false
    },
    {
      "type": "error",
      "name": "InsufficientCredit",
      "inputs": []
    },
    {
      "type": "error",
      "name": "InvalidAmount",
      "inputs": []
    },
    {
      "type": "error",
      "name": "NotAuthorized",
      "inputs": []
    },
    {
      "type": "error",
      "name": "SafeERC20FailedOperation",
      "inputs": [
        {
          "name": "token",
          "type": "address",
          "internalType": "address"
        }
      ]
    }
  ],
  "bytecode": {
    "object": "0x60e0346100c857601f610a3838819003918201601f19168301916001600160401b038311848410176100cc578084926060946040528339810103126100c857610047816100e0565b61005f6040610058602085016100e0565b93016100e0565b6001600160a01b03918216608052911660a05260c05260405161094390816100f58239608051818181610107015281816102ff01528181610460015261070a015260a05181818161020f015281816103a80152610407015260c05181818160ae01526101bb0152f35b5f80fd5b634e487b7160e01b5f52604160045260245ffd5b51906001600160a01b03821682036100c85756fe6080604081815260049182361015610015575f80fd5b5f92833560e01c91826323e3fbd5146107c2575081632e1a7d4d1461068b578163371fd8e6146103d75781633cdaf25214610393578163743753591461036a5781637d8820971461034d57816380d04de81461032e57816389a30271146102ea57816389c85c6f1461018f578163b6b55f25146100e1575063ee0fc1211461009b575f80fd5b346100dd57816003193601126100dd57517f00000000000000000000000000000000000000000000000000000000000000006001600160a01b03168152602090f35b5080fd5b9190503461018b57602036600319011261018b57813591821561017d575061012b8230337f0000000000000000000000000000000000000000000000000000000000000000610884565b61013682845461082d565b8355338352600260205280832061014e83825461082d565b9055519081527f2da466a7b24304f47e87fa2e1e5a81b9831ce54fec19055ce277ca2f39ba42c460203392a280f35b905163162908e360e11b8152fd5b8280fd5b90503461018b578160031936011261018b576101a96107f6565b6024359290916001600160a01b0391907f0000000000000000000000000000000000000000000000000000000000000000831633036102dc57841561017d5785546101f7600154809261080c565b86116102cd579061020986889361082d565b600155837f000000000000000000000000000000000000000000000000000000000000000016803b1561018b578351636cb80eb560e01b81526001600160a01b03871692810192835260208301889052918391839182908490829060400103925af180156102c3576102a7575b50505192835216907f5a892c006975101cec6efb988e67ee562ded65d3b1ca0c69d893b5127cabf32290602090a280f35b6102b39093929361083a565b6102bf5790845f610276565b8480fd5b83513d84823e3d90fd5b509051638ac4bc7360e01b8152fd5b905163ea8e4eb560e01b8152fd5b5050346100dd57816003193601126100dd57517f00000000000000000000000000000000000000000000000000000000000000006001600160a01b03168152602090f35b5050346100dd57816003193601126100dd576020906001549051908152f35b5050346100dd57816003193601126100dd57602091549051908152f35b5050346100dd57816003193601126100dd5761038c602092546001549061080c565b9051908152f35b5050346100dd57816003193601126100dd57517f00000000000000000000000000000000000000000000000000000000000000006001600160a01b03168152602090f35b90503461018b576020806003193601126105c457813592831561067c578051631ff517ff60e01b815233848201527f00000000000000000000000000000000000000000000000000000000000000006001600160a01b0316948382602481895afa918215610623578792610649575b50811561063957818111156106315750935b6104848530337f0000000000000000000000000000000000000000000000000000000000000000610884565b803b1561062d578151631b1a58c960e31b81523385820190815260208101879052879082908190604001038183865af1801561062357610610575b50815163d2cd62ad60e01b81523385820152938691908486602481855afa9586156106065783966105cf575b50858711156105c857855b8661052b575b83887f0516911bcc3a0a7412a44601057c0a0a1ec628bde049a84284bc4288665344888888519283523392a280f35b866105359161080c565b823b156105c4578451636cb80eb560e01b815233928101928352602083019190915291839183919082908490829060400103925af180156102c3576105b0575b50506105a47f0516911bcc3a0a7412a44601057c0a0a1ec628bde049a84284bc4288665344889360015461080c565b600155845f80806104fc565b6105b99061083a565b6102bf57845f610575565b8380fd5b86956104f6565b85809297508194503d83116105ff575b6105e98183610862565b810103126105fb57869151945f6104eb565b5f80fd5b503d6105df565b84513d85823e3d90fd5b61061c9096919661083a565b945f6104bf565b83513d89823e3d90fd5b8580fd5b905093610458565b825163162908e360e11b81528590fd5b9091508381813d8311610675575b6106618183610862565b810103126106715751905f610446565b8680fd5b503d610657565b5163162908e360e11b81529050fd5b9190503461018b57602036600319011261018b57813591821561017d57338452600260205282828520541061017d57826106c985546001549061080c565b106107b45733845260026020528184206106e484825461080c565b90556106f183855461080c565b8455815163a9059cbb60e01b85523382526024849052907f000000000000000000000000000000000000000000000000000000000000000060208660448180855af16001875114811615610795575b8385521561077857505050519081527f7084f5476618d8e60b11ef0d7d3f06914655adb8793e28ff7f018d4c76d505d560203392a280f35b635274afe760e01b83526001600160a01b03169082015260249150fd5b60018115166107ab57813b15153d151616610740565b833d88823e3d90fd5b9051638ac4bc7360e01b8152fd5b8490843461018b57602036600319011261018b576020926001600160a01b036107e96107f6565b1681526002845220548152f35b600435906001600160a01b03821682036105fb57565b9190820391821161081957565b634e487b7160e01b5f52601160045260245ffd5b9190820180921161081957565b67ffffffffffffffff811161084e57604052565b634e487b7160e01b5f52604160045260245ffd5b90601f8019910116810190811067ffffffffffffffff82111761084e57604052565b6040516323b872dd60e01b5f9081526001600160a01b03938416600452938316602452604494909452909160209060648180855af160015f51148116156108ee575b836040525f606052156108d857505050565b635274afe760e01b835216600482015260249150fd5b600181151661090457813b15153d1516166108c6565b833d5f823e3d90fdfea26469706673582212203112aa24b3b516fc750f9ad4f86f1209cd1fc6349df704e6329e1391fd8ddbff64736f6c63430008140033",
    "linkReferences": {}
  },
  "methodIdentifiers": {
    "CONTROLLER()": "ee0fc121",
    "CREDIT_MANAGER()": "3cdaf252",
    "USDC()": "89a30271",
    "availableLiquidity()": "74375359",
    "delegateCredit(address,uint256)": "89c85c6f",
    "deposit(uint256)": "b6b55f25",
    "depositOf(address)": "23e3fbd5",
    "repay(uint256)": "371fd8e6",
    "totalDelegated()": "80d04de8",
    "totalDeposits()": "7d882097",
    "withdraw(uint256)": "2e1a7d4d"
  },
  "id": 12
}