{
  "abi": [
    {
      "type": "constructor",
      "inputs": [
        {
          "name": "_manager",
          "type": "address",
          "internalType": "address"
        },
        {
          "name": "_oracle",
          "type": "address",
          "internalType": "address"
        },
        {
          "name": "_liquidationController",
          "type": "address",
          "internalType": "address"
        },
        {
          "name": "_insurancePool",
          "type": "address",
          "internalType": "address"
        }
      ],
      "stateMutability": "nonpayable"
    },
    {
      "type": "function",
      "name": "LIQUIDATION_CONTROLLER",
      "inputs": [],
      "outputs": [
        {
          "name": "",
          "type": "address",
          "internalType": "contract LiquidationController"
        }
      ],
      "stateMutability": "view"
    },
    {
      "type": "function",
      "name": "ORACLE",
      "inputs": [],
      "outputs": [
        {
          "name": "",
          "type": "address",
          "internalType": "contract CreditOracle"
        }
      ],
      "stateMutability": "view"
    },
    {
      "type": "function",
      "name": "OWNER",
      "inputs": [],
      "outputs": [
        {
          "name": "",
          "type": "address",
          "internalType": "address"
        }
      ],
      "stateMutability": "view"
    },
    {
      "type": "function",
      "name": "borrowFromAave",
      "inputs": [
        {
          "name": "adapter",
          "type": "address",
          "internalType": "address"
        },
        {
          "name": "asset",
          "type": "address",
          "internalType": "address"
        },
        {
          "name": "amount",
          "type": "uint256",
          "internalType": "uint256"
        }
      ],
      "outputs": [],
      "stateMutability": "nonpayable"
    },
    {
      "type": "function",
      "name": "borrowFromCompound",
      "inputs": [
        {
          "name": "adapter",
          "type": "address",
          "internalType": "address"
        },
        {
          "name": "amount",
          "type": "uint256",
          "internalType": "uint256"
        }
      ],
      "outputs": [],
      "stateMutability": "nonpayable"
    },
    {
      "type": "function",
      "name": "closeFactorBps",
      "inputs": [],
      "outputs": [
        {
          "name": "",
          "type": "uint256",
          "internalType": "uint256"
        }
      ],
      "stateMutability": "view"
    },
    {
      "type": "function",
      "name": "creditManager",
      "inputs": [],
      "outputs": [
        {
          "name": "",
          "type": "address",
          "internalType": "contract ICreditManager"
        }
      ],
      "stateMutability": "view"
    },
    {
      "type": "function",
      "name": "creditPool",
      "inputs": [],
      "outputs": [
        {
          "name": "",
          "type": "address",
          "internalType": "contract CreditPool"
        }
      ],
      "stateMutability": "view"
    },
    {
      "type": "function",
      "name": "delegateCredit",
      "inputs": [
        {
          "name": "user",
          "type": "address",
          "internalType": "address"
        },
        {
          "name": "amount",
          "type": "uint256",
          "internalType": "uint256"
        }
      ],
      "outputs": [],
      "stateMutability": "nonpayable"
    },
    {
      "type": "function",
      "name": "insurancePool",
      "inputs": [],
      "outputs": [
        {
          "name": "",
          "type": "address",
          "internalType": "contract InsurancePool"
        }
      ],
      "stateMutability": "view"
    },
    {
      "type": "function",
      "name": "isBorrower",
      "inputs": [
        {
          "name": "",
          "type": "address",
          "internalType": "address"
        }
      ],
      "outputs": [
        {
          "name": "",
          "type": "bool",
          "internalType": "bool"
        }
      ],
      "stateMutability": "view"
    },
    {
      "type": "function",
      "name": "liquidate",
      "inputs": [
        {
          "name": "user",
          "type": "address",
          "internalType": "address"
        },
        {
          "name": "repayAmount",
          "type": "uint256",
          "internalType": "uint256"
        },
        {
          "name": "asset",
          "type": "address",
          "internalType": "address"
        }
      ],
      "outputs": [],
      "stateMutability": "nonpayable"
    },
    {
      "type": "function",
      "name": "protocolCount",
      "inputs": [
        {
          "name": "",
          "type": "address",
          "internalType": "address"
        }
      ],
      "outputs": [
        {
          "name": "",
          "type": "uint256",
          "internalType": "uint256"
        }
      ],
      "stateMutability": "view"
    },
    {
      "type": "function",
      "name": "repayToAave",
      "inputs": [
        {
          "name": "adapter",
          "type": "address",
          "internalType": "address"
        },
        {
          "name": "asset",
          "type": "address",
          "internalType": "address"
        },
        {
          "name": "amount",
          "type": "uint256",
          "internalType": "uint256"
        }
      ],
      "outputs": [],
      "stateMutability": "nonpayable"
    },
    {
      "type": "function",
      "name": "repayToCompound",
      "inputs": [
        {
          "name": "adapter",
          "type": "address",
          "internalType": "address"
        },
        {
          "name": "asset",
          "type": "address",
          "internalType": "address"
        },
        {
          "name": "amount",
          "type": "uint256",
          "internalType": "uint256"
        }
      ],
      "outputs": [],
      "stateMutability": "nonpayable"
    },
    {
      "type": "function",
      "name": "scoreEngine",
      "inputs": [],
      "outputs": [
        {
          "name": "",
          "type": "address",
          "internalType": "contract ICreditScoreEngine"
        }
      ],
      "stateMutability": "view"
    },
    {
      "type": "function",
      "name": "setBorrower",
      "inputs": [
        {
          "name": "borrower",
          "type": "address",
          "internalType": "address"
        },
        {
          "name": "allowed",
          "type": "bool",
          "internalType": "bool"
        }
      ],
      "outputs": [],
      "stateMutability": "nonpayable"
    },
    {
      "type": "function",
      "name": "setCloseFactorBps",
      "inputs": [
        {
          "name": "bps",
          "type": "uint256",
          "internalType": "uint256"
        }
      ],
      "outputs": [],
      "stateMutability": "nonpayable"
    },
    {
      "type": "function",
      "name": "setCreditManager",
      "inputs": [
        {
          "name": "_cm",
          "type": "address",
          "internalType": "address"
        }
      ],
      "outputs": [],
      "stateMutability": "nonpayable"
    },
    {
      "type": "function",
      "name": "setCreditPool",
      "inputs": [
        {
          "name": "pool",
          "type": "address",
          "internalType": "address"
        }
      ],
      "outputs": [],
      "stateMutability": "nonpayable"
    },
    {
      "type": "function",
      "name": "setInsurancePool",
      "inputs": [
        {
          "name": "pool",
          "type": "address",
          "internalType": "address"
        }
      ],
      "outputs": [],
      "stateMutability": "nonpayable"
    },
    {
      "type": "function",
      "name": "setManagerPool",
      "inputs": [
        {
          "name": "pool",
          "type": "address",
          "internalType": "address"
        }
      ],
      "outputs": [],
      "stateMutability": "nonpayable"
    },
    {
      "type": "function",
      "name": "setScoreEngine",
      "inputs": [
        {
          "name": "engine",
          "type": "address",
          "internalType": "address"
        }
      ],
      "outputs": [],
      "stateMutability": "nonpayable"
    },
    {
      "type": "function",
      "name": "syncAaveCollateral",
      "inputs": [
        {
          "name": "aavePool",
          "type": "address",
          "internalType": "address"
        },
        {
          "name": "user",
          "type": "address",
          "internalType": "address"
        }
      ],
      "outputs": [],
      "stateMutability": "nonpayable"
    },
    {
      "type": "function",
      "name": "syncCompoundCollateral",
      "inputs": [
        {
          "name": "cToken",
          "type": "address",
          "internalType": "address"
        },
        {
          "name": "user",
          "type": "address",
          "internalType": "address"
        }
      ],
      "outputs": [],
      "stateMutability": "nonpayable"
    },
    {
      "type": "function",
      "name": "unfreezeAccount",
      "inputs": [
        {
          "name": "user",
          "type": "address",
          "internalType": "address"
        }
      ],
      "outputs": [],
      "stateMutability": "nonpayable"
    },
    {
      "type": "event",
      "name": "BorrowedFromAave",
      "inputs": [
        {
          "name": "user",
          "type": "address",
          "indexed": true,
          "internalType": "address"
        },
        {
          "name": "asset",
          "type": "address",
          "indexed": false,
          "internalType": "address"
        },
        {
          "name": "amount",
          "type": "uint256",
          "indexed": false,
          "internalType": "uint256"
        }
      ],
      "anonymous": false
    },
    {
      "type": "event",
      "name": "BorrowedFromCompound",
      "inputs": [
        {
          "name": "user",
          "type": "address",
          "indexed": true,
          "internalType": "address"
        },
        {
          "name": "amount",
          "type": "uint256",
          "indexed": false,
          "internalType": "uint256"
        }
      ],
      "anonymous": false
    },
    {
      "type": "event",
      "name": "BorrowerWhitelisted",
      "inputs": [
        {
          "name": "borrower",
          "type": "address",
          "indexed": true,
          "internalType": "address"
        },
        {
          "name": "allowed",
          "type": "bool",
          "indexed": false,
          "internalType": "bool"
        }
      ],
      "anonymous": false
    },
    {
      "type": "event",
      "name": "CloseFactorUpdated",
      "inputs": [
        {
          "name": "bps",
          "type": "uint256",
          "indexed": false,
          "internalType": "uint256"
        }
      ],
      "anonymous": false
    },
    {
      "type": "event",
      "name": "CreditDelegated",
      "inputs": [
        {
          "name": "user",
          "type": "address",
          "indexed": true,
          "internalType": "address"
        },
        {
          "name": "amount",
          "type": "uint256",
          "indexed": false,
          "internalType": "uint256"
        }
      ],
      "anonymous": false
    },
    {
      "type": "event",
      "name": "CreditManagerSet",
      "inputs": [
        {
          "name": "manager",
          "type": "address",
          "indexed": false,
          "internalType": "address"
        }
      ],
      "anonymous": false
    },
    {
      "type": "event",
      "name": "CreditPoolSet",
      "inputs": [
        {
          "name": "pool",
          "type": "address",
          "indexed": false,
          "internalType": "address"
        }
      ],
      "anonymous": false
    },
    {
      "type": "event",
      "name": "InsurancePoolSet",
      "inputs": [
        {
          "name": "pool",
          "type": "address",
          "indexed": false,
          "internalType": "address"
        }
      ],
      "anonymous": false
    },
    {
      "type": "event",
      "name": "Liquidated",
      "inputs": [
        {
          "name": "user",
          "type": "address",
          "indexed": true,
          "internalType": "address"
        },
        {
          "name": "liquidator",
          "type": "address",
          "indexed": true,
          "internalType": "address"
        },
        {
          "name": "asset",
          "type": "address",
          "indexed": true,
          "internalType": "address"
        },
        {
          "name": "repayAmount",
          "type": "uint256",
          "indexed": false,
          "internalType": "uint256"
        },
        {
          "name": "seizeAmount",
          "type": "uint256",
          "indexed": false,
          "internalType": "uint256"
        },
        {
          "name": "bonusPaid",
          "type": "uint256",
          "indexed": false,
          "internalType": "uint256"
        },
        {
          "name": "bonusShortfall",
          "type": "uint256",
          "indexed": false,
          "internalType": "uint256"
        }
      ],
      "anonymous": false
    },
    {
      "type": "event",
      "name": "RepaidToAave",
      "inputs": [
        {
          "name": "user",
          "type": "address",
          "indexed": true,
          "internalType": "address"
        },
        {
          "name": "asset",
          "type": "address",
          "indexed": false,
          "internalType": "address"
        },
        {
          "name": "amount",
          "type": "uint256",
          "indexed": false,
          "internalType": "uint256"
        }
      ],
      "anonymous": false
    },
    {
      "type": "event",
      "name": "RepaidToCompound",
      "inputs": [
        {
          "name": "user",
          "type": "address",
          "indexed": true,
          "internalType": "address"
        },
        {
          "name": "asset",
          "type": "address",
          "indexed": false,
          "internalType": "address"
        },
        {
          "name": "amount",
          "type": "uint256",
          "indexed": false,
          "internalType": "uint256"
        }
      ],
      "anonymous": false
    },
    {
      "type": "event",
      "name": "ScoreEngineSet",
      "inputs": [
        {
          "name": "engine",
          "type": "address",
          "indexed": false,
          "internalType": "address"
        }
      ],
      "anonymous": false
    },
    {
      "type": "error",
      "name": "AlreadySet",
      "inputs": []
    },
    {
      "type": "error",
      "name": "InsufficientCredit",
      "inputs": []
    },
    {
      "type": "error",
      "name": "InvalidAmount",
      "inputs": []
    },
    {
      "type": "error",
      "name": "InvalidAsset",
      "inputs": []
    },
    {
      "type": "error",
      "name": "NotAuthorized",
      "inputs": []
    },
    {
      "type": "error",
      "name": "NotLiquidatable",
      "inputs": []
    },
    {
      "type": "error",
      "name": "OracleUnhealthy",
      "inputs": []
    },
    {
      "type": "error",
      "name": "RepayExceedsDebt",
      "inputs": []
    },
    {
      "type": "error",
      "name": "SafeERC20FailedOperation",
      "inputs": [
        {
          "name": "token",
          "type": "address",
          "internalType": "address"
        }
      ]
    },
    {
      "type": "error",
      "name": "ZeroAddress",
      "inputs": []
    }
  ],
  "bytecode": {
    "object": "0x60e0346200019257601f620024d438819003918201601f19168301916001600160401b03831184841017620001965780849260809460405283398101031262000192576200004d81620001aa565b906200005c60208201620001aa565b6200007860606200007060408501620001aa565b9301620001aa565b6113886004556001600160a01b0391821692831562000180578216938415620001805782168062000167575b5016806200014c575b5060805260a0523360c0526040516123149081620001c082396080518181816101800152818161049601528181610a8a015281816111af015281816119430152611f30015260a0518181816108be01526119ae015260c05181818161038b0152818161091401528181610bc101528181610ed9015281816115ae015281816116e3015281816117c00152818161186201528181611e9e0152611f9c0152f35b600280546001600160a01b0319169190911790555f620000ad565b5f80546001600160a01b031916919091178155620000a4565b60405163d92e233d60e01b8152600490fd5b5f80fd5b634e487b7160e01b5f52604160045260245ffd5b51906001600160a01b0382168203620001925756fe6080604090808252600480361015610015575f80fd5b5f91823560e01c908163117803e314611f88575080632ff1ab9514611f5f57806338013f0214611f1b5780634422bc5a14611e695780634654440b14611e4a5780634914c008146118ea5780634c67ba891461183b57806369dd793b1461179a5780636aaa316214611762578063788649ea146116bd57806389c85c6f146115845780638afda8091461116d5780639cff7b4e14610f7d578063a94c487e14610eb4578063aad4f7ff14610ccb578063ab2adc0014610ca2578063b1a4170214610b9b578063b4196c8f14610b72578063b4639c0414610a48578063c12c21c014610a20578063d3ccccc4146108ed578063dfcf3ce0146108a9578063e3f6ec881461045f578063eaf6e48314610421578063fdeeadd0146103735763ffddd10f1461013f575f80fd5b3461036f578260031936011261036f57610157611fcb565b92610160611fe1565b8151637560fdd160e01b81526001600160a01b03959193919060208184817f00000000000000000000000000000000000000000000000000000000000000008b165afa908115610365578691610337575b501561032857848091845160208101906361bfb47160e11b82528988166024820152602481526101e081612054565b51915afa946101ed6120aa565b95156103195785608081879851810103126102f35761021e81608086670de0b6b3a7640000940151910151906120e9565b049080865416803b156103155784516355b55c9d60e11b81526001600160a01b03871685820190815260208101859052909188918391908290849082906040015b03925af1801561030b579087916102f7575b50506001541680610280578580f35b803b156102f3578351632eb6cc9f60e21b81526001600160a01b039095169285019283526020830191909152849184919082908490829060400103925af19081156102ea57506102d3575b808080808580f35b6102dc9061202c565b6102e757805f6102cb565b80fd5b513d84823e3d90fd5b8580fd5b6103009061202c565b6102f357855f610271565b85513d89823e3d90fd5b8680fd5b50905163162908e360e11b8152fd5b5090516354c1187160e11b8152fd5b610358915060203d811161035e575b6103508183612070565b810190612092565b5f6101b1565b503d610346565b84513d88823e3d90fd5b5080fd5b50823461041d57602036600319011261041d578135917f00000000000000000000000000000000000000000000000000000000000000006001600160a01b0316330361040f5782158015610404575b6103f65791602091817fd88469f5aa8525dce9ae07fa2d8df83e2ec766fc060483b66a0082ff36d6582d945551908152a180f35b905163162908e360e11b8152fd5b5061271083116103c2565b905163ea8e4eb560e01b8152fd5b8280fd5b82843461036f57602036600319011261036f5760209160ff9082906001600160a01b0361044c611fcb565b1681526005855220541690519015158152f35b503461036f5761046e36611ff7565b9194909282156103f6578151637560fdd160e01b81526020966001600160a01b0391888185817f000000000000000000000000000000000000000000000000000000000000000087165afa90811561082357889161088c575b501561087c5786548451639c54726560e01b81523385820190815260208101889052918416918a90829081906040010381855afa908115610872578991610855575b501561084557803b1561082d57845163f7f11fb760e01b815233858201908152602081018890529091899183919082908490829060400103925af1801561082357908891610831575b50548216803b1561082d57845163315a9a8760e21b815233858201908152602081018890529091899183919082908490829060400103925af180156108235790889161080f575b50506105a43361213b565b3388526006895284882055816001541680610678575b50869750959293949516803b1561041d578351636c665a5560e01b81526001600160a01b03871692810192835260208301869052336040840152918391839182908490829060600103925af1801561066e57610656575b5050516001600160a01b039092168252602082015233907ffd2d3da99c0134cc39fe3f75798be9712d87e6f96dddd6b89b0eaa044a5cf28e9080604081015b0390a280f35b61065f9061202c565b61066a57835f610611565b8380fd5b83513d84823e3d90fd5b875485516301f429f560e41b8152338682015299908416818b602481845afa9a8b156107d6578a9b6107e0575b5081602491885192838092631ff517ff60e01b8252338b8301525afa9081156107d6578a916107a5575b508a156107945761271090818102918183041490151715610781576106fc8a9b6006929b98999a9b612110565b915b338852528686205490823b15610315578751630a825ca160e21b815233878201908152602081018b90526040810193909352606083019190915291869183919082908490829060800103925af1801561077757908591610763575b50969594936105ba565b61076c9061202c565b61066a57835f610759565b86513d87823e3d90fd5b634e487b7160e01b8a526011865260248afd5b5088995060068996979899916106fe565b90508181813d83116107cf575b6107bc8183612070565b810103126107cb57515f6106cf565b5f80fd5b503d6107b2565b87513d8c823e3d90fd5b909a508181813d8311610808575b6107f88183612070565b810103126107cb575199816106a5565b503d6107ee565b6108189061202c565b61031557865f610599565b85513d8a823e3d90fd5b8780fd5b61083a9061202c565b61031557865f610552565b8451638ac4bc7360e01b81528490fd5b61086c91508a3d8c1161035e576103508183612070565b5f610509565b86513d8b823e3d90fd5b83516354c1187160e11b81528390fd5b6108a39150893d8b1161035e576103508183612070565b5f6104c7565b82843461036f578160031936011261036f57517f00000000000000000000000000000000000000000000000000000000000000006001600160a01b03168152602090f35b50823461041d57602036600319011261041d57610908611fcb565b6001600160a01b0392907f000000000000000000000000000000000000000000000000000000000000000084163303610a11578316928315610a0257848091856bffffffffffffffffffffffff60a01b600154161760015581541684518260208201916334f3333160e21b83528860248201526024815261098881612054565b51925af16109946120aa565b50156109c857507fd7b0a0e9dc0ca7f1c619a79f6eb2ae0c23648f3521570199efb8fac83414b4289160209151908152a180f35b6020606492519162461bcd60e51b835282015260156024820152741cd95d14d8dbdc99515b99da5b994819985a5b1959605a1b6044820152fd5b50905163d92e233d60e01b8152fd5b50905163ea8e4eb560e01b8152fd5b82843461036f578160031936011261036f57905490516001600160a01b039091168152602090f35b503461036f578260031936011261036f57610a61611fcb565b92610a6a611fe1565b8151637560fdd160e01b81526001600160a01b03959193919060208184817f00000000000000000000000000000000000000000000000000000000000000008b165afa908115610365578691610b54575b50156103285784809184516020810190632fe4a15f60e21b8252898816602482015260248152610aea81612054565b51915afa94610af76120aa565b9515610319578560c081879851810103126102f357602001519080865416803b15610315578451631ac8967560e01b81526001600160a01b038716858201908152602081018590529091889183919082908490829060400161025f565b610b6c915060203d811161035e576103508183612070565b5f610abb565b82843461036f578160031936011261036f5760015490516001600160a01b039091168152602090f35b50823461041d57602036600319011261041d57610bb6611fcb565b916001600160a01b037f000000000000000000000000000000000000000000000000000000000000000081163303610a115760035493818516610c92578116938415610c82576001600160a01b031916841760035584548592911690813b1561041d578460248492838751958694859363221b8a9560e11b85528401525af1801561066e57610c6e575b507fdd2a652bd4ef74c5d65aa6c4e47be084fcb1a3d6a2e9c19c49aa1051d9f8d38b6020848451908152a180f35b610c779061202c565b61041d578284610c40565b835163d92e233d60e01b81528390fd5b835163a741a04560e01b81528390fd5b82843461036f578160031936011261036f5760025490516001600160a01b039091168152602090f35b50823461041d57610cdb36611ff7565b92918394919415610319578591906001600160a01b03908190610d028782338b8616612255565b16803b1561066a57845163acb7081560e01b81528381018781523360208201529091859183919082908490829060400103925af18015610e8257908491610ea0575b50548116803b1561066a578451631b1a58c960e31b815233848201908152602081018890529091859183919082908490829060400103925af18015610e8257908491610e8c575b50548116803b1561066a578451635c96161760e01b815233848201908152602081018890529091859183919082908490829060400103925af18015610e8257908491610e6e575b5050600154169081610e24575b505090516001600160a01b03909316835250602082015233907ffd3e039ab829362d6561aec099baa6797fb3dae9f66d49ee5cdd7f96e7800eef908060408101610650565b813b1561041d5782916024839286519485938492630616ad4160e41b845233908401525af1801561066e57610e5a575b80610ddf565b610e639061202c565b61066a578385610e54565b610e779061202c565b61041d578288610dd2565b85513d86823e3d90fd5b610e959061202c565b61041d578288610d8b565b610ea99061202c565b61041d578288610d44565b50823461041d57602036600319011261041d57610ecf611fcb565b6001600160a01b037f000000000000000000000000000000000000000000000000000000000000000081163303610f6e5760025491818316610f5e5716928315610f5057506001600160a01b0319168217600255519081527fdb94373ec3215b3142c9088cb1f834141c88090d24a7172315200cd92b85306590602090a180f35b825163d92e233d60e01b8152fd5b5050505163a741a04560e01b8152fd5b50505163ea8e4eb560e01b8152fd5b50823461041d57610f8d36611ff7565b92918394919415610319578591906001600160a01b03908190610fb48782338b8616612255565b16803b1561066a57845163173aba7160e21b81526001600160a01b038816848201908152602081018890523360408201529091859183919082908490829060600103925af18015610e8257908491611159575b50548116803b1561066a578451631b1a58c960e31b815233848201908152602081018890529091859183919082908490829060400103925af18015610e8257908491611145575b50548116803b1561066a57845163dbd476b760e01b815233848201908152602081018890529091859183919082908490829060400103925af18015610e8257908491611131575b50506001541690816110e7575b505090516001600160a01b03909316835250602082015233907f3ba6ff205d7c5853507674758a3e421dda9cd10e4d4966d055f5b5034aa838af908060408101610650565b813b1561041d5782916024839286519485938492630616ad4160e41b845233908401525af1801561066e5761111d575b806110a2565b6111269061202c565b61066a578385611117565b61113a9061202c565b61041d578288611095565b61114e9061202c565b61041d57828861104e565b6111629061202c565b61041d578288611007565b50823461041d578060031936011261041d57611187611fcb565b602435928315611576578251637560fdd160e01b81526020926001600160a01b0391848185817f000000000000000000000000000000000000000000000000000000000000000087165afa90811561156c57889161154f575b501561153f5786548551639c54726560e01b81523385820190815260208101899052918416918690829081906040010381855afa908115611535578991611518575b5015611508579081889493923b156114f057865163f7f11fb760e01b815233858201908152602081018a90529091869183919082908490829060400103925af18015611460579085916114f4575b50548216803b156114f0578651630a8d55cf60e01b815233858201908152602081018a90529091869183919082908490829060400103925af18015611460579085916114dc575b50506112c23361213b565b3385526006865286852055816001541680611361575b5016803b1561041d578451630967fa2960e31b81529182018681523360208201528391839182908490829060400103925af1801561135757611343575b50507f41df2f77a26bb1fe0fad3936f0ada4b3d8d894577ecd97d17fe500d3298d72ff91519283523392a280f35b61134c9061202c565b61066a578385611315565b84513d84823e3d90fd5b9091809394541686516301f429f560e41b815233868201528681602481855afa9081156114a45787908b926114ae575b508851631ff517ff60e01b815233888201529192829060249082905afa9081156114a4578a91611477575b5089821561146a575061271090818102918183041490151715610781578995949392916113e891612110565b338652600687528786205490823b15610315578851630a825ca160e21b815233878201908152602081018c90526040810193909352606083019190915291869183919082908490829060800103925af180156114605790859161144c575b506112d8565b6114559061202c565b61066a578389611446565b87513d87823e3d90fd5b95949392915050846113e8565b90508681813d831161149d575b61148e8183612070565b810103126107cb57518a6113bc565b503d611484565b88513d8c823e3d90fd5b809250813d83116114d5575b6114c48183612070565b810103126107cb5751866024611391565b503d6114ba565b6114e59061202c565b61066a5783896112b7565b8480fd5b6114fd9061202c565b61066a578389611270565b8551638ac4bc7360e01b81528490fd5b61152f9150863d881161035e576103508183612070565b89611222565b87513d8b823e3d90fd5b84516354c1187160e11b81528390fd5b6115669150853d871161035e576103508183612070565b886111e0565b86513d8a823e3d90fd5b825163162908e360e11b8152fd5b50823461041d578060031936011261041d5761159e611fcb565b60243591906001600160a01b03907f0000000000000000000000000000000000000000000000000000000000000000821633036116ad57816003541691821561169d57811694851561168f5784156116815790829187933b1561066a5784516389c85c6f60e01b81526001600160a01b03909216908201908152602081018690529091839183919082908490829060400103925af1801561066e5761166d575b50507f5a892c006975101cec6efb988e67ee562ded65d3b1ca0c69d893b5127cabf3229160209151908152a280f35b6116769061202c565b61066a57838561163e565b835163162908e360e11b8152fd5b835163d92e233d60e01b8152fd5b835163ea8e4eb560e01b81528690fd5b825163ea8e4eb560e01b81528590fd5b503461036f57602036600319011261036f576116d7611fcb565b6001600160a01b0393907f00000000000000000000000000000000000000000000000000000000000000008516330361175457848495855416803b156102f357859283602492865197889586946322e458d360e11b865216908401525af19081156102ea57506117445750f35b61174d9061202c565b6102e75780f35b505163ea8e4eb560e01b8152fd5b82843461036f57602036600319011261036f5760209181906001600160a01b0361178a611fcb565b1681526006845220549051908152f35b50823461041d57602036600319011261041d576117b5611fcb565b6001600160a01b03907f000000000000000000000000000000000000000000000000000000000000000082163303610f6e571691821561182d575082546001600160a01b03191682178355519081527f0d5d956af0a72c9a7a98c60bdcbfefb5ea3d0ec6ab674d05db515c15f95a49eb90602090a180f35b905163d92e233d60e01b8152fd5b50913461036f57602036600319011261036f57611856611fcb565b6001600160a01b0391907f0000000000000000000000000000000000000000000000000000000000000000831633036118da5782169182156118ca5793839484541692833b156114f05760248592838551968794859363221b8a9560e11b85528401525af19081156102ea57506117445750f35b815163d92e233d60e01b81528590fd5b815163ea8e4eb560e01b81528590fd5b5082903461041d57606036600319011261041d57611906611fcb565b6044356001600160a01b038181169492936024803594919387900361082d5784958515611e3a578251637560fdd160e01b815260209590868183817f00000000000000000000000000000000000000000000000000000000000000008a165afa908115611c51578b91611e1d575b5015611e0f57848a5416845190636ad9f9df60e01b825286841698898484015288838781855afa928315611dae578d93611de0575b508c887f0000000000000000000000000000000000000000000000000000000000000000169388519063211a444360e01b8252868201528a818981885afa918215611dd55791611db8575b5015611d6b57888a87895180958193631ff517ff60e01b8352898301525afa918215611dae578d92611d7b575b508115611d6b57612710611a368554846120e9565b04809111611d63575b508911611d545785600254168015611d4457878391875192838092634800d97f60e01b82525afa908115611cbe579087918d91611d06575b50168a03611cf7579086849286519586809263ed22ba6960e01b82528d868301525afa938415611c51578b94611cc8575b50611ab3898561212e565b92611ac08a30338e612255565b8b8781541691823b1561036f578751632720313b60e01b81526001600160a01b03909116848201908152602081018d90529092839182908490829060400103925af18015611cbe57611cab575b508a866001541680611c5b575b5087819785611beb575b50505085890190818a11611bd957855163a9059cbb60e01b8d52338252918352878c604481808f5af160018d5114811615611bba575b82875215611ba95750505083611b6f9161212e565b93825196875286015284015260608301527f79464c6994e339001152c33d80fa9a7238ecd8cd302420e44a3824c58d6c064e60803393a480f35b635274afe760e01b825281018a9052fd5b6001811516611bd0578b3b15153d151616611b5a565b823d8e823e3d90fd5b634e487b7160e01b8c5260119052818bfd5b909192975060025416838751809481936314a1362b60e01b8352888c8401525af1908115611c51578b91611c24575b50948a878d611b24565b90508681813d8311611c4a575b611c3b8183612070565b810103126107cb57518b611c1a565b503d611c31565b85513d8d823e3d90fd5b803b1561036f57818091858c8a519485938492631142f76560e01b8452898401525af18015611ca15715611b1a57611c929061202c565b611c9d578a8c611b1a565b8a80fd5b87513d84823e3d90fd5b611cb7909b919b61202c565b998b611b0d565b86513d8e823e3d90fd5b9093508681813d8311611cf0575b611ce08183612070565b81010312611c9d5751928b611aa8565b503d611cd6565b508351636448d6e960e11b8152fd5b809250898092503d8311611d3d575b611d1f8183612070565b81010312611d3957518681168103611d395786908d611a77565b8b80fd5b503d611d15565b855163ea8e4eb560e01b81528390fd5b50835163718e827560e11b8152fd5b99508c611a3f565b8651636ef5bcdd60e11b81528490fd5b9091508881813d8311611da7575b611d938183612070565b81010312611da35751908d611a21565b8c80fd5b503d611d89565b87513d8f823e3d90fd5b611dcf91508a3d8c1161035e576103508183612070565b8e6119f4565b8951903d90823e3d90fd5b9092508881813d8311611e08575b611df88183612070565b81010312611da35751918d6119a9565b503d611dee565b83516354c1187160e11b8152fd5b611e349150873d891161035e576103508183612070565b8b611974565b825163162908e360e11b81528590fd5b5082903461041d578260031936011261041d5760209250549051908152f35b5082903461041d578160031936011261041d57611e84611fcb565b90602435918215158093036114f0576001600160a01b03917f000000000000000000000000000000000000000000000000000000000000000083163303611f0d5750916020917fc06b3ea10f261e1046d2465e60a4d2728421b1da49c730dd4663b047b9b288639316938486526005835280862060ff1981541660ff841617905551908152a280f35b845163ea8e4eb560e01b8152fd5b82843461036f578160031936011261036f57517f00000000000000000000000000000000000000000000000000000000000000006001600160a01b03168152602090f35b82843461036f578160031936011261036f5760035490516001600160a01b039091168152602090f35b83903461036f578160031936011261036f577f00000000000000000000000000000000000000000000000000000000000000006001600160a01b03168152602090f35b600435906001600160a01b03821682036107cb57565b602435906001600160a01b03821682036107cb57565b60609060031901126107cb576001600160a01b039060043582811681036107cb579160243590811681036107cb579060443590565b67ffffffffffffffff811161204057604052565b634e487b7160e01b5f52604160045260245ffd5b6060810190811067ffffffffffffffff82111761204057604052565b90601f8019910116810190811067ffffffffffffffff82111761204057604052565b908160209103126107cb575180151581036107cb5790565b3d156120e4573d9067ffffffffffffffff821161204057604051916120d9601f8201601f191660200184612070565b82523d5f602084013e565b606090565b818102929181159184041417156120fc57565b634e487b7160e01b5f52601160045260245ffd5b811561211a570490565b634e487b7160e01b5f52601260045260245ffd5b919082039182116120fc57565b5f8054604051630ac66d3360e11b81526001600160a01b039384166004820181905292938493602093909116918381602481865afa90811561224a57859161221d575b50612214575b829060246040518094819363f17877af60e01b835260048301525afa9182156122095783926121db575b50506121b8575090565b5f1982146121c7575060010190565b634e487b7160e01b81526011600452602490fd5b90809250813d8311612202575b6121f28183612070565b8101031261036f57515f806121ae565b503d6121e8565b6040513d85823e3d90fd5b60019450612184565b90508381813d8311612243575b6122348183612070565b810103126114f057515f61217e565b503d61222a565b6040513d87823e3d90fd5b6040516323b872dd60e01b5f9081526001600160a01b03938416600452938316602452604494909452909160209060648180855af160015f51148116156122bf575b836040525f606052156122a957505050565b635274afe760e01b835216600482015260249150fd5b60018115166122d557813b15153d151616612297565b833d5f823e3d90fdfea26469706673582212202777a3fb3008fda1cc47e58746a1c8f91c24d5fcc0b6ce894e4a5bf0c809710864736f6c63430008140033",
    "linkReferences": {}
  },
  "methodIdentifiers": {
    "LIQUIDATION_CONTROLLER()": "dfcf3ce0",
    "ORACLE()": "38013f02",
    "OWNER()": "117803e3",
    "borrowFromAave(address,address,uint256)": "e3f6ec88",
    "borrowFromCompound(address,uint256)": "8afda809",
    "closeFactorBps()": "4654440b",
    "creditManager()": "c12c21c0",
    "creditPool()": "2ff1ab95",
    "delegateCredit(address,uint256)": "89c85c6f",
    "insurancePool()": "ab2adc00",
    "isBorrower(address)": "eaf6e483",
    "liquidate(address,uint256,address)": "4914c008",
    "protocolCount(address)": "6aaa3162",
    "repayToAave(address,address,uint256)": "9cff7b4e",
    "repayToCompound(address,address,uint256)": "aad4f7ff",
    "scoreEngine()": "b4196c8f",
    "setBorrower(address,bool)": "4422bc5a",
    "setCloseFactorBps(uint256)": "fdeeadd0",
    "setCreditManager(address)": "69dd793b",
    "setCreditPool(address)": "b1a41702",
    "setInsurancePool(address)": "a94c487e",
    "setManagerPool(address)": "4c67ba89",
    "setScoreEngine(address)": "d3ccccc4",
    "syncAaveCollateral(address,address)": "b4639c04",
    "syncCompoundCollateral(address,address)": "ffddd10f",
    "unfreezeAccount(address)": "788649ea"
  },
  "id": 3
}