{
  "abi": [
    {
      "type": "constructor",
      "inputs": [
        {
          "name": "_router",
          "type": "address",
          "internalType": "address"
        },
        {
          "name": "_oracle",
          "type": "address",
          "internalType": "address"
        }
      ],
      "stateMutability": "nonpayable"
    },
    {
      "type": "function",
      "name": "ADMIN",
      "inputs": [],
      "outputs": [
        {
          "name": "",
          "type": "address",
          "internalType": "address"
        }
      ],
      "stateMutability": "view"
    },
    {
      "type": "function",
      "name": "aaveCollateral",
      "inputs": [
        {
          "name": "user",
          "type": "address",
          "internalType": "address"
        }
      ],
      "outputs": [
        {
          "name": "",
          "type": "uint256",
          "internalType": "uint256"
        }
      ],
      "stateMutability": "view"
    },
    {
      "type": "function",
      "name": "aaveDebt",
      "inputs": [
        {
          "name": "",
          "type": "address",
          "internalType": "address"
        }
      ],
      "outputs": [
        {
          "name": "",
          "type": "uint256",
          "internalType": "uint256"
        }
      ],
      "stateMutability": "view"
    },
    {
      "type": "function",
      "name": "accountOpenedAt",
      "inputs": [
        {
          "name": "",
          "type": "address",
          "internalType": "address"
        }
      ],
      "outputs": [
        {
          "name": "",
          "type": "uint256",
          "internalType": "uint256"
        }
      ],
      "stateMutability": "view"
    },
    {
      "type": "function",
      "name": "borrowCount",
      "inputs": [
        {
          "name": "",
          "type": "address",
          "internalType": "address"
        }
      ],
      "outputs": [
        {
          "name": "",
          "type": "uint256",
          "internalType": "uint256"
        }
      ],
      "stateMutability": "view"
    },
    {
      "type": "function",
      "name": "collateralValue",
      "inputs": [
        {
          "name": "user",
          "type": "address",
          "internalType": "address"
        }
      ],
      "outputs": [
        {
          "name": "",
          "type": "uint256",
          "internalType": "uint256"
        }
      ],
      "stateMutability": "view"
    },
    {
      "type": "function",
      "name": "compoundCollateral",
      "inputs": [
        {
          "name": "user",
          "type": "address",
          "internalType": "address"
        }
      ],
      "outputs": [
        {
          "name": "",
          "type": "uint256",
          "internalType": "uint256"
        }
      ],
      "stateMutability": "view"
    },
    {
      "type": "function",
      "name": "compoundDebt",
      "inputs": [
        {
          "name": "",
          "type": "address",
          "internalType": "address"
        }
      ],
      "outputs": [
        {
          "name": "",
          "type": "uint256",
          "internalType": "uint256"
        }
      ],
      "stateMutability": "view"
    },
    {
      "type": "function",
      "name": "creditLimit",
      "inputs": [
        {
          "name": "user",
          "type": "address",
          "internalType": "address"
        }
      ],
      "outputs": [
        {
          "name": "",
          "type": "uint256",
          "internalType": "uint256"
        }
      ],
      "stateMutability": "view"
    },
    {
      "type": "function",
      "name": "creditScore",
      "inputs": [
        {
          "name": "user",
          "type": "address",
          "internalType": "address"
        }
      ],
      "outputs": [
        {
          "name": "",
          "type": "uint256",
          "internalType": "uint256"
        }
      ],
      "stateMutability": "view"
    },
    {
      "type": "function",
      "name": "creditScoreBreakdown",
      "inputs": [
        {
          "name": "user",
          "type": "address",
          "internalType": "address"
        }
      ],
      "outputs": [
        {
          "name": "ageScore",
          "type": "uint256",
          "internalType": "uint256"
        },
        {
          "name": "healthScore",
          "type": "uint256",
          "internalType": "uint256"
        },
        {
          "name": "repayScore",
          "type": "uint256",
          "internalType": "uint256"
        },
        {
          "name": "delegatedScore",
          "type": "uint256",
          "internalType": "uint256"
        },
        {
          "name": "diversityScore",
          "type": "uint256",
          "internalType": "uint256"
        },
        {
          "name": "volatilityPenalty",
          "type": "uint256",
          "internalType": "uint256"
        },
        {
          "name": "utilizationPenalty",
          "type": "uint256",
          "internalType": "uint256"
        },
        {
          "name": "liquidationPenalty",
          "type": "uint256",
          "internalType": "uint256"
        }
      ],
      "stateMutability": "view"
    },
    {
      "type": "function",
      "name": "delegatedCredit",
      "inputs": [
        {
          "name": "user",
          "type": "address",
          "internalType": "address"
        }
      ],
      "outputs": [
        {
          "name": "",
          "type": "uint256",
          "internalType": "uint256"
        }
      ],
      "stateMutability": "view"
    },
    {
      "type": "function",
      "name": "freeze",
      "inputs": [
        {
          "name": "user",
          "type": "address",
          "internalType": "address"
        }
      ],
      "outputs": [],
      "stateMutability": "nonpayable"
    },
    {
      "type": "function",
      "name": "frozen",
      "inputs": [
        {
          "name": "",
          "type": "address",
          "internalType": "address"
        }
      ],
      "outputs": [
        {
          "name": "",
          "type": "bool",
          "internalType": "bool"
        }
      ],
      "stateMutability": "view"
    },
    {
      "type": "function",
      "name": "healthFactor",
      "inputs": [
        {
          "name": "user",
          "type": "address",
          "internalType": "address"
        }
      ],
      "outputs": [
        {
          "name": "",
          "type": "uint256",
          "internalType": "uint256"
        }
      ],
      "stateMutability": "view"
    },
    {
      "type": "function",
      "name": "liquidationCount",
      "inputs": [
        {
          "name": "",
          "type": "address",
          "internalType": "address"
        }
      ],
      "outputs": [
        {
          "name": "",
          "type": "uint256",
          "internalType": "uint256"
        }
      ],
      "stateMutability": "view"
    },
    {
      "type": "function",
      "name": "onBorrow",
      "inputs": [
        {
          "name": "user",
          "type": "address",
          "internalType": "address"
        },
        {
          "name": "amount",
          "type": "uint256",
          "internalType": "uint256"
        }
      ],
      "outputs": [],
      "stateMutability": "nonpayable"
    },
    {
      "type": "function",
      "name": "onLiquidation",
      "inputs": [
        {
          "name": "user",
          "type": "address",
          "internalType": "address"
        },
        {
          "name": "repayAmount",
          "type": "uint256",
          "internalType": "uint256"
        }
      ],
      "outputs": [],
      "stateMutability": "nonpayable"
    },
    {
      "type": "function",
      "name": "onRepay",
      "inputs": [
        {
          "name": "user",
          "type": "address",
          "internalType": "address"
        },
        {
          "name": "amount",
          "type": "uint256",
          "internalType": "uint256"
        }
      ],
      "outputs": [],
      "stateMutability": "nonpayable"
    },
    {
      "type": "function",
      "name": "oracle",
      "inputs": [],
      "outputs": [
        {
          "name": "",
          "type": "address",
          "internalType": "address"
        }
      ],
      "stateMutability": "view"
    },
    {
      "type": "function",
      "name": "pool",
      "inputs": [],
      "outputs": [
        {
          "name": "",
          "type": "address",
          "internalType": "address"
        }
      ],
      "stateMutability": "view"
    },
    {
      "type": "function",
      "name": "prevUtilizationBps",
      "inputs": [
        {
          "name": "",
          "type": "address",
          "internalType": "address"
        }
      ],
      "outputs": [
        {
          "name": "",
          "type": "uint256",
          "internalType": "uint256"
        }
      ],
      "stateMutability": "view"
    },
    {
      "type": "function",
      "name": "prevUtilizationTimestamp",
      "inputs": [
        {
          "name": "",
          "type": "address",
          "internalType": "address"
        }
      ],
      "outputs": [
        {
          "name": "",
          "type": "uint256",
          "internalType": "uint256"
        }
      ],
      "stateMutability": "view"
    },
    {
      "type": "function",
      "name": "recordAaveBorrow",
      "inputs": [
        {
          "name": "user",
          "type": "address",
          "internalType": "address"
        },
        {
          "name": "amount",
          "type": "uint256",
          "internalType": "uint256"
        }
      ],
      "outputs": [],
      "stateMutability": "nonpayable"
    },
    {
      "type": "function",
      "name": "recordAaveRepay",
      "inputs": [
        {
          "name": "user",
          "type": "address",
          "internalType": "address"
        },
        {
          "name": "amount",
          "type": "uint256",
          "internalType": "uint256"
        }
      ],
      "outputs": [],
      "stateMutability": "nonpayable"
    },
    {
      "type": "function",
      "name": "recordCompoundBorrow",
      "inputs": [
        {
          "name": "user",
          "type": "address",
          "internalType": "address"
        },
        {
          "name": "amount",
          "type": "uint256",
          "internalType": "uint256"
        }
      ],
      "outputs": [],
      "stateMutability": "nonpayable"
    },
    {
      "type": "function",
      "name": "recordCompoundRepay",
      "inputs": [
        {
          "name": "user",
          "type": "address",
          "internalType": "address"
        },
        {
          "name": "amount",
          "type": "uint256",
          "internalType": "uint256"
        }
      ],
      "outputs": [],
      "stateMutability": "nonpayable"
    },
    {
      "type": "function",
      "name": "repaymentCount",
      "inputs": [
        {
          "name": "",
          "type": "address",
          "internalType": "address"
        }
      ],
      "outputs": [
        {
          "name": "",
          "type": "uint256",
          "internalType": "uint256"
        }
      ],
      "stateMutability": "view"
    },
    {
      "type": "function",
      "name": "riskTier",
      "inputs": [
        {
          "name": "user",
          "type": "address",
          "internalType": "address"
        }
      ],
      "outputs": [
        {
          "name": "",
          "type": "uint8",
          "internalType": "uint8"
        }
      ],
      "stateMutability": "view"
    },
    {
      "type": "function",
      "name": "router",
      "inputs": [],
      "outputs": [
        {
          "name": "",
          "type": "address",
          "internalType": "address"
        }
      ],
      "stateMutability": "view"
    },
    {
      "type": "function",
      "name": "scoreBreakdown",
      "inputs": [
        {
          "name": "user",
          "type": "address",
          "internalType": "address"
        }
      ],
      "outputs": [
        {
          "name": "ageScore",
          "type": "uint256",
          "internalType": "uint256"
        },
        {
          "name": "healthScore",
          "type": "uint256",
          "internalType": "uint256"
        },
        {
          "name": "repaymentScore",
          "type": "uint256",
          "internalType": "uint256"
        },
        {
          "name": "delegatedScore",
          "type": "uint256",
          "internalType": "uint256"
        },
        {
          "name": "utilizationPenalty",
          "type": "uint256",
          "internalType": "uint256"
        },
        {
          "name": "liquidationPenalty",
          "type": "uint256",
          "internalType": "uint256"
        }
      ],
      "stateMutability": "view"
    },
    {
      "type": "function",
      "name": "scoreEngine",
      "inputs": [],
      "outputs": [
        {
          "name": "",
          "type": "address",
          "internalType": "contract ICreditScoreEngine"
        }
      ],
      "stateMutability": "view"
    },
    {
      "type": "function",
      "name": "setAaveCollateral",
      "inputs": [
        {
          "name": "user",
          "type": "address",
          "internalType": "address"
        },
        {
          "name": "value",
          "type": "uint256",
          "internalType": "uint256"
        }
      ],
      "outputs": [],
      "stateMutability": "nonpayable"
    },
    {
      "type": "function",
      "name": "setCollateralValue",
      "inputs": [
        {
          "name": "user",
          "type": "address",
          "internalType": "address"
        },
        {
          "name": "value",
          "type": "uint256",
          "internalType": "uint256"
        }
      ],
      "outputs": [],
      "stateMutability": "nonpayable"
    },
    {
      "type": "function",
      "name": "setCompoundCollateral",
      "inputs": [
        {
          "name": "user",
          "type": "address",
          "internalType": "address"
        },
        {
          "name": "value",
          "type": "uint256",
          "internalType": "uint256"
        }
      ],
      "outputs": [],
      "stateMutability": "nonpayable"
    },
    {
      "type": "function",
      "name": "setDelegatedCredit",
      "inputs": [
        {
          "name": "user",
          "type": "address",
          "internalType": "address"
        },
        {
          "name": "value",
          "type": "uint256",
          "internalType": "uint256"
        }
      ],
      "outputs": [],
      "stateMutability": "nonpayable"
    },
    {
      "type": "function",
      "name": "setPool",
      "inputs": [
        {
          "name": "_pool",
          "type": "address",
          "internalType": "address"
        }
      ],
      "outputs": [],
      "stateMutability": "nonpayable"
    },
    {
      "type": "function",
      "name": "setRouter",
      "inputs": [
        {
          "name": "_router",
          "type": "address",
          "internalType": "address"
        }
      ],
      "outputs": [],
      "stateMutability": "nonpayable"
    },
    {
      "type": "function",
      "name": "setScoreEngine",
      "inputs": [
        {
          "name": "_engine",
          "type": "address",
          "internalType": "address"
        }
      ],
      "outputs": [],
      "stateMutability": "nonpayable"
    },
    {
      "type": "function",
      "name": "totalDebt",
      "inputs": [
        {
          "name": "user",
          "type": "address",
          "internalType": "address"
        }
      ],
      "outputs": [
        {
          "name": "",
          "type": "uint256",
          "internalType": "uint256"
        }
      ],
      "stateMutability": "view"
    },
    {
      "type": "function",
      "name": "unfreeze",
      "inputs": [
        {
          "name": "user",
          "type": "address",
          "internalType": "address"
        }
      ],
      "outputs": [],
      "stateMutability": "nonpayable"
    },
    {
      "type": "function",
      "name": "userMetrics",
      "inputs": [
        {
          "name": "user",
          "type": "address",
          "internalType": "address"
        }
      ],
      "outputs": [
        {
          "name": "collateral",
          "type": "uint256",
          "internalType": "uint256"
        },
        {
          "name": "delegated",
          "type": "uint256",
          "internalType": "uint256"
        },
        {
          "name": "debt",
          "type": "uint256",
          "internalType": "uint256"
        },
        {
          "name": "hf",
          "type": "uint256",
          "internalType": "uint256"
        },
        {
          "name": "score",
          "type": "uint256",
          "internalType": "uint256"
        },
        {
          "name": "tier",
          "type": "uint8",
          "internalType": "uint8"
        },
        {
          "name": "openedAt",
          "type": "uint256",
          "internalType": "uint256"
        },
        {
          "name": "borrows",
          "type": "uint256",
          "internalType": "uint256"
        },
        {
          "name": "repays",
          "type": "uint256",
          "internalType": "uint256"
        },
        {
          "name": "liquidations",
          "type": "uint256",
          "internalType": "uint256"
        },
        {
          "name": "isFrozen",
          "type": "bool",
          "internalType": "bool"
        }
      ],
      "stateMutability": "view"
    },
    {
      "type": "function",
      "name": "validateBorrow",
      "inputs": [
        {
          "name": "user",
          "type": "address",
          "internalType": "address"
        },
        {
          "name": "amount",
          "type": "uint256",
          "internalType": "uint256"
        }
      ],
      "outputs": [
        {
          "name": "",
          "type": "bool",
          "internalType": "bool"
        }
      ],
      "stateMutability": "view"
    },
    {
      "type": "event",
      "name": "BorrowRecorded",
      "inputs": [
        {
          "name": "user",
          "type": "address",
          "indexed": true,
          "internalType": "address"
        },
        {
          "name": "amount",
          "type": "uint256",
          "indexed": false,
          "internalType": "uint256"
        },
        {
          "name": "newDebt",
          "type": "uint256",
          "indexed": false,
          "internalType": "uint256"
        }
      ],
      "anonymous": false
    },
    {
      "type": "event",
      "name": "Frozen",
      "inputs": [
        {
          "name": "user",
          "type": "address",
          "indexed": true,
          "internalType": "address"
        }
      ],
      "anonymous": false
    },
    {
      "type": "event",
      "name": "LiquidationRecorded",
      "inputs": [
        {
          "name": "user",
          "type": "address",
          "indexed": true,
          "internalType": "address"
        },
        {
          "name": "repayAmount",
          "type": "uint256",
          "indexed": false,
          "internalType": "uint256"
        },
        {
          "name": "newDebt",
          "type": "uint256",
          "indexed": false,
          "internalType": "uint256"
        }
      ],
      "anonymous": false
    },
    {
      "type": "event",
      "name": "PoolSet",
      "inputs": [
        {
          "name": "pool",
          "type": "address",
          "indexed": false,
          "internalType": "address"
        }
      ],
      "anonymous": false
    },
    {
      "type": "event",
      "name": "RepayRecorded",
      "inputs": [
        {
          "name": "user",
          "type": "address",
          "indexed": true,
          "internalType": "address"
        },
        {
          "name": "amount",
          "type": "uint256",
          "indexed": false,
          "internalType": "uint256"
        },
        {
          "name": "newDebt",
          "type": "uint256",
          "indexed": false,
          "internalType": "uint256"
        }
      ],
      "anonymous": false
    },
    {
      "type": "event",
      "name": "ScoreEngineSet",
      "inputs": [
        {
          "name": "engine",
          "type": "address",
          "indexed": false,
          "internalType": "address"
        }
      ],
      "anonymous": false
    },
    {
      "type": "event",
      "name": "Unfrozen",
      "inputs": [
        {
          "name": "user",
          "type": "address",
          "indexed": true,
          "internalType": "address"
        }
      ],
      "anonymous": false
    },
    {
      "type": "event",
      "name": "UtilizationSnapshotted",
      "inputs": [
        {
          "name": "user",
          "type": "address",
          "indexed": true,
          "internalType": "address"
        },
        {
          "name": "utilizationBps",
          "type": "uint256",
          "indexed": false,
          "internalType": "uint256"
        }
      ],
      "anonymous": false
    },
    {
      "type": "error",
      "name": "AlreadySet",
      "inputs": []
    },
    {
      "type": "error",
      "name": "InsufficientCredit",
      "inputs": []
    },
    {
      "type": "error",
      "name": "InvalidAmount",
      "inputs": []
    },
    {
      "type": "error",
      "name": "NotAuthorized",
      "inputs": []
    },
    {
      "type": "error",
      "name": "RepayExceedsDebt",
      "inputs": []
    },
    {
      "type": "error",
      "name": "ZeroAddress",
      "inputs": []
    }
  ],
  "bytecode": {
    "object": "0x60a034620000c557601f62001d2d38819003918201601f19168301916001600160401b03831184841017620000c9578084926040948552833981010312620000c5576200005a60206200005283620000dd565b9201620000dd565b6001600160a01b0391821691908215620000b35716908115620000b35760018060a01b031990815f5416175f55600154161760015533608052604051611c3a9081620000f382396080518181816108d90152610e780152f35b60405163d92e233d60e01b8152600490fd5b5f80fd5b634e487b7160e01b5f52604160045260245ffd5b51906001600160a01b0382168203620000c55756fe6080604081815260049182361015610015575f80fd5b5f92833560e01c9182630a8d55cf146112c9575081630bf97eac14611205578163127ab6e2146111cd578163158cda661461119557816316f0115b1461116c5781631ac89675146111015781631f227e481461102b5781631f429f5014610fea5781631ff517ff14610fb25781632720313b14610ea75781632a0acc6a14610e635781634437152a14610de457816345c8b1a614610d795781635229661d14610d415781635c96161714610cd65781636873509b14610c985781636ad9f9df14610c725781636cb80eb514610c1c5781637160490914610be45781637544aa4414610bae5781637dc0d1d014610b8557816386b8da0414610b4d5781638d1fdf2f14610adf5781639c54726514610aad578163ab6ab93a14610a3d578163aecb560414610a05578163b06c8d2e146109cd578163b4196c8f146109a4578163b84d93d414610971578163b9afc96914610939578163c0d78655146108b3578163c56a6a1c14610868578163d05166501461082a578163d2cd62ad146107f2578163d3ccccc414610746578163d64ccdb21461070e578163d8d2c64814610608578163dbd476b71461058b578163e3d7a870146103fc578163f17877af146103c4578163f7e590ee14610397578163f7f11fb714610225575063f887ea40146101fb575f80fd5b34610221578160031936011261022157905490516001600160a01b039091168152602090f35b5080fd5b83833461022157806003193601126102215761023f61131f565b9060243560018060a01b0380855416330361038757825190639c54726560e01b825284169384878301528260248301526020918281604481305afa90811561037d578791610343575b5015610333576102aa908587526008835284872080541561032a575b50611682565b838552600681528285206102bf838254611370565b90558385526009815282852080549060018201809211610317577f4aeb2d14be7417bd048fed3bb687ceff994aac500f22f9632728dbcee7805c7395969750558486526006815282862054908351928352820152a280f35b634e487b7160e01b875260118852602487fd5b429055886102a4565b8351638ac4bc7360e01b81528790fd5b90508281813d8311610376575b61035a8183611400565b81010312610372575180151581036103725788610288565b8680fd5b503d610350565b85513d89823e3d90fd5b825163ea8e4eb560e01b81528690fd5b505034610221576020366003190112610221576020906103bd6103b861131f565b6114d4565b9051908152f35b5050346102215760203660031901126102215760209181906001600160a01b036103ec61131f565b168152600d845220549051908152f35b82843461053d576020908160031936011261053d5761041961131f565b60035490946001600160a01b0391821691821561055257861695868452818552858420549260058652868520546006875287862054906104a561045b8561163d565b948b8952600a8a528a8920549b600b8b526104798c8b2054926115f6565b908a52600e8b528b8a2054918c519d8e98899788976356b1eb5f60e01b89526101009d8e9d8a01611339565b03915afa9182156105475780938195828391849385809781996104db575b5050506104d7979899505198899889611339565b0390f35b97509750985096505050505084813d8311610540575b6104fb8183611400565b8101031261053d5750825191830151838201516060850151608086015160a087015160c088015160e09098015194978897969094919391906104d78b806104c3565b80fd5b503d6104f1565b8451903d90823e3d90fd5b855162461bcd60e51b8152808301869052601360248201527214d8dbdc99515b99da5b99481b9bdd081cd95d606a1b6044820152606490fd5b919050346106045780600319360112610604576105a661131f565b8354602435936001600160a01b039291831633036105f6575016808452600c6020528184205490928181106105e757505082915b8352600c60205282205580f35b6105f091611391565b916105da565b835163ea8e4eb560e01b8152fd5b8280fd5b83833461022157806003193601126102215761062261131f565b825460243592916001600160a01b0391821633141580610700575b6103875783918116938486526006602052838620548091116106f6575b5061066490611682565b828452600660205281842061067a828254611391565b9055806106bf575b907fc7a00b289bebba84d8561520045edf3e2d78f61049fb317193866addf981dc279183855260066020528185205482519182526020820152a280f35b828452600a602052818420805490600182018092116106e357559293508392610682565b634e487b7160e01b865260118752602486fd5b915061066461065a565b50816002541633141561063d565b5050346102215760203660031901126102215760209181906001600160a01b0361073661131f565b168152600e845220549051908152f35b919050346106045760203660031901126106045761076261131f565b83546001600160a01b0390811633036107e357600354918183166107d357169283156107c557506001600160a01b0319168217600355519081527fd7b0a0e9dc0ca7f1c619a79f6eb2ae0c23648f3521570199efb8fac83414b42890602090a180f35b825163d92e233d60e01b8152fd5b5050505163a741a04560e01b8152fd5b50505163ea8e4eb560e01b8152fd5b5050346102215760203660031901126102215760209181906001600160a01b0361081a61131f565b1681526005845220549051908152f35b5050346102215760203660031901126102215760209160ff9082906001600160a01b0361085561131f565b1681526007855220541690519015158152f35b90503461060457816003193601126106045761088261131f565b83546001600160a01b039290831633036105f65750168252600c60205281206108ae6024358254611370565b905580f35b905034610604576020366003190112610604576108ce61131f565b6001600160a01b03907f000000000000000000000000000000000000000000000000000000000000000082163303610929571691821561091c57505081546001600160a01b03191617815580f35b5163d92e233d60e01b8152fd5b835163ea8e4eb560e01b81528390fd5b5050346102215760203660031901126102215760209181906001600160a01b0361096161131f565b1681526011845220549051908152f35b5050346102215760203660031901126102215760209060ff61099c6109976103b861131f565b6115c4565b915191168152f35b50503461022157816003193601126102215760035490516001600160a01b039091168152602090f35b5050346102215760203660031901126102215760209181906001600160a01b036109f561131f565b168152600a845220549051908152f35b5050346102215760203660031901126102215760209181906001600160a01b03610a2d61131f565b168152600f845220549051908152f35b91905034610604578060031936011261060457610a5861131f565b835460243593916001600160a01b03918216330361092957169081855280602052610a9884610a938588205460116020528689205490611391565b611370565b91855260205281842055601160205282205580f35b505034610221578060031936011261022157602090610ad6610acd61131f565b6024359061139e565b90519015158152f35b90503461060457602036600319011261060457610afa61131f565b83546001600160a01b039290831633036105f65750168083526007602052908220805460ff191660011790557f8a5c4736a33c7b7f29a2c34ea9ff9608afc5718d56f6fd6dcbd2d3711a1a49138280a280f35b5050346102215760203660031901126102215760209181906001600160a01b03610b7561131f565b168152600b845220549051908152f35b50503461022157816003193601126102215760015490516001600160a01b039091168152602090f35b9050346106045760203660031901126106045760209282916001600160a01b03610bd661131f565b168252845220549051908152f35b5050346102215760203660031901126102215760209181906001600160a01b03610c0c61131f565b1681526009845220549051908152f35b905034610604578160031936011261060457610c3661131f565b83546001600160a01b039290831633141580610c64575b6105f6575016825260056020526024359082205580f35b508260025416331415610c4d565b505034610221576020366003190112610221576020906103bd610c9361131f565b611454565b905034610604578160031936011261060457610cb261131f565b83546001600160a01b03919082163303610929571683526020526024359082205580f35b91905034610604578060031936011261060457610cf161131f565b8354602435936001600160a01b039291831633036105f6575016808452600d602052818420549092818110610d3257505082915b8352600d60205282205580f35b610d3b91611391565b91610d25565b5050346102215760203660031901126102215760209181906001600160a01b03610d6961131f565b1681526010845220549051908152f35b90503461060457602036600319011261060457610d9461131f565b83546001600160a01b039290831633036105f65750168083526007602052908220805460ff191690557f4feb53e305297ab8fb8f3420c95ea04737addc254a7270d8fc4605d2b9c61dba8280a280f35b9190503461060457602036600319011261060457610e0061131f565b83546001600160a01b0390811633036107e357600254918183166107d357169283156107c557506001600160a01b0319168217600255519081527f025f89b99c8ce32af8da7624f4575b920a86ebf07870d85a9fb545fee349ddce90602090a180f35b505034610221578160031936011261022157517f00000000000000000000000000000000000000000000000000000000000000006001600160a01b03168152602090f35b838334610221578060031936011261022157610ec161131f565b825460243592916001600160a01b039182163303610387578315610fa257169182845260206006815282852054808311610f925782610eff91611391565b8486526006825283862055600b815282852080549060018201809211610317575583855260078152828520805460ff19166001179055600681528285205483519283529082015282917f6dedf4870418a0998fa354d0e3f2908e6a67eb9fe466cbf33be5b99a67a5856191a27f8a5c4736a33c7b7f29a2c34ea9ff9608afc5718d56f6fd6dcbd2d3711a1a49138280a280f35b835163718e827560e11b81528790fd5b825163162908e360e11b81528690fd5b5050346102215760203660031901126102215760209181906001600160a01b03610fda61131f565b1681526006845220549051908152f35b905034610604576020366003190112610604576020926103bd916001600160a01b0361101461131f565b168252845282808220549160058652205490611370565b90503461060457602090816003193601126110fd578161016094819260ff61105161131f565b9160018060a01b0383169081855285528784205497600586528085205493600687528186205461108961108383611454565b926114d4565b92611093846115c4565b94885260088952808820549660098a528682808b20549a600a8d52600b828220549d526007828220549e522054169b82519d8e528d01528b015260608a015260808901521660a087015260c086015260e08501526101008401526101208301521515610140820152f35b8380fd5b9190503461060457806003193601126106045761111c61131f565b835460243593916001600160a01b0391821633036109295716908185528060205261115784610a938588205460106020528689205490611391565b91855260205281842055601060205282205580f35b50503461022157816003193601126102215760025490516001600160a01b039091168152602090f35b5050346102215760203660031901126102215760209181906001600160a01b036111bd61131f565b168152600c845220549051908152f35b5050346102215760203660031901126102215760209181906001600160a01b036111f561131f565b1681526008845220549051908152f35b8383346102215760203660031901126102215761122061131f565b61122981611a37565b9261123382611a69565b9261123d83611ace565b9061124784611b04565b9261125185611b49565b6001600160a01b039095168152600b6020528181205460648082029291801590840490911417156112b6575060c0975061012c90818111156112ae5750945b815196875260208701528501526060840152608083015260a0820152f35b905094611290565b634e487b7160e01b815260118952602490fd5b9150346110fd57826003193601126110fd576112e361131f565b84546001600160a01b03939192919084163303611313575050168252600d60205281206108ae6024358254611370565b63ea8e4eb560e01b8152fd5b600435906001600160a01b038216820361133557565b5f80fd5b94919260e0969399989794919961010087019a8752602087015260408601526060850152608084015260a083015260c08201520152565b9190820180921161137d57565b634e487b7160e01b5f52601160045260245ffd5b9190820391821161137d57565b6001600160a01b03165f8181526007602052604081205490929060ff166113fb5780156113fb5760406113f6929360046020526113e78282205460056020528383205490611370565b94815260066020522054611370565b111590565b505090565b90601f8019910116810190811067ffffffffffffffff82111761142257604052565b634e487b7160e01b5f52604160045260245ffd5b8115611440570490565b634e487b7160e01b5f52601260045260245ffd5b6001600160a01b03165f9081526006602052604081205490919080156114cd57600460205261149160408420546005602052604085205490611370565b670de0b6b3a7640000908181029181830414901517156114b9576114b6929350611436565b90565b634e487b7160e01b84526011600452602484fd5b505f199150565b6003546001600160a01b039081169190826114f457506114b6915061179f565b8116905f908282526020809160048252604095868520546005845287862054906006855261156f89882054946115298161163d565b99808a52600a88528b8a205491600b89526115478d8c2054916115f6565b918b52600e89528c8b2054928d519c8d998a988998635e841d4160e11b8a5260048a01611339565b03915afa9384156115b957508193611588575b50505090565b9091809350813d83116115b2575b6115a08183611400565b8101031261053d5750515f8080611582565b503d611596565b51913d9150823e3d90fd5b6102bc8110156115f0576101f48110156115ea5761012c11156115e5575f90565b600190565b50600290565b50600390565b6001600160a01b03165f908152600c6020526040812054909190611634575b600d60205260405f205461162557565b905f19811461137d5760010190565b60019150611615565b6001600160a01b03165f9081526008602052604090205480158015611678575b6116735761166f620151809142611391565b0490565b505f90565b508042111561165d565b60018060a01b0316905f918083526020600f81526040938481205462093a80810180911161178b574210156116b9575b5050509050565b828152600482526116d585822054600584528683205490611370565b9485611725577fafe3516c13315508bf357ee8f9829041e5be2b92304e58694baf666e6c38f1e893949550815b858152600e84528282822055600f8452814291205551908152a2805f80806116b2565b838252600683528082205461271090818102918183041490151715611777577fafe3516c13315508bf357ee8f9829041e5be2b92304e58694baf666e6c38f1e894959661177191611436565b91611702565b634e487b7160e01b83526011600452602483fd5b634e487b7160e01b82526011600452602482fd5b6117a88161163d565b5f60b48210611a195750506096905b6117c081611454565b5f905f1981036119b157505060fa905b60018060a01b031690815f52602092600a8452604091825f20545f60148210155f1461199757505060c8905b5f85815260058752848120546402540be4009182821061196e5750505061182d9291610a93610a9392606494611370565b92825f526004815261184a825f205460058352835f205490611370565b92805f5260068252825f20545f9480151580611965575b6118ce575b505090600b915f52525f205460648102908082046064149015171561137d5761189a9161012c8083116118c6575b50611370565b818110156118c0576118ab91611391565b6103e890818111156118bb575090565b905090565b50505f90565b91505f611894565b61271095929591828102908082048414901517156114b957906118f091611436565b90811115611909575050600b906096935b90915f611866565b61138894919490818111611923575b505090600b91611901565b9091946113871982019182116119515760968202918083046096149015171561195157500492600b5f611918565b634e487b7160e01b81526011600452602490fd5b50811515611861565b6064820291808304606414901517156119515750610a939261182d959492610a93920494611370565b600a820291808304600a14901517156119515750906117fc565b671bc16d674ec8000081106119ca57505060fa906117d0565b6714d1120d7b16000081106119e357505060c8906117d0565b6710a741a46278000081106119fc5750506096906117d0565b670de0b6b3a764000011611a1357506064906117d0565b906117d0565b609682029180830460961490151715611951575060b49004906117b7565b611a409061163d565b60b4811015611a635760968102908082046096149015171561137d5760b4900490565b50609690565b611a7290611454565b5f198114611ac857671bc16d674ec80000811015611ac8576714d1120d7b160000811015611ac2576710a741a462780000811015611a6357670de0b6b3a76400001115611abd575f90565b606490565b5060c890565b5060fa90565b6001600160a01b03165f908152600a60205260409020546014811015611ac257600a810290808204600a149015171561137d5790565b6001600160a01b03165f908152600560205260409020548015611673576402540be4009081811015611b42576064810290810460640361137d570490565b5050606490565b6001600160a01b03165f818152600460209081526040808320546005909252822054611b7491611370565b918152600660205260408120549180158015611bfc575b611bf65761271092838102908082048514901517156117775790611bae91611436565b906113889283831115611bef57821015611be7576113871982019182116119515760968202918083046096149015171561195157500490565b505050609690565b5091505090565b50905090565b508215611b8b56fea2646970667358221220e915bb5e20eaadb9c92a9520cc27d44fcef1fe3e8d5fea19cffd856e10c784b364736f6c63430008140033",
    "linkReferences": {}
  },
  "methodIdentifiers": {
    "ADMIN()": "2a0acc6a",
    "aaveCollateral(address)": "5229661d",
    "aaveDebt(address)": "158cda66",
    "accountOpenedAt(address)": "127ab6e2",
    "borrowCount(address)": "71604909",
    "collateralValue(address)": "7544aa44",
    "compoundCollateral(address)": "b9afc969",
    "compoundDebt(address)": "f17877af",
    "creditLimit(address)": "1f429f50",
    "creditScore(address)": "f7e590ee",
    "creditScoreBreakdown(address)": "e3d7a870",
    "delegatedCredit(address)": "d2cd62ad",
    "freeze(address)": "8d1fdf2f",
    "frozen(address)": "d0516650",
    "healthFactor(address)": "6ad9f9df",
    "liquidationCount(address)": "86b8da04",
    "onBorrow(address,uint256)": "f7f11fb7",
    "onLiquidation(address,uint256)": "2720313b",
    "onRepay(address,uint256)": "d8d2c648",
    "oracle()": "7dc0d1d0",
    "pool()": "16f0115b",
    "prevUtilizationBps(address)": "d64ccdb2",
    "prevUtilizationTimestamp(address)": "aecb5604",
    "recordAaveBorrow(address,uint256)": "c56a6a1c",
    "recordAaveRepay(address,uint256)": "dbd476b7",
    "recordCompoundBorrow(address,uint256)": "0a8d55cf",
    "recordCompoundRepay(address,uint256)": "5c961617",
    "repaymentCount(address)": "b06c8d2e",
    "riskTier(address)": "b84d93d4",
    "router()": "f887ea40",
    "scoreBreakdown(address)": "0bf97eac",
    "scoreEngine()": "b4196c8f",
    "setAaveCollateral(address,uint256)": "1ac89675",
    "setCollateralValue(address,uint256)": "6873509b",
    "setCompoundCollateral(address,uint256)": "ab6ab93a",
    "setDelegatedCredit(address,uint256)": "6cb80eb5",
    "setPool(address)": "4437152a",
    "setRouter(address)": "c0d78655",
    "setScoreEngine(address)": "d3ccccc4",
    "totalDebt(address)": "1ff517ff",
    "unfreeze(address)": "45c8b1a6",
    "userMetrics(address)": "1f227e48",
    "validateBorrow(address,uint256)": "9c547265"
  },
  "id": 2
}