{"abi":[{"type":"constructor","inputs":[{"name":"asset","type":"address","internalType":"address"},{"name":"router","type":"address","internalType":"address"}],"stateMutability":"nonpayable"},{"type":"function","name":"ASSET","inputs":[],"outputs":[{"name":"","type":"address","internalType":"contract IERC20"}],"stateMutability":"view"},{"type":"function","name":"ROUTER","inputs":[],"outputs":[{"name":"","type":"address","internalType":"address"}],"stateMutability":"view"},{"type":"function","name":"cover","inputs":[{"name":"amount","type":"uint256","internalType":"uint256"}],"outputs":[{"name":"paid","type":"uint256","internalType":"uint256"}],"stateMutability":"nonpayable"},{"type":"function","name":"deposit","inputs":[{"name":"amount","type":"uint256","internalType":"uint256"}],"outputs":[],"stateMutability":"nonpayable"},{"type":"function","name":"totalReserves","inputs":[],"outputs":[{"name":"","type":"uint256","internalType":"uint256"}],"stateMutability":"view"},{"type":"event","name":"InsuranceCover","inputs":[{"name":"router","type":"address","indexed":true,"internalType":"address"},{"name":"requested","type":"uint256","indexed":false,"internalType":"uint256"},{"name":"paid","type":"uint256","indexed":false,"internalType":"uint256"}],"anonymous":false},{"type":"event","name":"InsuranceDeposit","inputs":[{"name":"from","type":"address","indexed":true,"internalType":"address"},{"name":"amount","type":"uint256","indexed":false,"internalType":"uint256"}],"anonymous":false},{"type":"error","name":"InvalidAmount","inputs":[]},{"type":"error","name":"NotAuthorized","inputs":[]},{"type":"error","name":"SafeERC20FailedOperation","inputs":[{"name":"token","type":"address","internalType":"address"}]}],"bytecode":{"object":"0x60c03461009f57601f6104bb38819003918201601f19168301916001600160401b038311848410176100a357808492604094855283398101031261009f57610052602061004b836100b7565b92016100b7565b6001600160a01b0390911660805260a0526040516103ef90816100cc8239608051818181608c015281816101a601526102eb015260a0518181816101ea0152818161023001526102bd0152f35b5f80fd5b634e487b7160e01b5f52604160045260245ffd5b51906001600160a01b038216820361009f5756fe6080604081815260049081361015610015575f80fd5b5f92833560e01c90816314a1362b146102195750806332fe7b26146101d55780634800d97f146101915780638f840ddd146101705763b6b55f2514610058575f80fd5b3461016c57602036600319011261016c57813591821561015e5781516323b872dd60e01b85523382523060245260448490527f000000000000000000000000000000000000000000000000000000000000000060208660648180855af1600187511481161561013f575b828552866060521561012057505083549083820180921161010d57508355519081527fb4c4c46391f755752bf07c542506016584a39bdc2c1e8dd64a2b787fa8df742b60203392a280f35b634e487b7160e01b855260119052602484fd5b635274afe760e01b82526001600160a01b031691810191909152602490fd5b600181151661015557813b15153d1516166100c2565b823d88823e3d90fd5b905163162908e360e11b8152fd5b8280fd5b83823461018d578160031936011261018d57602091549051908152f35b5080fd5b83823461018d578160031936011261018d57517f00000000000000000000000000000000000000000000000000000000000000006001600160a01b03168152602090f35b83823461018d578160031936011261018d57517f00000000000000000000000000000000000000000000000000000000000000006001600160a01b03168152602090f35b9050833461028057602036600319011261028057507f00000000000000000000000000000000000000000000000000000000000000006001600160a01b03163303610272575061026b60209235610283565b9051908152f35b63ea8e4eb560e01b81529050fd5b80fd5b9081156103b4575f805492838111156103ae57835b809481810390811161039a57835560405163a9059cbb60e01b84526001600160a01b037f0000000000000000000000000000000000000000000000000000000000000000811660048190526024849052947f00000000000000000000000000000000000000000000000000000000000000009060208160448180865af1906001815114821615610378575b508360405215610362575050507f2e37c09150563732bb93cf001454a8c17696858f112e742b08c4f74d2f62d2619160409182519182526020820152a2565b635274afe760e01b835216600482015260249150fd5b60018215166103905750813b15153d1516165f610323565b84903d90823e3d90fd5b634e487b7160e01b84526011600452602484fd5b80610298565b5f915056fea2646970667358221220cdb226dab85c09c16ffa054e95aea261292ff14e51521a2d1c27bc3a00b0b7eb64736f6c63430008140033","linkReferences":{}},"methodIdentifiers":{"ASSET()":"4800d97f","ROUTER()":"32fe7b26","cover(uint256)":"14a1362b","deposit(uint256)":"b6b55f25","totalReserves()":"8f840ddd"},"id":19}