{
  "abi": [
    {
      "type": "constructor",
      "inputs": [
        {
          "name": "usdc",
          "type": "address",
          "internalType": "address"
        }
      ],
      "stateMutability": "nonpayable"
    },
    {
      "type": "function",
      "name": "USDC",
      "inputs": [],
      "outputs": [
        {
          "name": "",
          "type": "address",
          "internalType": "contract IERC20"
        }
      ],
      "stateMutability": "view"
    },
    {
      "type": "function",
      "name": "availableLiquidity",
      "inputs": [],
      "outputs": [
        {
          "name": "",
          "type": "uint256",
          "internalType": "uint256"
        }
      ],
      "stateMutability": "view"
    },
    {
      "type": "function",
      "name": "borrow",
      "inputs": [
        {
          "name": "amount",
          "type": "uint256",
          "internalType": "uint256"
        }
      ],
      "outputs": [
        {
          "name": "",
          "type": "uint256",
          "internalType": "uint256"
        }
      ],
      "stateMutability": "nonpayable"
    },
    {
      "type": "function",
      "name": "borrowFor",
      "inputs": [
        {
          "name": "amount",
          "type": "uint256",
          "internalType": "uint256"
        },
        {
          "name": "borrower",
          "type": "address",
          "internalType": "address"
        }
      ],
      "outputs": [
        {
          "name": "",
          "type": "uint256",
          "internalType": "uint256"
        }
      ],
      "stateMutability": "nonpayable"
    },
    {
      "type": "function",
      "name": "debt",
      "inputs": [
        {
          "name": "",
          "type": "address",
          "internalType": "address"
        }
      ],
      "outputs": [
        {
          "name": "",
          "type": "uint256",
          "internalType": "uint256"
        }
      ],
      "stateMutability": "view"
    },
    {
      "type": "function",
      "name": "deposit",
      "inputs": [
        {
          "name": "amount",
          "type": "uint256",
          "internalType": "uint256"
        }
      ],
      "outputs": [],
      "stateMutability": "nonpayable"
    },
    {
      "type": "function",
      "name": "depositsOf",
      "inputs": [
        {
          "name": "",
          "type": "address",
          "internalType": "address"
        }
      ],
      "outputs": [
        {
          "name": "",
          "type": "uint256",
          "internalType": "uint256"
        }
      ],
      "stateMutability": "view"
    },
    {
      "type": "function",
      "name": "getAccountSnapshot",
      "inputs": [
        {
          "name": "user",
          "type": "address",
          "internalType": "address"
        }
      ],
      "outputs": [
        {
          "name": "error",
          "type": "uint256",
          "internalType": "uint256"
        },
        {
          "name": "cTokenBalance",
          "type": "uint256",
          "internalType": "uint256"
        },
        {
          "name": "borrowBalance",
          "type": "uint256",
          "internalType": "uint256"
        },
        {
          "name": "exchangeRateMantissa",
          "type": "uint256",
          "internalType": "uint256"
        }
      ],
      "stateMutability": "view"
    },
    {
      "type": "function",
      "name": "repay",
      "inputs": [
        {
          "name": "amount",
          "type": "uint256",
          "internalType": "uint256"
        }
      ],
      "outputs": [],
      "stateMutability": "nonpayable"
    },
    {
      "type": "function",
      "name": "repayBorrow",
      "inputs": [
        {
          "name": "amount",
          "type": "uint256",
          "internalType": "uint256"
        }
      ],
      "outputs": [
        {
          "name": "",
          "type": "uint256",
          "internalType": "uint256"
        }
      ],
      "stateMutability": "nonpayable"
    },
    {
      "type": "function",
      "name": "repayBorrowBehalf",
      "inputs": [
        {
          "name": "borrower",
          "type": "address",
          "internalType": "address"
        },
        {
          "name": "amount",
          "type": "uint256",
          "internalType": "uint256"
        }
      ],
      "outputs": [
        {
          "name": "",
          "type": "uint256",
          "internalType": "uint256"
        }
      ],
      "stateMutability": "nonpayable"
    },
    {
      "type": "function",
      "name": "totalBorrows",
      "inputs": [],
      "outputs": [
        {
          "name": "",
          "type": "uint256",
          "internalType": "uint256"
        }
      ],
      "stateMutability": "view"
    },
    {
      "type": "function",
      "name": "totalDeposits",
      "inputs": [],
      "outputs": [
        {
          "name": "",
          "type": "uint256",
          "internalType": "uint256"
        }
      ],
      "stateMutability": "view"
    },
    {
      "type": "function",
      "name": "underlying",
      "inputs": [],
      "outputs": [
        {
          "name": "",
          "type": "address",
          "internalType": "address"
        }
      ],
      "stateMutability": "view"
    },
    {
      "type": "function",
      "name": "userDebt",
      "inputs": [
        {
          "name": "user",
          "type": "address",
          "internalType": "address"
        }
      ],
      "outputs": [
        {
          "name": "",
          "type": "uint256",
          "internalType": "uint256"
        }
      ],
      "stateMutability": "view"
    },
    {
      "type": "function",
      "name": "userDeposit",
      "inputs": [
        {
          "name": "user",
          "type": "address",
          "internalType": "address"
        }
      ],
      "outputs": [
        {
          "name": "",
          "type": "uint256",
          "internalType": "uint256"
        }
      ],
      "stateMutability": "view"
    },
    {
      "type": "function",
      "name": "utilizationBps",
      "inputs": [],
      "outputs": [
        {
          "name": "",
          "type": "uint256",
          "internalType": "uint256"
        }
      ],
      "stateMutability": "view"
    },
    {
      "type": "function",
      "name": "withdraw",
      "inputs": [
        {
          "name": "amount",
          "type": "uint256",
          "internalType": "uint256"
        }
      ],
      "outputs": [],
      "stateMutability": "nonpayable"
    },
    {
      "type": "event",
      "name": "Borrowed",
      "inputs": [
        {
          "name": "user",
          "type": "address",
          "indexed": true,
          "internalType": "address"
        },
        {
          "name": "amount",
          "type": "uint256",
          "indexed": false,
          "internalType": "uint256"
        }
      ],
      "anonymous": false
    },
    {
      "type": "event",
      "name": "Deposited",
      "inputs": [
        {
          "name": "user",
          "type": "address",
          "indexed": true,
          "internalType": "address"
        },
        {
          "name": "amount",
          "type": "uint256",
          "indexed": false,
          "internalType": "uint256"
        }
      ],
      "anonymous": false
    },
    {
      "type": "event",
      "name": "Repaid",
      "inputs": [
        {
          "name": "user",
          "type": "address",
          "indexed": true,
          "internalType": "address"
        },
        {
          "name": "amount",
          "type": "uint256",
          "indexed": false,
          "internalType": "uint256"
        }
      ],
      "anonymous": false
    },
    {
      "type": "event",
      "name": "Withdrawn",
      "inputs": [
        {
          "name": "user",
          "type": "address",
          "indexed": true,
          "internalType": "address"
        },
        {
          "name": "amount",
          "type": "uint256",
          "indexed": false,
          "internalType": "uint256"
        }
      ],
      "anonymous": false
    }
  ],
  "bytecode": {
    "object": "0x60a03461008f57601f610be638819003918201601f19168301916001600160401b038311848410176100935780849260209460405283398101031261008f57516001600160a01b0381169081900361008f57608052604051610b3e90816100a882396080518181816101de0152818161034401528181610475015281816105c50152818161078c0152610a4a0152f35b5f80fd5b634e487b7160e01b5f52604160045260245ffdfe60406080815260049081361015610014575f80fd5b5f91823560e01c9083826305fe25a2146106d9575081630e752702146106b95781632608f818146106895781632e1a7d4d14610527578163371fd8e61461050657816347bd3718146104e75781636f307dc31461046057816374375359146104c35781637d882097146104a457816389a3027114610460578163975e900e1461043c5781639b6c56ec14610404578163b69e5c7714610404578163b6b55f25146102e9578163c37f68e21461028f578163c5ebeaec1461014857508063d1260edd146101215763e3a9db1a146100e8575f80fd5b3461011d57602036600319011261011d5760209181906001600160a01b0361010e6107fd565b16815280845220549051908152f35b5080fd5b503461011d57602036600319011261011d5760209181906001600160a01b0361010e6107fd565b83833461011d576020928360031936011261028b576101d98482358093610170821515610817565b61018a8261018360025460035490610949565b1015610904565b3387526001835285872061019f8382546108e3565b90556101ad826003546108e3565b600355855163a9059cbb60e01b8152339181019182526020820192909252909283918291604090910190565b0381877f00000000000000000000000000000000000000000000000000000000000000006001600160a01b03165af190811561027e5790610221918591610251575b50610956565b81519081527fac59582e5396aca512fa873a2047e7f4c80f8f55d4a06cb34a78a0187f62719f843392a251908152f35b6102719150863d8811610277575b6102698183610854565b81019061088a565b8661021b565b503d61025f565b50505051903d90823e3d90fd5b8280fd5b50503461011d57602036600319011261011d57608091906001600160a01b036102b66107fd565b1682528160205280822054906001602052808320549181519384526020840152820152670de0b6b3a76400006060820152f35b90503461028b576020806003193601126104005761033f8183358094610310821515610817565b86516323b872dd60e01b8152339181019182523060208301526040820192909252909283918291606090910190565b0381887f00000000000000000000000000000000000000000000000000000000000000006001600160a01b03165af19081156103f6577f2da466a7b24304f47e87fa2e1e5a81b9831ce54fec19055ce277ca2f39ba42c49394916103aa9187916103d9575b506108a2565b3385528482528085206103be8582546108e3565b90556103cc846002546108e3565b600255519283523392a280f35b6103f09150843d8611610277576102698183610854565b5f6103a4565b84513d87823e3d90fd5b8380fd5b50503461011d57602036600319011261011d5760209181906001600160a01b0361042c6107fd565b1681526001845220549051908152f35b50503461011d578160031936011261011d57602090610459610992565b9051908152f35b50503461011d578160031936011261011d57517f00000000000000000000000000000000000000000000000000000000000000006001600160a01b03168152602090f35b50503461011d578160031936011261011d576020906002549051908152f35b50503461011d578160031936011261011d5760209061045960025460035490610949565b50503461011d578160031936011261011d576020906003549051908152f35b83903461011d57602036600319011261011d576105249035336109bb565b80f35b90503461028b5760208060031936011261040057813591610549831515610817565b3385528482528284862054106106515781836105c0926105728261018360025460035490610949565b338852878352868820610586838254610949565b905561059482600254610949565b600255865163a9059cbb60e01b8152339181019182526020820192909252909283918291604090910190565b0381887f00000000000000000000000000000000000000000000000000000000000000006001600160a01b03165af19081156103f6577f7084f5476618d8e60b11ef0d7d3f06914655adb8793e28ff7f018d4c76d505d593949161062a9187916106345750610956565b519283523392a280f35b61064b9150843d8611610277576102698183610854565b5f61021b565b60649184519162461bcd60e51b83528201526014602482015273125394d551919250d251539517d1115413d4d25560621b6044820152fd5b50503461011d578060031936011261011d57906020916106b36106aa6107fd565b602435906109bb565b51908152f35b83833461011d57602036600319011261011d576106b360209335336109bb565b929150346107f957816003193601126107f9576024356001600160a01b03818116928035928481036107f557610788928491610716831515610817565b6107298361018360025460035490610949565b8689526020998a94600186528982206107438682546108e3565b9055610751856003546108e3565b600355895163a9059cbb60e01b81526001600160a01b03909316908301908152602081019490945290948593849291839160400190565b03927f0000000000000000000000000000000000000000000000000000000000000000165af19081156103f657916107e987927fac59582e5396aca512fa873a2047e7f4c80f8f55d4a06cb34a78a0187f62719f9488916106345750610956565b8451908152a251908152f35b8680fd5b5050fd5b600435906001600160a01b038216820361081357565b5f80fd5b1561081e57565b60405162461bcd60e51b815260206004820152600e60248201526d1253959053125117d05353d5539560921b6044820152606490fd5b90601f8019910116810190811067ffffffffffffffff82111761087657604052565b634e487b7160e01b5f52604160045260245ffd5b90816020910312610813575180151581036108135790565b156108a957565b60405162461bcd60e51b81526020600482015260126024820152711514905394d1915497d19493d357d190525360721b6044820152606490fd5b919082018092116108f057565b634e487b7160e01b5f52601160045260245ffd5b1561090b57565b60405162461bcd60e51b8152602060048201526016602482015275494e53554646494349454e545f4c495155494449545960501b6044820152606490fd5b919082039182116108f057565b1561095d57565b60405162461bcd60e51b815260206004820152600d60248201526c1514905394d1915497d1905253609a1b6044820152606490fd5b60025480156109b657600354612710908181029181830414901517156108f0570490565b505f90565b9190916109c9831515610817565b60018060a01b03809116905f93828552602091600183526040908187205415610ada578487526001845281872080549384811115610acf5750610a0c8480610949565b9055610a1a83600354610949565b60035581516323b872dd60e01b815233600482015230602482015260448101849052908490829060649082908b907f0000000000000000000000000000000000000000000000000000000000000000165af1908115610ac55790610aa7917f0516911bcc3a0a7412a44601057c0a0a1ec628bde049a84284bc42886653448896979891610aae57506108a2565b51908152a2565b6103f09150853d8711610277576102698183610854565b82513d89823e3d90fd5b610a0c908095610949565b815162461bcd60e51b81526004810185905260076024820152661393d7d111509560ca1b6044820152606490fdfea26469706673582212200a606661bda3d58b4cf78b4ba558b8bcda9e433ca01fdd3330ed92c606f07e0a64736f6c63430008140033",
    "linkReferences": {}
  },
  "methodIdentifiers": {
    "USDC()": "89a30271",
    "availableLiquidity()": "74375359",
    "borrow(uint256)": "c5ebeaec",
    "borrowFor(uint256,address)": "05fe25a2",
    "debt(address)": "9b6c56ec",
    "deposit(uint256)": "b6b55f25",
    "depositsOf(address)": "e3a9db1a",
    "getAccountSnapshot(address)": "c37f68e2",
    "repay(uint256)": "371fd8e6",
    "repayBorrow(uint256)": "0e752702",
    "repayBorrowBehalf(address,uint256)": "2608f818",
    "totalBorrows()": "47bd3718",
    "totalDeposits()": "7d882097",
    "underlying()": "6f307dc3",
    "userDebt(address)": "b69e5c77",
    "userDeposit(address)": "d1260edd",
    "utilizationBps()": "975e900e",
    "withdraw(uint256)": "2e1a7d4d"
  },
  "id": 55
}