{
  "abi": [
    {
      "type": "constructor",
      "inputs": [
        {
          "name": "usdc",
          "type": "address",
          "internalType": "address"
        }
      ],
      "stateMutability": "nonpayable"
    },
    {
      "type": "function",
      "name": "USDC",
      "inputs": [],
      "outputs": [
        {
          "name": "",
          "type": "address",
          "internalType": "contract IERC20"
        }
      ],
      "stateMutability": "view"
    },
    {
      "type": "function",
      "name": "availableLiquidity",
      "inputs": [],
      "outputs": [
        {
          "name": "",
          "type": "uint256",
          "internalType": "uint256"
        }
      ],
      "stateMutability": "view"
    },
    {
      "type": "function",
      "name": "borrow",
      "inputs": [
        {
          "name": "amount",
          "type": "uint256",
          "internalType": "uint256"
        }
      ],
      "outputs": [
        {
          "name": "",
          "type": "uint256",
          "internalType": "uint256"
        }
      ],
      "stateMutability": "nonpayable"
    },
    {
      "type": "function",
      "name": "debt",
      "inputs": [
        {
          "name": "",
          "type": "address",
          "internalType": "address"
        }
      ],
      "outputs": [
        {
          "name": "",
          "type": "uint256",
          "internalType": "uint256"
        }
      ],
      "stateMutability": "view"
    },
    {
      "type": "function",
      "name": "deposit",
      "inputs": [
        {
          "name": "amount",
          "type": "uint256",
          "internalType": "uint256"
        }
      ],
      "outputs": [],
      "stateMutability": "nonpayable"
    },
    {
      "type": "function",
      "name": "depositsOf",
      "inputs": [
        {
          "name": "",
          "type": "address",
          "internalType": "address"
        }
      ],
      "outputs": [
        {
          "name": "",
          "type": "uint256",
          "internalType": "uint256"
        }
      ],
      "stateMutability": "view"
    },
    {
      "type": "function",
      "name": "repay",
      "inputs": [
        {
          "name": "amount",
          "type": "uint256",
          "internalType": "uint256"
        }
      ],
      "outputs": [],
      "stateMutability": "nonpayable"
    },
    {
      "type": "function",
      "name": "repayBorrow",
      "inputs": [
        {
          "name": "amount",
          "type": "uint256",
          "internalType": "uint256"
        }
      ],
      "outputs": [
        {
          "name": "",
          "type": "uint256",
          "internalType": "uint256"
        }
      ],
      "stateMutability": "nonpayable"
    },
    {
      "type": "function",
      "name": "totalBorrows",
      "inputs": [],
      "outputs": [
        {
          "name": "",
          "type": "uint256",
          "internalType": "uint256"
        }
      ],
      "stateMutability": "view"
    },
    {
      "type": "function",
      "name": "totalDeposits",
      "inputs": [],
      "outputs": [
        {
          "name": "",
          "type": "uint256",
          "internalType": "uint256"
        }
      ],
      "stateMutability": "view"
    },
    {
      "type": "function",
      "name": "underlying",
      "inputs": [],
      "outputs": [
        {
          "name": "",
          "type": "address",
          "internalType": "address"
        }
      ],
      "stateMutability": "view"
    },
    {
      "type": "function",
      "name": "userDebt",
      "inputs": [
        {
          "name": "user",
          "type": "address",
          "internalType": "address"
        }
      ],
      "outputs": [
        {
          "name": "",
          "type": "uint256",
          "internalType": "uint256"
        }
      ],
      "stateMutability": "view"
    },
    {
      "type": "function",
      "name": "userDeposit",
      "inputs": [
        {
          "name": "user",
          "type": "address",
          "internalType": "address"
        }
      ],
      "outputs": [
        {
          "name": "",
          "type": "uint256",
          "internalType": "uint256"
        }
      ],
      "stateMutability": "view"
    },
    {
      "type": "function",
      "name": "utilizationBps",
      "inputs": [],
      "outputs": [
        {
          "name": "",
          "type": "uint256",
          "internalType": "uint256"
        }
      ],
      "stateMutability": "view"
    },
    {
      "type": "function",
      "name": "withdraw",
      "inputs": [
        {
          "name": "amount",
          "type": "uint256",
          "internalType": "uint256"
        }
      ],
      "outputs": [],
      "stateMutability": "nonpayable"
    },
    {
      "type": "event",
      "name": "Borrowed",
      "inputs": [
        {
          "name": "user",
          "type": "address",
          "indexed": true,
          "internalType": "address"
        },
        {
          "name": "amount",
          "type": "uint256",
          "indexed": false,
          "internalType": "uint256"
        }
      ],
      "anonymous": false
    },
    {
      "type": "event",
      "name": "Deposited",
      "inputs": [
        {
          "name": "user",
          "type": "address",
          "indexed": true,
          "internalType": "address"
        },
        {
          "name": "amount",
          "type": "uint256",
          "indexed": false,
          "internalType": "uint256"
        }
      ],
      "anonymous": false
    },
    {
      "type": "event",
      "name": "Repaid",
      "inputs": [
        {
          "name": "user",
          "type": "address",
          "indexed": true,
          "internalType": "address"
        },
        {
          "name": "amount",
          "type": "uint256",
          "indexed": false,
          "internalType": "uint256"
        }
      ],
      "anonymous": false
    },
    {
      "type": "event",
      "name": "Withdrawn",
      "inputs": [
        {
          "name": "user",
          "type": "address",
          "indexed": true,
          "internalType": "address"
        },
        {
          "name": "amount",
          "type": "uint256",
          "indexed": false,
          "internalType": "uint256"
        }
      ],
      "anonymous": false
    }
  ],
  "bytecode": {
    "object": "0x60a03461008857601f610a0a38819003918201601f19168301916001600160401b0383118484101761008c5780849260209460405283398101031261008857516001600160a01b038116908190036100885760805260405161096990816100a182396080518181816101cd015281816102d80152818161040a0152818161055901526108750152f35b5f80fd5b634e487b7160e01b5f52604160045260245ffdfe60406080815260049081361015610014575f80fd5b5f91823560e01c80630e752702146106175780632e1a7d4d146104bc578063371fd8e61461049b57806347bd37181461047c5780636f307dc3146103f557806374375359146104585780637d8820971461043957806389a30271146103f5578063975e900e146103d15780639b6c56ec14610398578063b69e5c7714610398578063b6b55f251461027e578063c5ebeaec14610136578063d1260edd146100fe5763e3a9db1a146100c3575f80fd5b346100fa5760203660031901126100fa57356001600160a01b038116908190036100fa578282916020945280845220549051908152f35b8280fd5b50346100fa5760203660031901126100fa57356001600160a01b038116908190036100fa578282916020945280845220549051908152f35b5091903461027a57602092836003193601126100fa576101c8848235809361015f82151561063e565b6101798261017260025460035490610774565b101561072f565b3387526001835285872061018e83825461070e565b905561019c8260035461070e565b600355855163a9059cbb60e01b8152339181019182526020820192909252909283918291604090910190565b0381877f00000000000000000000000000000000000000000000000000000000000000006001600160a01b03165af190811561026d5790610210918591610240575b50610781565b81519081527fac59582e5396aca512fa873a2047e7f4c80f8f55d4a06cb34a78a0187f62719f843392a251908152f35b6102609150863d8811610266575b610258818361067b565b8101906106b1565b5f61020a565b503d61024e565b50505051903d90823e3d90fd5b5080fd5b50346100fa57602080600319360112610394576102d381833580946102a482151561063e565b86516323b872dd60e01b8152339181019182523060208301526040820192909252909283918291606090910190565b0381887f00000000000000000000000000000000000000000000000000000000000000006001600160a01b03165af190811561038a577f2da466a7b24304f47e87fa2e1e5a81b9831ce54fec19055ce277ca2f39ba42c493949161033e91879161036d575b506106cd565b33855284825280852061035285825461070e565b90556103608460025461070e565b600255519283523392a280f35b6103849150843d861161026657610258818361067b565b5f610338565b84513d87823e3d90fd5b8380fd5b50346100fa5760203660031901126100fa57356001600160a01b038116908190036100fa57828291602094526001845220549051908152f35b50503461027a578160031936011261027a576020906103ee6107bd565b9051908152f35b50503461027a578160031936011261027a57517f00000000000000000000000000000000000000000000000000000000000000006001600160a01b03168152602090f35b50503461027a578160031936011261027a576020906002549051908152f35b50503461027a578160031936011261027a576020906103ee60025460035490610774565b50503461027a578160031936011261027a576020906003549051908152f35b83823461027a57602036600319011261027a576104b99035336107e6565b80f35b50346100fa57602080600319360112610394578135916104dd83151561063e565b3385528482528284862054106105df578183610554926105068261017260025460035490610774565b33885287835286882061051a838254610774565b905561052882600254610774565b600255865163a9059cbb60e01b8152339181019182526020820192909252909283918291604090910190565b0381887f00000000000000000000000000000000000000000000000000000000000000006001600160a01b03165af190811561038a577f7084f5476618d8e60b11ef0d7d3f06914655adb8793e28ff7f018d4c76d505d59394916105be9187916105c85750610781565b519283523392a280f35b6102609150843d861161026657610258818361067b565b60649184519162461bcd60e51b83528201526014602482015273125394d551919250d251539517d1115413d4d25560621b6044820152fd5b5091903461027a57602036600319011261027a5761063860209335336107e6565b51908152f35b1561064557565b60405162461bcd60e51b815260206004820152600e60248201526d1253959053125117d05353d5539560921b6044820152606490fd5b90601f8019910116810190811067ffffffffffffffff82111761069d57604052565b634e487b7160e01b5f52604160045260245ffd5b908160209103126106c9575180151581036106c95790565b5f80fd5b156106d457565b60405162461bcd60e51b81526020600482015260126024820152711514905394d1915497d19493d357d190525360721b6044820152606490fd5b9190820180921161071b57565b634e487b7160e01b5f52601160045260245ffd5b1561073657565b60405162461bcd60e51b8152602060048201526016602482015275494e53554646494349454e545f4c495155494449545960501b6044820152606490fd5b9190820391821161071b57565b1561078857565b60405162461bcd60e51b815260206004820152600d60248201526c1514905394d1915497d1905253609a1b6044820152606490fd5b60025480156107e1576003546127109081810291818304149015171561071b570490565b505f90565b9190916107f483151561063e565b60018060a01b03809116905f938285526020916001835260409081872054156109055784875260018452818720805493848111156108fa57506108378480610774565b905561084583600354610774565b60035581516323b872dd60e01b815233600482015230602482015260448101849052908490829060649082908b907f0000000000000000000000000000000000000000000000000000000000000000165af19081156108f057906108d2917f0516911bcc3a0a7412a44601057c0a0a1ec628bde049a84284bc428866534488969798916108d957506106cd565b51908152a2565b6103849150853d871161026657610258818361067b565b82513d89823e3d90fd5b610837908095610774565b815162461bcd60e51b81526004810185905260076024820152661393d7d111509560ca1b6044820152606490fdfea2646970667358221220e227bfcd76e1a4aa03d1969dfd9f1d05670117348737bf8e999cbcda866e215864736f6c63430008140033",
    "linkReferences": {}
  },
  "methodIdentifiers": {
    "USDC()": "89a30271",
    "availableLiquidity()": "74375359",
    "borrow(uint256)": "c5ebeaec",
    "debt(address)": "9b6c56ec",
    "deposit(uint256)": "b6b55f25",
    "depositsOf(address)": "e3a9db1a",
    "repay(uint256)": "371fd8e6",
    "repayBorrow(uint256)": "0e752702",
    "totalBorrows()": "47bd3718",
    "totalDeposits()": "7d882097",
    "underlying()": "6f307dc3",
    "userDebt(address)": "b69e5c77",
    "userDeposit(address)": "d1260edd",
    "utilizationBps()": "975e900e",
    "withdraw(uint256)": "2e1a7d4d"
  },
  "id": 48
}