{
  "abi": [
    {
      "type": "constructor",
      "inputs": [
        {
          "name": "usdc",
          "type": "address",
          "internalType": "address"
        }
      ],
      "stateMutability": "nonpayable"
    },
    {
      "type": "function",
      "name": "USDC",
      "inputs": [],
      "outputs": [
        {
          "name": "",
          "type": "address",
          "internalType": "contract IERC20"
        }
      ],
      "stateMutability": "view"
    },
    {
      "type": "function",
      "name": "availableLiquidity",
      "inputs": [],
      "outputs": [
        {
          "name": "",
          "type": "uint256",
          "internalType": "uint256"
        }
      ],
      "stateMutability": "view"
    },
    {
      "type": "function",
      "name": "borrow",
      "inputs": [
        {
          "name": "asset",
          "type": "address",
          "internalType": "address"
        },
        {
          "name": "amount",
          "type": "uint256",
          "internalType": "uint256"
        },
        {
          "name": "",
          "type": "uint256",
          "internalType": "uint256"
        },
        {
          "name": "",
          "type": "uint16",
          "internalType": "uint16"
        },
        {
          "name": "onBehalfOf",
          "type": "address",
          "internalType": "address"
        }
      ],
      "outputs": [],
      "stateMutability": "nonpayable"
    },
    {
      "type": "function",
      "name": "debtOf",
      "inputs": [
        {
          "name": "",
          "type": "address",
          "internalType": "address"
        }
      ],
      "outputs": [
        {
          "name": "",
          "type": "uint256",
          "internalType": "uint256"
        }
      ],
      "stateMutability": "view"
    },
    {
      "type": "function",
      "name": "deposit",
      "inputs": [
        {
          "name": "amount",
          "type": "uint256",
          "internalType": "uint256"
        }
      ],
      "outputs": [],
      "stateMutability": "nonpayable"
    },
    {
      "type": "function",
      "name": "depositsOf",
      "inputs": [
        {
          "name": "",
          "type": "address",
          "internalType": "address"
        }
      ],
      "outputs": [
        {
          "name": "",
          "type": "uint256",
          "internalType": "uint256"
        }
      ],
      "stateMutability": "view"
    },
    {
      "type": "function",
      "name": "getUserAccountData",
      "inputs": [
        {
          "name": "user",
          "type": "address",
          "internalType": "address"
        }
      ],
      "outputs": [
        {
          "name": "totalCollateralBase",
          "type": "uint256",
          "internalType": "uint256"
        },
        {
          "name": "totalDebtBase",
          "type": "uint256",
          "internalType": "uint256"
        },
        {
          "name": "availableBorrowsBase",
          "type": "uint256",
          "internalType": "uint256"
        },
        {
          "name": "currentLiquidationThreshold",
          "type": "uint256",
          "internalType": "uint256"
        },
        {
          "name": "ltv",
          "type": "uint256",
          "internalType": "uint256"
        },
        {
          "name": "healthFactor",
          "type": "uint256",
          "internalType": "uint256"
        }
      ],
      "stateMutability": "view"
    },
    {
      "type": "function",
      "name": "repay",
      "inputs": [
        {
          "name": "asset",
          "type": "address",
          "internalType": "address"
        },
        {
          "name": "amount",
          "type": "uint256",
          "internalType": "uint256"
        },
        {
          "name": "",
          "type": "uint256",
          "internalType": "uint256"
        },
        {
          "name": "onBehalfOf",
          "type": "address",
          "internalType": "address"
        }
      ],
      "outputs": [
        {
          "name": "",
          "type": "uint256",
          "internalType": "uint256"
        }
      ],
      "stateMutability": "nonpayable"
    },
    {
      "type": "function",
      "name": "totalBorrows",
      "inputs": [],
      "outputs": [
        {
          "name": "",
          "type": "uint256",
          "internalType": "uint256"
        }
      ],
      "stateMutability": "view"
    },
    {
      "type": "function",
      "name": "totalDeposits",
      "inputs": [],
      "outputs": [
        {
          "name": "",
          "type": "uint256",
          "internalType": "uint256"
        }
      ],
      "stateMutability": "view"
    },
    {
      "type": "function",
      "name": "userDebt",
      "inputs": [
        {
          "name": "user",
          "type": "address",
          "internalType": "address"
        }
      ],
      "outputs": [
        {
          "name": "",
          "type": "uint256",
          "internalType": "uint256"
        }
      ],
      "stateMutability": "view"
    },
    {
      "type": "function",
      "name": "userDeposit",
      "inputs": [
        {
          "name": "user",
          "type": "address",
          "internalType": "address"
        }
      ],
      "outputs": [
        {
          "name": "",
          "type": "uint256",
          "internalType": "uint256"
        }
      ],
      "stateMutability": "view"
    },
    {
      "type": "function",
      "name": "utilizationBps",
      "inputs": [],
      "outputs": [
        {
          "name": "",
          "type": "uint256",
          "internalType": "uint256"
        }
      ],
      "stateMutability": "view"
    },
    {
      "type": "function",
      "name": "withdraw",
      "inputs": [
        {
          "name": "amount",
          "type": "uint256",
          "internalType": "uint256"
        }
      ],
      "outputs": [],
      "stateMutability": "nonpayable"
    },
    {
      "type": "event",
      "name": "Borrowed",
      "inputs": [
        {
          "name": "user",
          "type": "address",
          "indexed": true,
          "internalType": "address"
        },
        {
          "name": "amount",
          "type": "uint256",
          "indexed": false,
          "internalType": "uint256"
        }
      ],
      "anonymous": false
    },
    {
      "type": "event",
      "name": "Deposited",
      "inputs": [
        {
          "name": "user",
          "type": "address",
          "indexed": true,
          "internalType": "address"
        },
        {
          "name": "amount",
          "type": "uint256",
          "indexed": false,
          "internalType": "uint256"
        }
      ],
      "anonymous": false
    },
    {
      "type": "event",
      "name": "Repaid",
      "inputs": [
        {
          "name": "user",
          "type": "address",
          "indexed": true,
          "internalType": "address"
        },
        {
          "name": "amount",
          "type": "uint256",
          "indexed": false,
          "internalType": "uint256"
        }
      ],
      "anonymous": false
    },
    {
      "type": "event",
      "name": "Withdrawn",
      "inputs": [
        {
          "name": "user",
          "type": "address",
          "indexed": true,
          "internalType": "address"
        },
        {
          "name": "amount",
          "type": "uint256",
          "indexed": false,
          "internalType": "uint256"
        }
      ],
      "anonymous": false
    }
  ],
  "bytecode": {
    "object": "0x60a03461008857601f610b9b38819003918201601f19168301916001600160401b0383118484101761008c5780849260209460405283398101031261008857516001600160a01b0381169081900361008857608052604051610afa90816100a18239608051818181610274015281816103c40152818161051b015281816105c701526107e10152f35b5f80fd5b634e487b7160e01b5f52604160045260245ffdfe60406080815260049081361015610014575f80fd5b5f91823560e01c9081632e1a7d4d1461074357816347bd371814610724578163573ade811461058d57816374375359146105695781637d8820971461054a57816389a3027114610506578163975e900e146104e2578163a415bcad14610370578163b69e5c7714610348578163b6b55f2514610219578163bf92857c1461015157508063d1260edd1461012a578063d283e75f146100f35763e3a9db1a146100ba575f80fd5b346100ef5760203660031901126100ef5760209181906001600160a01b036100e061089f565b16815280845220549051908152f35b5080fd5b50346100ef5760203660031901126100ef5760209181906001600160a01b0361011a61089f565b1681526001845220549051908152f35b50346100ef5760203660031901126100ef5760209181906001600160a01b036100e061089f565b8383346100ef5760203660031901126100ef576001600160a01b0361017461089f565b168252816020528082205491600160205281812054918284115f146102135761019d83856109eb565b915b836101d1575060c094505f19925b81519485526020850152830152611f406060830152611d4c608083015260a0820152f35b670de0b6b3a764000090818602918683041486151715610200575060c09550836101fa91610a74565b926101ad565b634e487b7160e01b815260118752602490fd5b8161019f565b905034610344576020806003193601126103405761026f81833580946102408215156108b9565b86516323b872dd60e01b8152339181019182523060208301526040820192909252909283918291606090910190565b0381887f00000000000000000000000000000000000000000000000000000000000000006001600160a01b03165af1908115610336577f2da466a7b24304f47e87fa2e1e5a81b9831ce54fec19055ce277ca2f39ba42c49394916102da918791610309575b50610944565b3385528482528085206102ee858254610985565b90556102fc84600254610985565b600255519283523392a280f35b6103299150843d861161032f575b61032181836108f6565b81019061092c565b5f6102d4565b503d610317565b84513d87823e3d90fd5b8380fd5b8280fd5b5050346100ef5760203660031901126100ef5760209181906001600160a01b0361011a61089f565b9050346103445760a03660031901126103445761038b61089f565b91836024359260643561ffff8116036100ef576084356001600160a01b0381811696918781036104de5761046d946020946103ee8995857f0000000000000000000000000000000000000000000000000000000000000000169586911614610a34565b6103f98515156108b9565b6104138561040c600254600354906109eb565b10156109a6565b89825260018652878220610428868254610985565b905561043685600354610985565b600355875163a9059cbb60e01b81526001600160a01b03909316908301908152602081019490945290948593849291839160400190565b03925af19081156104d457916104af7fac59582e5396aca512fa873a2047e7f4c80f8f55d4a06cb34a78a0187f62719f949260209488916104b7575b506109f8565b51908152a280f35b6104ce9150853d811161032f5761032181836108f6565b5f6104a9565b82513d87823e3d90fd5b8480fd5b5050346100ef57816003193601126100ef576020906104ff610a92565b9051908152f35b5050346100ef57816003193601126100ef57517f00000000000000000000000000000000000000000000000000000000000000006001600160a01b03168152602090f35b5050346100ef57816003193601126100ef576020906002549051908152f35b5050346100ef57816003193601126100ef576020906104ff600254600354906109eb565b91905034610344576080366003190112610344576105a961089f565b602435936001600160a01b03936064358581169390849003610344577f00000000000000000000000000000000000000000000000000000000000000008616956105f591168614610a34565b6106008615156108b9565b82825260209560018752848320549081156106f757918791610683938181115f146106ed57509687915b8686526001845287862061063f8482546109eb565b905561064d836003546109eb565b60035587516323b872dd60e01b815233918101918252306020830152604082019390935291938492839187918391606090910190565b03925af19182156106e2579061069d926106cb5750610944565b7f0516911bcc3a0a7412a44601057c0a0a1ec628bde049a84284bc428866534488848351858152a251908152f35b6103299150863d881161032f5761032181836108f6565b8451903d90823e3d90fd5b905096879161062a565b855162461bcd60e51b815280840189905260076024820152661393d7d111509560ca1b6044820152606490fd5b5050346100ef57816003193601126100ef576020906003549051908152f35b90503461034457602080600319360112610340578135916107658315156108b9565b3385528482528284862054106108675781836107dc9261078e8261040c600254600354906109eb565b3388528783528688206107a28382546109eb565b90556107b0826002546109eb565b600255865163a9059cbb60e01b8152339181019182526020820192909252909283918291604090910190565b0381887f00000000000000000000000000000000000000000000000000000000000000006001600160a01b03165af1908115610336577f7084f5476618d8e60b11ef0d7d3f06914655adb8793e28ff7f018d4c76d505d593949161084691879161085057506109f8565b519283523392a280f35b6104ce9150843d861161032f5761032181836108f6565b60649184519162461bcd60e51b83528201526014602482015273125394d551919250d251539517d1115413d4d25560621b6044820152fd5b600435906001600160a01b03821682036108b557565b5f80fd5b156108c057565b60405162461bcd60e51b815260206004820152600e60248201526d1253959053125117d05353d5539560921b6044820152606490fd5b90601f8019910116810190811067ffffffffffffffff82111761091857604052565b634e487b7160e01b5f52604160045260245ffd5b908160209103126108b5575180151581036108b55790565b1561094b57565b60405162461bcd60e51b81526020600482015260126024820152711514905394d1915497d19493d357d190525360721b6044820152606490fd5b9190820180921161099257565b634e487b7160e01b5f52601160045260245ffd5b156109ad57565b60405162461bcd60e51b8152602060048201526016602482015275494e53554646494349454e545f4c495155494449545960501b6044820152606490fd5b9190820391821161099257565b156109ff57565b60405162461bcd60e51b815260206004820152600d60248201526c1514905394d1915497d1905253609a1b6044820152606490fd5b15610a3b57565b60405162461bcd60e51b8152602060048201526011602482015270155394d5541413d495115117d054d4d155607a1b6044820152606490fd5b8115610a7e570490565b634e487b7160e01b5f52601260045260245ffd5b6002548015610abf57600354906127109182810292818404149015171561099257610abc91610a74565b90565b505f9056fea264697066735822122003103a0463dfb790f0042b976df259f93c8059d0030209b2164295af2bfb9fa064736f6c63430008140033",
    "linkReferences": {}
  },
  "methodIdentifiers": {
    "USDC()": "89a30271",
    "availableLiquidity()": "74375359",
    "borrow(address,uint256,uint256,uint16,address)": "a415bcad",
    "debtOf(address)": "d283e75f",
    "deposit(uint256)": "b6b55f25",
    "depositsOf(address)": "e3a9db1a",
    "getUserAccountData(address)": "bf92857c",
    "repay(address,uint256,uint256,address)": "573ade81",
    "totalBorrows()": "47bd3718",
    "totalDeposits()": "7d882097",
    "userDebt(address)": "b69e5c77",
    "userDeposit(address)": "d1260edd",
    "utilizationBps()": "975e900e",
    "withdraw(uint256)": "2e1a7d4d"
  },
  "id": 38
}