{
  "abi": [
    {
      "type": "constructor",
      "inputs": [
        {
          "name": "usdc",
          "type": "address",
          "internalType": "address"
        }
      ],
      "stateMutability": "nonpayable"
    },
    {
      "type": "function",
      "name": "USDC",
      "inputs": [],
      "outputs": [
        {
          "name": "",
          "type": "address",
          "internalType": "contract IERC20"
        }
      ],
      "stateMutability": "view"
    },
    {
      "type": "function",
      "name": "availableLiquidity",
      "inputs": [],
      "outputs": [
        {
          "name": "",
          "type": "uint256",
          "internalType": "uint256"
        }
      ],
      "stateMutability": "view"
    },
    {
      "type": "function",
      "name": "borrow",
      "inputs": [
        {
          "name": "asset",
          "type": "address",
          "internalType": "address"
        },
        {
          "name": "amount",
          "type": "uint256",
          "internalType": "uint256"
        },
        {
          "name": "",
          "type": "uint256",
          "internalType": "uint256"
        },
        {
          "name": "",
          "type": "uint16",
          "internalType": "uint16"
        },
        {
          "name": "onBehalfOf",
          "type": "address",
          "internalType": "address"
        }
      ],
      "outputs": [],
      "stateMutability": "nonpayable"
    },
    {
      "type": "function",
      "name": "debtOf",
      "inputs": [
        {
          "name": "",
          "type": "address",
          "internalType": "address"
        }
      ],
      "outputs": [
        {
          "name": "",
          "type": "uint256",
          "internalType": "uint256"
        }
      ],
      "stateMutability": "view"
    },
    {
      "type": "function",
      "name": "deposit",
      "inputs": [
        {
          "name": "amount",
          "type": "uint256",
          "internalType": "uint256"
        }
      ],
      "outputs": [],
      "stateMutability": "nonpayable"
    },
    {
      "type": "function",
      "name": "depositsOf",
      "inputs": [
        {
          "name": "",
          "type": "address",
          "internalType": "address"
        }
      ],
      "outputs": [
        {
          "name": "",
          "type": "uint256",
          "internalType": "uint256"
        }
      ],
      "stateMutability": "view"
    },
    {
      "type": "function",
      "name": "repay",
      "inputs": [
        {
          "name": "asset",
          "type": "address",
          "internalType": "address"
        },
        {
          "name": "amount",
          "type": "uint256",
          "internalType": "uint256"
        },
        {
          "name": "onBehalfOf",
          "type": "address",
          "internalType": "address"
        }
      ],
      "outputs": [
        {
          "name": "",
          "type": "uint256",
          "internalType": "uint256"
        }
      ],
      "stateMutability": "nonpayable"
    },
    {
      "type": "function",
      "name": "totalBorrows",
      "inputs": [],
      "outputs": [
        {
          "name": "",
          "type": "uint256",
          "internalType": "uint256"
        }
      ],
      "stateMutability": "view"
    },
    {
      "type": "function",
      "name": "totalDeposits",
      "inputs": [],
      "outputs": [
        {
          "name": "",
          "type": "uint256",
          "internalType": "uint256"
        }
      ],
      "stateMutability": "view"
    },
    {
      "type": "function",
      "name": "userDebt",
      "inputs": [
        {
          "name": "user",
          "type": "address",
          "internalType": "address"
        }
      ],
      "outputs": [
        {
          "name": "",
          "type": "uint256",
          "internalType": "uint256"
        }
      ],
      "stateMutability": "view"
    },
    {
      "type": "function",
      "name": "userDeposit",
      "inputs": [
        {
          "name": "user",
          "type": "address",
          "internalType": "address"
        }
      ],
      "outputs": [
        {
          "name": "",
          "type": "uint256",
          "internalType": "uint256"
        }
      ],
      "stateMutability": "view"
    },
    {
      "type": "function",
      "name": "utilizationBps",
      "inputs": [],
      "outputs": [
        {
          "name": "",
          "type": "uint256",
          "internalType": "uint256"
        }
      ],
      "stateMutability": "view"
    },
    {
      "type": "function",
      "name": "withdraw",
      "inputs": [
        {
          "name": "amount",
          "type": "uint256",
          "internalType": "uint256"
        }
      ],
      "outputs": [],
      "stateMutability": "nonpayable"
    },
    {
      "type": "event",
      "name": "Borrowed",
      "inputs": [
        {
          "name": "user",
          "type": "address",
          "indexed": true,
          "internalType": "address"
        },
        {
          "name": "amount",
          "type": "uint256",
          "indexed": false,
          "internalType": "uint256"
        }
      ],
      "anonymous": false
    },
    {
      "type": "event",
      "name": "Deposited",
      "inputs": [
        {
          "name": "user",
          "type": "address",
          "indexed": true,
          "internalType": "address"
        },
        {
          "name": "amount",
          "type": "uint256",
          "indexed": false,
          "internalType": "uint256"
        }
      ],
      "anonymous": false
    },
    {
      "type": "event",
      "name": "Repaid",
      "inputs": [
        {
          "name": "user",
          "type": "address",
          "indexed": true,
          "internalType": "address"
        },
        {
          "name": "amount",
          "type": "uint256",
          "indexed": false,
          "internalType": "uint256"
        }
      ],
      "anonymous": false
    },
    {
      "type": "event",
      "name": "Withdrawn",
      "inputs": [
        {
          "name": "user",
          "type": "address",
          "indexed": true,
          "internalType": "address"
        },
        {
          "name": "amount",
          "type": "uint256",
          "indexed": false,
          "internalType": "uint256"
        }
      ],
      "anonymous": false
    }
  ],
  "bytecode": {
    "object": "0x60a03461008857601f610aa138819003918201601f19168301916001600160401b0383118484101761008c5780849260209460405283398101031261008857516001600160a01b0381169081900361008857608052604051610a0090816100a182396080518181816101a1015281816102f101528181610448015281816104f4015261070e0152f35b5f80fd5b634e487b7160e01b5f52604160045260245ffdfe60406080815260049081361015610014575f80fd5b5f91823560e01c9081632e1a7d4d1461067057816347bd3718146106515781635ceae9c4146104ba57816374375359146104965781637d8820971461047757816389a3027114610433578163975e900e1461040f578163a415bcad1461029d578163b69e5c7714610275578163b6b55f251461014657508063d1260edd1461011f578063d283e75f146100e85763e3a9db1a146100af575f80fd5b346100e45760203660031901126100e45760209181906001600160a01b036100d56107cc565b16815280845220549051908152f35b5080fd5b50346100e45760203660031901126100e45760209181906001600160a01b0361010f6107cc565b1681526001845220549051908152f35b50346100e45760203660031901126100e45760209181906001600160a01b036100d56107cc565b9050346102715760208060031936011261026d5761019c818335809461016d8215156107e6565b86516323b872dd60e01b8152339181019182523060208301526040820192909252909283918291606090910190565b0381887f00000000000000000000000000000000000000000000000000000000000000006001600160a01b03165af1908115610263577f2da466a7b24304f47e87fa2e1e5a81b9831ce54fec19055ce277ca2f39ba42c4939491610207918791610236575b50610871565b33855284825280852061021b8582546108b2565b9055610229846002546108b2565b600255519283523392a280f35b6102569150843d861161025c575b61024e8183610823565b810190610859565b5f610201565b503d610244565b84513d87823e3d90fd5b8380fd5b8280fd5b5050346100e45760203660031901126100e45760209181906001600160a01b0361010f6107cc565b9050346102715760a0366003190112610271576102b86107cc565b91836024359260643561ffff8116036100e4576084356001600160a01b03818116969187810361040b5761039a9460209461031b8995857f0000000000000000000000000000000000000000000000000000000000000000169586911614610961565b6103268515156107e6565b6103408561033960025460035490610918565b10156108d3565b898252600186528782206103558682546108b2565b9055610363856003546108b2565b600355875163a9059cbb60e01b81526001600160a01b03909316908301908152602081019490945290948593849291839160400190565b03925af190811561040157916103dc7fac59582e5396aca512fa873a2047e7f4c80f8f55d4a06cb34a78a0187f62719f949260209488916103e4575b50610925565b51908152a280f35b6103fb9150853d811161025c5761024e8183610823565b5f6103d6565b82513d87823e3d90fd5b8480fd5b5050346100e457816003193601126100e45760209061042c6109a1565b9051908152f35b5050346100e457816003193601126100e457517f00000000000000000000000000000000000000000000000000000000000000006001600160a01b03168152602090f35b5050346100e457816003193601126100e4576020906002549051908152f35b5050346100e457816003193601126100e45760209061042c60025460035490610918565b91905034610271576060366003190112610271576104d66107cc565b602435936001600160a01b03936044358581169390849003610271577f000000000000000000000000000000000000000000000000000000000000000086169561052291168614610961565b61052d8615156107e6565b8282526020956001875284832054908115610624579187916105b0938181115f1461061a57509687915b8686526001845287862061056c848254610918565b905561057a83600354610918565b60035587516323b872dd60e01b815233918101918252306020830152604082019390935291938492839187918391606090910190565b03925af191821561060f57906105ca926105f85750610871565b7f0516911bcc3a0a7412a44601057c0a0a1ec628bde049a84284bc428866534488848351858152a251908152f35b6102569150863d881161025c5761024e8183610823565b8451903d90823e3d90fd5b9050968791610557565b855162461bcd60e51b815280840189905260076024820152661393d7d111509560ca1b6044820152606490fd5b5050346100e457816003193601126100e4576020906003549051908152f35b9050346102715760208060031936011261026d578135916106928315156107e6565b338552848252828486205410610794578183610709926106bb8261033960025460035490610918565b3388528783528688206106cf838254610918565b90556106dd82600254610918565b600255865163a9059cbb60e01b8152339181019182526020820192909252909283918291604090910190565b0381887f00000000000000000000000000000000000000000000000000000000000000006001600160a01b03165af1908115610263577f7084f5476618d8e60b11ef0d7d3f06914655adb8793e28ff7f018d4c76d505d593949161077391879161077d5750610925565b519283523392a280f35b6103fb9150843d861161025c5761024e8183610823565b60649184519162461bcd60e51b83528201526014602482015273125394d551919250d251539517d1115413d4d25560621b6044820152fd5b600435906001600160a01b03821682036107e257565b5f80fd5b156107ed57565b60405162461bcd60e51b815260206004820152600e60248201526d1253959053125117d05353d5539560921b6044820152606490fd5b90601f8019910116810190811067ffffffffffffffff82111761084557604052565b634e487b7160e01b5f52604160045260245ffd5b908160209103126107e2575180151581036107e25790565b1561087857565b60405162461bcd60e51b81526020600482015260126024820152711514905394d1915497d19493d357d190525360721b6044820152606490fd5b919082018092116108bf57565b634e487b7160e01b5f52601160045260245ffd5b156108da57565b60405162461bcd60e51b8152602060048201526016602482015275494e53554646494349454e545f4c495155494449545960501b6044820152606490fd5b919082039182116108bf57565b1561092c57565b60405162461bcd60e51b815260206004820152600d60248201526c1514905394d1915497d1905253609a1b6044820152606490fd5b1561096857565b60405162461bcd60e51b8152602060048201526011602482015270155394d5541413d495115117d054d4d155607a1b6044820152606490fd5b60025480156109c557600354612710908181029181830414901517156108bf570490565b505f9056fea2646970667358221220a48a2af81914c03daaefba9b2c3c3eb850b76f53912116cef7bee55bcae421e764736f6c63430008140033",
    "linkReferences": {}
  },
  "methodIdentifiers": {
    "USDC()": "89a30271",
    "availableLiquidity()": "74375359",
    "borrow(address,uint256,uint256,uint16,address)": "a415bcad",
    "debtOf(address)": "d283e75f",
    "deposit(uint256)": "b6b55f25",
    "depositsOf(address)": "e3a9db1a",
    "repay(address,uint256,address)": "5ceae9c4",
    "totalBorrows()": "47bd3718",
    "totalDeposits()": "7d882097",
    "userDebt(address)": "b69e5c77",
    "userDeposit(address)": "d1260edd",
    "utilizationBps()": "975e900e",
    "withdraw(uint256)": "2e1a7d4d"
  },
  "id": 47
}