{
  "abi": [
    {
      "type": "constructor",
      "inputs": [],
      "stateMutability": "nonpayable"
    },
    {
      "type": "function",
      "name": "MAX_APR",
      "inputs": [],
      "outputs": [
        {
          "name": "",
          "type": "uint256",
          "internalType": "uint256"
        }
      ],
      "stateMutability": "view"
    },
    {
      "type": "function",
      "name": "MIN_APR",
      "inputs": [],
      "outputs": [
        {
          "name": "",
          "type": "uint256",
          "internalType": "uint256"
        }
      ],
      "stateMutability": "view"
    },
    {
      "type": "function",
      "name": "creditApr",
      "inputs": [],
      "outputs": [
        {
          "name": "",
          "type": "uint256",
          "internalType": "uint256"
        }
      ],
      "stateMutability": "view"
    },
    {
      "type": "function",
      "name": "owner",
      "inputs": [],
      "outputs": [
        {
          "name": "",
          "type": "address",
          "internalType": "address"
        }
      ],
      "stateMutability": "view"
    },
    {
      "type": "function",
      "name": "setCreditApr",
      "inputs": [
        {
          "name": "newApr",
          "type": "uint256",
          "internalType": "uint256"
        }
      ],
      "outputs": [],
      "stateMutability": "nonpayable"
    }
  ],
  "bytecode": {
    "object": "0x6080806040523461002d575f80546001600160a01b031916331790556102586001556101ba90816100328239f35b5f80fdfe608060408181526004361015610013575f80fd5b5f91823560e01c90816386d8f78d14610168575080638da5cb5b14610141578063a61ccb0014610092578063ad53cae0146100775763d2ed70a014610056575f80fd5b346100735781600319360112610073576020906001549051908152f35b5080fd5b50346100735781600319360112610073576020905160968152f35b503461007357602036600319011261007357815460043591906001600160a01b0316330361011357609682101580610107575b156100d1575060015580f35b5162461bcd60e51b815260206004820152601060248201526f4150525f4f55545f4f465f52414e474560801b6044820152606490fd5b506102bc8211156100c5565b5162461bcd60e51b815260206004820152600860248201526727a7262cafa3a7ab60c11b6044820152606490fd5b5034610073578160031936011261007357905490516001600160a01b039091168152602090f35b839034610073578160031936011261007357806102bc60209252f3fea2646970667358221220ea3e608389a8e140091687950a224b0d9211dc6ca81bcc2bce584879d9a903fb64736f6c63430008140033",
    "linkReferences": {}
  },
  "methodIdentifiers": {
    "MAX_APR()": "86d8f78d",
    "MIN_APR()": "ad53cae0",
    "creditApr()": "d2ed70a0",
    "owner()": "8da5cb5b",
    "setCreditApr(uint256)": "a61ccb00"
  },
  "id": 8
}