{"abi":[{"type":"constructor","inputs":[],"stateMutability":"nonpayable"},{"type":"function","name":"MAX_APR","inputs":[],"outputs":[{"name":"","type":"uint256","internalType":"uint256"}],"stateMutability":"view"},{"type":"function","name":"MIN_APR","inputs":[],"outputs":[{"name":"","type":"uint256","internalType":"uint256"}],"stateMutability":"view"},{"type":"function","name":"creditApr","inputs":[],"outputs":[{"name":"","type":"uint256","internalType":"uint256"}],"stateMutability":"view"},{"type":"function","name":"owner","inputs":[],"outputs":[{"name":"","type":"address","internalType":"address"}],"stateMutability":"view"},{"type":"function","name":"setCreditApr","inputs":[{"name":"newApr","type":"uint256","internalType":"uint256"}],"outputs":[],"stateMutability":"nonpayable"}],"bytecode":{"object":"0x608060405234801561000f575f80fd5b50335f806101000a81548173ffffffffffffffffffffffffffffffffffffffff021916908373ffffffffffffffffffffffffffffffffffffffff16021790555061025860018190555061040c806100655f395ff3fe608060405234801561000f575f80fd5b5060043610610055575f3560e01c806386d8f78d146100595780638da5cb5b14610077578063a61ccb0014610095578063ad53cae0146100b1578063d2ed70a0146100cf575b5f80fd5b6100616100ed565b60405161006e919061022c565b60405180910390f35b61007f6100f3565b60405161008c9190610284565b60405180910390f35b6100af60048036038101906100aa91906102cb565b610116565b005b6100b961017a565b6040516100c6919061022c565b60405180910390f35b6100d761017f565b6040516100e4919061022c565b60405180910390f35b6102bc81565b5f8054906101000a900473ffffffffffffffffffffffffffffffffffffffff1681565b61011e610185565b6096811015801561013157506102bc8111155b610170576040517f08c379a000000000000000000000000000000000000000000000000000000000815260040161016790610350565b60405180910390fd5b8060018190555050565b609681565b60015481565b5f8054906101000a900473ffffffffffffffffffffffffffffffffffffffff1673ffffffffffffffffffffffffffffffffffffffff163373ffffffffffffffffffffffffffffffffffffffff1614610212576040517f08c379a0000000000000000000000000000000000000000000000000000000008152600401610209906103b8565b60405180910390fd5b565b5f819050919050565b61022681610214565b82525050565b5f60208201905061023f5f83018461021d565b92915050565b5f73ffffffffffffffffffffffffffffffffffffffff82169050919050565b5f61026e82610245565b9050919050565b61027e81610264565b82525050565b5f6020820190506102975f830184610275565b92915050565b5f80fd5b6102aa81610214565b81146102b4575f80fd5b50565b5f813590506102c5816102a1565b92915050565b5f602082840312156102e0576102df61029d565b5b5f6102ed848285016102b7565b91505092915050565b5f82825260208201905092915050565b7f4150525f4f55545f4f465f52414e4745000000000000000000000000000000005f82015250565b5f61033a6010836102f6565b915061034582610306565b602082019050919050565b5f6020820190508181035f8301526103678161032e565b9050919050565b7f4f4e4c595f474f560000000000000000000000000000000000000000000000005f82015250565b5f6103a26008836102f6565b91506103ad8261036e565b602082019050919050565b5f6020820190508181035f8301526103cf81610396565b905091905056fea264697066735822122002ecbb462af554ede64ba75f662768bfb9e38f05b78aaa8005b54b9225c5345d64736f6c63430008140033","linkReferences":{}},"methodIdentifiers":{"MAX_APR()":"86d8f78d","MIN_APR()":"ad53cae0","creditApr()":"d2ed70a0","owner()":"8da5cb5b","setCreditApr(uint256)":"a61ccb00"},"id":8}