{"abi":[{"type":"constructor","inputs":[{"name":"_cToken","type":"address","internalType":"address"}],"stateMutability":"nonpayable"},{"type":"function","name":"borrow","inputs":[{"name":"amount","type":"uint256","internalType":"uint256"}],"outputs":[],"stateMutability":"nonpayable"},{"type":"function","name":"cToken","inputs":[],"outputs":[{"name":"","type":"address","internalType":"contract ICompound"}],"stateMutability":"view"}],"bytecode":{"object":"0x60a060405234801561000f575f80fd5b5060405161048e38038061048e833981810160405281019061003191906100c9565b8073ffffffffffffffffffffffffffffffffffffffff1660808173ffffffffffffffffffffffffffffffffffffffff1681525050506100f4565b5f80fd5b5f73ffffffffffffffffffffffffffffffffffffffff82169050919050565b5f6100988261006f565b9050919050565b6100a88161008e565b81146100b2575f80fd5b50565b5f815190506100c38161009f565b92915050565b5f602082840312156100de576100dd61006b565b5b5f6100eb848285016100b5565b91505092915050565b60805161037d6101115f395f8181607401526099015261037d5ff3fe608060405234801561000f575f80fd5b5060043610610034575f3560e01c806369e527da14610038578063c5ebeaec14610056575b5f80fd5b610040610072565b60405161004d91906101ed565b60405180910390f35b610070600480360381019061006b919061023d565b610096565b005b7f000000000000000000000000000000000000000000000000000000000000000081565b5f7f000000000000000000000000000000000000000000000000000000000000000073ffffffffffffffffffffffffffffffffffffffff1663c5ebeaec836040518263ffffffff1660e01b81526004016100f09190610277565b6020604051808303815f875af115801561010c573d5f803e3d5ffd5b505050506040513d601f19601f8201168201806040525081019061013091906102a4565b14610170576040517f08c379a000000000000000000000000000000000000000000000000000000000815260040161016790610329565b60405180910390fd5b50565b5f73ffffffffffffffffffffffffffffffffffffffff82169050919050565b5f819050919050565b5f6101b56101b06101ab84610173565b610192565b610173565b9050919050565b5f6101c68261019b565b9050919050565b5f6101d7826101bc565b9050919050565b6101e7816101cd565b82525050565b5f6020820190506102005f8301846101de565b92915050565b5f80fd5b5f819050919050565b61021c8161020a565b8114610226575f80fd5b50565b5f8135905061023781610213565b92915050565b5f6020828403121561025257610251610206565b5b5f61025f84828501610229565b91505092915050565b6102718161020a565b82525050565b5f60208201905061028a5f830184610268565b92915050565b5f8151905061029e81610213565b92915050565b5f602082840312156102b9576102b8610206565b5b5f6102c684828501610290565b91505092915050565b5f82825260208201905092915050565b7f434f4d504f554e445f424f52524f575f4641494c0000000000000000000000005f82015250565b5f6103136014836102cf565b915061031e826102df565b602082019050919050565b5f6020820190508181035f83015261034081610307565b905091905056fea26469706673582212201e98b6cda45585b46b5561c052e7ab4984009c89a96b8b9f8012367488be65e964736f6c63430008140033","linkReferences":{}},"methodIdentifiers":{"borrow(uint256)":"c5ebeaec","cToken()":"69e527da"},"id":1}