{"abi":[{"type":"constructor","inputs":[{"name":"_cToken","type":"address","internalType":"address"},{"name":"_router","type":"address","internalType":"address"}],"stateMutability":"nonpayable"},{"type":"function","name":"C_TOKEN","inputs":[],"outputs":[{"name":"","type":"address","internalType":"contract ICompound"}],"stateMutability":"view"},{"type":"function","name":"ROUTER","inputs":[],"outputs":[{"name":"","type":"address","internalType":"address"}],"stateMutability":"view"},{"type":"function","name":"borrow","inputs":[{"name":"amount","type":"uint256","internalType":"uint256"}],"outputs":[],"stateMutability":"nonpayable"},{"type":"function","name":"repay","inputs":[{"name":"amount","type":"uint256","internalType":"uint256"}],"outputs":[],"stateMutability":"nonpayable"},{"type":"error","name":"NotRouter","inputs":[]},{"type":"error","name":"SafeERC20FailedOperation","inputs":[{"name":"token","type":"address","internalType":"address"}]}],"bytecode":{"object":"0x60c03461009e57601f6105cd38819003918201601f19168301916001600160401b038311848410176100a257808492604094855283398101031261009e57610052602061004b836100b6565b92016100b6565b6001600160a01b0390911660805260a05260405161050290816100cb823960805181818160ae015281816101c90152610467015260a051818181606a0152818161019201526104200152f35b5f80fd5b634e487b7160e01b5f52604160045260245ffd5b51906001600160a01b038216820361009e5756fe6080604081815260049081361015610015575f80fd5b5f92833560e01c90816304948ea1146104535750806332fe7b261461040b578063371fd8e6146101725763c5ebeaec1461004d575f80fd5b3461016e576020908160031936011261016a576001600160a01b037f00000000000000000000000000000000000000000000000000000000000000008116330361015a57828591602484518094819363317afabb60e21b835289358a8401527f0000000000000000000000000000000000000000000000000000000000000000165af190811561015057859161011f575b506100e7578380f35b5162461bcd60e51b815291820152601460248201527310d3d35413d5539117d093d49493d5d7d190525360621b604482015260649150fd5b90508281813d8311610149575b6101368183610496565b8101031261014557515f6100de565b8480fd5b503d61012c565b82513d87823e3d90fd5b8151639165520160e01b81528490fd5b8380fd5b8280fd5b503461016e5760208060031936011261016a578235916001600160a01b037f0000000000000000000000000000000000000000000000000000000000000000811633036103fb578151636f307dc360e01b815286917f000000000000000000000000000000000000000000000000000000000000000081169185818981865afa9081156103f157908693929185916103b7575b50169584519063095ea7b360e01b808652838a526024988993838552868860448180865af160018951148116156103aa575b818a52156102e1575b5050508551948593849263073a938160e11b84528b8401525af19081156102d75786916102a6575b50610271578480f35b5162461bcd60e51b8152928301526013908201527210d3d35413d5539117d49154105657d1905253606a1b6044820152606490fd5b90508281813d83116102d0575b6102bd8183610496565b810103126102cc57515f610268565b8580fd5b503d6102b3565b82513d88823e3d90fd5b9295509250929450828a52848952898852868a60448180865af160018b511481161561038b575b8187521561037957508451918952838852828752858960448180855af160018a511481161561035a575b82865215610347578592818a95938993610240565b635274afe760e01b825281880152859150fd5b600181151661037057813b15153d151616610332565b823d8b823e3d90fd5b879189635274afe760e01b8352820152fd5b60018115166103a157823b15153d151616610308565b503d8a823e3d90fd5b823b15153d151616610237565b8481939592503d83116103ea575b6103cf8183610496565b8101031261016a575191808316830361016a5785925f610205565b503d6103c5565b85513d86823e3d90fd5b8151639165520160e01b81528590fd5b83823461044f578160031936011261044f57517f00000000000000000000000000000000000000000000000000000000000000006001600160a01b03168152602090f35b5080fd5b84903461044f578160031936011261044f577f00000000000000000000000000000000000000000000000000000000000000006001600160a01b03168152602090f35b90601f8019910116810190811067ffffffffffffffff8211176104b857604052565b634e487b7160e01b5f52604160045260245ffdfea264697066735822122053763f0f52f4b0ca24b3a9202a463d3d3b1daf7c2425d1a4bb708f7d3b3a36e864736f6c63430008140033","linkReferences":{}},"methodIdentifiers":{"C_TOKEN()":"04948ea1","ROUTER()":"32fe7b26","borrow(uint256)":"c5ebeaec","repay(uint256)":"371fd8e6"},"id":1}