{"abi":[{"type":"constructor","inputs":[{"name":"_cToken","type":"address","internalType":"address"},{"name":"_router","type":"address","internalType":"address"}],"stateMutability":"nonpayable"},{"type":"function","name":"C_TOKEN","inputs":[],"outputs":[{"name":"","type":"address","internalType":"contract ICompound"}],"stateMutability":"view"},{"type":"function","name":"ROUTER","inputs":[],"outputs":[{"name":"","type":"address","internalType":"address"}],"stateMutability":"view"},{"type":"function","name":"borrow","inputs":[{"name":"amount","type":"uint256","internalType":"uint256"}],"outputs":[],"stateMutability":"nonpayable"},{"type":"error","name":"NotRouter","inputs":[]}],"bytecode":{"object":"0x60c060405234801561000f575f80fd5b506040516105f03803806105f0833981810160405281019061003191906100fe565b8173ffffffffffffffffffffffffffffffffffffffff1660808173ffffffffffffffffffffffffffffffffffffffff16815250508073ffffffffffffffffffffffffffffffffffffffff1660a08173ffffffffffffffffffffffffffffffffffffffff1681525050505061013c565b5f80fd5b5f73ffffffffffffffffffffffffffffffffffffffff82169050919050565b5f6100cd826100a4565b9050919050565b6100dd816100c3565b81146100e7575f80fd5b50565b5f815190506100f8816100d4565b92915050565b5f8060408385031215610114576101136100a0565b5b5f610121858286016100ea565b9250506020610132858286016100ea565b9150509250929050565b60805160a0516104886101685f395f818160c1015260e501525f8181609d015261016b01526104885ff3fe608060405234801561000f575f80fd5b506004361061003f575f3560e01c806304948ea11461004357806332fe7b2614610061578063c5ebeaec1461007f575b5f80fd5b61004b61009b565b60405161005891906102bf565b60405180910390f35b6100696100bf565b60405161007691906102f8565b60405180910390f35b61009960048036038101906100949190610348565b6100e3565b005b7f000000000000000000000000000000000000000000000000000000000000000081565b7f000000000000000000000000000000000000000000000000000000000000000081565b7f000000000000000000000000000000000000000000000000000000000000000073ffffffffffffffffffffffffffffffffffffffff163373ffffffffffffffffffffffffffffffffffffffff1614610168576040517f9165520100000000000000000000000000000000000000000000000000000000815260040160405180910390fd5b5f7f000000000000000000000000000000000000000000000000000000000000000073ffffffffffffffffffffffffffffffffffffffff1663c5ebeaec836040518263ffffffff1660e01b81526004016101c29190610382565b6020604051808303815f875af11580156101de573d5f803e3d5ffd5b505050506040513d601f19601f8201168201806040525081019061020291906103af565b14610242576040517f08c379a000000000000000000000000000000000000000000000000000000000815260040161023990610434565b60405180910390fd5b50565b5f73ffffffffffffffffffffffffffffffffffffffff82169050919050565b5f819050919050565b5f61028761028261027d84610245565b610264565b610245565b9050919050565b5f6102988261026d565b9050919050565b5f6102a98261028e565b9050919050565b6102b98161029f565b82525050565b5f6020820190506102d25f8301846102b0565b92915050565b5f6102e282610245565b9050919050565b6102f2816102d8565b82525050565b5f60208201905061030b5f8301846102e9565b92915050565b5f80fd5b5f819050919050565b61032781610315565b8114610331575f80fd5b50565b5f813590506103428161031e565b92915050565b5f6020828403121561035d5761035c610311565b5b5f61036a84828501610334565b91505092915050565b61037c81610315565b82525050565b5f6020820190506103955f830184610373565b92915050565b5f815190506103a98161031e565b92915050565b5f602082840312156103c4576103c3610311565b5b5f6103d18482850161039b565b91505092915050565b5f82825260208201905092915050565b7f434f4d504f554e445f424f52524f575f4641494c0000000000000000000000005f82015250565b5f61041e6014836103da565b9150610429826103ea565b602082019050919050565b5f6020820190508181035f83015261044b81610412565b905091905056fea26469706673582212209ed7c3700e6ae8b9cbb43fd3be5758112fb8e546126390bf460cad7d971c64b364736f6c63430008140033","linkReferences":{}},"methodIdentifiers":{"C_TOKEN()":"04948ea1","ROUTER()":"32fe7b26","borrow(uint256)":"c5ebeaec"},"id":1}